{
  "_format": "hh-sol-artifact-1",
  "contractName": "UniOwnDaoFactory",
  "sourceName": "contracts/DAO/UniOwnDaoFactory.sol",
  "abi": [
    {
      "inputs": [
        {
          "internalType": "address",
          "name": "uniOwnMaster_",
          "type": "address"
        }
      ],
      "stateMutability": "nonpayable",
      "type": "constructor"
    },
    {
      "anonymous": false,
      "inputs": [
        {
          "indexed": false,
          "internalType": "address",
          "name": "dao",
          "type": "address"
        },
        {
          "indexed": false,
          "internalType": "string",
          "name": "name",
          "type": "string"
        },
        {
          "indexed": false,
          "internalType": "string",
          "name": "symbol",
          "type": "string"
        },
        {
          "indexed": false,
          "internalType": "bool",
          "name": "paused",
          "type": "bool"
        },
        {
          "indexed": false,
          "internalType": "address[]",
          "name": "voters",
          "type": "address[]"
        },
        {
          "indexed": false,
          "internalType": "uint256[]",
          "name": "shares",
          "type": "uint256[]"
        }
      ],
      "name": "DAOdeployed",
      "type": "event"
    },
    {
      "inputs": [
        {
          "internalType": "string",
          "name": "name_",
          "type": "string"
        },
        {
          "internalType": "string",
          "name": "symbol_",
          "type": "string"
        },
        {
          "internalType": "bool",
          "name": "paused_",
          "type": "bool"
        },
        {
          "internalType": "address[]",
          "name": "voters_",
          "type": "address[]"
        },
        {
          "internalType": "uint256[]",
          "name": "shares_",
          "type": "uint256[]"
        }
      ],
      "name": "deployUniOwnDAO",
      "outputs": [
        {
          "internalType": "address",
          "name": "",
          "type": "address"
        }
      ],
      "stateMutability": "nonpayable",
      "type": "function"
    },
    {
      "inputs": [],
      "name": "uniOwnMaster",
      "outputs": [
        {
          "internalType": "address",
          "name": "",
          "type": "address"
        }
      ],
      "stateMutability": "view",
      "type": "function"
    }
  ],
  "bytecode": "0x60a060405234801561001057600080fd5b506040516106b93803806106b983398101604081905261002f91610040565b6001600160a01b0316608052610070565b60006020828403121561005257600080fd5b81516001600160a01b038116811461006957600080fd5b9392505050565b60805161062961009060003960008181606f0152609901526106296000f3fe608060405234801561001057600080fd5b50600436106100365760003560e01c806372f769211461003b5780639b80c3c31461006a575b600080fd5b61004e61004936600461035b565b610091565b6040516001600160a01b03909116815260200160405180910390f35b61004e7f000000000000000000000000000000000000000000000000000000000000000081565b6000806100bd7f0000000000000000000000000000000000000000000000000000000000000000610194565b6040517f43f0bc380000000000000000000000000000000000000000000000000000000081529091506001600160a01b038216906343f0bc3890610111908c908c908c908c908c908c908c90600401610519565b600060405180830381600087803b15801561012b57600080fd5b505af115801561013f573d6000803e3d6000fd5b505050507fade8f1bb4759a7a41424ce821914e0179256b12142cfe4823719648dce2e89d2818a8a8a8a8a8a8a60405161018098979695949392919061057e565b60405180910390a198975050505050505050565b6000763d602d80600a3d3981f3363d3d373d3d3d363d730000008260601b60e81c176000526e5af43d82803e903d91602b57fd5bf38260781b17602052603760096000f090506001600160a01b03811661024e576040517f08c379a000000000000000000000000000000000000000000000000000000000815260206004820152601660248201527f455243313136373a20637265617465206661696c656400000000000000000000604482015260640160405180910390fd5b919050565b7f4e487b7100000000000000000000000000000000000000000000000000000000600052604160045260246000fd5b600082601f83011261029357600080fd5b813567ffffffffffffffff808211156102ae576102ae610253565b604051601f8301601f19908116603f011681019082821181831017156102d6576102d6610253565b816040528381528660208588010111156102ef57600080fd5b836020870160208301376000602085830101528094505050505092915050565b60008083601f84011261032157600080fd5b50813567ffffffffffffffff81111561033957600080fd5b6020830191508360208260051b850101111561035457600080fd5b9250929050565b600080600080600080600060a0888a03121561037657600080fd5b873567ffffffffffffffff8082111561038e57600080fd5b61039a8b838c01610282565b985060208a01359150808211156103b057600080fd5b6103bc8b838c01610282565b975060408a0135915081151582146103d357600080fd5b909550606089013590808211156103e957600080fd5b6103f58b838c0161030f565b909650945060808a013591508082111561040e57600080fd5b5061041b8a828b0161030f565b989b979a50959850939692959293505050565b6000815180845260005b8181101561045457602081850181015186830182015201610438565b81811115610466576000602083870101525b50601f01601f19169290920160200192915050565b818352600060208085019450826000805b868110156104be5782356001600160a01b0381168082146104ab578384fd5b895250968301969183019160010161048c565b50959695505050505050565b81835260007f07ffffffffffffffffffffffffffffffffffffffffffffffffffffffffffffff8311156104fc57600080fd5b8260051b8083602087013760009401602001938452509192915050565b60a08152600061052c60a083018a61042e565b828103602084015261053e818a61042e565b90508715156040840152828103606084015261055b81878961047b565b905082810360808401526105708185876104ca565b9a9950505050505050505050565b6001600160a01b038916815260c0602082015260006105a060c083018a61042e565b82810360408401526105b2818a61042e565b9050871515606084015282810360808401526105cf81878961047b565b905082810360a08401526105e48185876104ca565b9b9a505050505050505050505056fea2646970667358221220b4d7b2f5d25dccc298ed944fb4f577bf1b89c582f5ca7fad3b8bd9c2c4fa825b64736f6c634300080c0033",
  "linkReferences": {},
  "deployedLinkReferences": {}
}