{
  "_format": "hh-sol-artifact-1",
  "contractName": "UniOwnMarketplace",
  "sourceName": "contracts/Pool/UniOwnMarketplace.sol",
  "abi": [
    {
      "anonymous": false,
      "inputs": [
        {
          "indexed": false,
          "internalType": "uint256",
          "name": "id",
          "type": "uint256"
        },
        {
          "indexed": false,
          "internalType": "uint256",
          "name": "tokenId",
          "type": "uint256"
        },
        {
          "indexed": false,
          "internalType": "address",
          "name": "tokenAddress",
          "type": "address"
        },
        {
          "indexed": false,
          "internalType": "uint256",
          "name": "askingPrice",
          "type": "uint256"
        }
      ],
      "name": "ItemAdded",
      "type": "event"
    },
    {
      "anonymous": false,
      "inputs": [
        {
          "indexed": false,
          "internalType": "uint256",
          "name": "id",
          "type": "uint256"
        },
        {
          "indexed": false,
          "internalType": "address",
          "name": "buyer",
          "type": "address"
        },
        {
          "indexed": false,
          "internalType": "uint256",
          "name": "askingPrice",
          "type": "uint256"
        }
      ],
      "name": "ItemSold",
      "type": "event"
    },
    {
      "anonymous": false,
      "inputs": [
        {
          "indexed": true,
          "internalType": "address",
          "name": "previousOwner",
          "type": "address"
        },
        {
          "indexed": true,
          "internalType": "address",
          "name": "newOwner",
          "type": "address"
        }
      ],
      "name": "OwnershipTransferred",
      "type": "event"
    },
    {
      "inputs": [
        {
          "internalType": "address",
          "name": "",
          "type": "address"
        },
        {
          "internalType": "uint256",
          "name": "",
          "type": "uint256"
        }
      ],
      "name": "activeItems",
      "outputs": [
        {
          "internalType": "bool",
          "name": "",
          "type": "bool"
        }
      ],
      "stateMutability": "view",
      "type": "function"
    },
    {
      "inputs": [
        {
          "internalType": "uint256",
          "name": "tokenId",
          "type": "uint256"
        },
        {
          "internalType": "address",
          "name": "tokenAddress",
          "type": "address"
        },
        {
          "internalType": "uint256",
          "name": "askingPrice",
          "type": "uint256"
        }
      ],
      "name": "addItemToMarket",
      "outputs": [
        {
          "internalType": "uint256",
          "name": "",
          "type": "uint256"
        }
      ],
      "stateMutability": "nonpayable",
      "type": "function"
    },
    {
      "inputs": [
        {
          "internalType": "address",
          "name": "",
          "type": "address"
        },
        {
          "internalType": "uint256",
          "name": "",
          "type": "uint256"
        }
      ],
      "name": "auctionItemId",
      "outputs": [
        {
          "internalType": "uint256",
          "name": "",
          "type": "uint256"
        }
      ],
      "stateMutability": "view",
      "type": "function"
    },
    {
      "inputs": [
        {
          "internalType": "uint256",
          "name": "id",
          "type": "uint256"
        }
      ],
      "name": "buyItem",
      "outputs": [],
      "stateMutability": "payable",
      "type": "function"
    },
    {
      "inputs": [
        {
          "internalType": "uint256",
          "name": "",
          "type": "uint256"
        }
      ],
      "name": "itemsForSale",
      "outputs": [
        {
          "internalType": "uint256",
          "name": "id",
          "type": "uint256"
        },
        {
          "internalType": "address",
          "name": "tokenAddress",
          "type": "address"
        },
        {
          "internalType": "uint256",
          "name": "tokenId",
          "type": "uint256"
        },
        {
          "internalType": "uint256",
          "name": "askingPrice",
          "type": "uint256"
        },
        {
          "internalType": "bool",
          "name": "isSold",
          "type": "bool"
        }
      ],
      "stateMutability": "view",
      "type": "function"
    },
    {
      "inputs": [],
      "name": "owner",
      "outputs": [
        {
          "internalType": "address",
          "name": "",
          "type": "address"
        }
      ],
      "stateMutability": "view",
      "type": "function"
    },
    {
      "inputs": [
        {
          "internalType": "address",
          "name": "_collectionAddress",
          "type": "address"
        }
      ],
      "name": "printOwner",
      "outputs": [
        {
          "internalType": "address",
          "name": "",
          "type": "address"
        }
      ],
      "stateMutability": "view",
      "type": "function"
    },
    {
      "inputs": [],
      "name": "renounceOwnership",
      "outputs": [],
      "stateMutability": "nonpayable",
      "type": "function"
    },
    {
      "inputs": [
        {
          "internalType": "address",
          "name": "newOwner",
          "type": "address"
        }
      ],
      "name": "transferOwnership",
      "outputs": [],
      "stateMutability": "nonpayable",
      "type": "function"
    }
  ],
  "bytecode": "0x608060405234801561001057600080fd5b5061001a3361001f565b61006f565b600080546001600160a01b038381166001600160a01b0319831681178455604051919092169283917f8be0079c531659141344cd1fd0a4f28419497f9722a3daafe3b4186f6b6457e09190a35050565b6113228061007e6000396000f3fe6080604052600436106100965760003560e01c8063715018a611610069578063e7fb74c71161004e578063e7fb74c7146101c5578063eca4f6a3146101d8578063f2fde38b1461022357600080fd5b8063715018a6146101905780638da5cb5b146101a757600080fd5b8063092d0afc1461009b578063169d9771146100f25780634abc22021461012a578063688c43b514610158575b600080fd5b3480156100a757600080fd5b506100bb6100b63660046111a8565b610243565b604080519586526001600160a01b0390941660208601529284019190915260608301521515608082015260a0015b60405180910390f35b3480156100fe57600080fd5b5061011261010d3660046111d6565b610291565b6040516001600160a01b0390911681526020016100e9565b34801561013657600080fd5b5061014a6101453660046111fa565b6102fb565b6040519081526020016100e9565b34801561016457600080fd5b5061014a610173366004611232565b600360209081526000928352604080842090915290825290205481565b34801561019c57600080fd5b506101a561053c565b005b3480156101b357600080fd5b506000546001600160a01b0316610112565b6101a56101d33660046111a8565b610550565b3480156101e457600080fd5b506102136101f3366004611232565b600260209081526000928352604080842090915290825290205460ff1681565b60405190151581526020016100e9565b34801561022f57600080fd5b506101a561023e3660046111d6565b6109ec565b6001818154811061025357600080fd5b6000918252602090912060059091020180546001820154600283015460038401546004909401549294506001600160a01b0390911692909160ff1685565b6000816001600160a01b0316638da5cb5b6040518163ffffffff1660e01b8152600401602060405180830381865afa1580156102d1573d6000803e3d6000fd5b505050506040513d601f19601f820116820180604052508101906102f5919061125e565b92915050565b6040517f6352211e0000000000000000000000000000000000000000000000000000000081526004810184905260009083908590829033906001600160a01b03831690636352211e90602401602060405180830381865afa158015610364573d6000803e3d6000fd5b505050506040513d601f19601f82011682018060405250810190610388919061125e565b6001600160a01b0316146103e35760405162461bcd60e51b815260206004820152600d60248201527f4f6e6c794974656d4f776e65720000000000000000000000000000000000000060448201526064015b60405180910390fd5b60405163020604bf60e21b81526004810188905286908890829030906001600160a01b0383169063081812fc90602401602060405180830381865afa158015610430573d6000803e3d6000fd5b505050506040513d601f19601f82011682018060405250810190610454919061125e565b6001600160a01b0316146104aa5760405162461bcd60e51b815260206004820181905260248201527f4d61726b6574506c6163653a4e6f205472616e7366657220417070726f76616c60448201526064016103da565b6001600160a01b03891660009081526002602090815260408083208d845290915290205460ff161515600114156105235760405162461bcd60e51b815260206004820152601b60248201527f4974656d20697320616c726561647920757020666f722073616c65000000000060448201526064016103da565b61052e8a8a8a610a7c565b9a9950505050505050505050565b610544610c8b565b61054e6000610ce5565b565b60015481908111156105a45760405162461bcd60e51b815260206004820152601360248201527f436f756c64206e6f742066696e64204974656d0000000000000000000000000060448201526064016103da565b60016105b08184611291565b815481106105c0576105c06112a8565b6000918252602090912060016005909202018101546001600160a01b0316906105e98185611291565b815481106105f9576105f96112a8565b600091825260209091206005909102016002015460405163020604bf60e21b815260048101829052829030906001600160a01b0383169063081812fc90602401602060405180830381865afa158015610656573d6000803e3d6000fd5b505050506040513d601f19601f8201168201806040525081019061067a919061125e565b6001600160a01b0316146106d05760405162461bcd60e51b815260206004820181905260248201527f4d61726b6574506c6163653a4e6f205472616e7366657220417070726f76616c60448201526064016103da565b6002600060016106e08189611291565b815481106106f0576106f06112a8565b6000918252602080832060016005909302018201546001600160a01b0316845283019390935260409091018120916107288189611291565b81548110610738576107386112a8565b906000526020600020906005020160020154815260200190815260200160002060009054906101000a900460ff166107b25760405162461bcd60e51b815260206004820152601960248201527f4974656d206e6f74206c697374656420696e206d61726b65740000000000000060448201526064016103da565b60016107be8187611291565b815481106107ce576107ce6112a8565b600091825260209091206004600590920201015460ff16156108325760405162461bcd60e51b815260206004820152601160248201527f4974656d20616c726561647920736f6c6400000000000000000000000000000060448201526064016103da565b600060016108408188611291565b81548110610850576108506112a8565b60009182526020822060016005909202018101546001600160a01b031692508290636352211e90610881818b611291565b81548110610891576108916112a8565b9060005260206000209060050201600201546040518263ffffffff1660e01b81526004016108c191815260200190565b602060405180830381865afa1580156108de573d6000803e3d6000fd5b505050506040513d601f19601f82011682018060405250810190610902919061125e565b9050336001600160a01b038216141561095d5760405162461bcd60e51b815260206004820152601660248201527f53656c6c65722063616e6e6f7420627579206974656d0000000000000000000060448201526064016103da565b60016109698189611291565b81548110610979576109796112a8565b9060005260206000209060050201600301543410156109da5760405162461bcd60e51b815260206004820152601560248201527f4e6f7420656e6f7567682066756e64732073656e74000000000000000000000060448201526064016103da565b6109e387610d42565b50505050505050565b6109f4610c8b565b6001600160a01b038116610a705760405162461bcd60e51b815260206004820152602660248201527f4f776e61626c653a206e6577206f776e657220697320746865207a65726f206160448201527f646472657373000000000000000000000000000000000000000000000000000060648201526084016103da565b610a7981610ce5565b50565b600180546000918291610a8e916112be565b6040805160a0810182528281526001600160a01b0387811660208084018281528486018c8152606086018b815260006080880181815260018054808201825581845299517fb10e2d527612073b26eecdfd717e6a320cf44b4afac2b0732d9fcbe2b7fa0cf66005909b029a8b015594517fb10e2d527612073b26eecdfd717e6a320cf44b4afac2b0732d9fcbe2b7fa0cf78a01805473ffffffffffffffffffffffffffffffffffffffff1916919099161790975591517fb10e2d527612073b26eecdfd717e6a320cf44b4afac2b0732d9fcbe2b7fa0cf8880155517fb10e2d527612073b26eecdfd717e6a320cf44b4afac2b0732d9fcbe2b7fa0cf987015593517fb10e2d527612073b26eecdfd717e6a320cf44b4afac2b0732d9fcbe2b7fa0cfa909501805460ff19908116961515969096179055828452600282528584208c8552825285842080549095168117909455908252600381528382208a83529052919091208290559091508190610c058183611291565b81548110610c1557610c156112a8565b90600052602060002090600502016000015414610c3457610c346112d6565b60408051828152602081018790526001600160a01b038616818301526060810185905290517fd251be2f9ac8e7aebe1bdb7cef332833795022b0ba7e486da68ebe135f8ed3179181900360800190a1949350505050565b6000546001600160a01b0316331461054e5760405162461bcd60e51b815260206004820181905260248201527f4f776e61626c653a2063616c6c6572206973206e6f7420746865206f776e657260448201526064016103da565b600080546001600160a01b0383811673ffffffffffffffffffffffffffffffffffffffff19831681178455604051919092169283917f8be0079c531659141344cd1fd0a4f28419497f9722a3daafe3b4186f6b6457e09190a35050565b60006001610d508184611291565b81548110610d6057610d606112a8565b60009182526020822060016005909202018101546001600160a01b031692508290636352211e90610d918187611291565b81548110610da157610da16112a8565b9060005260206000209060050201600201546040518263ffffffff1660e01b8152600401610dd191815260200190565b602060405180830381865afa158015610dee573d6000803e3d6000fd5b505050506040513d601f19601f82011682018060405250810190610e12919061125e565b90506000816001600160a01b03163460405160006040518083038185875af1925050503d8060008114610e61576040519150601f19603f3d011682016040523d82523d6000602084013e610e66565b606091505b5050905080610eb75760405162461bcd60e51b815260206004820152601460248201527f4661696c656420746f2073656e6420457468657200000000000000000000000060448201526064016103da565b600180610ec48187611291565b81548110610ed457610ed46112a8565b60009182526020822060059190910201600401805460ff1916921515929092179091556002816001610f068189611291565b81548110610f1657610f166112a8565b6000918252602080832060016005909302018201546001600160a01b031684528301939093526040909101812091610f4e8189611291565b81548110610f5e57610f5e6112a8565b906000526020600020906005020160020154815260200190815260200160002060006101000a81548160ff02191690831515021790555060018085610fa39190611291565b81548110610fb357610fb36112a8565b6000918252602090912060016005909202018101546001600160a01b03908116916342842e0e91861690636352211e90610fed818a611291565b81548110610ffd57610ffd6112a8565b9060005260206000209060050201600201546040518263ffffffff1660e01b815260040161102d91815260200190565b602060405180830381865afa15801561104a573d6000803e3d6000fd5b505050506040513d601f19601f8201168201806040525081019061106e919061125e565b33600161107b818a611291565b8154811061108b5761108b6112a8565b60009182526020909120600260059092020101546040517fffffffff0000000000000000000000000000000000000000000000000000000060e086901b1681526001600160a01b0393841660048201529290911660248301526044820152606401600060405180830381600087803b15801561110657600080fd5b505af115801561111a573d6000803e3d6000fd5b505050507fa574c741071bb18f51fa88c17aeefec514bebf670ca22a3736fba6504ecbb76384336001808861114f9190611291565b8154811061115f5761115f6112a8565b90600052602060002090600502016003015460405161119a939291909283526001600160a01b03919091166020830152604082015260600190565b60405180910390a150505050565b6000602082840312156111ba57600080fd5b5035919050565b6001600160a01b0381168114610a7957600080fd5b6000602082840312156111e857600080fd5b81356111f3816111c1565b9392505050565b60008060006060848603121561120f57600080fd5b833592506020840135611221816111c1565b929592945050506040919091013590565b6000806040838503121561124557600080fd5b8235611250816111c1565b946020939093013593505050565b60006020828403121561127057600080fd5b81516111f3816111c1565b634e487b7160e01b600052601160045260246000fd5b6000828210156112a3576112a361127b565b500390565b634e487b7160e01b600052603260045260246000fd5b600082198211156112d1576112d161127b565b500190565b634e487b7160e01b600052600160045260246000fdfea2646970667358221220ff2d492d6d1690d8604e7a9baa2e88254eaeeea935a5414348b9ffd2ab3fc8e364736f6c634300080c0033",
  "linkReferences": {},
  "deployedLinkReferences": {}
}