{
  "_format": "hh-sol-artifact-1",
  "contractName": "UniOwnPoolFactory",
  "sourceName": "contracts/Pool/UniownPoolFactory.sol",
  "abi": [
    {
      "inputs": [
        {
          "internalType": "address",
          "name": "masterPool_",
          "type": "address"
        }
      ],
      "stateMutability": "nonpayable",
      "type": "constructor"
    },
    {
      "inputs": [
        {
          "internalType": "uint256",
          "name": "",
          "type": "uint256"
        }
      ],
      "name": "allPools",
      "outputs": [
        {
          "internalType": "address",
          "name": "",
          "type": "address"
        }
      ],
      "stateMutability": "view",
      "type": "function"
    },
    {
      "inputs": [
        {
          "internalType": "uint256",
          "name": "_maxAmount",
          "type": "uint256"
        },
        {
          "internalType": "address",
          "name": "_collection",
          "type": "address"
        },
        {
          "internalType": "uint256",
          "name": "_tokenId",
          "type": "uint256"
        },
        {
          "internalType": "uint256",
          "name": "_fundrasingTime",
          "type": "uint256"
        },
        {
          "internalType": "uint256",
          "name": "_minParticipation",
          "type": "uint256"
        },
        {
          "internalType": "uint256",
          "name": "_itemId",
          "type": "uint256"
        }
      ],
      "name": "deployPool",
      "outputs": [],
      "stateMutability": "nonpayable",
      "type": "function"
    },
    {
      "inputs": [
        {
          "internalType": "uint256",
          "name": "startIndex",
          "type": "uint256"
        },
        {
          "internalType": "uint256",
          "name": "endIndex",
          "type": "uint256"
        }
      ],
      "name": "getAllPools",
      "outputs": [
        {
          "internalType": "address[]",
          "name": "",
          "type": "address[]"
        }
      ],
      "stateMutability": "view",
      "type": "function"
    },
    {
      "inputs": [],
      "name": "getNumberOfPoolsDeployed",
      "outputs": [
        {
          "internalType": "uint256",
          "name": "",
          "type": "uint256"
        }
      ],
      "stateMutability": "view",
      "type": "function"
    },
    {
      "inputs": [],
      "name": "marketplace",
      "outputs": [
        {
          "internalType": "address",
          "name": "",
          "type": "address"
        }
      ],
      "stateMutability": "view",
      "type": "function"
    },
    {
      "inputs": [],
      "name": "masterPool",
      "outputs": [
        {
          "internalType": "address",
          "name": "",
          "type": "address"
        }
      ],
      "stateMutability": "view",
      "type": "function"
    }
  ],
  "bytecode": "0x60a0604052600180546001600160a01b03191673badea772bd5f1b8b0271560160dd0f62cbc051c917905534801561003657600080fd5b506040516106fe3803806106fe83398101604081905261005591610066565b6001600160a01b0316608052610096565b60006020828403121561007857600080fd5b81516001600160a01b038116811461008f57600080fd5b9392505050565b6080516106476100b76000396000818160ac01526102e101526106476000f3fe608060405234801561001057600080fd5b50600436106100725760003560e01c8063abc8c7af11610050578063abc8c7af146100ee578063aff5864814610101578063b0f683561461011257600080fd5b806341d1de97146100775780638c7ab1d7146100a7578063a7753f09146100ce575b600080fd5b61008a6100853660046104b9565b610127565b6040516001600160a01b0390911681526020015b60405180910390f35b61008a7f000000000000000000000000000000000000000000000000000000000000000081565b6100e16100dc3660046104d2565b610151565b60405161009e91906104f4565b60015461008a906001600160a01b031681565b60005460405190815260200161009e565b610125610120366004610541565b6102da565b005b6000818154811061013757600080fd5b6000918252602090912001546001600160a01b0316905081565b60608282116101a75760405162461bcd60e51b815260206004820152600960248201527f42616420696e707574000000000000000000000000000000000000000000000060448201526064015b60405180910390fd5b6000548211156101f95760405162461bcd60e51b815260206004820152601260248201527f616363657373206f7574206f6620726167650000000000000000000000000000604482015260640161019e565b600061020584846105b3565b67ffffffffffffffff81111561021d5761021d6105ca565b604051908082528060200260200182016040528015610246578160200160208202803683370190505b5090506000845b848110156102d05760008181548110610268576102686105e0565b9060005260206000200160009054906101000a90046001600160a01b0316838381518110610298576102986105e0565b6001600160a01b0390921660209283029190910190910152816102ba816105f6565b92505080806102c8906105f6565b91505061024d565b5090949350505050565b60006103057f0000000000000000000000000000000000000000000000000000000000000000610418565b6001546040517ffaf319f2000000000000000000000000000000000000000000000000000000008152600481018a90526001600160a01b03898116602483015260448201899052606482018890526084820187905260a4820186905291821660c482015291925082169063faf319f29060e401600060405180830381600087803b15801561039257600080fd5b505af11580156103a6573d6000803e3d6000fd5b5050600080546001810182559080527f290decd9548b62a8d60345a988386fc84ba6bc95484008f6362f93160ef3e5630180547fffffffffffffffffffffffff0000000000000000000000000000000000000000166001600160a01b0394909416939093179092555050505050505050565b6000763d602d80600a3d3981f3363d3d373d3d3d363d730000008260601b60e81c176000526e5af43d82803e903d91602b57fd5bf38260781b17602052603760096000f090506001600160a01b0381166104b45760405162461bcd60e51b815260206004820152601660248201527f455243313136373a20637265617465206661696c656400000000000000000000604482015260640161019e565b919050565b6000602082840312156104cb57600080fd5b5035919050565b600080604083850312156104e557600080fd5b50508035926020909101359150565b6020808252825182820181905260009190848201906040850190845b818110156105355783516001600160a01b031683529284019291840191600101610510565b50909695505050505050565b60008060008060008060c0878903121561055a57600080fd5b8635955060208701356001600160a01b038116811461057857600080fd5b95989597505050506040840135936060810135936080820135935060a0909101359150565b634e487b7160e01b600052601160045260246000fd5b6000828210156105c5576105c561059d565b500390565b634e487b7160e01b600052604160045260246000fd5b634e487b7160e01b600052603260045260246000fd5b600060001982141561060a5761060a61059d565b506001019056fea2646970667358221220ac62d02d55f377de06b3dc5dc452a943979ab7a043116122b15982d44fbae6e364736f6c634300080c0033",
  "linkReferences": {},
  "deployedLinkReferences": {}
}