{
  "_format": "hh-sol-artifact-1",
  "contractName": "UniOwnPassport",
  "sourceName": "contracts/NFT/UniOwnPassport.sol",
  "abi": [
    {
      "inputs": [],
      "stateMutability": "nonpayable",
      "type": "constructor"
    },
    {
      "anonymous": false,
      "inputs": [
        {
          "indexed": true,
          "internalType": "address",
          "name": "owner",
          "type": "address"
        },
        {
          "indexed": true,
          "internalType": "address",
          "name": "approved",
          "type": "address"
        },
        {
          "indexed": true,
          "internalType": "uint256",
          "name": "tokenId",
          "type": "uint256"
        }
      ],
      "name": "Approval",
      "type": "event"
    },
    {
      "anonymous": false,
      "inputs": [
        {
          "indexed": true,
          "internalType": "address",
          "name": "owner",
          "type": "address"
        },
        {
          "indexed": true,
          "internalType": "address",
          "name": "operator",
          "type": "address"
        },
        {
          "indexed": false,
          "internalType": "bool",
          "name": "approved",
          "type": "bool"
        }
      ],
      "name": "ApprovalForAll",
      "type": "event"
    },
    {
      "anonymous": false,
      "inputs": [
        {
          "indexed": true,
          "internalType": "address",
          "name": "previousOwner",
          "type": "address"
        },
        {
          "indexed": true,
          "internalType": "address",
          "name": "newOwner",
          "type": "address"
        }
      ],
      "name": "OwnershipTransferred",
      "type": "event"
    },
    {
      "anonymous": false,
      "inputs": [
        {
          "indexed": true,
          "internalType": "address",
          "name": "from",
          "type": "address"
        },
        {
          "indexed": true,
          "internalType": "address",
          "name": "to",
          "type": "address"
        },
        {
          "indexed": true,
          "internalType": "uint256",
          "name": "tokenId",
          "type": "uint256"
        }
      ],
      "name": "Transfer",
      "type": "event"
    },
    {
      "inputs": [
        {
          "internalType": "address",
          "name": "to",
          "type": "address"
        },
        {
          "internalType": "uint256",
          "name": "tokenId",
          "type": "uint256"
        }
      ],
      "name": "approve",
      "outputs": [],
      "stateMutability": "nonpayable",
      "type": "function"
    },
    {
      "inputs": [
        {
          "internalType": "address",
          "name": "owner",
          "type": "address"
        }
      ],
      "name": "balanceOf",
      "outputs": [
        {
          "internalType": "uint256",
          "name": "",
          "type": "uint256"
        }
      ],
      "stateMutability": "view",
      "type": "function"
    },
    {
      "inputs": [
        {
          "internalType": "uint256",
          "name": "tokenId",
          "type": "uint256"
        }
      ],
      "name": "getApproved",
      "outputs": [
        {
          "internalType": "address",
          "name": "",
          "type": "address"
        }
      ],
      "stateMutability": "view",
      "type": "function"
    },
    {
      "inputs": [],
      "name": "getCounter",
      "outputs": [
        {
          "internalType": "uint256",
          "name": "",
          "type": "uint256"
        }
      ],
      "stateMutability": "view",
      "type": "function"
    },
    {
      "inputs": [
        {
          "internalType": "address",
          "name": "owner",
          "type": "address"
        },
        {
          "internalType": "address",
          "name": "operator",
          "type": "address"
        }
      ],
      "name": "isApprovedForAll",
      "outputs": [
        {
          "internalType": "bool",
          "name": "",
          "type": "bool"
        }
      ],
      "stateMutability": "view",
      "type": "function"
    },
    {
      "inputs": [],
      "name": "name",
      "outputs": [
        {
          "internalType": "string",
          "name": "",
          "type": "string"
        }
      ],
      "stateMutability": "view",
      "type": "function"
    },
    {
      "inputs": [],
      "name": "owner",
      "outputs": [
        {
          "internalType": "address",
          "name": "",
          "type": "address"
        }
      ],
      "stateMutability": "view",
      "type": "function"
    },
    {
      "inputs": [
        {
          "internalType": "uint256",
          "name": "tokenId",
          "type": "uint256"
        }
      ],
      "name": "ownerOf",
      "outputs": [
        {
          "internalType": "address",
          "name": "",
          "type": "address"
        }
      ],
      "stateMutability": "view",
      "type": "function"
    },
    {
      "inputs": [],
      "name": "renounceOwnership",
      "outputs": [],
      "stateMutability": "nonpayable",
      "type": "function"
    },
    {
      "inputs": [
        {
          "internalType": "uint256",
          "name": "minttimes",
          "type": "uint256"
        }
      ],
      "name": "safeMint",
      "outputs": [],
      "stateMutability": "payable",
      "type": "function"
    },
    {
      "inputs": [
        {
          "internalType": "address",
          "name": "from",
          "type": "address"
        },
        {
          "internalType": "address",
          "name": "to",
          "type": "address"
        },
        {
          "internalType": "uint256",
          "name": "tokenId",
          "type": "uint256"
        }
      ],
      "name": "safeTransferFrom",
      "outputs": [],
      "stateMutability": "nonpayable",
      "type": "function"
    },
    {
      "inputs": [
        {
          "internalType": "address",
          "name": "from",
          "type": "address"
        },
        {
          "internalType": "address",
          "name": "to",
          "type": "address"
        },
        {
          "internalType": "uint256",
          "name": "tokenId",
          "type": "uint256"
        },
        {
          "internalType": "bytes",
          "name": "data",
          "type": "bytes"
        }
      ],
      "name": "safeTransferFrom",
      "outputs": [],
      "stateMutability": "nonpayable",
      "type": "function"
    },
    {
      "inputs": [
        {
          "internalType": "address",
          "name": "operator",
          "type": "address"
        },
        {
          "internalType": "bool",
          "name": "approved",
          "type": "bool"
        }
      ],
      "name": "setApprovalForAll",
      "outputs": [],
      "stateMutability": "nonpayable",
      "type": "function"
    },
    {
      "inputs": [
        {
          "internalType": "bytes4",
          "name": "interfaceId",
          "type": "bytes4"
        }
      ],
      "name": "supportsInterface",
      "outputs": [
        {
          "internalType": "bool",
          "name": "",
          "type": "bool"
        }
      ],
      "stateMutability": "view",
      "type": "function"
    },
    {
      "inputs": [],
      "name": "symbol",
      "outputs": [
        {
          "internalType": "string",
          "name": "",
          "type": "string"
        }
      ],
      "stateMutability": "view",
      "type": "function"
    },
    {
      "inputs": [
        {
          "internalType": "uint256",
          "name": "tokenId",
          "type": "uint256"
        }
      ],
      "name": "tokenURI",
      "outputs": [
        {
          "internalType": "string",
          "name": "",
          "type": "string"
        }
      ],
      "stateMutability": "view",
      "type": "function"
    },
    {
      "inputs": [],
      "name": "totalDividends",
      "outputs": [
        {
          "internalType": "uint256",
          "name": "",
          "type": "uint256"
        }
      ],
      "stateMutability": "view",
      "type": "function"
    },
    {
      "inputs": [],
      "name": "totalSpent",
      "outputs": [
        {
          "internalType": "uint256",
          "name": "",
          "type": "uint256"
        }
      ],
      "stateMutability": "view",
      "type": "function"
    },
    {
      "inputs": [
        {
          "internalType": "address",
          "name": "from",
          "type": "address"
        },
        {
          "internalType": "address",
          "name": "to",
          "type": "address"
        },
        {
          "internalType": "uint256",
          "name": "tokenId",
          "type": "uint256"
        }
      ],
      "name": "transferFrom",
      "outputs": [],
      "stateMutability": "nonpayable",
      "type": "function"
    },
    {
      "inputs": [
        {
          "internalType": "address",
          "name": "newOwner",
          "type": "address"
        }
      ],
      "name": "transferOwnership",
      "outputs": [],
      "stateMutability": "nonpayable",
      "type": "function"
    }
  ],
  "bytecode": "0x6080604052600560075560066009553480156200001b57600080fd5b50604080518082018252600f81526e155b9a53dddb8814185cdcdc1bdc9d608a1b602080830191825283518085019094526003845262554e4960e81b9084015281519192916200006e91600091620000fd565b50805162000084906001906020840190620000fd565b505050620000a16200009b620000a760201b60201c565b620000ab565b620001e0565b3390565b600680546001600160a01b038381166001600160a01b0319831681179093556040519116919082907f8be0079c531659141344cd1fd0a4f28419497f9722a3daafe3b4186f6b6457e090600090a35050565b8280546200010b90620001a3565b90600052602060002090601f0160209004810192826200012f57600085556200017a565b82601f106200014a57805160ff19168380011785556200017a565b828001600101855582156200017a579182015b828111156200017a5782518255916020019190600101906200015d565b50620001889291506200018c565b5090565b5b808211156200018857600081556001016200018d565b600181811c90821680620001b857607f821691505b60208210811415620001da57634e487b7160e01b600052602260045260246000fd5b50919050565b611c7080620001f06000396000f3fe60806040526004361061015f5760003560e01c80638ada066e116100c0578063b88d4fde11610074578063e985e9c511610059578063e985e9c514610389578063f2fde38b146103d2578063fb346eab146103f257600080fd5b8063b88d4fde14610349578063c87b56dd1461036957600080fd5b806395d89b41116100a557806395d89b41146102fe578063997664d714610313578063a22cb4651461032957600080fd5b80638ada066e146102cb5780638da5cb5b146102e057600080fd5b806331c864e8116101175780636352211e116100fc5780636352211e1461026857806370a0823114610288578063715018a6146102b657600080fd5b806331c864e81461023557806342842e0e1461024857600080fd5b8063081812fc11610148578063081812fc146101bb578063095ea7b3146101f357806323b872dd1461021557600080fd5b806301ffc9a71461016457806306fdde0314610199575b600080fd5b34801561017057600080fd5b5061018461017f366004611688565b610408565b60405190151581526020015b60405180910390f35b3480156101a557600080fd5b506101ae6104a5565b6040516101909190611704565b3480156101c757600080fd5b506101db6101d6366004611717565b610537565b6040516001600160a01b039091168152602001610190565b3480156101ff57600080fd5b5061021361020e36600461174c565b61055e565b005b34801561022157600080fd5b50610213610230366004611776565b610695565b610213610243366004611717565b61070c565b34801561025457600080fd5b50610213610263366004611776565b61074d565b34801561027457600080fd5b506101db610283366004611717565b610768565b34801561029457600080fd5b506102a86102a33660046117b2565b6107cd565b604051908152602001610190565b3480156102c257600080fd5b50610213610867565b3480156102d757600080fd5b506102a861087b565b3480156102ec57600080fd5b506006546001600160a01b03166101db565b34801561030a57600080fd5b506101ae61088b565b34801561031f57600080fd5b506102a860075481565b34801561033557600080fd5b506102136103443660046117cd565b61089a565b34801561035557600080fd5b5061021361036436600461181f565b6108a5565b34801561037557600080fd5b506101ae610384366004611717565b610923565b34801561039557600080fd5b506101846103a43660046118fb565b6001600160a01b03918216600090815260056020908152604080832093909416825291909152205460ff1690565b3480156103de57600080fd5b506102136103ed3660046117b2565b6109b9565b3480156103fe57600080fd5b506102a860095481565b60006001600160e01b031982167f80ac58cd00000000000000000000000000000000000000000000000000000000148061046b57506001600160e01b031982167f5b5e139f00000000000000000000000000000000000000000000000000000000145b8061049f57507f01ffc9a7000000000000000000000000000000000000000000000000000000006001600160e01b03198316145b92915050565b6060600080546104b49061192e565b80601f01602080910402602001604051908101604052809291908181526020018280546104e09061192e565b801561052d5780601f106105025761010080835404028352916020019161052d565b820191906000526020600020905b81548152906001019060200180831161051057829003601f168201915b5050505050905090565b600061054282610a49565b506000908152600460205260409020546001600160a01b031690565b600061056982610768565b9050806001600160a01b0316836001600160a01b031614156105f85760405162461bcd60e51b815260206004820152602160248201527f4552433732313a20617070726f76616c20746f2063757272656e74206f776e6560448201527f720000000000000000000000000000000000000000000000000000000000000060648201526084015b60405180910390fd5b336001600160a01b0382161480610614575061061481336103a4565b6106865760405162461bcd60e51b815260206004820152603d60248201527f4552433732313a20617070726f76652063616c6c6572206973206e6f7420746f60448201527f6b656e206f776e6572206f7220617070726f76656420666f7220616c6c00000060648201526084016105ef565b6106908383610aad565b505050565b61069f3382610b28565b6107015760405162461bcd60e51b815260206004820152602d60248201527f4552433732313a2063616c6c6572206973206e6f7420746f6b656e206f776e6560448201526c1c881bdc88185c1c1c9bdd9959609a1b60648201526084016105ef565b610690838383610ba7565b60005b818110156107495761072933610724600a5490565b610dad565b610737600a80546001019055565b806107418161197f565b91505061070f565b5050565b610690838383604051806020016040528060008152506108a5565b6000818152600260205260408120546001600160a01b03168061049f5760405162461bcd60e51b815260206004820152601860248201527f4552433732313a20696e76616c696420746f6b656e204944000000000000000060448201526064016105ef565b60006001600160a01b03821661084b5760405162461bcd60e51b815260206004820152602960248201527f4552433732313a2061646472657373207a65726f206973206e6f74206120766160448201527f6c6964206f776e6572000000000000000000000000000000000000000000000060648201526084016105ef565b506001600160a01b031660009081526003602052604090205490565b61086f610dc7565b6108796000610e21565b565b6000610886600a5490565b905090565b6060600180546104b49061192e565b610749338383610e80565b6108af3383610b28565b6109115760405162461bcd60e51b815260206004820152602d60248201527f4552433732313a2063616c6c6572206973206e6f7420746f6b656e206f776e6560448201526c1c881bdc88185c1c1c9bdd9959609a1b60648201526084016105ef565b61091d84848484610f4f565b50505050565b6000818152600260205260409020546060906001600160a01b03166109b05760405162461bcd60e51b815260206004820152602f60248201527f4552433732314d657461646174613a2055524920717565727920666f72206e6f60448201527f6e6578697374656e7420746f6b656e000000000000000000000000000000000060648201526084016105ef565b61049f82610fcd565b6109c1610dc7565b6001600160a01b038116610a3d5760405162461bcd60e51b815260206004820152602660248201527f4f776e61626c653a206e6577206f776e657220697320746865207a65726f206160448201527f646472657373000000000000000000000000000000000000000000000000000060648201526084016105ef565b610a4681610e21565b50565b6000818152600260205260409020546001600160a01b0316610a465760405162461bcd60e51b815260206004820152601860248201527f4552433732313a20696e76616c696420746f6b656e204944000000000000000060448201526064016105ef565b6000818152600460205260409020805473ffffffffffffffffffffffffffffffffffffffff19166001600160a01b0384169081179091558190610aef82610768565b6001600160a01b03167f8c5be1e5ebec7d5bd14f71427d1e84f3dd0314c0f7b2291e5b200ac8c7c3b92560405160405180910390a45050565b600080610b3483610768565b9050806001600160a01b0316846001600160a01b03161480610b7b57506001600160a01b0380821660009081526005602090815260408083209388168352929052205460ff165b80610b9f5750836001600160a01b0316610b9484610537565b6001600160a01b0316145b949350505050565b826001600160a01b0316610bba82610768565b6001600160a01b031614610c1e5760405162461bcd60e51b815260206004820152602560248201527f4552433732313a207472616e736665722066726f6d20696e636f72726563742060448201526437bbb732b960d91b60648201526084016105ef565b6001600160a01b038216610c995760405162461bcd60e51b8152602060048201526024808201527f4552433732313a207472616e7366657220746f20746865207a65726f2061646460448201527f726573730000000000000000000000000000000000000000000000000000000060648201526084016105ef565b826001600160a01b0316610cac82610768565b6001600160a01b031614610d105760405162461bcd60e51b815260206004820152602560248201527f4552433732313a207472616e736665722066726f6d20696e636f72726563742060448201526437bbb732b960d91b60648201526084016105ef565b6000818152600460209081526040808320805473ffffffffffffffffffffffffffffffffffffffff199081169091556001600160a01b0387811680865260038552838620805460001901905590871680865283862080546001019055868652600290945282852080549092168417909155905184937fddf252ad1be2c89b69c2b068fc378daa952ba7f163c4a11628f55a4df523b3ef91a4505050565b610749828260405180602001604052806000815250611033565b6006546001600160a01b031633146108795760405162461bcd60e51b815260206004820181905260248201527f4f776e61626c653a2063616c6c6572206973206e6f7420746865206f776e657260448201526064016105ef565b600680546001600160a01b0383811673ffffffffffffffffffffffffffffffffffffffff19831681179093556040519116919082907f8be0079c531659141344cd1fd0a4f28419497f9722a3daafe3b4186f6b6457e090600090a35050565b816001600160a01b0316836001600160a01b03161415610ee25760405162461bcd60e51b815260206004820152601960248201527f4552433732313a20617070726f766520746f2063616c6c65720000000000000060448201526064016105ef565b6001600160a01b03838116600081815260056020908152604080832094871680845294825291829020805460ff191686151590811790915591519182527f17307eab39ab6107e8899845ad3d59bd9653f200f220920489ca2b5937696c31910160405180910390a3505050565b610f5a848484610ba7565b610f66848484846110b1565b61091d5760405162461bcd60e51b815260206004820152603260248201527f4552433732313a207472616e7366657220746f206e6f6e20455243373231526560448201527131b2b4bb32b91034b6b83632b6b2b73a32b960711b60648201526084016105ef565b606061100d610fdd6007546111fa565b610fe86009546111fa565b604051602001610ff992919061199a565b6040516020818303038152906040526112a4565b60405160200161101d9190611b03565b6040516020818303038152906040529050919050565b61103d83836113f8565b61104a60008484846110b1565b6106905760405162461bcd60e51b815260206004820152603260248201527f4552433732313a207472616e7366657220746f206e6f6e20455243373231526560448201527131b2b4bb32b91034b6b83632b6b2b73a32b960711b60648201526084016105ef565b60006001600160a01b0384163b156111ef57604051630a85bd0160e11b81526001600160a01b0385169063150b7a02906110f5903390899088908890600401611b48565b6020604051808303816000875af1925050508015611130575060408051601f3d908101601f1916820190925261112d91810190611b84565b60015b6111d5573d80801561115e576040519150601f19603f3d011682016040523d82523d6000602084013e611163565b606091505b5080516111cd5760405162461bcd60e51b815260206004820152603260248201527f4552433732313a207472616e7366657220746f206e6f6e20455243373231526560448201527131b2b4bb32b91034b6b83632b6b2b73a32b960711b60648201526084016105ef565b805181602001fd5b6001600160e01b031916630a85bd0160e11b149050610b9f565b506001949350505050565b6060600061120783611590565b600101905060008167ffffffffffffffff81111561122757611227611809565b6040519080825280601f01601f191660200182016040528015611251576020820181803683370190505b5090508181016020015b600019017f3031323334353637383961626364656600000000000000000000000000000000600a86061a8153600a85049450846112975761129c565b61125b565b509392505050565b60608151600014156112c457505060408051602081019091526000815290565b6000604051806060016040528060408152602001611bfb60409139905060006003845160026112f39190611ba1565b6112fd9190611bb9565b611308906004611bdb565b67ffffffffffffffff81111561132057611320611809565b6040519080825280601f01601f19166020018201604052801561134a576020820181803683370190505b509050600182016020820185865187015b808210156113b6576003820191508151603f8160121c168501518453600184019350603f81600c1c168501518453600184019350603f8160061c168501518453600184019350603f811685015184535060018301925061135b565b50506003865106600181146113d257600281146113e5576113ed565b603d6001830353603d60028303536113ed565b603d60018303535b509195945050505050565b6001600160a01b03821661144e5760405162461bcd60e51b815260206004820181905260248201527f4552433732313a206d696e7420746f20746865207a65726f206164647265737360448201526064016105ef565b6000818152600260205260409020546001600160a01b0316156114b35760405162461bcd60e51b815260206004820152601c60248201527f4552433732313a20746f6b656e20616c7265616479206d696e7465640000000060448201526064016105ef565b6000818152600260205260409020546001600160a01b0316156115185760405162461bcd60e51b815260206004820152601c60248201527f4552433732313a20746f6b656e20616c7265616479206d696e7465640000000060448201526064016105ef565b6001600160a01b0382166000818152600360209081526040808320805460010190558483526002909152808220805473ffffffffffffffffffffffffffffffffffffffff19168417905551839291907fddf252ad1be2c89b69c2b068fc378daa952ba7f163c4a11628f55a4df523b3ef908290a45050565b6000807a184f03e93ff9f4daa797ed6e38ed64bf6a1f01000000000000000083106115d9577a184f03e93ff9f4daa797ed6e38ed64bf6a1f010000000000000000830492506040015b6d04ee2d6d415b85acef81000000008310611605576d04ee2d6d415b85acef8100000000830492506020015b662386f26fc10000831061162357662386f26fc10000830492506010015b6305f5e100831061163b576305f5e100830492506008015b612710831061164f57612710830492506004015b60648310611661576064830492506002015b600a831061049f5760010192915050565b6001600160e01b031981168114610a4657600080fd5b60006020828403121561169a57600080fd5b81356116a581611672565b9392505050565b60005b838110156116c75781810151838201526020016116af565b8381111561091d5750506000910152565b600081518084526116f08160208601602086016116ac565b601f01601f19169290920160200192915050565b6020815260006116a560208301846116d8565b60006020828403121561172957600080fd5b5035919050565b80356001600160a01b038116811461174757600080fd5b919050565b6000806040838503121561175f57600080fd5b61176883611730565b946020939093013593505050565b60008060006060848603121561178b57600080fd5b61179484611730565b92506117a260208501611730565b9150604084013590509250925092565b6000602082840312156117c457600080fd5b6116a582611730565b600080604083850312156117e057600080fd5b6117e983611730565b9150602083013580151581146117fe57600080fd5b809150509250929050565b634e487b7160e01b600052604160045260246000fd5b6000806000806080858703121561183557600080fd5b61183e85611730565b935061184c60208601611730565b925060408501359150606085013567ffffffffffffffff8082111561187057600080fd5b818701915087601f83011261188457600080fd5b81358181111561189657611896611809565b604051601f8201601f19908116603f011681019083821181831017156118be576118be611809565b816040528281528a60208487010111156118d757600080fd5b82602086016020830137600060208483010152809550505050505092959194509250565b6000806040838503121561190e57600080fd5b61191783611730565b915061192560208401611730565b90509250929050565b600181811c9082168061194257607f821691505b6020821081141561196357634e487b7160e01b600052602260045260246000fd5b50919050565b634e487b7160e01b600052601160045260246000fd5b600060001982141561199357611993611969565b5060010190565b7f7b226e616d65223a22556e694f776e2050617373706f7274222c20226465736381527f72697074696f6e223a22596f7572207669727475616c206964656e746974792260208201527f2c22696d616765223a202268747470733a2f2f676174657761792e70696e617460408201527f612e636c6f75642f697066732f516d65414b445876517947556476775253766160608201527f7a43796a344359654e36717263705172344c6d6766374363325543222c20226160808201527f737365744e616d65223a2022000000000000000000000000000000000000000060a082015260008351611a908160ac8501602088016116ac565b7f222c2022746f74616c5370656e74223a2022000000000000000000000000000060ac918401918201528351611acd8160be8401602088016116ac565b7f227d00000000000000000000000000000000000000000000000000000000000060be929091019182015260c001949350505050565b7f646174613a6170706c69636174696f6e2f6a736f6e3b6261736536342c000000815260008251611b3b81601d8501602087016116ac565b91909101601d0192915050565b60006001600160a01b03808716835280861660208401525083604083015260806060830152611b7a60808301846116d8565b9695505050505050565b600060208284031215611b9657600080fd5b81516116a581611672565b60008219821115611bb457611bb4611969565b500190565b600082611bd657634e487b7160e01b600052601260045260246000fd5b500490565b6000816000190483118215151615611bf557611bf5611969565b50029056fe4142434445464748494a4b4c4d4e4f505152535455565758595a6162636465666768696a6b6c6d6e6f707172737475767778797a303132333435363738392b2fa2646970667358221220b50fb4c3a000e9526e80de3c4237e100f7c807e809f033671b2bd39bfe7bec0564736f6c634300080c0033",
  "linkReferences": {},
  "deployedLinkReferences": {}
}