{"contracts/Marketplace.sol":{"UniOwnMarketplace":{"abi":[{"anonymous":false,"inputs":[{"indexed":false,"internalType":"uint256","name":"tokenID","type":"uint256"},{"indexed":false,"internalType":"address","name":"bidder","type":"address"},{"indexed":false,"internalType":"uint256","name":"bidPrice","type":"uint256"},{"indexed":false,"internalType":"address","name":"collectionAddress","type":"address"}],"name":"BidPlaced","type":"event"},{"anonymous":false,"inputs":[{"indexed":false,"internalType":"uint256","name":"id","type":"uint256"},{"indexed":false,"internalType":"uint256","name":"tokenId","type":"uint256"},{"indexed":false,"internalType":"address","name":"tokenAddress","type":"address"},{"indexed":false,"internalType":"uint256","name":"askingPrice","type":"uint256"},{"indexed":false,"internalType":"bool","name":"bidItem","type":"bool"}],"name":"ItemAdded","type":"event"},{"anonymous":false,"inputs":[{"indexed":false,"internalType":"uint256","name":"id","type":"uint256"},{"indexed":false,"internalType":"address","name":"buyer","type":"address"},{"indexed":false,"internalType":"uint256","name":"askingPrice","type":"uint256"}],"name":"ItemSold","type":"event"},{"anonymous":false,"inputs":[{"indexed":false,"internalType":"address","name":"erc20","type":"address"}],"name":"LogAddERC20tokens","type":"event"},{"anonymous":false,"inputs":[{"indexed":false,"internalType":"address","name":"newFeeAddress","type":"address"}],"name":"LogChangeFeeAddress","type":"event"},{"anonymous":false,"inputs":[{"indexed":false,"internalType":"uint256","name":"newFee","type":"uint256"}],"name":"LogChangeServiceFee","type":"event"},{"anonymous":false,"inputs":[{"indexed":false,"internalType":"uint256","name":"tokenID","type":"uint256"},{"indexed":false,"internalType":"address","name":"collectionAddress","type":"address"}],"name":"LogEndAuction","type":"event"},{"anonymous":false,"inputs":[{"indexed":false,"internalType":"uint256","name":"tokenID","type":"uint256"},{"indexed":false,"internalType":"address","name":"highestBidder","type":"address"},{"indexed":false,"internalType":"uint256","name":"bidPrice","type":"uint256"},{"indexed":false,"internalType":"address","name":"collectionAddress","type":"address"}],"name":"LogEndAuctionERC","type":"event"},{"anonymous":false,"inputs":[{"indexed":false,"internalType":"uint256","name":"tokenID","type":"uint256"},{"indexed":false,"internalType":"address","name":"highestBidder","type":"address"},{"indexed":false,"internalType":"uint256","name":"bidPrice","type":"uint256"},{"indexed":false,"internalType":"address","name":"collectionAddress","type":"address"}],"name":"LogEndAuctionSimple","type":"event"},{"anonymous":false,"inputs":[{"indexed":false,"internalType":"uint256","name":"tokenID","type":"uint256"},{"indexed":false,"internalType":"address","name":"bidder","type":"address"},{"indexed":false,"internalType":"uint256","name":"bidPrice","type":"uint256"},{"indexed":false,"internalType":"address","name":"collectionAddress","type":"address"}],"name":"LogPlaceBidERC","type":"event"},{"anonymous":false,"inputs":[{"indexed":false,"internalType":"address","name":"erc20","type":"address"}],"name":"LogRemoveERC20tokens","type":"event"},{"anonymous":false,"inputs":[{"indexed":false,"internalType":"address","name":"collection","type":"address"}],"name":"LogRemovePartner","type":"event"},{"anonymous":false,"inputs":[{"indexed":false,"internalType":"address","name":"collection","type":"address"},{"indexed":false,"internalType":"address","name":"erc20Token","type":"address"}],"name":"LogSetPartnerAndNativeToken","type":"event"},{"anonymous":false,"inputs":[{"indexed":false,"internalType":"uint256","name":"tokenId","type":"uint256"},{"indexed":false,"internalType":"address","name":"bidder","type":"address"},{"indexed":false,"internalType":"uint256","name":"bidPrice","type":"uint256"}],"name":"LogWithdrawPrevBid","type":"event"},{"anonymous":false,"inputs":[{"indexed":true,"internalType":"address","name":"previousOwner","type":"address"},{"indexed":true,"internalType":"address","name":"newOwner","type":"address"}],"name":"OwnershipTransferred","type":"event"},{"inputs":[{"internalType":"address","name":"","type":"address"},{"internalType":"uint256","name":"","type":"uint256"}],"name":"activeItems","outputs":[{"internalType":"bool","name":"","type":"bool"}],"stateMutability":"view","type":"function"},{"inputs":[{"internalType":"uint256","name":"tokenId","type":"uint256"},{"internalType":"address","name":"tokenAddress","type":"address"},{"internalType":"uint256","name":"askingPrice","type":"uint256"},{"internalType":"bool","name":"bidItem","type":"bool"}],"name":"addItemToMarket","outputs":[{"internalType":"uint256","name":"","type":"uint256"}],"stateMutability":"nonpayable","type":"function"},{"inputs":[{"internalType":"address","name":"","type":"address"},{"internalType":"uint256","name":"","type":"uint256"}],"name":"auctionItemId","outputs":[{"internalType":"uint256","name":"","type":"uint256"}],"stateMutability":"view","type":"function"},{"inputs":[{"internalType":"uint256","name":"id","type":"uint256"}],"name":"buyItem","outputs":[],"stateMutability":"payable","type":"function"},{"inputs":[{"internalType":"address","name":"","type":"address"}],"name":"isPartner","outputs":[{"internalType":"bool","name":"","type":"bool"}],"stateMutability":"view","type":"function"},{"inputs":[{"internalType":"uint256","name":"","type":"uint256"}],"name":"itemsForSale","outputs":[{"internalType":"uint256","name":"id","type":"uint256"},{"internalType":"address","name":"tokenAddress","type":"address"},{"internalType":"uint256","name":"tokenId","type":"uint256"},{"internalType":"uint256","name":"askingPrice","type":"uint256"},{"internalType":"bool","name":"isSold","type":"bool"},{"internalType":"bool","name":"bidItem","type":"bool"},{"internalType":"uint256","name":"bidPrice","type":"uint256"},{"internalType":"address","name":"bidderAddress","type":"address"},{"internalType":"address","name":"ERC20","type":"address"}],"stateMutability":"view","type":"function"},{"inputs":[],"name":"owner","outputs":[{"internalType":"address","name":"","type":"address"}],"stateMutability":"view","type":"function"},{"inputs":[{"internalType":"address","name":"","type":"address"}],"name":"partnerNativeToken","outputs":[{"internalType":"address","name":"","type":"address"}],"stateMutability":"view","type":"function"},{"inputs":[{"internalType":"address","name":"","type":"address"},{"internalType":"address","name":"","type":"address"},{"internalType":"uint256","name":"","type":"uint256"}],"name":"pendingReturns","outputs":[{"internalType":"uint256","name":"","type":"uint256"}],"stateMutability":"view","type":"function"},{"inputs":[{"internalType":"address","name":"_collectionAddress","type":"address"}],"name":"printOwner","outputs":[{"internalType":"address","name":"","type":"address"}],"stateMutability":"view","type":"function"},{"inputs":[{"internalType":"address","name":"erc20","type":"address"}],"name":"removeERC20tokens","outputs":[],"stateMutability":"nonpayable","type":"function"},{"inputs":[{"internalType":"uint256","name":"id","type":"uint256"}],"name":"removeItem","outputs":[],"stateMutability":"nonpayable","type":"function"},{"inputs":[],"name":"renounceOwnership","outputs":[],"stateMutability":"nonpayable","type":"function"},{"inputs":[{"internalType":"address","name":"newOwner","type":"address"}],"name":"transferOwnership","outputs":[],"stateMutability":"nonpayable","type":"function"},{"inputs":[{"internalType":"address","name":"","type":"address"}],"name":"validERC","outputs":[{"internalType":"bool","name":"","type":"bool"}],"stateMutability":"view","type":"function"}],"evm":{"bytecode":{"linkReferences":{},"object":"608060405234801561001057600080fd5b5061001a3361001f565b61006f565b600080546001600160a01b038381166001600160a01b0319831681178455604051919092169283917f8be0079c531659141344cd1fd0a4f28419497f9722a3daafe3b4186f6b6457e09190a35050565b611edc8061007e6000396000f3fe6080604052600436106100e85760003560e01c80637f75d53a1161008a578063e7fb74c711610059578063e7fb74c714610329578063eca4f6a31461033c578063f2fde38b14610377578063f9abc3911461039757600080fd5b80637f75d53a146102755780638c0f9aac146102ab5780638da5cb5b146102eb578063dfcbeae51461030957600080fd5b8063625f3499116100c6578063625f3499146101c8578063688c43b514610206578063713291711461023e578063715018a61461026057600080fd5b8063092d0afc146100ed578063169d977114610162578063170f872f1461019a575b600080fd5b3480156100f957600080fd5b5061010d610108366004611d0a565b6103c7565b60408051998a526001600160a01b0398891660208b015289019690965260608801949094529115156080870152151560a086015260c0850152821660e084015216610100820152610120015b60405180910390f35b34801561016e57600080fd5b5061018261017d366004611d38565b610437565b6040516001600160a01b039091168152602001610159565b3480156101a657600080fd5b506101ba6101b5366004611d5c565b6104a1565b604051908152602001610159565b3480156101d457600080fd5b506101ba6101e3366004611dab565b600560209081526000938452604080852082529284528284209052825290205481565b34801561021257600080fd5b506101ba610221366004611dec565b600460209081526000928352604080842090915290825290205481565b34801561024a57600080fd5b5061025e610259366004611d0a565b6106e4565b005b34801561026c57600080fd5b5061025e610c0c565b34801561028157600080fd5b50610182610290366004611d38565b6007602052600090815260409020546001600160a01b031681565b3480156102b757600080fd5b506102db6102c6366004611d38565b60066020526000908152604090205460ff1681565b6040519015158152602001610159565b3480156102f757600080fd5b506000546001600160a01b0316610182565b34801561031557600080fd5b5061025e610324366004611d38565b610c20565b61025e610337366004611d0a565b610cfb565b34801561034857600080fd5b506102db610357366004611dec565b600260209081526000928352604080842090915290825290205460ff1681565b34801561038357600080fd5b5061025e610392366004611d38565b61121c565b3480156103a357600080fd5b506102db6103b2366004611d38565b60036020526000908152604090205460ff1681565b600181815481106103d757600080fd5b6000918252602090912060089091020180546001820154600283015460038401546004850154600586015460068701546007909701549597506001600160a01b03948516969395929460ff80841695610100909404169391928116911689565b6000816001600160a01b0316638da5cb5b6040518163ffffffff1660e01b8152600401602060405180830381865afa158015610477573d6000803e3d6000fd5b505050506040513d601f19601f8201168201806040525081019061049b9190611e18565b92915050565b6040517f6352211e0000000000000000000000000000000000000000000000000000000081526004810185905260009084908690829033906001600160a01b03831690636352211e90602401602060405180830381865afa15801561050a573d6000803e3d6000fd5b505050506040513d601f19601f8201168201806040525081019061052e9190611e18565b6001600160a01b0316146105895760405162461bcd60e51b815260206004820152600d60248201527f4f6e6c794974656d4f776e65720000000000000000000000000000000000000060448201526064015b60405180910390fd5b60405163020604bf60e21b81526004810189905287908990829030906001600160a01b0383169063081812fc90602401602060405180830381865afa1580156105d6573d6000803e3d6000fd5b505050506040513d601f19601f820116820180604052508101906105fa9190611e18565b6001600160a01b0316146106505760405162461bcd60e51b815260206004820181905260248201527f4d61726b6574506c6163653a4e6f205472616e7366657220417070726f76616c6044820152606401610580565b6001600160a01b038a1660009081526002602090815260408083208e845290915290205460ff161515600114156106c95760405162461bcd60e51b815260206004820152601b60248201527f4974656d20697320616c726561647920757020666f722073616c6500000000006044820152606401610580565b6106d58b8b8b8b6112ac565b9b9a5050505050505050505050565b600060016106f28184611e4b565b8154811061070257610702611e62565b6000918252602080832060016008909302018201546001600160a01b0316808452600290915260408320909350919061073b8186611e4b565b8154811061074b5761074b611e62565b906000526020600020906008020160020154815260200190815260200160002060009054906101000a900460ff166107c55760405162461bcd60e51b815260206004820152601c60248201527f416c7265616479206e6f74206c697374656420696e206d61726b6574000000006044820152606401610580565b336001600160a01b038216636352211e60016107e18187611e4b565b815481106107f1576107f1611e62565b9060005260206000209060080201600201546040518263ffffffff1660e01b815260040161082191815260200190565b602060405180830381865afa15801561083e573d6000803e3d6000fd5b505050506040513d601f19601f820116820180604052508101906108629190611e18565b6001600160a01b0316146108b85760405162461bcd60e51b815260206004820152601a60248201527f4f6e6c79204974656d206f776e65722043616e2052656d6f76650000000000006044820152606401610580565b6001600160a01b03811660009081526002602052604081208160016108dd8187611e4b565b815481106108ed576108ed611e62565b906000526020600020906008020160020154815260200190815260200160002060006101000a81548160ff021916908315150217905550600180836109329190611e4b565b8154811061094257610942611e62565b600091825260209091206004600890920201015460ff161580156109a05750600161096d8184611e4b565b8154811061097d5761097d611e62565b600091825260209091206004600890920201015460ff6101009091041615156001145b15610b835760016109b18184611e4b565b815481106109c1576109c1611e62565b90600052602060002090600802016005015460056000600180866109e59190611e4b565b815481106109f5576109f5611e62565b60009182526020808320600660089093020191909101546001600160a01b031683528201929092526040018120906001610a2f8187611e4b565b81548110610a3f57610a3f611e62565b60009182526020808320600760089093020191909101546001600160a01b031683528201929092526040018120906001610a798187611e4b565b81548110610a8957610a89611e62565b906000526020600020906008020160000154815260200190815260200160002081905550600060018084610abd9190611e4b565b81548110610acd57610acd611e62565b60009182526020822060046008909202010180549215156101000261ff0019909316929092179091556001610b028185611e4b565b81548110610b1257610b12611e62565b60009182526020822060089190910201600601805473ffffffffffffffffffffffffffffffffffffffff19166001600160a01b0393909316929092179091556001610b5d8185611e4b565b81548110610b6d57610b6d611e62565b9060005260206000209060080201600501819055505b60006001610b918185611e4b565b81548110610ba157610ba1611e62565b600091825260208220600360089092020101919091556001610bc38185611e4b565b81548110610bd357610bd3611e62565b906000526020600020906008020160070160006101000a8154816001600160a01b0302191690836001600160a01b031602179055505050565b610c146117ed565b610c1e6000611847565b565b610c286117ed565b6001600160a01b03811615801590610c5857506001600160a01b03811660009081526003602052604090205460ff165b610ca45760405162461bcd60e51b815260206004820152601160248201527f4e6f7420612076616c69642045524332300000000000000000000000000000006044820152606401610580565b6001600160a01b038116600081815260036020908152604091829020805460ff1916905590519182527f6085c4fe186f97d42715bb2b4b806d6246ee70b44d4e049e7059b6201de5809d910160405180910390a150565b6001548190811115610d4f5760405162461bcd60e51b815260206004820152601360248201527f436f756c64206e6f742066696e64204974656d000000000000000000000000006044820152606401610580565b6001610d5b8184611e4b565b81548110610d6b57610d6b611e62565b6000918252602090912060016008909202018101546001600160a01b031690610d948185611e4b565b81548110610da457610da4611e62565b600091825260209091206008909102016002015460405163020604bf60e21b815260048101829052829030906001600160a01b0383169063081812fc90602401602060405180830381865afa158015610e01573d6000803e3d6000fd5b505050506040513d601f19601f82011682018060405250810190610e259190611e18565b6001600160a01b031614610e7b5760405162461bcd60e51b815260206004820181905260248201527f4d61726b6574506c6163653a4e6f205472616e7366657220417070726f76616c6044820152606401610580565b600260006001610e8b8189611e4b565b81548110610e9b57610e9b611e62565b6000918252602080832060016008909302018201546001600160a01b031684528301939093526040909101812091610ed38189611e4b565b81548110610ee357610ee3611e62565b906000526020600020906008020160020154815260200190815260200160002060009054906101000a900460ff16610f5d5760405162461bcd60e51b815260206004820152601960248201527f4974656d206e6f74206c697374656420696e206d61726b6574000000000000006044820152606401610580565b6001610f698187611e4b565b81548110610f7957610f79611e62565b600091825260209091206004600890920201015460ff1615610fdd5760405162461bcd60e51b815260206004820152601160248201527f4974656d20616c726561647920736f6c640000000000000000000000000000006044820152606401610580565b6001610fe98187611e4b565b81548110610ff957610ff9611e62565b6000918252602090912060089091020160040154610100900460ff16156110625760405162461bcd60e51b815260206004820152601860248201527f4974656d206e6f7420666f7220696e7374616e742062757900000000000000006044820152606401610580565b600060016110708188611e4b565b8154811061108057611080611e62565b60009182526020822060016008909202018101546001600160a01b031692508290636352211e906110b1818b611e4b565b815481106110c1576110c1611e62565b9060005260206000209060080201600201546040518263ffffffff1660e01b81526004016110f191815260200190565b602060405180830381865afa15801561110e573d6000803e3d6000fd5b505050506040513d601f19601f820116820180604052508101906111329190611e18565b9050336001600160a01b038216141561118d5760405162461bcd60e51b815260206004820152601660248201527f53656c6c65722063616e6e6f7420627579206974656d000000000000000000006044820152606401610580565b60016111998189611e4b565b815481106111a9576111a9611e62565b90600052602060002090600802016003015434101561120a5760405162461bcd60e51b815260206004820152601560248201527f4e6f7420656e6f7567682066756e64732073656e7400000000000000000000006044820152606401610580565b611213876118a4565b50505050505050565b6112246117ed565b6001600160a01b0381166112a05760405162461bcd60e51b815260206004820152602660248201527f4f776e61626c653a206e6577206f776e657220697320746865207a65726f206160448201527f64647265737300000000000000000000000000000000000000000000000000006064820152608401610580565b6112a981611847565b50565b6001600160a01b03831660009081526004602090815260408083208784529091528120546115b057600180546000916112e59190611e78565b60408051610120810182528281526001600160a01b0380891660208084018281528486018d8152606086018c81526000608088018181528d151560a08a0190815260c08a0183815260e08b01848152610100808d018681526001805480820182558189529e516008909f027fb10e2d527612073b26eecdfd717e6a320cf44b4afac2b0732d9fcbe2b7fa0cf681019f909f5599517fb10e2d527612073b26eecdfd717e6a320cf44b4afac2b0732d9fcbe2b7fa0cf78f018054918f1673ffffffffffffffffffffffffffffffffffffffff1992831617905598517fb10e2d527612073b26eecdfd717e6a320cf44b4afac2b0732d9fcbe2b7fa0cf88f015596517fb10e2d527612073b26eecdfd717e6a320cf44b4afac2b0732d9fcbe2b7fa0cf98e015593517fb10e2d527612073b26eecdfd717e6a320cf44b4afac2b0732d9fcbe2b7fa0cfa8d0180549451151590950261ff00199115159190911661ffff19909416939093179290921790925590517fb10e2d527612073b26eecdfd717e6a320cf44b4afac2b0732d9fcbe2b7fa0cfb8a0155517fb10e2d527612073b26eecdfd717e6a320cf44b4afac2b0732d9fcbe2b7fa0cfc8901805491891691851691909117905590517fb10e2d527612073b26eecdfd717e6a320cf44b4afac2b0732d9fcbe2b7fa0cfd9097018054979096169690911695909517909355818452600281528484208c85528152848420805460ff191684179055908352600481528383208b8452905291902082905590915081906115238183611e4b565b8154811061153357611533611e62565b9060005260206000209060080201600001541461155257611552611e90565b60408051828152602081018890526001600160a01b0387168183015260608101869052841515608082015290517fe4a54a91e473f57d7d37432109f99fe1114825d4156a5fc960747848d9326c609181900360a00190a190506117e5565b6001600160a01b03841660009081526004602090815260408083208884529091528120546001906115e2908290611e4b565b815481106115f2576115f2611e62565b6000918252602080832060046008909302018201805494151560ff19909516949094179093556001600160a01b03871682528252604080822088835290925220548290600190611643908290611e4b565b8154811061165357611653611e62565b600091825260208083206004600890930201820180549415156101000261ff0019909516949094179093556001600160a01b038716825282526040808220888352909252205483906001906116a9908290611e4b565b815481106116b9576116b9611e62565b60009182526020808320600892909202909101600301929092556001600160a01b03861680825260028352604080832089845284528083208054600160ff19909116811790915591835260048452808320898452909352919020549061171f8183611e4b565b8154811061172f5761172f611e62565b9060005260206000209060080201600001541461174e5761174e611e90565b6001600160a01b038416600081815260046020908152604080832089845282529182902054825190815290810188905280820192909252606082018590528315156080830152517fe4a54a91e473f57d7d37432109f99fe1114825d4156a5fc960747848d9326c609181900360a00190a1506001600160a01b03831660009081526004602090815260408083208784529091529020545b949350505050565b6000546001600160a01b03163314610c1e5760405162461bcd60e51b815260206004820181905260248201527f4f776e61626c653a2063616c6c6572206973206e6f7420746865206f776e65726044820152606401610580565b600080546001600160a01b0383811673ffffffffffffffffffffffffffffffffffffffff19831681178455604051919092169283917f8be0079c531659141344cd1fd0a4f28419497f9722a3daafe3b4186f6b6457e09190a35050565b600060016118b28184611e4b565b815481106118c2576118c2611e62565b60009182526020822060016008909202018101546001600160a01b031692508290636352211e906118f38187611e4b565b8154811061190357611903611e62565b9060005260206000209060080201600201546040518263ffffffff1660e01b815260040161193391815260200190565b602060405180830381865afa158015611950573d6000803e3d6000fd5b505050506040513d601f19601f820116820180604052508101906119749190611e18565b90506000816001600160a01b03163460405160006040518083038185875af1925050503d80600081146119c3576040519150601f19603f3d011682016040523d82523d6000602084013e6119c8565b606091505b5050905080611a195760405162461bcd60e51b815260206004820152601460248201527f4661696c656420746f2073656e642045746865720000000000000000000000006044820152606401610580565b600180611a268187611e4b565b81548110611a3657611a36611e62565b60009182526020822060089190910201600401805460ff1916921515929092179091556002816001611a688189611e4b565b81548110611a7857611a78611e62565b6000918252602080832060016008909302018201546001600160a01b031684528301939093526040909101812091611ab08189611e4b565b81548110611ac057611ac0611e62565b906000526020600020906008020160020154815260200190815260200160002060006101000a81548160ff02191690831515021790555060018085611b059190611e4b565b81548110611b1557611b15611e62565b6000918252602090912060016008909202018101546001600160a01b03908116916342842e0e91861690636352211e90611b4f818a611e4b565b81548110611b5f57611b5f611e62565b9060005260206000209060080201600201546040518263ffffffff1660e01b8152600401611b8f91815260200190565b602060405180830381865afa158015611bac573d6000803e3d6000fd5b505050506040513d601f19601f82011682018060405250810190611bd09190611e18565b336001611bdd818a611e4b565b81548110611bed57611bed611e62565b60009182526020909120600260089092020101546040517fffffffff0000000000000000000000000000000000000000000000000000000060e086901b1681526001600160a01b0393841660048201529290911660248301526044820152606401600060405180830381600087803b158015611c6857600080fd5b505af1158015611c7c573d6000803e3d6000fd5b505050507fa574c741071bb18f51fa88c17aeefec514bebf670ca22a3736fba6504ecbb763843360018088611cb19190611e4b565b81548110611cc157611cc1611e62565b906000526020600020906008020160030154604051611cfc939291909283526001600160a01b03919091166020830152604082015260600190565b60405180910390a150505050565b600060208284031215611d1c57600080fd5b5035919050565b6001600160a01b03811681146112a957600080fd5b600060208284031215611d4a57600080fd5b8135611d5581611d23565b9392505050565b60008060008060808587031215611d7257600080fd5b843593506020850135611d8481611d23565b92506040850135915060608501358015158114611da057600080fd5b939692955090935050565b600080600060608486031215611dc057600080fd5b8335611dcb81611d23565b92506020840135611ddb81611d23565b929592945050506040919091013590565b60008060408385031215611dff57600080fd5b8235611e0a81611d23565b946020939093013593505050565b600060208284031215611e2a57600080fd5b8151611d5581611d23565b634e487b7160e01b600052601160045260246000fd5b600082821015611e5d57611e5d611e35565b500390565b634e487b7160e01b600052603260045260246000fd5b60008219821115611e8b57611e8b611e35565b500190565b634e487b7160e01b600052600160045260246000fdfea2646970667358221220796d72b2d36d33151138ec4b189c10a0a923f571805b3a3d4ff4866a203968d764736f6c634300080c0033","opcodes":"PUSH1 0x80 PUSH1 0x40 MSTORE CALLVALUE DUP1 ISZERO PUSH2 0x10 JUMPI PUSH1 0x0 DUP1 REVERT JUMPDEST POP PUSH2 0x1A CALLER PUSH2 0x1F JUMP JUMPDEST PUSH2 0x6F JUMP JUMPDEST PUSH1 0x0 DUP1 SLOAD PUSH1 0x1 PUSH1 0x1 PUSH1 0xA0 SHL SUB DUP4 DUP2 AND PUSH1 0x1 PUSH1 0x1 PUSH1 0xA0 SHL SUB NOT DUP4 AND DUP2 OR DUP5 SSTORE PUSH1 0x40 MLOAD SWAP2 SWAP1 SWAP3 AND SWAP3 DUP4 SWAP2 PUSH32 0x8BE0079C531659141344CD1FD0A4F28419497F9722A3DAAFE3B4186F6B6457E0 SWAP2 SWAP1 LOG3 POP POP JUMP JUMPDEST PUSH2 0x1EDC DUP1 PUSH2 0x7E PUSH1 0x0 CODECOPY PUSH1 0x0 RETURN INVALID PUSH1 0x80 PUSH1 0x40 MSTORE PUSH1 0x4 CALLDATASIZE LT PUSH2 0xE8 JUMPI PUSH1 0x0 CALLDATALOAD PUSH1 0xE0 SHR DUP1 PUSH4 0x7F75D53A GT PUSH2 0x8A JUMPI DUP1 PUSH4 0xE7FB74C7 GT PUSH2 0x59 JUMPI DUP1 PUSH4 0xE7FB74C7 EQ PUSH2 0x329 JUMPI DUP1 PUSH4 0xECA4F6A3 EQ PUSH2 0x33C JUMPI DUP1 PUSH4 0xF2FDE38B EQ PUSH2 0x377 JUMPI DUP1 PUSH4 0xF9ABC391 EQ PUSH2 0x397 JUMPI PUSH1 0x0 DUP1 REVERT JUMPDEST DUP1 PUSH4 0x7F75D53A EQ PUSH2 0x275 JUMPI DUP1 PUSH4 0x8C0F9AAC EQ PUSH2 0x2AB JUMPI DUP1 PUSH4 0x8DA5CB5B EQ PUSH2 0x2EB JUMPI DUP1 PUSH4 0xDFCBEAE5 EQ PUSH2 0x309 JUMPI PUSH1 0x0 DUP1 REVERT JUMPDEST DUP1 PUSH4 0x625F3499 GT PUSH2 0xC6 JUMPI DUP1 PUSH4 0x625F3499 EQ PUSH2 0x1C8 JUMPI DUP1 PUSH4 0x688C43B5 EQ PUSH2 0x206 JUMPI DUP1 PUSH4 0x71329171 EQ PUSH2 0x23E JUMPI DUP1 PUSH4 0x715018A6 EQ PUSH2 0x260 JUMPI PUSH1 0x0 DUP1 REVERT JUMPDEST DUP1 PUSH4 0x92D0AFC EQ PUSH2 0xED JUMPI DUP1 PUSH4 0x169D9771 EQ PUSH2 0x162 JUMPI DUP1 PUSH4 0x170F872F EQ PUSH2 0x19A JUMPI JUMPDEST PUSH1 0x0 DUP1 REVERT JUMPDEST CALLVALUE DUP1 ISZERO PUSH2 0xF9 JUMPI PUSH1 0x0 DUP1 REVERT JUMPDEST POP PUSH2 0x10D PUSH2 0x108 CALLDATASIZE PUSH1 0x4 PUSH2 0x1D0A JUMP JUMPDEST PUSH2 0x3C7 JUMP JUMPDEST PUSH1 0x40 DUP1 MLOAD SWAP10 DUP11 MSTORE PUSH1 0x1 PUSH1 0x1 PUSH1 0xA0 SHL SUB SWAP9 DUP10 AND PUSH1 0x20 DUP12 ADD MSTORE DUP10 ADD SWAP7 SWAP1 SWAP7 MSTORE PUSH1 0x60 DUP9 ADD SWAP5 SWAP1 SWAP5 MSTORE SWAP2 ISZERO ISZERO PUSH1 0x80 DUP8 ADD MSTORE ISZERO ISZERO PUSH1 0xA0 DUP7 ADD MSTORE PUSH1 0xC0 DUP6 ADD MSTORE DUP3 AND PUSH1 0xE0 DUP5 ADD MSTORE AND PUSH2 0x100 DUP3 ADD MSTORE PUSH2 0x120 ADD JUMPDEST PUSH1 0x40 MLOAD DUP1 SWAP2 SUB SWAP1 RETURN JUMPDEST CALLVALUE DUP1 ISZERO PUSH2 0x16E JUMPI PUSH1 0x0 DUP1 REVERT JUMPDEST POP PUSH2 0x182 PUSH2 0x17D CALLDATASIZE PUSH1 0x4 PUSH2 0x1D38 JUMP JUMPDEST PUSH2 0x437 JUMP JUMPDEST PUSH1 0x40 MLOAD PUSH1 0x1 PUSH1 0x1 PUSH1 0xA0 SHL SUB SWAP1 SWAP2 AND DUP2 MSTORE PUSH1 0x20 ADD PUSH2 0x159 JUMP JUMPDEST CALLVALUE DUP1 ISZERO PUSH2 0x1A6 JUMPI PUSH1 0x0 DUP1 REVERT JUMPDEST POP PUSH2 0x1BA PUSH2 0x1B5 CALLDATASIZE PUSH1 0x4 PUSH2 0x1D5C JUMP JUMPDEST PUSH2 0x4A1 JUMP JUMPDEST PUSH1 0x40 MLOAD SWAP1 DUP2 MSTORE PUSH1 0x20 ADD PUSH2 0x159 JUMP JUMPDEST CALLVALUE DUP1 ISZERO PUSH2 0x1D4 JUMPI PUSH1 0x0 DUP1 REVERT JUMPDEST POP PUSH2 0x1BA PUSH2 0x1E3 CALLDATASIZE PUSH1 0x4 PUSH2 0x1DAB JUMP JUMPDEST PUSH1 0x5 PUSH1 0x20 SWAP1 DUP2 MSTORE PUSH1 0x0 SWAP4 DUP5 MSTORE PUSH1 0x40 DUP1 DUP6 KECCAK256 DUP3 MSTORE SWAP3 DUP5 MSTORE DUP3 DUP5 KECCAK256 SWAP1 MSTORE DUP3 MSTORE SWAP1 KECCAK256 SLOAD DUP2 JUMP JUMPDEST CALLVALUE DUP1 ISZERO PUSH2 0x212 JUMPI PUSH1 0x0 DUP1 REVERT JUMPDEST POP PUSH2 0x1BA PUSH2 0x221 CALLDATASIZE PUSH1 0x4 PUSH2 0x1DEC JUMP JUMPDEST PUSH1 0x4 PUSH1 0x20 SWAP1 DUP2 MSTORE PUSH1 0x0 SWAP3 DUP4 MSTORE PUSH1 0x40 DUP1 DUP5 KECCAK256 SWAP1 SWAP2 MSTORE SWAP1 DUP3 MSTORE SWAP1 KECCAK256 SLOAD DUP2 JUMP JUMPDEST CALLVALUE DUP1 ISZERO PUSH2 0x24A JUMPI PUSH1 0x0 DUP1 REVERT JUMPDEST POP PUSH2 0x25E PUSH2 0x259 CALLDATASIZE PUSH1 0x4 PUSH2 0x1D0A JUMP JUMPDEST PUSH2 0x6E4 JUMP JUMPDEST STOP JUMPDEST CALLVALUE DUP1 ISZERO PUSH2 0x26C JUMPI PUSH1 0x0 DUP1 REVERT JUMPDEST POP PUSH2 0x25E PUSH2 0xC0C JUMP JUMPDEST CALLVALUE DUP1 ISZERO PUSH2 0x281 JUMPI PUSH1 0x0 DUP1 REVERT JUMPDEST POP PUSH2 0x182 PUSH2 0x290 CALLDATASIZE PUSH1 0x4 PUSH2 0x1D38 JUMP JUMPDEST PUSH1 0x7 PUSH1 0x20 MSTORE PUSH1 0x0 SWAP1 DUP2 MSTORE PUSH1 0x40 SWAP1 KECCAK256 SLOAD PUSH1 0x1 PUSH1 0x1 PUSH1 0xA0 SHL SUB AND DUP2 JUMP JUMPDEST CALLVALUE DUP1 ISZERO PUSH2 0x2B7 JUMPI PUSH1 0x0 DUP1 REVERT JUMPDEST POP PUSH2 0x2DB PUSH2 0x2C6 CALLDATASIZE PUSH1 0x4 PUSH2 0x1D38 JUMP JUMPDEST PUSH1 0x6 PUSH1 0x20 MSTORE PUSH1 0x0 SWAP1 DUP2 MSTORE PUSH1 0x40 SWAP1 KECCAK256 SLOAD PUSH1 0xFF AND DUP2 JUMP JUMPDEST PUSH1 0x40 MLOAD SWAP1 ISZERO ISZERO DUP2 MSTORE PUSH1 0x20 ADD PUSH2 0x159 JUMP JUMPDEST CALLVALUE DUP1 ISZERO PUSH2 0x2F7 JUMPI PUSH1 0x0 DUP1 REVERT JUMPDEST POP PUSH1 0x0 SLOAD PUSH1 0x1 PUSH1 0x1 PUSH1 0xA0 SHL SUB AND PUSH2 0x182 JUMP JUMPDEST CALLVALUE DUP1 ISZERO PUSH2 0x315 JUMPI PUSH1 0x0 DUP1 REVERT JUMPDEST POP PUSH2 0x25E PUSH2 0x324 CALLDATASIZE PUSH1 0x4 PUSH2 0x1D38 JUMP JUMPDEST PUSH2 0xC20 JUMP JUMPDEST PUSH2 0x25E PUSH2 0x337 CALLDATASIZE PUSH1 0x4 PUSH2 0x1D0A JUMP JUMPDEST PUSH2 0xCFB JUMP JUMPDEST CALLVALUE DUP1 ISZERO PUSH2 0x348 JUMPI PUSH1 0x0 DUP1 REVERT JUMPDEST POP PUSH2 0x2DB PUSH2 0x357 CALLDATASIZE PUSH1 0x4 PUSH2 0x1DEC JUMP JUMPDEST PUSH1 0x2 PUSH1 0x20 SWAP1 DUP2 MSTORE PUSH1 0x0 SWAP3 DUP4 MSTORE PUSH1 0x40 DUP1 DUP5 KECCAK256 SWAP1 SWAP2 MSTORE SWAP1 DUP3 MSTORE SWAP1 KECCAK256 SLOAD PUSH1 0xFF AND DUP2 JUMP JUMPDEST CALLVALUE DUP1 ISZERO PUSH2 0x383 JUMPI PUSH1 0x0 DUP1 REVERT JUMPDEST POP PUSH2 0x25E PUSH2 0x392 CALLDATASIZE PUSH1 0x4 PUSH2 0x1D38 JUMP JUMPDEST PUSH2 0x121C JUMP JUMPDEST CALLVALUE DUP1 ISZERO PUSH2 0x3A3 JUMPI PUSH1 0x0 DUP1 REVERT JUMPDEST POP PUSH2 0x2DB PUSH2 0x3B2 CALLDATASIZE PUSH1 0x4 PUSH2 0x1D38 JUMP JUMPDEST PUSH1 0x3 PUSH1 0x20 MSTORE PUSH1 0x0 SWAP1 DUP2 MSTORE PUSH1 0x40 SWAP1 KECCAK256 SLOAD PUSH1 0xFF AND DUP2 JUMP JUMPDEST PUSH1 0x1 DUP2 DUP2 SLOAD DUP2 LT PUSH2 0x3D7 JUMPI PUSH1 0x0 DUP1 REVERT JUMPDEST PUSH1 0x0 SWAP2 DUP3 MSTORE PUSH1 0x20 SWAP1 SWAP2 KECCAK256 PUSH1 0x8 SWAP1 SWAP2 MUL ADD DUP1 SLOAD PUSH1 0x1 DUP3 ADD SLOAD PUSH1 0x2 DUP4 ADD SLOAD PUSH1 0x3 DUP5 ADD SLOAD PUSH1 0x4 DUP6 ADD SLOAD PUSH1 0x5 DUP7 ADD SLOAD PUSH1 0x6 DUP8 ADD SLOAD PUSH1 0x7 SWAP1 SWAP8 ADD SLOAD SWAP6 SWAP8 POP PUSH1 0x1 PUSH1 0x1 PUSH1 0xA0 SHL SUB SWAP5 DUP6 AND SWAP7 SWAP4 SWAP6 SWAP3 SWAP5 PUSH1 0xFF DUP1 DUP5 AND SWAP6 PUSH2 0x100 SWAP1 SWAP5 DIV AND SWAP4 SWAP2 SWAP3 DUP2 AND SWAP2 AND DUP10 JUMP JUMPDEST PUSH1 0x0 DUP2 PUSH1 0x1 PUSH1 0x1 PUSH1 0xA0 SHL SUB AND PUSH4 0x8DA5CB5B PUSH1 0x40 MLOAD DUP2 PUSH4 0xFFFFFFFF AND PUSH1 0xE0 SHL DUP2 MSTORE PUSH1 0x4 ADD PUSH1 0x20 PUSH1 0x40 MLOAD DUP1 DUP4 SUB DUP2 DUP7 GAS STATICCALL ISZERO DUP1 ISZERO PUSH2 0x477 JUMPI RETURNDATASIZE PUSH1 0x0 DUP1 RETURNDATACOPY RETURNDATASIZE PUSH1 0x0 REVERT JUMPDEST POP POP POP POP PUSH1 0x40 MLOAD RETURNDATASIZE PUSH1 0x1F NOT PUSH1 0x1F DUP3 ADD AND DUP3 ADD DUP1 PUSH1 0x40 MSTORE POP DUP2 ADD SWAP1 PUSH2 0x49B SWAP2 SWAP1 PUSH2 0x1E18 JUMP JUMPDEST SWAP3 SWAP2 POP POP JUMP JUMPDEST PUSH1 0x40 MLOAD PUSH32 0x6352211E00000000000000000000000000000000000000000000000000000000 DUP2 MSTORE PUSH1 0x4 DUP2 ADD DUP6 SWAP1 MSTORE PUSH1 0x0 SWAP1 DUP5 SWAP1 DUP7 SWAP1 DUP3 SWAP1 CALLER SWAP1 PUSH1 0x1 PUSH1 0x1 PUSH1 0xA0 SHL SUB DUP4 AND SWAP1 PUSH4 0x6352211E SWAP1 PUSH1 0x24 ADD PUSH1 0x20 PUSH1 0x40 MLOAD DUP1 DUP4 SUB DUP2 DUP7 GAS STATICCALL ISZERO DUP1 ISZERO PUSH2 0x50A JUMPI RETURNDATASIZE PUSH1 0x0 DUP1 RETURNDATACOPY RETURNDATASIZE PUSH1 0x0 REVERT JUMPDEST POP POP POP POP PUSH1 0x40 MLOAD RETURNDATASIZE PUSH1 0x1F NOT PUSH1 0x1F DUP3 ADD AND DUP3 ADD DUP1 PUSH1 0x40 MSTORE POP DUP2 ADD SWAP1 PUSH2 0x52E SWAP2 SWAP1 PUSH2 0x1E18 JUMP JUMPDEST PUSH1 0x1 PUSH1 0x1 PUSH1 0xA0 SHL SUB AND EQ PUSH2 0x589 JUMPI PUSH1 0x40 MLOAD PUSH3 0x461BCD PUSH1 0xE5 SHL DUP2 MSTORE PUSH1 0x20 PUSH1 0x4 DUP3 ADD MSTORE PUSH1 0xD PUSH1 0x24 DUP3 ADD MSTORE PUSH32 0x4F6E6C794974656D4F776E657200000000000000000000000000000000000000 PUSH1 0x44 DUP3 ADD MSTORE PUSH1 0x64 ADD JUMPDEST PUSH1 0x40 MLOAD DUP1 SWAP2 SUB SWAP1 REVERT JUMPDEST PUSH1 0x40 MLOAD PUSH4 0x20604BF PUSH1 0xE2 SHL DUP2 MSTORE PUSH1 0x4 DUP2 ADD DUP10 SWAP1 MSTORE DUP8 SWAP1 DUP10 SWAP1 DUP3 SWAP1 ADDRESS SWAP1 PUSH1 0x1 PUSH1 0x1 PUSH1 0xA0 SHL SUB DUP4 AND SWAP1 PUSH4 0x81812FC SWAP1 PUSH1 0x24 ADD PUSH1 0x20 PUSH1 0x40 MLOAD DUP1 DUP4 SUB DUP2 DUP7 GAS STATICCALL ISZERO DUP1 ISZERO PUSH2 0x5D6 JUMPI RETURNDATASIZE PUSH1 0x0 DUP1 RETURNDATACOPY RETURNDATASIZE PUSH1 0x0 REVERT JUMPDEST POP POP POP POP PUSH1 0x40 MLOAD RETURNDATASIZE PUSH1 0x1F NOT PUSH1 0x1F DUP3 ADD AND DUP3 ADD DUP1 PUSH1 0x40 MSTORE POP DUP2 ADD SWAP1 PUSH2 0x5FA SWAP2 SWAP1 PUSH2 0x1E18 JUMP JUMPDEST PUSH1 0x1 PUSH1 0x1 PUSH1 0xA0 SHL SUB AND EQ PUSH2 0x650 JUMPI PUSH1 0x40 MLOAD PUSH3 0x461BCD PUSH1 0xE5 SHL DUP2 MSTORE PUSH1 0x20 PUSH1 0x4 DUP3 ADD DUP2 SWAP1 MSTORE PUSH1 0x24 DUP3 ADD MSTORE PUSH32 0x4D61726B6574506C6163653A4E6F205472616E7366657220417070726F76616C PUSH1 0x44 DUP3 ADD MSTORE PUSH1 0x64 ADD PUSH2 0x580 JUMP JUMPDEST PUSH1 0x1 PUSH1 0x1 PUSH1 0xA0 SHL SUB DUP11 AND PUSH1 0x0 SWAP1 DUP2 MSTORE PUSH1 0x2 PUSH1 0x20 SWAP1 DUP2 MSTORE PUSH1 0x40 DUP1 DUP4 KECCAK256 DUP15 DUP5 MSTORE SWAP1 SWAP2 MSTORE SWAP1 KECCAK256 SLOAD PUSH1 0xFF AND ISZERO ISZERO PUSH1 0x1 EQ ISZERO PUSH2 0x6C9 JUMPI PUSH1 0x40 MLOAD PUSH3 0x461BCD PUSH1 0xE5 SHL DUP2 MSTORE PUSH1 0x20 PUSH1 0x4 DUP3 ADD MSTORE PUSH1 0x1B PUSH1 0x24 DUP3 ADD MSTORE PUSH32 0x4974656D20697320616C726561647920757020666F722073616C650000000000 PUSH1 0x44 DUP3 ADD MSTORE PUSH1 0x64 ADD PUSH2 0x580 JUMP JUMPDEST PUSH2 0x6D5 DUP12 DUP12 DUP12 DUP12 PUSH2 0x12AC JUMP JUMPDEST SWAP12 SWAP11 POP POP POP POP POP POP POP POP POP POP POP JUMP JUMPDEST PUSH1 0x0 PUSH1 0x1 PUSH2 0x6F2 DUP2 DUP5 PUSH2 0x1E4B JUMP JUMPDEST DUP2 SLOAD DUP2 LT PUSH2 0x702 JUMPI PUSH2 0x702 PUSH2 0x1E62 JUMP JUMPDEST PUSH1 0x0 SWAP2 DUP3 MSTORE PUSH1 0x20 DUP1 DUP4 KECCAK256 PUSH1 0x1 PUSH1 0x8 SWAP1 SWAP4 MUL ADD DUP3 ADD SLOAD PUSH1 0x1 PUSH1 0x1 PUSH1 0xA0 SHL SUB AND DUP1 DUP5 MSTORE PUSH1 0x2 SWAP1 SWAP2 MSTORE PUSH1 0x40 DUP4 KECCAK256 SWAP1 SWAP4 POP SWAP2 SWAP1 PUSH2 0x73B DUP2 DUP7 PUSH2 0x1E4B JUMP JUMPDEST DUP2 SLOAD DUP2 LT PUSH2 0x74B JUMPI PUSH2 0x74B PUSH2 0x1E62 JUMP JUMPDEST SWAP1 PUSH1 0x0 MSTORE PUSH1 0x20 PUSH1 0x0 KECCAK256 SWAP1 PUSH1 0x8 MUL ADD PUSH1 0x2 ADD SLOAD DUP2 MSTORE PUSH1 0x20 ADD SWAP1 DUP2 MSTORE PUSH1 0x20 ADD PUSH1 0x0 KECCAK256 PUSH1 0x0 SWAP1 SLOAD SWAP1 PUSH2 0x100 EXP SWAP1 DIV PUSH1 0xFF AND PUSH2 0x7C5 JUMPI PUSH1 0x40 MLOAD PUSH3 0x461BCD PUSH1 0xE5 SHL DUP2 MSTORE PUSH1 0x20 PUSH1 0x4 DUP3 ADD MSTORE PUSH1 0x1C PUSH1 0x24 DUP3 ADD MSTORE PUSH32 0x416C7265616479206E6F74206C697374656420696E206D61726B657400000000 PUSH1 0x44 DUP3 ADD MSTORE PUSH1 0x64 ADD PUSH2 0x580 JUMP JUMPDEST CALLER PUSH1 0x1 PUSH1 0x1 PUSH1 0xA0 SHL SUB DUP3 AND PUSH4 0x6352211E PUSH1 0x1 PUSH2 0x7E1 DUP2 DUP8 PUSH2 0x1E4B JUMP JUMPDEST DUP2 SLOAD DUP2 LT PUSH2 0x7F1 JUMPI PUSH2 0x7F1 PUSH2 0x1E62 JUMP JUMPDEST SWAP1 PUSH1 0x0 MSTORE PUSH1 0x20 PUSH1 0x0 KECCAK256 SWAP1 PUSH1 0x8 MUL ADD PUSH1 0x2 ADD SLOAD PUSH1 0x40 MLOAD DUP3 PUSH4 0xFFFFFFFF AND PUSH1 0xE0 SHL DUP2 MSTORE PUSH1 0x4 ADD PUSH2 0x821 SWAP2 DUP2 MSTORE PUSH1 0x20 ADD SWAP1 JUMP JUMPDEST PUSH1 0x20 PUSH1 0x40 MLOAD DUP1 DUP4 SUB DUP2 DUP7 GAS STATICCALL ISZERO DUP1 ISZERO PUSH2 0x83E JUMPI RETURNDATASIZE PUSH1 0x0 DUP1 RETURNDATACOPY RETURNDATASIZE PUSH1 0x0 REVERT JUMPDEST POP POP POP POP PUSH1 0x40 MLOAD RETURNDATASIZE PUSH1 0x1F NOT PUSH1 0x1F DUP3 ADD AND DUP3 ADD DUP1 PUSH1 0x40 MSTORE POP DUP2 ADD SWAP1 PUSH2 0x862 SWAP2 SWAP1 PUSH2 0x1E18 JUMP JUMPDEST PUSH1 0x1 PUSH1 0x1 PUSH1 0xA0 SHL SUB AND EQ PUSH2 0x8B8 JUMPI PUSH1 0x40 MLOAD PUSH3 0x461BCD PUSH1 0xE5 SHL DUP2 MSTORE PUSH1 0x20 PUSH1 0x4 DUP3 ADD MSTORE PUSH1 0x1A PUSH1 0x24 DUP3 ADD MSTORE PUSH32 0x4F6E6C79204974656D206F776E65722043616E2052656D6F7665000000000000 PUSH1 0x44 DUP3 ADD MSTORE PUSH1 0x64 ADD PUSH2 0x580 JUMP JUMPDEST PUSH1 0x1 PUSH1 0x1 PUSH1 0xA0 SHL SUB DUP2 AND PUSH1 0x0 SWAP1 DUP2 MSTORE PUSH1 0x2 PUSH1 0x20 MSTORE PUSH1 0x40 DUP2 KECCAK256 DUP2 PUSH1 0x1 PUSH2 0x8DD DUP2 DUP8 PUSH2 0x1E4B JUMP JUMPDEST DUP2 SLOAD DUP2 LT PUSH2 0x8ED JUMPI PUSH2 0x8ED PUSH2 0x1E62 JUMP JUMPDEST SWAP1 PUSH1 0x0 MSTORE PUSH1 0x20 PUSH1 0x0 KECCAK256 SWAP1 PUSH1 0x8 MUL ADD PUSH1 0x2 ADD SLOAD DUP2 MSTORE PUSH1 0x20 ADD SWAP1 DUP2 MSTORE PUSH1 0x20 ADD PUSH1 0x0 KECCAK256 PUSH1 0x0 PUSH2 0x100 EXP DUP2 SLOAD DUP2 PUSH1 0xFF MUL NOT AND SWAP1 DUP4 ISZERO ISZERO MUL OR SWAP1 SSTORE POP PUSH1 0x1 DUP1 DUP4 PUSH2 0x932 SWAP2 SWAP1 PUSH2 0x1E4B JUMP JUMPDEST DUP2 SLOAD DUP2 LT PUSH2 0x942 JUMPI PUSH2 0x942 PUSH2 0x1E62 JUMP JUMPDEST PUSH1 0x0 SWAP2 DUP3 MSTORE PUSH1 0x20 SWAP1 SWAP2 KECCAK256 PUSH1 0x4 PUSH1 0x8 SWAP1 SWAP3 MUL ADD ADD SLOAD PUSH1 0xFF AND ISZERO DUP1 ISZERO PUSH2 0x9A0 JUMPI POP PUSH1 0x1 PUSH2 0x96D DUP2 DUP5 PUSH2 0x1E4B JUMP JUMPDEST DUP2 SLOAD DUP2 LT PUSH2 0x97D JUMPI PUSH2 0x97D PUSH2 0x1E62 JUMP JUMPDEST PUSH1 0x0 SWAP2 DUP3 MSTORE PUSH1 0x20 SWAP1 SWAP2 KECCAK256 PUSH1 0x4 PUSH1 0x8 SWAP1 SWAP3 MUL ADD ADD SLOAD PUSH1 0xFF PUSH2 0x100 SWAP1 SWAP2 DIV AND ISZERO ISZERO PUSH1 0x1 EQ JUMPDEST ISZERO PUSH2 0xB83 JUMPI PUSH1 0x1 PUSH2 0x9B1 DUP2 DUP5 PUSH2 0x1E4B JUMP JUMPDEST DUP2 SLOAD DUP2 LT PUSH2 0x9C1 JUMPI PUSH2 0x9C1 PUSH2 0x1E62 JUMP JUMPDEST SWAP1 PUSH1 0x0 MSTORE PUSH1 0x20 PUSH1 0x0 KECCAK256 SWAP1 PUSH1 0x8 MUL ADD PUSH1 0x5 ADD SLOAD PUSH1 0x5 PUSH1 0x0 PUSH1 0x1 DUP1 DUP7 PUSH2 0x9E5 SWAP2 SWAP1 PUSH2 0x1E4B JUMP JUMPDEST DUP2 SLOAD DUP2 LT PUSH2 0x9F5 JUMPI PUSH2 0x9F5 PUSH2 0x1E62 JUMP JUMPDEST PUSH1 0x0 SWAP2 DUP3 MSTORE PUSH1 0x20 DUP1 DUP4 KECCAK256 PUSH1 0x6 PUSH1 0x8 SWAP1 SWAP4 MUL ADD SWAP2 SWAP1 SWAP2 ADD SLOAD PUSH1 0x1 PUSH1 0x1 PUSH1 0xA0 SHL SUB AND DUP4 MSTORE DUP3 ADD SWAP3 SWAP1 SWAP3 MSTORE PUSH1 0x40 ADD DUP2 KECCAK256 SWAP1 PUSH1 0x1 PUSH2 0xA2F DUP2 DUP8 PUSH2 0x1E4B JUMP JUMPDEST DUP2 SLOAD DUP2 LT PUSH2 0xA3F JUMPI PUSH2 0xA3F PUSH2 0x1E62 JUMP JUMPDEST PUSH1 0x0 SWAP2 DUP3 MSTORE PUSH1 0x20 DUP1 DUP4 KECCAK256 PUSH1 0x7 PUSH1 0x8 SWAP1 SWAP4 MUL ADD SWAP2 SWAP1 SWAP2 ADD SLOAD PUSH1 0x1 PUSH1 0x1 PUSH1 0xA0 SHL SUB AND DUP4 MSTORE DUP3 ADD SWAP3 SWAP1 SWAP3 MSTORE PUSH1 0x40 ADD DUP2 KECCAK256 SWAP1 PUSH1 0x1 PUSH2 0xA79 DUP2 DUP8 PUSH2 0x1E4B JUMP JUMPDEST DUP2 SLOAD DUP2 LT PUSH2 0xA89 JUMPI PUSH2 0xA89 PUSH2 0x1E62 JUMP JUMPDEST SWAP1 PUSH1 0x0 MSTORE PUSH1 0x20 PUSH1 0x0 KECCAK256 SWAP1 PUSH1 0x8 MUL ADD PUSH1 0x0 ADD SLOAD DUP2 MSTORE PUSH1 0x20 ADD SWAP1 DUP2 MSTORE PUSH1 0x20 ADD PUSH1 0x0 KECCAK256 DUP2 SWAP1 SSTORE POP PUSH1 0x0 PUSH1 0x1 DUP1 DUP5 PUSH2 0xABD SWAP2 SWAP1 PUSH2 0x1E4B JUMP JUMPDEST DUP2 SLOAD DUP2 LT PUSH2 0xACD JUMPI PUSH2 0xACD PUSH2 0x1E62 JUMP JUMPDEST PUSH1 0x0 SWAP2 DUP3 MSTORE PUSH1 0x20 DUP3 KECCAK256 PUSH1 0x4 PUSH1 0x8 SWAP1 SWAP3 MUL ADD ADD DUP1 SLOAD SWAP3 ISZERO ISZERO PUSH2 0x100 MUL PUSH2 0xFF00 NOT SWAP1 SWAP4 AND SWAP3 SWAP1 SWAP3 OR SWAP1 SWAP2 SSTORE PUSH1 0x1 PUSH2 0xB02 DUP2 DUP6 PUSH2 0x1E4B JUMP JUMPDEST DUP2 SLOAD DUP2 LT PUSH2 0xB12 JUMPI PUSH2 0xB12 PUSH2 0x1E62 JUMP JUMPDEST PUSH1 0x0 SWAP2 DUP3 MSTORE PUSH1 0x20 DUP3 KECCAK256 PUSH1 0x8 SWAP2 SWAP1 SWAP2 MUL ADD PUSH1 0x6 ADD DUP1 SLOAD PUSH20 0xFFFFFFFFFFFFFFFFFFFFFFFFFFFFFFFFFFFFFFFF NOT AND PUSH1 0x1 PUSH1 0x1 PUSH1 0xA0 SHL SUB SWAP4 SWAP1 SWAP4 AND SWAP3 SWAP1 SWAP3 OR SWAP1 SWAP2 SSTORE PUSH1 0x1 PUSH2 0xB5D DUP2 DUP6 PUSH2 0x1E4B JUMP JUMPDEST DUP2 SLOAD DUP2 LT PUSH2 0xB6D JUMPI PUSH2 0xB6D PUSH2 0x1E62 JUMP JUMPDEST SWAP1 PUSH1 0x0 MSTORE PUSH1 0x20 PUSH1 0x0 KECCAK256 SWAP1 PUSH1 0x8 MUL ADD PUSH1 0x5 ADD DUP2 SWAP1 SSTORE POP JUMPDEST PUSH1 0x0 PUSH1 0x1 PUSH2 0xB91 DUP2 DUP6 PUSH2 0x1E4B JUMP JUMPDEST DUP2 SLOAD DUP2 LT PUSH2 0xBA1 JUMPI PUSH2 0xBA1 PUSH2 0x1E62 JUMP JUMPDEST PUSH1 0x0 SWAP2 DUP3 MSTORE PUSH1 0x20 DUP3 KECCAK256 PUSH1 0x3 PUSH1 0x8 SWAP1 SWAP3 MUL ADD ADD SWAP2 SWAP1 SWAP2 SSTORE PUSH1 0x1 PUSH2 0xBC3 DUP2 DUP6 PUSH2 0x1E4B JUMP JUMPDEST DUP2 SLOAD DUP2 LT PUSH2 0xBD3 JUMPI PUSH2 0xBD3 PUSH2 0x1E62 JUMP JUMPDEST SWAP1 PUSH1 0x0 MSTORE PUSH1 0x20 PUSH1 0x0 KECCAK256 SWAP1 PUSH1 0x8 MUL ADD PUSH1 0x7 ADD PUSH1 0x0 PUSH2 0x100 EXP DUP2 SLOAD DUP2 PUSH1 0x1 PUSH1 0x1 PUSH1 0xA0 SHL SUB MUL NOT AND SWAP1 DUP4 PUSH1 0x1 PUSH1 0x1 PUSH1 0xA0 SHL SUB AND MUL OR SWAP1 SSTORE POP POP POP JUMP JUMPDEST PUSH2 0xC14 PUSH2 0x17ED JUMP JUMPDEST PUSH2 0xC1E PUSH1 0x0 PUSH2 0x1847 JUMP JUMPDEST JUMP JUMPDEST PUSH2 0xC28 PUSH2 0x17ED JUMP JUMPDEST PUSH1 0x1 PUSH1 0x1 PUSH1 0xA0 SHL SUB DUP2 AND ISZERO DUP1 ISZERO SWAP1 PUSH2 0xC58 JUMPI POP PUSH1 0x1 PUSH1 0x1 PUSH1 0xA0 SHL SUB DUP2 AND PUSH1 0x0 SWAP1 DUP2 MSTORE PUSH1 0x3 PUSH1 0x20 MSTORE PUSH1 0x40 SWAP1 KECCAK256 SLOAD PUSH1 0xFF AND JUMPDEST PUSH2 0xCA4 JUMPI PUSH1 0x40 MLOAD PUSH3 0x461BCD PUSH1 0xE5 SHL DUP2 MSTORE PUSH1 0x20 PUSH1 0x4 DUP3 ADD MSTORE PUSH1 0x11 PUSH1 0x24 DUP3 ADD MSTORE PUSH32 0x4E6F7420612076616C6964204552433230000000000000000000000000000000 PUSH1 0x44 DUP3 ADD MSTORE PUSH1 0x64 ADD PUSH2 0x580 JUMP JUMPDEST PUSH1 0x1 PUSH1 0x1 PUSH1 0xA0 SHL SUB DUP2 AND PUSH1 0x0 DUP2 DUP2 MSTORE PUSH1 0x3 PUSH1 0x20 SWAP1 DUP2 MSTORE PUSH1 0x40 SWAP2 DUP3 SWAP1 KECCAK256 DUP1 SLOAD PUSH1 0xFF NOT AND SWAP1 SSTORE SWAP1 MLOAD SWAP2 DUP3 MSTORE PUSH32 0x6085C4FE186F97D42715BB2B4B806D6246EE70B44D4E049E7059B6201DE5809D SWAP2 ADD PUSH1 0x40 MLOAD DUP1 SWAP2 SUB SWAP1 LOG1 POP JUMP JUMPDEST PUSH1 0x1 SLOAD DUP2 SWAP1 DUP2 GT ISZERO PUSH2 0xD4F JUMPI PUSH1 0x40 MLOAD PUSH3 0x461BCD PUSH1 0xE5 SHL DUP2 MSTORE PUSH1 0x20 PUSH1 0x4 DUP3 ADD MSTORE PUSH1 0x13 PUSH1 0x24 DUP3 ADD MSTORE PUSH32 0x436F756C64206E6F742066696E64204974656D00000000000000000000000000 PUSH1 0x44 DUP3 ADD MSTORE PUSH1 0x64 ADD PUSH2 0x580 JUMP JUMPDEST PUSH1 0x1 PUSH2 0xD5B DUP2 DUP5 PUSH2 0x1E4B JUMP JUMPDEST DUP2 SLOAD DUP2 LT PUSH2 0xD6B JUMPI PUSH2 0xD6B PUSH2 0x1E62 JUMP JUMPDEST PUSH1 0x0 SWAP2 DUP3 MSTORE PUSH1 0x20 SWAP1 SWAP2 KECCAK256 PUSH1 0x1 PUSH1 0x8 SWAP1 SWAP3 MUL ADD DUP2 ADD SLOAD PUSH1 0x1 PUSH1 0x1 PUSH1 0xA0 SHL SUB AND SWAP1 PUSH2 0xD94 DUP2 DUP6 PUSH2 0x1E4B JUMP JUMPDEST DUP2 SLOAD DUP2 LT PUSH2 0xDA4 JUMPI PUSH2 0xDA4 PUSH2 0x1E62 JUMP JUMPDEST PUSH1 0x0 SWAP2 DUP3 MSTORE PUSH1 0x20 SWAP1 SWAP2 KECCAK256 PUSH1 0x8 SWAP1 SWAP2 MUL ADD PUSH1 0x2 ADD SLOAD PUSH1 0x40 MLOAD PUSH4 0x20604BF PUSH1 0xE2 SHL DUP2 MSTORE PUSH1 0x4 DUP2 ADD DUP3 SWAP1 MSTORE DUP3 SWAP1 ADDRESS SWAP1 PUSH1 0x1 PUSH1 0x1 PUSH1 0xA0 SHL SUB DUP4 AND SWAP1 PUSH4 0x81812FC SWAP1 PUSH1 0x24 ADD PUSH1 0x20 PUSH1 0x40 MLOAD DUP1 DUP4 SUB DUP2 DUP7 GAS STATICCALL ISZERO DUP1 ISZERO PUSH2 0xE01 JUMPI RETURNDATASIZE PUSH1 0x0 DUP1 RETURNDATACOPY RETURNDATASIZE PUSH1 0x0 REVERT JUMPDEST POP POP POP POP PUSH1 0x40 MLOAD RETURNDATASIZE PUSH1 0x1F NOT PUSH1 0x1F DUP3 ADD AND DUP3 ADD DUP1 PUSH1 0x40 MSTORE POP DUP2 ADD SWAP1 PUSH2 0xE25 SWAP2 SWAP1 PUSH2 0x1E18 JUMP JUMPDEST PUSH1 0x1 PUSH1 0x1 PUSH1 0xA0 SHL SUB AND EQ PUSH2 0xE7B JUMPI PUSH1 0x40 MLOAD PUSH3 0x461BCD PUSH1 0xE5 SHL DUP2 MSTORE PUSH1 0x20 PUSH1 0x4 DUP3 ADD DUP2 SWAP1 MSTORE PUSH1 0x24 DUP3 ADD MSTORE PUSH32 0x4D61726B6574506C6163653A4E6F205472616E7366657220417070726F76616C PUSH1 0x44 DUP3 ADD MSTORE PUSH1 0x64 ADD PUSH2 0x580 JUMP JUMPDEST PUSH1 0x2 PUSH1 0x0 PUSH1 0x1 PUSH2 0xE8B DUP2 DUP10 PUSH2 0x1E4B JUMP JUMPDEST DUP2 SLOAD DUP2 LT PUSH2 0xE9B JUMPI PUSH2 0xE9B PUSH2 0x1E62 JUMP JUMPDEST PUSH1 0x0 SWAP2 DUP3 MSTORE PUSH1 0x20 DUP1 DUP4 KECCAK256 PUSH1 0x1 PUSH1 0x8 SWAP1 SWAP4 MUL ADD DUP3 ADD SLOAD PUSH1 0x1 PUSH1 0x1 PUSH1 0xA0 SHL SUB AND DUP5 MSTORE DUP4 ADD SWAP4 SWAP1 SWAP4 MSTORE PUSH1 0x40 SWAP1 SWAP2 ADD DUP2 KECCAK256 SWAP2 PUSH2 0xED3 DUP2 DUP10 PUSH2 0x1E4B JUMP JUMPDEST DUP2 SLOAD DUP2 LT PUSH2 0xEE3 JUMPI PUSH2 0xEE3 PUSH2 0x1E62 JUMP JUMPDEST SWAP1 PUSH1 0x0 MSTORE PUSH1 0x20 PUSH1 0x0 KECCAK256 SWAP1 PUSH1 0x8 MUL ADD PUSH1 0x2 ADD SLOAD DUP2 MSTORE PUSH1 0x20 ADD SWAP1 DUP2 MSTORE PUSH1 0x20 ADD PUSH1 0x0 KECCAK256 PUSH1 0x0 SWAP1 SLOAD SWAP1 PUSH2 0x100 EXP SWAP1 DIV PUSH1 0xFF AND PUSH2 0xF5D JUMPI PUSH1 0x40 MLOAD PUSH3 0x461BCD PUSH1 0xE5 SHL DUP2 MSTORE PUSH1 0x20 PUSH1 0x4 DUP3 ADD MSTORE PUSH1 0x19 PUSH1 0x24 DUP3 ADD MSTORE PUSH32 0x4974656D206E6F74206C697374656420696E206D61726B657400000000000000 PUSH1 0x44 DUP3 ADD MSTORE PUSH1 0x64 ADD PUSH2 0x580 JUMP JUMPDEST PUSH1 0x1 PUSH2 0xF69 DUP2 DUP8 PUSH2 0x1E4B JUMP JUMPDEST DUP2 SLOAD DUP2 LT PUSH2 0xF79 JUMPI PUSH2 0xF79 PUSH2 0x1E62 JUMP JUMPDEST PUSH1 0x0 SWAP2 DUP3 MSTORE PUSH1 0x20 SWAP1 SWAP2 KECCAK256 PUSH1 0x4 PUSH1 0x8 SWAP1 SWAP3 MUL ADD ADD SLOAD PUSH1 0xFF AND ISZERO PUSH2 0xFDD JUMPI PUSH1 0x40 MLOAD PUSH3 0x461BCD PUSH1 0xE5 SHL DUP2 MSTORE PUSH1 0x20 PUSH1 0x4 DUP3 ADD MSTORE PUSH1 0x11 PUSH1 0x24 DUP3 ADD MSTORE PUSH32 0x4974656D20616C726561647920736F6C64000000000000000000000000000000 PUSH1 0x44 DUP3 ADD MSTORE PUSH1 0x64 ADD PUSH2 0x580 JUMP JUMPDEST PUSH1 0x1 PUSH2 0xFE9 DUP2 DUP8 PUSH2 0x1E4B JUMP JUMPDEST DUP2 SLOAD DUP2 LT PUSH2 0xFF9 JUMPI PUSH2 0xFF9 PUSH2 0x1E62 JUMP JUMPDEST PUSH1 0x0 SWAP2 DUP3 MSTORE PUSH1 0x20 SWAP1 SWAP2 KECCAK256 PUSH1 0x8 SWAP1 SWAP2 MUL ADD PUSH1 0x4 ADD SLOAD PUSH2 0x100 SWAP1 DIV PUSH1 0xFF AND ISZERO PUSH2 0x1062 JUMPI PUSH1 0x40 MLOAD PUSH3 0x461BCD PUSH1 0xE5 SHL DUP2 MSTORE PUSH1 0x20 PUSH1 0x4 DUP3 ADD MSTORE PUSH1 0x18 PUSH1 0x24 DUP3 ADD MSTORE PUSH32 0x4974656D206E6F7420666F7220696E7374616E74206275790000000000000000 PUSH1 0x44 DUP3 ADD MSTORE PUSH1 0x64 ADD PUSH2 0x580 JUMP JUMPDEST PUSH1 0x0 PUSH1 0x1 PUSH2 0x1070 DUP2 DUP9 PUSH2 0x1E4B JUMP JUMPDEST DUP2 SLOAD DUP2 LT PUSH2 0x1080 JUMPI PUSH2 0x1080 PUSH2 0x1E62 JUMP JUMPDEST PUSH1 0x0 SWAP2 DUP3 MSTORE PUSH1 0x20 DUP3 KECCAK256 PUSH1 0x1 PUSH1 0x8 SWAP1 SWAP3 MUL ADD DUP2 ADD SLOAD PUSH1 0x1 PUSH1 0x1 PUSH1 0xA0 SHL SUB AND SWAP3 POP DUP3 SWAP1 PUSH4 0x6352211E SWAP1 PUSH2 0x10B1 DUP2 DUP12 PUSH2 0x1E4B JUMP JUMPDEST DUP2 SLOAD DUP2 LT PUSH2 0x10C1 JUMPI PUSH2 0x10C1 PUSH2 0x1E62 JUMP JUMPDEST SWAP1 PUSH1 0x0 MSTORE PUSH1 0x20 PUSH1 0x0 KECCAK256 SWAP1 PUSH1 0x8 MUL ADD PUSH1 0x2 ADD SLOAD PUSH1 0x40 MLOAD DUP3 PUSH4 0xFFFFFFFF AND PUSH1 0xE0 SHL DUP2 MSTORE PUSH1 0x4 ADD PUSH2 0x10F1 SWAP2 DUP2 MSTORE PUSH1 0x20 ADD SWAP1 JUMP JUMPDEST PUSH1 0x20 PUSH1 0x40 MLOAD DUP1 DUP4 SUB DUP2 DUP7 GAS STATICCALL ISZERO DUP1 ISZERO PUSH2 0x110E JUMPI RETURNDATASIZE PUSH1 0x0 DUP1 RETURNDATACOPY RETURNDATASIZE PUSH1 0x0 REVERT JUMPDEST POP POP POP POP PUSH1 0x40 MLOAD RETURNDATASIZE PUSH1 0x1F NOT PUSH1 0x1F DUP3 ADD AND DUP3 ADD DUP1 PUSH1 0x40 MSTORE POP DUP2 ADD SWAP1 PUSH2 0x1132 SWAP2 SWAP1 PUSH2 0x1E18 JUMP JUMPDEST SWAP1 POP CALLER PUSH1 0x1 PUSH1 0x1 PUSH1 0xA0 SHL SUB DUP3 AND EQ ISZERO PUSH2 0x118D JUMPI PUSH1 0x40 MLOAD PUSH3 0x461BCD PUSH1 0xE5 SHL DUP2 MSTORE PUSH1 0x20 PUSH1 0x4 DUP3 ADD MSTORE PUSH1 0x16 PUSH1 0x24 DUP3 ADD MSTORE PUSH32 0x53656C6C65722063616E6E6F7420627579206974656D00000000000000000000 PUSH1 0x44 DUP3 ADD MSTORE PUSH1 0x64 ADD PUSH2 0x580 JUMP JUMPDEST PUSH1 0x1 PUSH2 0x1199 DUP2 DUP10 PUSH2 0x1E4B JUMP JUMPDEST DUP2 SLOAD DUP2 LT PUSH2 0x11A9 JUMPI PUSH2 0x11A9 PUSH2 0x1E62 JUMP JUMPDEST SWAP1 PUSH1 0x0 MSTORE PUSH1 0x20 PUSH1 0x0 KECCAK256 SWAP1 PUSH1 0x8 MUL ADD PUSH1 0x3 ADD SLOAD CALLVALUE LT ISZERO PUSH2 0x120A JUMPI PUSH1 0x40 MLOAD PUSH3 0x461BCD PUSH1 0xE5 SHL DUP2 MSTORE PUSH1 0x20 PUSH1 0x4 DUP3 ADD MSTORE PUSH1 0x15 PUSH1 0x24 DUP3 ADD MSTORE PUSH32 0x4E6F7420656E6F7567682066756E64732073656E740000000000000000000000 PUSH1 0x44 DUP3 ADD MSTORE PUSH1 0x64 ADD PUSH2 0x580 JUMP JUMPDEST PUSH2 0x1213 DUP8 PUSH2 0x18A4 JUMP JUMPDEST POP POP POP POP POP POP POP JUMP JUMPDEST PUSH2 0x1224 PUSH2 0x17ED JUMP JUMPDEST PUSH1 0x1 PUSH1 0x1 PUSH1 0xA0 SHL SUB DUP2 AND PUSH2 0x12A0 JUMPI PUSH1 0x40 MLOAD PUSH3 0x461BCD PUSH1 0xE5 SHL DUP2 MSTORE PUSH1 0x20 PUSH1 0x4 DUP3 ADD MSTORE PUSH1 0x26 PUSH1 0x24 DUP3 ADD MSTORE PUSH32 0x4F776E61626C653A206E6577206F776E657220697320746865207A65726F2061 PUSH1 0x44 DUP3 ADD MSTORE PUSH32 0x6464726573730000000000000000000000000000000000000000000000000000 PUSH1 0x64 DUP3 ADD MSTORE PUSH1 0x84 ADD PUSH2 0x580 JUMP JUMPDEST PUSH2 0x12A9 DUP2 PUSH2 0x1847 JUMP JUMPDEST POP JUMP JUMPDEST PUSH1 0x1 PUSH1 0x1 PUSH1 0xA0 SHL SUB DUP4 AND PUSH1 0x0 SWAP1 DUP2 MSTORE PUSH1 0x4 PUSH1 0x20 SWAP1 DUP2 MSTORE PUSH1 0x40 DUP1 DUP4 KECCAK256 DUP8 DUP5 MSTORE SWAP1 SWAP2 MSTORE DUP2 KECCAK256 SLOAD PUSH2 0x15B0 JUMPI PUSH1 0x1 DUP1 SLOAD PUSH1 0x0 SWAP2 PUSH2 0x12E5 SWAP2 SWAP1 PUSH2 0x1E78 JUMP JUMPDEST PUSH1 0x40 DUP1 MLOAD PUSH2 0x120 DUP2 ADD DUP3 MSTORE DUP3 DUP2 MSTORE PUSH1 0x1 PUSH1 0x1 PUSH1 0xA0 SHL SUB DUP1 DUP10 AND PUSH1 0x20 DUP1 DUP5 ADD DUP3 DUP2 MSTORE DUP5 DUP7 ADD DUP14 DUP2 MSTORE PUSH1 0x60 DUP7 ADD DUP13 DUP2 MSTORE PUSH1 0x0 PUSH1 0x80 DUP9 ADD DUP2 DUP2 MSTORE DUP14 ISZERO ISZERO PUSH1 0xA0 DUP11 ADD SWAP1 DUP2 MSTORE PUSH1 0xC0 DUP11 ADD DUP4 DUP2 MSTORE PUSH1 0xE0 DUP12 ADD DUP5 DUP2 MSTORE PUSH2 0x100 DUP1 DUP14 ADD DUP7 DUP2 MSTORE PUSH1 0x1 DUP1 SLOAD DUP1 DUP3 ADD DUP3 SSTORE DUP2 DUP10 MSTORE SWAP15 MLOAD PUSH1 0x8 SWAP1 SWAP16 MUL PUSH32 0xB10E2D527612073B26EECDFD717E6A320CF44B4AFAC2B0732D9FCBE2B7FA0CF6 DUP2 ADD SWAP16 SWAP1 SWAP16 SSTORE SWAP10 MLOAD PUSH32 0xB10E2D527612073B26EECDFD717E6A320CF44B4AFAC2B0732D9FCBE2B7FA0CF7 DUP16 ADD DUP1 SLOAD SWAP2 DUP16 AND PUSH20 0xFFFFFFFFFFFFFFFFFFFFFFFFFFFFFFFFFFFFFFFF NOT SWAP3 DUP4 AND OR SWAP1 SSTORE SWAP9 MLOAD PUSH32 0xB10E2D527612073B26EECDFD717E6A320CF44B4AFAC2B0732D9FCBE2B7FA0CF8 DUP16 ADD SSTORE SWAP7 MLOAD PUSH32 0xB10E2D527612073B26EECDFD717E6A320CF44B4AFAC2B0732D9FCBE2B7FA0CF9 DUP15 ADD SSTORE SWAP4 MLOAD PUSH32 0xB10E2D527612073B26EECDFD717E6A320CF44B4AFAC2B0732D9FCBE2B7FA0CFA DUP14 ADD DUP1 SLOAD SWAP5 MLOAD ISZERO ISZERO SWAP1 SWAP6 MUL PUSH2 0xFF00 NOT SWAP2 ISZERO ISZERO SWAP2 SWAP1 SWAP2 AND PUSH2 0xFFFF NOT SWAP1 SWAP5 AND SWAP4 SWAP1 SWAP4 OR SWAP3 SWAP1 SWAP3 OR SWAP1 SWAP3 SSTORE SWAP1 MLOAD PUSH32 0xB10E2D527612073B26EECDFD717E6A320CF44B4AFAC2B0732D9FCBE2B7FA0CFB DUP11 ADD SSTORE MLOAD PUSH32 0xB10E2D527612073B26EECDFD717E6A320CF44B4AFAC2B0732D9FCBE2B7FA0CFC DUP10 ADD DUP1 SLOAD SWAP2 DUP10 AND SWAP2 DUP6 AND SWAP2 SWAP1 SWAP2 OR SWAP1 SSTORE SWAP1 MLOAD PUSH32 0xB10E2D527612073B26EECDFD717E6A320CF44B4AFAC2B0732D9FCBE2B7FA0CFD SWAP1 SWAP8 ADD DUP1 SLOAD SWAP8 SWAP1 SWAP7 AND SWAP7 SWAP1 SWAP2 AND SWAP6 SWAP1 SWAP6 OR SWAP1 SWAP4 SSTORE DUP2 DUP5 MSTORE PUSH1 0x2 DUP2 MSTORE DUP5 DUP5 KECCAK256 DUP13 DUP6 MSTORE DUP2 MSTORE DUP5 DUP5 KECCAK256 DUP1 SLOAD PUSH1 0xFF NOT AND DUP5 OR SWAP1 SSTORE SWAP1 DUP4 MSTORE PUSH1 0x4 DUP2 MSTORE DUP4 DUP4 KECCAK256 DUP12 DUP5 MSTORE SWAP1 MSTORE SWAP2 SWAP1 KECCAK256 DUP3 SWAP1 SSTORE SWAP1 SWAP2 POP DUP2 SWAP1 PUSH2 0x1523 DUP2 DUP4 PUSH2 0x1E4B JUMP JUMPDEST DUP2 SLOAD DUP2 LT PUSH2 0x1533 JUMPI PUSH2 0x1533 PUSH2 0x1E62 JUMP JUMPDEST SWAP1 PUSH1 0x0 MSTORE PUSH1 0x20 PUSH1 0x0 KECCAK256 SWAP1 PUSH1 0x8 MUL ADD PUSH1 0x0 ADD SLOAD EQ PUSH2 0x1552 JUMPI PUSH2 0x1552 PUSH2 0x1E90 JUMP JUMPDEST PUSH1 0x40 DUP1 MLOAD DUP3 DUP2 MSTORE PUSH1 0x20 DUP2 ADD DUP9 SWAP1 MSTORE PUSH1 0x1 PUSH1 0x1 PUSH1 0xA0 SHL SUB DUP8 AND DUP2 DUP4 ADD MSTORE PUSH1 0x60 DUP2 ADD DUP7 SWAP1 MSTORE DUP5 ISZERO ISZERO PUSH1 0x80 DUP3 ADD MSTORE SWAP1 MLOAD PUSH32 0xE4A54A91E473F57D7D37432109F99FE1114825D4156A5FC960747848D9326C60 SWAP2 DUP2 SWAP1 SUB PUSH1 0xA0 ADD SWAP1 LOG1 SWAP1 POP PUSH2 0x17E5 JUMP JUMPDEST PUSH1 0x1 PUSH1 0x1 PUSH1 0xA0 SHL SUB DUP5 AND PUSH1 0x0 SWAP1 DUP2 MSTORE PUSH1 0x4 PUSH1 0x20 SWAP1 DUP2 MSTORE PUSH1 0x40 DUP1 DUP4 KECCAK256 DUP9 DUP5 MSTORE SWAP1 SWAP2 MSTORE DUP2 KECCAK256 SLOAD PUSH1 0x1 SWAP1 PUSH2 0x15E2 SWAP1 DUP3 SWAP1 PUSH2 0x1E4B JUMP JUMPDEST DUP2 SLOAD DUP2 LT PUSH2 0x15F2 JUMPI PUSH2 0x15F2 PUSH2 0x1E62 JUMP JUMPDEST PUSH1 0x0 SWAP2 DUP3 MSTORE PUSH1 0x20 DUP1 DUP4 KECCAK256 PUSH1 0x4 PUSH1 0x8 SWAP1 SWAP4 MUL ADD DUP3 ADD DUP1 SLOAD SWAP5 ISZERO ISZERO PUSH1 0xFF NOT SWAP1 SWAP6 AND SWAP5 SWAP1 SWAP5 OR SWAP1 SWAP4 SSTORE PUSH1 0x1 PUSH1 0x1 PUSH1 0xA0 SHL SUB DUP8 AND DUP3 MSTORE DUP3 MSTORE PUSH1 0x40 DUP1 DUP3 KECCAK256 DUP9 DUP4 MSTORE SWAP1 SWAP3 MSTORE KECCAK256 SLOAD DUP3 SWAP1 PUSH1 0x1 SWAP1 PUSH2 0x1643 SWAP1 DUP3 SWAP1 PUSH2 0x1E4B JUMP JUMPDEST DUP2 SLOAD DUP2 LT PUSH2 0x1653 JUMPI PUSH2 0x1653 PUSH2 0x1E62 JUMP JUMPDEST PUSH1 0x0 SWAP2 DUP3 MSTORE PUSH1 0x20 DUP1 DUP4 KECCAK256 PUSH1 0x4 PUSH1 0x8 SWAP1 SWAP4 MUL ADD DUP3 ADD DUP1 SLOAD SWAP5 ISZERO ISZERO PUSH2 0x100 MUL PUSH2 0xFF00 NOT SWAP1 SWAP6 AND SWAP5 SWAP1 SWAP5 OR SWAP1 SWAP4 SSTORE PUSH1 0x1 PUSH1 0x1 PUSH1 0xA0 SHL SUB DUP8 AND DUP3 MSTORE DUP3 MSTORE PUSH1 0x40 DUP1 DUP3 KECCAK256 DUP9 DUP4 MSTORE SWAP1 SWAP3 MSTORE KECCAK256 SLOAD DUP4 SWAP1 PUSH1 0x1 SWAP1 PUSH2 0x16A9 SWAP1 DUP3 SWAP1 PUSH2 0x1E4B JUMP JUMPDEST DUP2 SLOAD DUP2 LT PUSH2 0x16B9 JUMPI PUSH2 0x16B9 PUSH2 0x1E62 JUMP JUMPDEST PUSH1 0x0 SWAP2 DUP3 MSTORE PUSH1 0x20 DUP1 DUP4 KECCAK256 PUSH1 0x8 SWAP3 SWAP1 SWAP3 MUL SWAP1 SWAP2 ADD PUSH1 0x3 ADD SWAP3 SWAP1 SWAP3 SSTORE PUSH1 0x1 PUSH1 0x1 PUSH1 0xA0 SHL SUB DUP7 AND DUP1 DUP3 MSTORE PUSH1 0x2 DUP4 MSTORE PUSH1 0x40 DUP1 DUP4 KECCAK256 DUP10 DUP5 MSTORE DUP5 MSTORE DUP1 DUP4 KECCAK256 DUP1 SLOAD PUSH1 0x1 PUSH1 0xFF NOT SWAP1 SWAP2 AND DUP2 OR SWAP1 SWAP2 SSTORE SWAP2 DUP4 MSTORE PUSH1 0x4 DUP5 MSTORE DUP1 DUP4 KECCAK256 DUP10 DUP5 MSTORE SWAP1 SWAP4 MSTORE SWAP2 SWAP1 KECCAK256 SLOAD SWAP1 PUSH2 0x171F DUP2 DUP4 PUSH2 0x1E4B JUMP JUMPDEST DUP2 SLOAD DUP2 LT PUSH2 0x172F JUMPI PUSH2 0x172F PUSH2 0x1E62 JUMP JUMPDEST SWAP1 PUSH1 0x0 MSTORE PUSH1 0x20 PUSH1 0x0 KECCAK256 SWAP1 PUSH1 0x8 MUL ADD PUSH1 0x0 ADD SLOAD EQ PUSH2 0x174E JUMPI PUSH2 0x174E PUSH2 0x1E90 JUMP JUMPDEST PUSH1 0x1 PUSH1 0x1 PUSH1 0xA0 SHL SUB DUP5 AND PUSH1 0x0 DUP2 DUP2 MSTORE PUSH1 0x4 PUSH1 0x20 SWAP1 DUP2 MSTORE PUSH1 0x40 DUP1 DUP4 KECCAK256 DUP10 DUP5 MSTORE DUP3 MSTORE SWAP2 DUP3 SWAP1 KECCAK256 SLOAD DUP3 MLOAD SWAP1 DUP2 MSTORE SWAP1 DUP2 ADD DUP9 SWAP1 MSTORE DUP1 DUP3 ADD SWAP3 SWAP1 SWAP3 MSTORE PUSH1 0x60 DUP3 ADD DUP6 SWAP1 MSTORE DUP4 ISZERO ISZERO PUSH1 0x80 DUP4 ADD MSTORE MLOAD PUSH32 0xE4A54A91E473F57D7D37432109F99FE1114825D4156A5FC960747848D9326C60 SWAP2 DUP2 SWAP1 SUB PUSH1 0xA0 ADD SWAP1 LOG1 POP PUSH1 0x1 PUSH1 0x1 PUSH1 0xA0 SHL SUB DUP4 AND PUSH1 0x0 SWAP1 DUP2 MSTORE PUSH1 0x4 PUSH1 0x20 SWAP1 DUP2 MSTORE PUSH1 0x40 DUP1 DUP4 KECCAK256 DUP8 DUP5 MSTORE SWAP1 SWAP2 MSTORE SWAP1 KECCAK256 SLOAD JUMPDEST SWAP5 SWAP4 POP POP POP POP JUMP JUMPDEST PUSH1 0x0 SLOAD PUSH1 0x1 PUSH1 0x1 PUSH1 0xA0 SHL SUB AND CALLER EQ PUSH2 0xC1E JUMPI PUSH1 0x40 MLOAD PUSH3 0x461BCD PUSH1 0xE5 SHL DUP2 MSTORE PUSH1 0x20 PUSH1 0x4 DUP3 ADD DUP2 SWAP1 MSTORE PUSH1 0x24 DUP3 ADD MSTORE PUSH32 0x4F776E61626C653A2063616C6C6572206973206E6F7420746865206F776E6572 PUSH1 0x44 DUP3 ADD MSTORE PUSH1 0x64 ADD PUSH2 0x580 JUMP JUMPDEST PUSH1 0x0 DUP1 SLOAD PUSH1 0x1 PUSH1 0x1 PUSH1 0xA0 SHL SUB DUP4 DUP2 AND PUSH20 0xFFFFFFFFFFFFFFFFFFFFFFFFFFFFFFFFFFFFFFFF NOT DUP4 AND DUP2 OR DUP5 SSTORE PUSH1 0x40 MLOAD SWAP2 SWAP1 SWAP3 AND SWAP3 DUP4 SWAP2 PUSH32 0x8BE0079C531659141344CD1FD0A4F28419497F9722A3DAAFE3B4186F6B6457E0 SWAP2 SWAP1 LOG3 POP POP JUMP JUMPDEST PUSH1 0x0 PUSH1 0x1 PUSH2 0x18B2 DUP2 DUP5 PUSH2 0x1E4B JUMP JUMPDEST DUP2 SLOAD DUP2 LT PUSH2 0x18C2 JUMPI PUSH2 0x18C2 PUSH2 0x1E62 JUMP JUMPDEST PUSH1 0x0 SWAP2 DUP3 MSTORE PUSH1 0x20 DUP3 KECCAK256 PUSH1 0x1 PUSH1 0x8 SWAP1 SWAP3 MUL ADD DUP2 ADD SLOAD PUSH1 0x1 PUSH1 0x1 PUSH1 0xA0 SHL SUB AND SWAP3 POP DUP3 SWAP1 PUSH4 0x6352211E SWAP1 PUSH2 0x18F3 DUP2 DUP8 PUSH2 0x1E4B JUMP JUMPDEST DUP2 SLOAD DUP2 LT PUSH2 0x1903 JUMPI PUSH2 0x1903 PUSH2 0x1E62 JUMP JUMPDEST SWAP1 PUSH1 0x0 MSTORE PUSH1 0x20 PUSH1 0x0 KECCAK256 SWAP1 PUSH1 0x8 MUL ADD PUSH1 0x2 ADD SLOAD PUSH1 0x40 MLOAD DUP3 PUSH4 0xFFFFFFFF AND PUSH1 0xE0 SHL DUP2 MSTORE PUSH1 0x4 ADD PUSH2 0x1933 SWAP2 DUP2 MSTORE PUSH1 0x20 ADD SWAP1 JUMP JUMPDEST PUSH1 0x20 PUSH1 0x40 MLOAD DUP1 DUP4 SUB DUP2 DUP7 GAS STATICCALL ISZERO DUP1 ISZERO PUSH2 0x1950 JUMPI RETURNDATASIZE PUSH1 0x0 DUP1 RETURNDATACOPY RETURNDATASIZE PUSH1 0x0 REVERT JUMPDEST POP POP POP POP PUSH1 0x40 MLOAD RETURNDATASIZE PUSH1 0x1F NOT PUSH1 0x1F DUP3 ADD AND DUP3 ADD DUP1 PUSH1 0x40 MSTORE POP DUP2 ADD SWAP1 PUSH2 0x1974 SWAP2 SWAP1 PUSH2 0x1E18 JUMP JUMPDEST SWAP1 POP PUSH1 0x0 DUP2 PUSH1 0x1 PUSH1 0x1 PUSH1 0xA0 SHL SUB AND CALLVALUE PUSH1 0x40 MLOAD PUSH1 0x0 PUSH1 0x40 MLOAD DUP1 DUP4 SUB DUP2 DUP6 DUP8 GAS CALL SWAP3 POP POP POP RETURNDATASIZE DUP1 PUSH1 0x0 DUP2 EQ PUSH2 0x19C3 JUMPI PUSH1 0x40 MLOAD SWAP2 POP PUSH1 0x1F NOT PUSH1 0x3F RETURNDATASIZE ADD AND DUP3 ADD PUSH1 0x40 MSTORE RETURNDATASIZE DUP3 MSTORE RETURNDATASIZE PUSH1 0x0 PUSH1 0x20 DUP5 ADD RETURNDATACOPY PUSH2 0x19C8 JUMP JUMPDEST PUSH1 0x60 SWAP2 POP JUMPDEST POP POP SWAP1 POP DUP1 PUSH2 0x1A19 JUMPI PUSH1 0x40 MLOAD PUSH3 0x461BCD PUSH1 0xE5 SHL DUP2 MSTORE PUSH1 0x20 PUSH1 0x4 DUP3 ADD MSTORE PUSH1 0x14 PUSH1 0x24 DUP3 ADD MSTORE PUSH32 0x4661696C656420746F2073656E64204574686572000000000000000000000000 PUSH1 0x44 DUP3 ADD MSTORE PUSH1 0x64 ADD PUSH2 0x580 JUMP JUMPDEST PUSH1 0x1 DUP1 PUSH2 0x1A26 DUP2 DUP8 PUSH2 0x1E4B JUMP JUMPDEST DUP2 SLOAD DUP2 LT PUSH2 0x1A36 JUMPI PUSH2 0x1A36 PUSH2 0x1E62 JUMP JUMPDEST PUSH1 0x0 SWAP2 DUP3 MSTORE PUSH1 0x20 DUP3 KECCAK256 PUSH1 0x8 SWAP2 SWAP1 SWAP2 MUL ADD PUSH1 0x4 ADD DUP1 SLOAD PUSH1 0xFF NOT AND SWAP3 ISZERO ISZERO SWAP3 SWAP1 SWAP3 OR SWAP1 SWAP2 SSTORE PUSH1 0x2 DUP2 PUSH1 0x1 PUSH2 0x1A68 DUP2 DUP10 PUSH2 0x1E4B JUMP JUMPDEST DUP2 SLOAD DUP2 LT PUSH2 0x1A78 JUMPI PUSH2 0x1A78 PUSH2 0x1E62 JUMP JUMPDEST PUSH1 0x0 SWAP2 DUP3 MSTORE PUSH1 0x20 DUP1 DUP4 KECCAK256 PUSH1 0x1 PUSH1 0x8 SWAP1 SWAP4 MUL ADD DUP3 ADD SLOAD PUSH1 0x1 PUSH1 0x1 PUSH1 0xA0 SHL SUB AND DUP5 MSTORE DUP4 ADD SWAP4 SWAP1 SWAP4 MSTORE PUSH1 0x40 SWAP1 SWAP2 ADD DUP2 KECCAK256 SWAP2 PUSH2 0x1AB0 DUP2 DUP10 PUSH2 0x1E4B JUMP JUMPDEST DUP2 SLOAD DUP2 LT PUSH2 0x1AC0 JUMPI PUSH2 0x1AC0 PUSH2 0x1E62 JUMP JUMPDEST SWAP1 PUSH1 0x0 MSTORE PUSH1 0x20 PUSH1 0x0 KECCAK256 SWAP1 PUSH1 0x8 MUL ADD PUSH1 0x2 ADD SLOAD DUP2 MSTORE PUSH1 0x20 ADD SWAP1 DUP2 MSTORE PUSH1 0x20 ADD PUSH1 0x0 KECCAK256 PUSH1 0x0 PUSH2 0x100 EXP DUP2 SLOAD DUP2 PUSH1 0xFF MUL NOT AND SWAP1 DUP4 ISZERO ISZERO MUL OR SWAP1 SSTORE POP PUSH1 0x1 DUP1 DUP6 PUSH2 0x1B05 SWAP2 SWAP1 PUSH2 0x1E4B JUMP JUMPDEST DUP2 SLOAD DUP2 LT PUSH2 0x1B15 JUMPI PUSH2 0x1B15 PUSH2 0x1E62 JUMP JUMPDEST PUSH1 0x0 SWAP2 DUP3 MSTORE PUSH1 0x20 SWAP1 SWAP2 KECCAK256 PUSH1 0x1 PUSH1 0x8 SWAP1 SWAP3 MUL ADD DUP2 ADD SLOAD PUSH1 0x1 PUSH1 0x1 PUSH1 0xA0 SHL SUB SWAP1 DUP2 AND SWAP2 PUSH4 0x42842E0E SWAP2 DUP7 AND SWAP1 PUSH4 0x6352211E SWAP1 PUSH2 0x1B4F DUP2 DUP11 PUSH2 0x1E4B JUMP JUMPDEST DUP2 SLOAD DUP2 LT PUSH2 0x1B5F JUMPI PUSH2 0x1B5F PUSH2 0x1E62 JUMP JUMPDEST SWAP1 PUSH1 0x0 MSTORE PUSH1 0x20 PUSH1 0x0 KECCAK256 SWAP1 PUSH1 0x8 MUL ADD PUSH1 0x2 ADD SLOAD PUSH1 0x40 MLOAD DUP3 PUSH4 0xFFFFFFFF AND PUSH1 0xE0 SHL DUP2 MSTORE PUSH1 0x4 ADD PUSH2 0x1B8F SWAP2 DUP2 MSTORE PUSH1 0x20 ADD SWAP1 JUMP JUMPDEST PUSH1 0x20 PUSH1 0x40 MLOAD DUP1 DUP4 SUB DUP2 DUP7 GAS STATICCALL ISZERO DUP1 ISZERO PUSH2 0x1BAC JUMPI RETURNDATASIZE PUSH1 0x0 DUP1 RETURNDATACOPY RETURNDATASIZE PUSH1 0x0 REVERT JUMPDEST POP POP POP POP PUSH1 0x40 MLOAD RETURNDATASIZE PUSH1 0x1F NOT PUSH1 0x1F DUP3 ADD AND DUP3 ADD DUP1 PUSH1 0x40 MSTORE POP DUP2 ADD SWAP1 PUSH2 0x1BD0 SWAP2 SWAP1 PUSH2 0x1E18 JUMP JUMPDEST CALLER PUSH1 0x1 PUSH2 0x1BDD DUP2 DUP11 PUSH2 0x1E4B JUMP JUMPDEST DUP2 SLOAD DUP2 LT PUSH2 0x1BED JUMPI PUSH2 0x1BED PUSH2 0x1E62 JUMP JUMPDEST PUSH1 0x0 SWAP2 DUP3 MSTORE PUSH1 0x20 SWAP1 SWAP2 KECCAK256 PUSH1 0x2 PUSH1 0x8 SWAP1 SWAP3 MUL ADD ADD SLOAD PUSH1 0x40 MLOAD PUSH32 0xFFFFFFFF00000000000000000000000000000000000000000000000000000000 PUSH1 0xE0 DUP7 SWAP1 SHL AND DUP2 MSTORE PUSH1 0x1 PUSH1 0x1 PUSH1 0xA0 SHL SUB SWAP4 DUP5 AND PUSH1 0x4 DUP3 ADD MSTORE SWAP3 SWAP1 SWAP2 AND PUSH1 0x24 DUP4 ADD MSTORE PUSH1 0x44 DUP3 ADD MSTORE PUSH1 0x64 ADD PUSH1 0x0 PUSH1 0x40 MLOAD DUP1 DUP4 SUB DUP2 PUSH1 0x0 DUP8 DUP1 EXTCODESIZE ISZERO DUP1 ISZERO PUSH2 0x1C68 JUMPI PUSH1 0x0 DUP1 REVERT JUMPDEST POP GAS CALL ISZERO DUP1 ISZERO PUSH2 0x1C7C JUMPI RETURNDATASIZE PUSH1 0x0 DUP1 RETURNDATACOPY RETURNDATASIZE PUSH1 0x0 REVERT JUMPDEST POP POP POP POP PUSH32 0xA574C741071BB18F51FA88C17AEEFEC514BEBF670CA22A3736FBA6504ECBB763 DUP5 CALLER PUSH1 0x1 DUP1 DUP9 PUSH2 0x1CB1 SWAP2 SWAP1 PUSH2 0x1E4B JUMP JUMPDEST DUP2 SLOAD DUP2 LT PUSH2 0x1CC1 JUMPI PUSH2 0x1CC1 PUSH2 0x1E62 JUMP JUMPDEST SWAP1 PUSH1 0x0 MSTORE PUSH1 0x20 PUSH1 0x0 KECCAK256 SWAP1 PUSH1 0x8 MUL ADD PUSH1 0x3 ADD SLOAD PUSH1 0x40 MLOAD PUSH2 0x1CFC SWAP4 SWAP3 SWAP2 SWAP1 SWAP3 DUP4 MSTORE PUSH1 0x1 PUSH1 0x1 PUSH1 0xA0 SHL SUB SWAP2 SWAP1 SWAP2 AND PUSH1 0x20 DUP4 ADD MSTORE PUSH1 0x40 DUP3 ADD MSTORE PUSH1 0x60 ADD SWAP1 JUMP JUMPDEST PUSH1 0x40 MLOAD DUP1 SWAP2 SUB SWAP1 LOG1 POP POP POP POP JUMP JUMPDEST PUSH1 0x0 PUSH1 0x20 DUP3 DUP5 SUB SLT ISZERO PUSH2 0x1D1C JUMPI PUSH1 0x0 DUP1 REVERT JUMPDEST POP CALLDATALOAD SWAP2 SWAP1 POP JUMP JUMPDEST PUSH1 0x1 PUSH1 0x1 PUSH1 0xA0 SHL SUB DUP2 AND DUP2 EQ PUSH2 0x12A9 JUMPI PUSH1 0x0 DUP1 REVERT JUMPDEST PUSH1 0x0 PUSH1 0x20 DUP3 DUP5 SUB SLT ISZERO PUSH2 0x1D4A JUMPI PUSH1 0x0 DUP1 REVERT JUMPDEST DUP2 CALLDATALOAD PUSH2 0x1D55 DUP2 PUSH2 0x1D23 JUMP JUMPDEST SWAP4 SWAP3 POP POP POP JUMP JUMPDEST PUSH1 0x0 DUP1 PUSH1 0x0 DUP1 PUSH1 0x80 DUP6 DUP8 SUB SLT ISZERO PUSH2 0x1D72 JUMPI PUSH1 0x0 DUP1 REVERT JUMPDEST DUP5 CALLDATALOAD SWAP4 POP PUSH1 0x20 DUP6 ADD CALLDATALOAD PUSH2 0x1D84 DUP2 PUSH2 0x1D23 JUMP JUMPDEST SWAP3 POP PUSH1 0x40 DUP6 ADD CALLDATALOAD SWAP2 POP PUSH1 0x60 DUP6 ADD CALLDATALOAD DUP1 ISZERO ISZERO DUP2 EQ PUSH2 0x1DA0 JUMPI PUSH1 0x0 DUP1 REVERT JUMPDEST SWAP4 SWAP7 SWAP3 SWAP6 POP SWAP1 SWAP4 POP POP JUMP JUMPDEST PUSH1 0x0 DUP1 PUSH1 0x0 PUSH1 0x60 DUP5 DUP7 SUB SLT ISZERO PUSH2 0x1DC0 JUMPI PUSH1 0x0 DUP1 REVERT JUMPDEST DUP4 CALLDATALOAD PUSH2 0x1DCB DUP2 PUSH2 0x1D23 JUMP JUMPDEST SWAP3 POP PUSH1 0x20 DUP5 ADD CALLDATALOAD PUSH2 0x1DDB DUP2 PUSH2 0x1D23 JUMP JUMPDEST SWAP3 SWAP6 SWAP3 SWAP5 POP POP POP PUSH1 0x40 SWAP2 SWAP1 SWAP2 ADD CALLDATALOAD SWAP1 JUMP JUMPDEST PUSH1 0x0 DUP1 PUSH1 0x40 DUP4 DUP6 SUB SLT ISZERO PUSH2 0x1DFF JUMPI PUSH1 0x0 DUP1 REVERT JUMPDEST DUP3 CALLDATALOAD PUSH2 0x1E0A DUP2 PUSH2 0x1D23 JUMP JUMPDEST SWAP5 PUSH1 0x20 SWAP4 SWAP1 SWAP4 ADD CALLDATALOAD SWAP4 POP POP POP JUMP JUMPDEST PUSH1 0x0 PUSH1 0x20 DUP3 DUP5 SUB SLT ISZERO PUSH2 0x1E2A JUMPI PUSH1 0x0 DUP1 REVERT JUMPDEST DUP2 MLOAD PUSH2 0x1D55 DUP2 PUSH2 0x1D23 JUMP JUMPDEST PUSH4 0x4E487B71 PUSH1 0xE0 SHL PUSH1 0x0 MSTORE PUSH1 0x11 PUSH1 0x4 MSTORE PUSH1 0x24 PUSH1 0x0 REVERT JUMPDEST PUSH1 0x0 DUP3 DUP3 LT ISZERO PUSH2 0x1E5D JUMPI PUSH2 0x1E5D PUSH2 0x1E35 JUMP JUMPDEST POP SUB SWAP1 JUMP JUMPDEST PUSH4 0x4E487B71 PUSH1 0xE0 SHL PUSH1 0x0 MSTORE PUSH1 0x32 PUSH1 0x4 MSTORE PUSH1 0x24 PUSH1 0x0 REVERT JUMPDEST PUSH1 0x0 DUP3 NOT DUP3 GT ISZERO PUSH2 0x1E8B JUMPI PUSH2 0x1E8B PUSH2 0x1E35 JUMP JUMPDEST POP ADD SWAP1 JUMP JUMPDEST PUSH4 0x4E487B71 PUSH1 0xE0 SHL PUSH1 0x0 MSTORE PUSH1 0x1 PUSH1 0x4 MSTORE PUSH1 0x24 PUSH1 0x0 REVERT INVALID LOG2 PUSH5 0x6970667358 0x22 SLT KECCAK256 PUSH26 0x6D72B2D36D33151138EC4B189C10A0A923F571805B3A3D4FF486 PUSH11 0x203968D764736F6C634300 ADDMOD 0xC STOP CALLER "},"methodIdentifiers":{"activeItems(address,uint256)":"eca4f6a3","addItemToMarket(uint256,address,uint256,bool)":"170f872f","auctionItemId(address,uint256)":"688c43b5","buyItem(uint256)":"e7fb74c7","isPartner(address)":"8c0f9aac","itemsForSale(uint256)":"092d0afc","owner()":"8da5cb5b","partnerNativeToken(address)":"7f75d53a","pendingReturns(address,address,uint256)":"625f3499","printOwner(address)":"169d9771","removeERC20tokens(address)":"dfcbeae5","removeItem(uint256)":"71329171","renounceOwnership()":"715018a6","transferOwnership(address)":"f2fde38b","validERC(address)":"f9abc391"}}}}}