{"contracts/DAO/UniOwnDaoFactory.sol":{"UniOwnfactory":{"abi":[{"inputs":[{"internalType":"address payable","name":"uniOwnMaster_","type":"address"}],"stateMutability":"nonpayable","type":"constructor"},{"inputs":[],"name":"NullDeploy","type":"error"},{"anonymous":false,"inputs":[{"indexed":true,"internalType":"contract UniOwnDAO","name":"uniOwnDAO","type":"address"},{"indexed":false,"internalType":"string","name":"name","type":"string"},{"indexed":false,"internalType":"string","name":"symbol","type":"string"},{"indexed":false,"internalType":"bool","name":"paused","type":"bool"},{"indexed":false,"internalType":"address[]","name":"voters","type":"address[]"},{"indexed":false,"internalType":"uint256[]","name":"shares","type":"uint256[]"},{"indexed":false,"internalType":"uint32[16]","name":"govSettings","type":"uint32[16]"}],"name":"DAOdeployed","type":"event"},{"inputs":[{"internalType":"string","name":"name_","type":"string"},{"internalType":"string","name":"symbol_","type":"string"},{"internalType":"bool","name":"paused_","type":"bool"},{"internalType":"address[]","name":"voters_","type":"address[]"},{"internalType":"uint256[]","name":"shares_","type":"uint256[]"},{"internalType":"uint32[16]","name":"govSettings_","type":"uint32[16]"}],"name":"deployUniOwnDAO","outputs":[{"internalType":"contract UniOwnDAO","name":"uniOwnDAO","type":"address"}],"stateMutability":"payable","type":"function"}],"evm":{"bytecode":{"linkReferences":{},"object":"60a060405234801561001057600080fd5b5060405161071838038061071883398101604081905261002f91610040565b6001600160a01b0316608052610070565b60006020828403121561005257600080fd5b81516001600160a01b038116811461006957600080fd5b9392505050565b60805161068e61008a60003960006059015261068e6000f3fe60806040526004361061001e5760003560e01c80639fcd21ff14610023575b600080fd5b610036610031366004610406565b610052565b6040516001600160a01b03909116815260200160405180910390f35b600061007e7f00000000000000000000000000000000000000000000000000000000000000008a610161565b6040517fe16bc7680000000000000000000000000000000000000000000000000000000081529091506001600160a01b0382169063e16bc768906100d4908c908c908c908c908c908c908c908c906004016105ad565b600060405180830381600087803b1580156100ee57600080fd5b505af1158015610102573d6000803e3d6000fd5b50505050806001600160a01b03167f2d74781c3fd6b904f1a2dde150924c06801270bcf39b00a511ea98f304143dba8a8a8a8a8a8a8a8a60405161014d9897969594939291906105ad565b60405180910390a298975050505050505050565b6040517f3d602d80600a3d3981f30000000000000000000000000000000000000000000060208201527f363d3d373d3d3d363d7300000000000000000000000000000000000000000000602a8201526bffffffffffffffffffffffff19606084901b1660348201527f5af43d82803e903d91602b57fd5bf30000000000000000000000000000000000604882015260009081906057016040516020818303038152906040529050600083805190602001209050808251602084016000f592506001600160a01b038316610260576040517f8b1f004000000000000000000000000000000000000000000000000000000000815260040160405180910390fd5b505092915050565b7f4e487b7100000000000000000000000000000000000000000000000000000000600052604160045260246000fd5b600082601f8301126102a857600080fd5b813567ffffffffffffffff808211156102c3576102c3610268565b604051601f8301601f19908116603f011681019082821181831017156102eb576102eb610268565b8160405283815286602085880101111561030457600080fd5b836020870160208301376000602085830101528094505050505092915050565b8035801515811461033457600080fd5b919050565b60008083601f84011261034b57600080fd5b50813567ffffffffffffffff81111561036357600080fd5b6020830191508360208260051b850101111561037e57600080fd5b9250929050565b600082601f83011261039657600080fd5b60405161020080820182811067ffffffffffffffff821117156103bb576103bb610268565b604052830181858211156103ce57600080fd5b845b828110156103fb57803563ffffffff811681146103ed5760008081fd5b8252602091820191016103d0565b509195945050505050565b6000806000806000806000806102a0898b03121561042357600080fd5b883567ffffffffffffffff8082111561043b57600080fd5b6104478c838d01610297565b995060208b013591508082111561045d57600080fd5b6104698c838d01610297565b985061047760408c01610324565b975060608b013591508082111561048d57600080fd5b6104998c838d01610339565b909750955060808b01359150808211156104b257600080fd5b506104bf8b828c01610339565b90945092506104d390508a60a08b01610385565b90509295985092959890939650565b6000815180845260005b81811015610508576020818501810151868301820152016104ec565b8181111561051a576000602083870101525b50601f01601f19169290920160200192915050565b81835260007f07ffffffffffffffffffffffffffffffffffffffffffffffffffffffffffffff83111561056157600080fd5b8260051b8083602087013760009401602001938452509192915050565b8060005b60108110156105a757815163ffffffff16845260209384019390910190600101610582565b50505050565b60006102a08083526105c18184018c6104e2565b90506020838203818501526105d6828c6104e2565b8a15156040860152848103606086015288815289925081016000805b8a8110156106245784356001600160a01b038116808214610611578384fd5b84525093830193918301916001016105f2565b5050848103608086015261063981888a61052f565b935050505061064b60a083018461057e565b999850505050505050505056fea264697066735822122051d602040a8036425b196e125078e55c0735d918c58a64c9a9b339a7e63aa79f64736f6c634300080c0033","opcodes":"PUSH1 0xA0 PUSH1 0x40 MSTORE CALLVALUE DUP1 ISZERO PUSH2 0x10 JUMPI PUSH1 0x0 DUP1 REVERT JUMPDEST POP PUSH1 0x40 MLOAD PUSH2 0x718 CODESIZE SUB DUP1 PUSH2 0x718 DUP4 CODECOPY DUP2 ADD PUSH1 0x40 DUP2 SWAP1 MSTORE PUSH2 0x2F SWAP2 PUSH2 0x40 JUMP JUMPDEST PUSH1 0x1 PUSH1 0x1 PUSH1 0xA0 SHL SUB AND PUSH1 0x80 MSTORE PUSH2 0x70 JUMP JUMPDEST PUSH1 0x0 PUSH1 0x20 DUP3 DUP5 SUB SLT ISZERO PUSH2 0x52 JUMPI PUSH1 0x0 DUP1 REVERT JUMPDEST DUP2 MLOAD PUSH1 0x1 PUSH1 0x1 PUSH1 0xA0 SHL SUB DUP2 AND DUP2 EQ PUSH2 0x69 JUMPI PUSH1 0x0 DUP1 REVERT JUMPDEST SWAP4 SWAP3 POP POP POP JUMP JUMPDEST PUSH1 0x80 MLOAD PUSH2 0x68E PUSH2 0x8A PUSH1 0x0 CODECOPY PUSH1 0x0 PUSH1 0x59 ADD MSTORE PUSH2 0x68E PUSH1 0x0 RETURN INVALID PUSH1 0x80 PUSH1 0x40 MSTORE PUSH1 0x4 CALLDATASIZE LT PUSH2 0x1E JUMPI PUSH1 0x0 CALLDATALOAD PUSH1 0xE0 SHR DUP1 PUSH4 0x9FCD21FF EQ PUSH2 0x23 JUMPI JUMPDEST PUSH1 0x0 DUP1 REVERT JUMPDEST PUSH2 0x36 PUSH2 0x31 CALLDATASIZE PUSH1 0x4 PUSH2 0x406 JUMP JUMPDEST PUSH2 0x52 JUMP JUMPDEST PUSH1 0x40 MLOAD PUSH1 0x1 PUSH1 0x1 PUSH1 0xA0 SHL SUB SWAP1 SWAP2 AND DUP2 MSTORE PUSH1 0x20 ADD PUSH1 0x40 MLOAD DUP1 SWAP2 SUB SWAP1 RETURN JUMPDEST PUSH1 0x0 PUSH2 0x7E PUSH32 0x0 DUP11 PUSH2 0x161 JUMP JUMPDEST PUSH1 0x40 MLOAD PUSH32 0xE16BC76800000000000000000000000000000000000000000000000000000000 DUP2 MSTORE SWAP1 SWAP2 POP PUSH1 0x1 PUSH1 0x1 PUSH1 0xA0 SHL SUB DUP3 AND SWAP1 PUSH4 0xE16BC768 SWAP1 PUSH2 0xD4 SWAP1 DUP13 SWAP1 DUP13 SWAP1 DUP13 SWAP1 DUP13 SWAP1 DUP13 SWAP1 DUP13 SWAP1 DUP13 SWAP1 DUP13 SWAP1 PUSH1 0x4 ADD PUSH2 0x5AD JUMP JUMPDEST PUSH1 0x0 PUSH1 0x40 MLOAD DUP1 DUP4 SUB DUP2 PUSH1 0x0 DUP8 DUP1 EXTCODESIZE ISZERO DUP1 ISZERO PUSH2 0xEE JUMPI PUSH1 0x0 DUP1 REVERT JUMPDEST POP GAS CALL ISZERO DUP1 ISZERO PUSH2 0x102 JUMPI RETURNDATASIZE PUSH1 0x0 DUP1 RETURNDATACOPY RETURNDATASIZE PUSH1 0x0 REVERT JUMPDEST POP POP POP POP DUP1 PUSH1 0x1 PUSH1 0x1 PUSH1 0xA0 SHL SUB AND PUSH32 0x2D74781C3FD6B904F1A2DDE150924C06801270BCF39B00A511EA98F304143DBA DUP11 DUP11 DUP11 DUP11 DUP11 DUP11 DUP11 DUP11 PUSH1 0x40 MLOAD PUSH2 0x14D SWAP9 SWAP8 SWAP7 SWAP6 SWAP5 SWAP4 SWAP3 SWAP2 SWAP1 PUSH2 0x5AD JUMP JUMPDEST PUSH1 0x40 MLOAD DUP1 SWAP2 SUB SWAP1 LOG2 SWAP9 SWAP8 POP POP POP POP POP POP POP POP JUMP JUMPDEST PUSH1 0x40 MLOAD PUSH32 0x3D602D80600A3D3981F300000000000000000000000000000000000000000000 PUSH1 0x20 DUP3 ADD MSTORE PUSH32 0x363D3D373D3D3D363D7300000000000000000000000000000000000000000000 PUSH1 0x2A DUP3 ADD MSTORE PUSH12 0xFFFFFFFFFFFFFFFFFFFFFFFF NOT PUSH1 0x60 DUP5 SWAP1 SHL AND PUSH1 0x34 DUP3 ADD MSTORE PUSH32 0x5AF43D82803E903D91602B57FD5BF30000000000000000000000000000000000 PUSH1 0x48 DUP3 ADD MSTORE PUSH1 0x0 SWAP1 DUP2 SWAP1 PUSH1 0x57 ADD PUSH1 0x40 MLOAD PUSH1 0x20 DUP2 DUP4 SUB SUB DUP2 MSTORE SWAP1 PUSH1 0x40 MSTORE SWAP1 POP PUSH1 0x0 DUP4 DUP1 MLOAD SWAP1 PUSH1 0x20 ADD KECCAK256 SWAP1 POP DUP1 DUP3 MLOAD PUSH1 0x20 DUP5 ADD PUSH1 0x0 CREATE2 SWAP3 POP PUSH1 0x1 PUSH1 0x1 PUSH1 0xA0 SHL SUB DUP4 AND PUSH2 0x260 JUMPI PUSH1 0x40 MLOAD PUSH32 0x8B1F004000000000000000000000000000000000000000000000000000000000 DUP2 MSTORE PUSH1 0x4 ADD PUSH1 0x40 MLOAD DUP1 SWAP2 SUB SWAP1 REVERT JUMPDEST POP POP SWAP3 SWAP2 POP POP JUMP JUMPDEST PUSH32 0x4E487B7100000000000000000000000000000000000000000000000000000000 PUSH1 0x0 MSTORE PUSH1 0x41 PUSH1 0x4 MSTORE PUSH1 0x24 PUSH1 0x0 REVERT JUMPDEST PUSH1 0x0 DUP3 PUSH1 0x1F DUP4 ADD SLT PUSH2 0x2A8 JUMPI PUSH1 0x0 DUP1 REVERT JUMPDEST DUP2 CALLDATALOAD PUSH8 0xFFFFFFFFFFFFFFFF DUP1 DUP3 GT ISZERO PUSH2 0x2C3 JUMPI PUSH2 0x2C3 PUSH2 0x268 JUMP JUMPDEST PUSH1 0x40 MLOAD PUSH1 0x1F DUP4 ADD PUSH1 0x1F NOT SWAP1 DUP2 AND PUSH1 0x3F ADD AND DUP2 ADD SWAP1 DUP3 DUP3 GT DUP2 DUP4 LT OR ISZERO PUSH2 0x2EB JUMPI PUSH2 0x2EB PUSH2 0x268 JUMP JUMPDEST DUP2 PUSH1 0x40 MSTORE DUP4 DUP2 MSTORE DUP7 PUSH1 0x20 DUP6 DUP9 ADD ADD GT ISZERO PUSH2 0x304 JUMPI PUSH1 0x0 DUP1 REVERT JUMPDEST DUP4 PUSH1 0x20 DUP8 ADD PUSH1 0x20 DUP4 ADD CALLDATACOPY PUSH1 0x0 PUSH1 0x20 DUP6 DUP4 ADD ADD MSTORE DUP1 SWAP5 POP POP POP POP POP SWAP3 SWAP2 POP POP JUMP JUMPDEST DUP1 CALLDATALOAD DUP1 ISZERO ISZERO DUP2 EQ PUSH2 0x334 JUMPI PUSH1 0x0 DUP1 REVERT JUMPDEST SWAP2 SWAP1 POP JUMP JUMPDEST PUSH1 0x0 DUP1 DUP4 PUSH1 0x1F DUP5 ADD SLT PUSH2 0x34B JUMPI PUSH1 0x0 DUP1 REVERT JUMPDEST POP DUP2 CALLDATALOAD PUSH8 0xFFFFFFFFFFFFFFFF DUP2 GT ISZERO PUSH2 0x363 JUMPI PUSH1 0x0 DUP1 REVERT JUMPDEST PUSH1 0x20 DUP4 ADD SWAP2 POP DUP4 PUSH1 0x20 DUP3 PUSH1 0x5 SHL DUP6 ADD ADD GT ISZERO PUSH2 0x37E JUMPI PUSH1 0x0 DUP1 REVERT JUMPDEST SWAP3 POP SWAP3 SWAP1 POP JUMP JUMPDEST PUSH1 0x0 DUP3 PUSH1 0x1F DUP4 ADD SLT PUSH2 0x396 JUMPI PUSH1 0x0 DUP1 REVERT JUMPDEST PUSH1 0x40 MLOAD PUSH2 0x200 DUP1 DUP3 ADD DUP3 DUP2 LT PUSH8 0xFFFFFFFFFFFFFFFF DUP3 GT OR ISZERO PUSH2 0x3BB JUMPI PUSH2 0x3BB PUSH2 0x268 JUMP JUMPDEST PUSH1 0x40 MSTORE DUP4 ADD DUP2 DUP6 DUP3 GT ISZERO PUSH2 0x3CE JUMPI PUSH1 0x0 DUP1 REVERT JUMPDEST DUP5 JUMPDEST DUP3 DUP2 LT ISZERO PUSH2 0x3FB JUMPI DUP1 CALLDATALOAD PUSH4 0xFFFFFFFF DUP2 AND DUP2 EQ PUSH2 0x3ED JUMPI PUSH1 0x0 DUP1 DUP2 REVERT JUMPDEST DUP3 MSTORE PUSH1 0x20 SWAP2 DUP3 ADD SWAP2 ADD PUSH2 0x3D0 JUMP JUMPDEST POP SWAP2 SWAP6 SWAP5 POP POP POP POP POP JUMP JUMPDEST PUSH1 0x0 DUP1 PUSH1 0x0 DUP1 PUSH1 0x0 DUP1 PUSH1 0x0 DUP1 PUSH2 0x2A0 DUP10 DUP12 SUB SLT ISZERO PUSH2 0x423 JUMPI PUSH1 0x0 DUP1 REVERT JUMPDEST DUP9 CALLDATALOAD PUSH8 0xFFFFFFFFFFFFFFFF DUP1 DUP3 GT ISZERO PUSH2 0x43B JUMPI PUSH1 0x0 DUP1 REVERT JUMPDEST PUSH2 0x447 DUP13 DUP4 DUP14 ADD PUSH2 0x297 JUMP JUMPDEST SWAP10 POP PUSH1 0x20 DUP12 ADD CALLDATALOAD SWAP2 POP DUP1 DUP3 GT ISZERO PUSH2 0x45D JUMPI PUSH1 0x0 DUP1 REVERT JUMPDEST PUSH2 0x469 DUP13 DUP4 DUP14 ADD PUSH2 0x297 JUMP JUMPDEST SWAP9 POP PUSH2 0x477 PUSH1 0x40 DUP13 ADD PUSH2 0x324 JUMP JUMPDEST SWAP8 POP PUSH1 0x60 DUP12 ADD CALLDATALOAD SWAP2 POP DUP1 DUP3 GT ISZERO PUSH2 0x48D JUMPI PUSH1 0x0 DUP1 REVERT JUMPDEST PUSH2 0x499 DUP13 DUP4 DUP14 ADD PUSH2 0x339 JUMP JUMPDEST SWAP1 SWAP8 POP SWAP6 POP PUSH1 0x80 DUP12 ADD CALLDATALOAD SWAP2 POP DUP1 DUP3 GT ISZERO PUSH2 0x4B2 JUMPI PUSH1 0x0 DUP1 REVERT JUMPDEST POP PUSH2 0x4BF DUP12 DUP3 DUP13 ADD PUSH2 0x339 JUMP JUMPDEST SWAP1 SWAP5 POP SWAP3 POP PUSH2 0x4D3 SWAP1 POP DUP11 PUSH1 0xA0 DUP12 ADD PUSH2 0x385 JUMP JUMPDEST SWAP1 POP SWAP3 SWAP6 SWAP9 POP SWAP3 SWAP6 SWAP9 SWAP1 SWAP4 SWAP7 POP JUMP JUMPDEST PUSH1 0x0 DUP2 MLOAD DUP1 DUP5 MSTORE PUSH1 0x0 JUMPDEST DUP2 DUP2 LT ISZERO PUSH2 0x508 JUMPI PUSH1 0x20 DUP2 DUP6 ADD DUP2 ADD MLOAD DUP7 DUP4 ADD DUP3 ADD MSTORE ADD PUSH2 0x4EC JUMP JUMPDEST DUP2 DUP2 GT ISZERO PUSH2 0x51A JUMPI PUSH1 0x0 PUSH1 0x20 DUP4 DUP8 ADD ADD MSTORE JUMPDEST POP PUSH1 0x1F ADD PUSH1 0x1F NOT AND SWAP3 SWAP1 SWAP3 ADD PUSH1 0x20 ADD SWAP3 SWAP2 POP POP JUMP JUMPDEST DUP2 DUP4 MSTORE PUSH1 0x0 PUSH32 0x7FFFFFFFFFFFFFFFFFFFFFFFFFFFFFFFFFFFFFFFFFFFFFFFFFFFFFFFFFFFFFF DUP4 GT ISZERO PUSH2 0x561 JUMPI PUSH1 0x0 DUP1 REVERT JUMPDEST DUP3 PUSH1 0x5 SHL DUP1 DUP4 PUSH1 0x20 DUP8 ADD CALLDATACOPY PUSH1 0x0 SWAP5 ADD PUSH1 0x20 ADD SWAP4 DUP5 MSTORE POP SWAP2 SWAP3 SWAP2 POP POP JUMP JUMPDEST DUP1 PUSH1 0x0 JUMPDEST PUSH1 0x10 DUP2 LT ISZERO PUSH2 0x5A7 JUMPI DUP2 MLOAD PUSH4 0xFFFFFFFF AND DUP5 MSTORE PUSH1 0x20 SWAP4 DUP5 ADD SWAP4 SWAP1 SWAP2 ADD SWAP1 PUSH1 0x1 ADD PUSH2 0x582 JUMP JUMPDEST POP POP POP POP JUMP JUMPDEST PUSH1 0x0 PUSH2 0x2A0 DUP1 DUP4 MSTORE PUSH2 0x5C1 DUP2 DUP5 ADD DUP13 PUSH2 0x4E2 JUMP JUMPDEST SWAP1 POP PUSH1 0x20 DUP4 DUP3 SUB DUP2 DUP6 ADD MSTORE PUSH2 0x5D6 DUP3 DUP13 PUSH2 0x4E2 JUMP JUMPDEST DUP11 ISZERO ISZERO PUSH1 0x40 DUP7 ADD MSTORE DUP5 DUP2 SUB PUSH1 0x60 DUP7 ADD MSTORE DUP9 DUP2 MSTORE DUP10 SWAP3 POP DUP2 ADD PUSH1 0x0 DUP1 JUMPDEST DUP11 DUP2 LT ISZERO PUSH2 0x624 JUMPI DUP5 CALLDATALOAD PUSH1 0x1 PUSH1 0x1 PUSH1 0xA0 SHL SUB DUP2 AND DUP1 DUP3 EQ PUSH2 0x611 JUMPI DUP4 DUP5 REVERT JUMPDEST DUP5 MSTORE POP SWAP4 DUP4 ADD SWAP4 SWAP2 DUP4 ADD SWAP2 PUSH1 0x1 ADD PUSH2 0x5F2 JUMP JUMPDEST POP POP DUP5 DUP2 SUB PUSH1 0x80 DUP7 ADD MSTORE PUSH2 0x639 DUP2 DUP9 DUP11 PUSH2 0x52F JUMP JUMPDEST SWAP4 POP POP POP POP PUSH2 0x64B PUSH1 0xA0 DUP4 ADD DUP5 PUSH2 0x57E JUMP JUMPDEST SWAP10 SWAP9 POP POP POP POP POP POP POP POP POP JUMP INVALID LOG2 PUSH5 0x6970667358 0x22 SLT KECCAK256 MLOAD 0xD6 MUL DIV EXP DUP1 CALLDATASIZE TIMESTAMP JUMPDEST NOT PUSH15 0x125078E55C0735D918C58A64C9A9B3 CODECOPY 0xA7 0xE6 GASPRICE 0xA7 SWAP16 PUSH5 0x736F6C6343 STOP ADDMOD 0xC STOP CALLER "},"methodIdentifiers":{"deployUniOwnDAO(string,string,bool,address[],uint256[],uint32[16])":"9fcd21ff"}}}}}