{"contracts/DAO/UniOwnDAO.sol":{"UniOwnDAO":{"abi":[{"inputs":[],"name":"AlreadyVoted","type":"error"},{"inputs":[],"name":"InitCallFail","type":"error"},{"inputs":[],"name":"Initialized","type":"error"},{"inputs":[],"name":"InvalidNonce","type":"error"},{"inputs":[],"name":"InvalidSignature","type":"error"},{"inputs":[],"name":"NoArrayParity","type":"error"},{"inputs":[],"name":"NotCurrentProposal","type":"error"},{"inputs":[],"name":"NotDetermined","type":"error"},{"inputs":[],"name":"NotMember","type":"error"},{"inputs":[],"name":"NotProposer","type":"error"},{"inputs":[],"name":"NotVoteable","type":"error"},{"inputs":[],"name":"NullAddress","type":"error"},{"inputs":[],"name":"Paused","type":"error"},{"inputs":[],"name":"PeriodBounds","type":"error"},{"inputs":[],"name":"PrevNotProcessed","type":"error"},{"inputs":[],"name":"QuorumMax","type":"error"},{"inputs":[],"name":"Reentrancy","type":"error"},{"inputs":[],"name":"SignatureExpired","type":"error"},{"inputs":[],"name":"Sponsored","type":"error"},{"inputs":[],"name":"SupermajorityBounds","type":"error"},{"inputs":[],"name":"TypeBounds","type":"error"},{"inputs":[],"name":"Uint32max","type":"error"},{"inputs":[],"name":"Uint96max","type":"error"},{"inputs":[],"name":"VotingNotEnded","type":"error"},{"anonymous":false,"inputs":[{"indexed":true,"internalType":"address","name":"owner","type":"address"},{"indexed":true,"internalType":"address","name":"spender","type":"address"},{"indexed":false,"internalType":"uint256","name":"amount","type":"uint256"}],"name":"Approval","type":"event"},{"anonymous":false,"inputs":[{"indexed":true,"internalType":"address","name":"delegator","type":"address"},{"indexed":true,"internalType":"address","name":"fromDelegate","type":"address"},{"indexed":true,"internalType":"address","name":"toDelegate","type":"address"}],"name":"DelegateChanged","type":"event"},{"anonymous":false,"inputs":[{"indexed":true,"internalType":"address","name":"delegate","type":"address"},{"indexed":false,"internalType":"uint256","name":"previousBalance","type":"uint256"},{"indexed":false,"internalType":"uint256","name":"newBalance","type":"uint256"}],"name":"DelegateVotesChanged","type":"event"},{"anonymous":false,"inputs":[{"indexed":true,"internalType":"address","name":"proposer","type":"address"},{"indexed":true,"internalType":"uint256","name":"proposal","type":"uint256"},{"indexed":true,"internalType":"enum UniOwnDAO.ProposalType","name":"proposalType","type":"uint8"},{"indexed":false,"internalType":"string","name":"description","type":"string"},{"indexed":false,"internalType":"address[]","name":"accounts","type":"address[]"},{"indexed":false,"internalType":"uint256[]","name":"amounts","type":"uint256[]"},{"indexed":false,"internalType":"bytes[]","name":"payloads","type":"bytes[]"}],"name":"NewProposal","type":"event"},{"anonymous":false,"inputs":[{"indexed":false,"internalType":"bool","name":"paused","type":"bool"}],"name":"PauseFlipped","type":"event"},{"anonymous":false,"inputs":[{"indexed":true,"internalType":"address","name":"proposer","type":"address"},{"indexed":true,"internalType":"uint256","name":"proposal","type":"uint256"}],"name":"ProposalCancelled","type":"event"},{"anonymous":false,"inputs":[{"indexed":true,"internalType":"uint256","name":"proposal","type":"uint256"},{"indexed":true,"internalType":"bool","name":"didProposalPass","type":"bool"}],"name":"ProposalProcessed","type":"event"},{"anonymous":false,"inputs":[{"indexed":true,"internalType":"address","name":"sponsor","type":"address"},{"indexed":true,"internalType":"uint256","name":"proposal","type":"uint256"}],"name":"ProposalSponsored","type":"event"},{"anonymous":false,"inputs":[{"indexed":true,"internalType":"address","name":"from","type":"address"},{"indexed":true,"internalType":"address","name":"to","type":"address"},{"indexed":false,"internalType":"uint256","name":"amount","type":"uint256"}],"name":"Transfer","type":"event"},{"anonymous":false,"inputs":[{"indexed":true,"internalType":"address","name":"voter","type":"address"},{"indexed":true,"internalType":"uint256","name":"proposal","type":"uint256"},{"indexed":true,"internalType":"bool","name":"approve","type":"bool"}],"name":"VoteCast","type":"event"},{"inputs":[],"name":"DELEGATION_TYPEHASH","outputs":[{"internalType":"bytes32","name":"","type":"bytes32"}],"stateMutability":"view","type":"function"},{"inputs":[],"name":"DOMAIN_SEPARATOR","outputs":[{"internalType":"bytes32","name":"","type":"bytes32"}],"stateMutability":"view","type":"function"},{"inputs":[],"name":"PERMIT_TYPEHASH","outputs":[{"internalType":"bytes32","name":"","type":"bytes32"}],"stateMutability":"view","type":"function"},{"inputs":[],"name":"VOTE_HASH","outputs":[{"internalType":"bytes32","name":"","type":"bytes32"}],"stateMutability":"view","type":"function"},{"inputs":[{"internalType":"address","name":"","type":"address"},{"internalType":"address","name":"","type":"address"}],"name":"allowance","outputs":[{"internalType":"uint256","name":"","type":"uint256"}],"stateMutability":"view","type":"function"},{"inputs":[{"internalType":"address","name":"spender","type":"address"},{"internalType":"uint256","name":"amount","type":"uint256"}],"name":"approve","outputs":[{"internalType":"bool","name":"","type":"bool"}],"stateMutability":"payable","type":"function"},{"inputs":[{"internalType":"address","name":"","type":"address"}],"name":"balanceOf","outputs":[{"internalType":"uint256","name":"","type":"uint256"}],"stateMutability":"view","type":"function"},{"inputs":[{"internalType":"uint256","name":"amount","type":"uint256"}],"name":"burn","outputs":[],"stateMutability":"payable","type":"function"},{"inputs":[{"internalType":"address","name":"from","type":"address"},{"internalType":"uint256","name":"amount","type":"uint256"}],"name":"burnFrom","outputs":[],"stateMutability":"payable","type":"function"},{"inputs":[{"internalType":"uint256","name":"proposal","type":"uint256"}],"name":"cancelProposal","outputs":[],"stateMutability":"payable","type":"function"},{"inputs":[{"internalType":"address","name":"","type":"address"},{"internalType":"uint256","name":"","type":"uint256"}],"name":"checkpoints","outputs":[{"internalType":"uint32","name":"fromTimestamp","type":"uint32"},{"internalType":"uint96","name":"votes","type":"uint96"}],"stateMutability":"view","type":"function"},{"inputs":[],"name":"decimals","outputs":[{"internalType":"uint8","name":"","type":"uint8"}],"stateMutability":"view","type":"function"},{"inputs":[{"internalType":"address","name":"delegatee","type":"address"}],"name":"delegate","outputs":[],"stateMutability":"payable","type":"function"},{"inputs":[{"internalType":"address","name":"delegatee","type":"address"},{"internalType":"uint256","name":"nonce","type":"uint256"},{"internalType":"uint256","name":"deadline","type":"uint256"},{"internalType":"uint8","name":"v","type":"uint8"},{"internalType":"bytes32","name":"r","type":"bytes32"},{"internalType":"bytes32","name":"s","type":"bytes32"}],"name":"delegateBySig","outputs":[],"stateMutability":"payable","type":"function"},{"inputs":[{"internalType":"address","name":"delegator","type":"address"}],"name":"delegates","outputs":[{"internalType":"address","name":"","type":"address"}],"stateMutability":"view","type":"function"},{"inputs":[],"name":"docs","outputs":[{"internalType":"string","name":"","type":"string"}],"stateMutability":"view","type":"function"},{"inputs":[{"internalType":"address","name":"account","type":"address"}],"name":"getCurrentVotes","outputs":[{"internalType":"uint256","name":"","type":"uint256"}],"stateMutability":"view","type":"function"},{"inputs":[{"internalType":"address","name":"account","type":"address"},{"internalType":"uint256","name":"timestamp","type":"uint256"}],"name":"getPriorVotes","outputs":[{"internalType":"uint96","name":"","type":"uint96"}],"stateMutability":"view","type":"function"},{"inputs":[{"internalType":"uint256","name":"proposal","type":"uint256"}],"name":"getProposalArrays","outputs":[{"internalType":"address[]","name":"accounts","type":"address[]"},{"internalType":"uint256[]","name":"amounts","type":"uint256[]"},{"internalType":"bytes[]","name":"payloads","type":"bytes[]"}],"stateMutability":"view","type":"function"},{"inputs":[],"name":"gracePeriod","outputs":[{"internalType":"uint32","name":"","type":"uint32"}],"stateMutability":"view","type":"function"},{"inputs":[{"internalType":"string","name":"name_","type":"string"},{"internalType":"string","name":"symbol_","type":"string"},{"internalType":"bool","name":"paused_","type":"bool"},{"internalType":"address[]","name":"voters_","type":"address[]"},{"internalType":"uint256[]","name":"shares_","type":"uint256[]"},{"internalType":"uint32[16]","name":"govSettings_","type":"uint32[16]"}],"name":"init","outputs":[],"stateMutability":"payable","type":"function"},{"inputs":[{"internalType":"address","name":"","type":"address"}],"name":"lastYesVote","outputs":[{"internalType":"uint256","name":"","type":"uint256"}],"stateMutability":"view","type":"function"},{"inputs":[],"name":"name","outputs":[{"internalType":"string","name":"","type":"string"}],"stateMutability":"view","type":"function"},{"inputs":[{"internalType":"address","name":"","type":"address"}],"name":"nonces","outputs":[{"internalType":"uint256","name":"","type":"uint256"}],"stateMutability":"view","type":"function"},{"inputs":[{"internalType":"address","name":"","type":"address"}],"name":"numCheckpoints","outputs":[{"internalType":"uint256","name":"","type":"uint256"}],"stateMutability":"view","type":"function"},{"inputs":[{"internalType":"address","name":"","type":"address"},{"internalType":"address","name":"","type":"address"},{"internalType":"uint256[]","name":"","type":"uint256[]"},{"internalType":"uint256[]","name":"","type":"uint256[]"},{"internalType":"bytes","name":"","type":"bytes"}],"name":"onERC1155BatchReceived","outputs":[{"internalType":"bytes4","name":"","type":"bytes4"}],"stateMutability":"pure","type":"function"},{"inputs":[{"internalType":"address","name":"","type":"address"},{"internalType":"address","name":"","type":"address"},{"internalType":"uint256","name":"","type":"uint256"},{"internalType":"uint256","name":"","type":"uint256"},{"internalType":"bytes","name":"","type":"bytes"}],"name":"onERC1155Received","outputs":[{"internalType":"bytes4","name":"","type":"bytes4"}],"stateMutability":"pure","type":"function"},{"inputs":[{"internalType":"address","name":"","type":"address"},{"internalType":"address","name":"","type":"address"},{"internalType":"uint256","name":"","type":"uint256"},{"internalType":"bytes","name":"","type":"bytes"}],"name":"onERC721Received","outputs":[{"internalType":"bytes4","name":"","type":"bytes4"}],"stateMutability":"pure","type":"function"},{"inputs":[],"name":"paused","outputs":[{"internalType":"bool","name":"","type":"bool"}],"stateMutability":"view","type":"function"},{"inputs":[{"internalType":"address","name":"owner","type":"address"},{"internalType":"address","name":"spender","type":"address"},{"internalType":"uint256","name":"value","type":"uint256"},{"internalType":"uint256","name":"deadline","type":"uint256"},{"internalType":"uint8","name":"v","type":"uint8"},{"internalType":"bytes32","name":"r","type":"bytes32"},{"internalType":"bytes32","name":"s","type":"bytes32"}],"name":"permit","outputs":[],"stateMutability":"payable","type":"function"},{"inputs":[{"internalType":"uint256","name":"proposal","type":"uint256"}],"name":"processProposal","outputs":[{"internalType":"bool","name":"didProposalPass","type":"bool"},{"internalType":"bytes[]","name":"results","type":"bytes[]"}],"stateMutability":"payable","type":"function"},{"inputs":[],"name":"proposalCount","outputs":[{"internalType":"uint256","name":"","type":"uint256"}],"stateMutability":"view","type":"function"},{"inputs":[{"internalType":"uint256","name":"","type":"uint256"}],"name":"proposalStates","outputs":[{"internalType":"bool","name":"passed","type":"bool"},{"internalType":"bool","name":"processed","type":"bool"}],"stateMutability":"view","type":"function"},{"inputs":[{"internalType":"enum UniOwnDAO.ProposalType","name":"","type":"uint8"}],"name":"proposalVoteTypes","outputs":[{"internalType":"enum UniOwnDAO.VoteType","name":"","type":"uint8"}],"stateMutability":"view","type":"function"},{"inputs":[{"internalType":"uint256","name":"","type":"uint256"}],"name":"proposals","outputs":[{"internalType":"enum UniOwnDAO.ProposalType","name":"proposalType","type":"uint8"},{"internalType":"string","name":"description","type":"string"},{"internalType":"uint256","name":"prevProposal","type":"uint256"},{"internalType":"uint96","name":"yesVotes","type":"uint96"},{"internalType":"uint96","name":"noVotes","type":"uint96"},{"internalType":"uint32","name":"creationTime","type":"uint32"},{"internalType":"address","name":"proposer","type":"address"}],"stateMutability":"view","type":"function"},{"inputs":[{"internalType":"enum UniOwnDAO.ProposalType","name":"proposalType","type":"uint8"},{"internalType":"string","name":"description","type":"string"},{"internalType":"address[]","name":"accounts","type":"address[]"},{"internalType":"uint256[]","name":"amounts","type":"uint256[]"},{"internalType":"bytes[]","name":"payloads","type":"bytes[]"}],"name":"propose","outputs":[{"internalType":"uint256","name":"proposal","type":"uint256"}],"stateMutability":"payable","type":"function"},{"inputs":[],"name":"quorum","outputs":[{"internalType":"uint32","name":"","type":"uint32"}],"stateMutability":"view","type":"function"},{"inputs":[{"internalType":"uint256","name":"proposal","type":"uint256"}],"name":"sponsorProposal","outputs":[],"stateMutability":"payable","type":"function"},{"inputs":[],"name":"supermajority","outputs":[{"internalType":"uint32","name":"","type":"uint32"}],"stateMutability":"view","type":"function"},{"inputs":[],"name":"symbol","outputs":[{"internalType":"string","name":"","type":"string"}],"stateMutability":"view","type":"function"},{"inputs":[],"name":"totalSupply","outputs":[{"internalType":"uint256","name":"","type":"uint256"}],"stateMutability":"view","type":"function"},{"inputs":[{"internalType":"address","name":"to","type":"address"},{"internalType":"uint256","name":"amount","type":"uint256"}],"name":"transfer","outputs":[{"internalType":"bool","name":"","type":"bool"}],"stateMutability":"payable","type":"function"},{"inputs":[{"internalType":"address","name":"from","type":"address"},{"internalType":"address","name":"to","type":"address"},{"internalType":"uint256","name":"amount","type":"uint256"}],"name":"transferFrom","outputs":[{"internalType":"bool","name":"","type":"bool"}],"stateMutability":"payable","type":"function"},{"inputs":[{"internalType":"uint256","name":"proposal","type":"uint256"},{"internalType":"bool","name":"approve","type":"bool"}],"name":"vote","outputs":[],"stateMutability":"payable","type":"function"},{"inputs":[{"internalType":"address","name":"signer","type":"address"},{"internalType":"uint256","name":"proposal","type":"uint256"},{"internalType":"bool","name":"approve","type":"bool"},{"internalType":"uint8","name":"v","type":"uint8"},{"internalType":"bytes32","name":"r","type":"bytes32"},{"internalType":"bytes32","name":"s","type":"bytes32"}],"name":"voteBySig","outputs":[],"stateMutability":"payable","type":"function"},{"inputs":[{"internalType":"uint256","name":"","type":"uint256"},{"internalType":"address","name":"","type":"address"}],"name":"voted","outputs":[{"internalType":"bool","name":"","type":"bool"}],"stateMutability":"view","type":"function"},{"inputs":[],"name":"votingPeriod","outputs":[{"internalType":"uint32","name":"","type":"uint32"}],"stateMutability":"view","type":"function"},{"stateMutability":"payable","type":"receive"}],"evm":{"bytecode":{"linkReferences":{},"object":"60806040526001600c5534801561001557600080fd5b50614ba9806100256000396000f3fe60806040526004361061030c5760003560e01c80636fcfff451161019a578063b4b5ea57116100e1578063dd62ed3e1161008a578063e63bc62d11610064578063e63bc62d146109e6578063e7a324dc14610a07578063f23a6e6114610a3b57600080fd5b8063dd62ed3e14610988578063e0a8f6f5146109c0578063e16bc768146109d357600080fd5b8063c9d27afe116100bb578063c9d27afe1461094c578063d505accf1461095f578063da35c6641461097257600080fd5b8063b4b5ea57146108d1578063bc197c81146108f1578063c3cda5201461093957600080fd5b80637ecebe00116101435780639b4a89ce1161011d5780639b4a89ce14610886578063a06db7dc14610899578063a9059cbb146108be57600080fd5b80637ecebe001461083157806395d89b411461085e5780639746d9401461087357600080fd5b8063782d6fe111610174578063782d6fe1146107b25780637867f727146107ea57806379cc67901461081e57600080fd5b80636fcfff451461071b57806370a082311461074857806371cda63b1461077557600080fd5b806330adf81f1161025e5780635b1d1c1f116102075780635c975abb116101e15780635c975abb1461068257806366ee13b31461069c5780636a74effc146106ec57600080fd5b80635b1d1c1f146106365780635c19a95c1461064b5780635c31f2201461065e57600080fd5b806342966c681161023857806342966c68146105b05780635277b4ae146105c3578063587cde1e146105fe57600080fd5b806330adf81f14610540578063313ce567146105745780633644e5151461059b57600080fd5b8063150b7a02116102c05780631a9f05971161029a5780631a9f0597146104eb57806323b872dd14610500578063255c87bf1461051357600080fd5b8063150b7a02146104405780631703a0181461049e57806318160ddd146104c757600080fd5b806306fdde03116102f157806306fdde0314610386578063095ea7b3146103a85780630cdfebfa146103cb57600080fd5b8063013cf08b1461031857806302a251a31461035457600080fd5b3661031357005b600080fd5b34801561032457600080fd5b50610338610333366004613e36565b610a81565b60405161034b9796959493929190613eb2565b60405180910390f35b34801561036057600080fd5b506010546103719063ffffffff1681565b60405163ffffffff909116815260200161034b565b34801561039257600080fd5b5061039b610b68565b60405161034b9190613f1f565b6103bb6103b6366004613f4e565b610bf6565b604051901515815260200161034b565b3480156103d757600080fd5b5061041c6103e6366004613f4e565b600a60209081526000928352604080842090915290825290205463ffffffff81169064010000000090046001600160601b031682565b6040805163ffffffff90931683526001600160601b0390911660208301520161034b565b34801561044c57600080fd5b5061048561045b366004613fc1565b7f150b7a020000000000000000000000000000000000000000000000000000000095945050505050565b6040516001600160e01b0319909116815260200161034b565b3480156104aa57600080fd5b506010546103719068010000000000000000900463ffffffff1681565b3480156104d357600080fd5b506104dd60025481565b60405190815260200161034b565b6104fe6104f9366004614051565b610c63565b005b6103bb61050e3660046140b0565b610df7565b34801561051f57600080fd5b506104dd61052e3660046140ec565b60156020526000908152604090205481565b34801561054c57600080fd5b506104dd7f6e71edae12b1b97f4d1f60370fef10105fa2faae0126114a169c64845d6126c981565b34801561058057600080fd5b50610589601281565b60405160ff909116815260200161034b565b3480156105a757600080fd5b506104dd610f41565b6104fe6105be366004613e36565b610f60565b3480156105cf57600080fd5b506103bb6105de366004614107565b601460209081526000928352604080842090915290825290205460ff1681565b34801561060a57600080fd5b5061061e6106193660046140ec565b610f6d565b6040516001600160a01b03909116815260200161034b565b34801561064257600080fd5b5061039b610f9d565b6104fe6106593660046140ec565b610faa565b34801561066a57600080fd5b5060105461037190600160601b900463ffffffff1681565b34801561068e57600080fd5b506008546103bb9060ff1681565b3480156106a857600080fd5b506106d56106b7366004613e36565b60126020526000908152604090205460ff8082169161010090041682565b60408051921515835290151560208301520161034b565b3480156106f857600080fd5b5061070c610707366004613e36565b610fb4565b60405161034b93929190614188565b34801561072757600080fd5b506104dd6107363660046140ec565b600b6020526000908152604090205481565b34801561075457600080fd5b506104dd6107633660046140ec565b60036020526000908152604090205481565b34801561078157600080fd5b506107a561079036600461422e565b60136020526000908152604090205460ff1681565b60405161034b9190614249565b3480156107be57600080fd5b506107d26107cd366004613f4e565b61116b565b6040516001600160601b03909116815260200161034b565b3480156107f657600080fd5b506104dd7f39bf2cb78b4fee6e3427925ed40cf1f955458a02ac29c312c7be5fde74d0dd7a81565b6104fe61082c366004613f4e565b611363565b34801561083d57600080fd5b506104dd61084c3660046140ec565b60076020526000908152604090205481565b34801561086a57600080fd5b5061039b6113d6565b6104fe610881366004613e36565b6113e3565b6104dd6108943660046142a8565b61152b565b3480156108a557600080fd5b5060105461037190640100000000900463ffffffff1681565b6103bb6108cc366004613f4e565b611adb565b3480156108dd57600080fd5b506104dd6108ec3660046140ec565b611b8d565b3480156108fd57600080fd5b5061048561090c36600461437f565b7fbc197c810000000000000000000000000000000000000000000000000000000098975050505050505050565b6104fe61094736600461443a565b611bfc565b6104fe61095a366004614478565b611dd4565b6104fe61096d36600461449b565b611e10565b34801561097e57600080fd5b506104dd600f5481565b34801561099457600080fd5b506104dd6109a3366004614505565b600460209081526000928352604080842090915290825290205481565b6104fe6109ce366004613e36565b612012565b6104fe6109e136600461466f565b61216f565b6109f96109f4366004613e36565b612866565b60405161034b92919061474b565b348015610a1357600080fd5b506104dd7f76995fe87be88484696cfd6792aeb71e0b61f81dfa3b641e5adffa38a0d3b8e281565b348015610a4757600080fd5b50610485610a5636600461476e565b7ff23a6e61000000000000000000000000000000000000000000000000000000009695505050505050565b6011602052600090815260409020805460018201805460ff9092169291610aa7906147e6565b80601f0160208091040260200160405190810160405280929190818152602001828054610ad3906147e6565b8015610b205780601f10610af557610100808354040283529160200191610b20565b820191906000526020600020905b815481529060010190602001808311610b0357829003601f168201915b5050505060058301546006840154600790940154929390926001600160601b038083169350600160601b83041691600160c01b900463ffffffff16906001600160a01b031687565b60008054610b75906147e6565b80601f0160208091040260200160405190810160405280929190818152602001828054610ba1906147e6565b8015610bee5780601f10610bc357610100808354040283529160200191610bee565b820191906000526020600020905b815481529060010190602001808311610bd157829003601f168201915b505050505081565b3360008181526004602090815260408083206001600160a01b038716808552925280832085905551919290917f8c5be1e5ebec7d5bd14f71427d1e84f3dd0314c0f7b2291e5b200ac8c7c3b92590610c519086815260200190565b60405180910390a35060015b92915050565b600c54600114610c865760405163558a1e0360e11b815260040160405180910390fd5b6002600c556000610c95610f41565b604080517f39bf2cb78b4fee6e3427925ed40cf1f955458a02ac29c312c7be5fde74d0dd7a60208201526001600160a01b038a169181019190915260608101889052861515608082015260a00160405160208183030381529060405280519060200120604051602001610d1f92919061190160f01b81526002810192909252602282015260420190565b60408051601f198184030181528282528051602091820120600080855291840180845281905260ff88169284019290925260608301869052608083018590529092509060019060a0016020604051602081039080840390855afa158015610d8a573d6000803e3d6000fd5b5050604051601f1901519150506001600160a01b0381161580610dbf5750876001600160a01b0316816001600160a01b031614155b15610ddd57604051638baa579f60e01b815260040160405180910390fd5b610de88888886131a0565b50506001600c55505050505050565b60085460009060ff1615610e1e576040516313d0ff5960e31b815260040160405180910390fd5b6001600160a01b038416600090815260046020908152604080832033845290915290205460001914610e83576001600160a01b038416600090815260046020908152604080832033845290915281208054849290610e7d908490614837565b90915550505b6001600160a01b03841660009081526003602052604081208054849290610eab908490614837565b90915550506001600160a01b0383166000908152600360205260409020805483019055610ee9610eda85610f6d565b610ee385610f6d565b84613371565b826001600160a01b0316846001600160a01b03167fddf252ad1be2c89b69c2b068fc378daa952ba7f163c4a11628f55a4df523b3ef84604051610f2e91815260200190565b60405180910390a35060015b9392505050565b60006005544614610f5957610f546134e6565b905090565b5060065490565b610f6a3382613580565b50565b6001600160a01b038082166000908152600960205260408120549091168015610f965780610f3a565b5090919050565b600d8054610b75906147e6565b610f6a3382613610565b606080606060006011600086815260200190815260200160002090508060020181600301826004018280548060200260200160405190810160405280929190818152602001828054801561103157602002820191906000526020600020905b81546001600160a01b03168152600190910190602001808311611013575b505050505092508180548060200260200160405190810160405280929190818152602001828054801561108357602002820191906000526020600020905b81548152602001906001019080831161106f575b5050505050915080805480602002602001604051908101604052809291908181526020016000905b828210156111575783829060005260206000200180546110ca906147e6565b80601f01602080910402602001604051908101604052809291908181526020018280546110f6906147e6565b80156111435780601f1061111857610100808354040283529160200191611143565b820191906000526020600020905b81548152906001019060200180831161112657829003601f168201915b5050505050815260200190600101906110ab565b50959b949a50919850929650505050505050565b60008142116111a6576040517fb1998e3000000000000000000000000000000000000000000000000000000000815260040160405180910390fd5b6001600160a01b0383166000908152600b6020526040902054806111ce576000915050610c5d565b6001600160a01b0384166000908152600a602090815260408083206000198501845290915290205463ffffffff168310611243576001600160a01b0384166000908152600a60209081526040808320600019909401835292905220546001600160601b03640100000000909104169050610c5d565b6001600160a01b0384166000908152600a6020908152604080832083805290915290205463ffffffff1683101561127e576000915050610c5d565b600060001982015b81811115611324576001600160a01b0386166000908152600a6020908152604080832060028686030485038085529083529281902081518083019092525463ffffffff81168083526401000000009091046001600160601b031692820192909252908714156112ff57602001519450610c5d9350505050565b805163ffffffff168711156113165781935061131d565b6001820392505b5050611286565b506001600160a01b0385166000908152600a6020908152604080832093835292905220546001600160601b036401000000009091041691505092915050565b6001600160a01b0382166000908152600460209081526040808320338452909152902054600019146113c8576001600160a01b0382166000908152600460209081526040808320338452909152812080548392906113c2908490614837565b90915550505b6113d28282613580565b5050565b60018054610b75906147e6565b600c546001146114065760405163558a1e0360e11b815260040160405180910390fd5b6002600c55600081815260116020908152604080832033845260039092529091205461145e576040517f291fc44200000000000000000000000000000000000000000000000000000000815260040160405180910390fd5b60078101546001600160a01b03166114895760405163c3b4ca4360e01b815260040160405180910390fd5b6006810154600160c01b900463ffffffff16156114b9576040516368e83fd960e01b815260040160405180910390fd5b600e805460058301558290556114ce426136b2565b60068201805463ffffffff92909216600160c01b0263ffffffff60c01b19909216919091179055604051829033907fb708f3e57d02b42c1c66c9219454b2e519739ad18a0566a9a71a1e537f1f6e5d90600090a350506001600c55565b6000600c546001146115505760405163558a1e0360e11b815260040160405180910390fd5b6002600c5585841415806115645750838214155b156115825760405163266c51bb60e01b815260040160405180910390fd5b60038a600a81111561159657611596613e4f565b14156115fe57848460008181106115af576115af61484e565b90506020020135600014806115e057506301e13380858560008181106115d7576115d761484e565b90506020020135115b156115fe5760405163581db23560e11b815260040160405180910390fd5b60048a600a81111561161257611612613e4f565b1415611656576301e13380858560008181106116305761163061484e565b9050602002013511156116565760405163581db23560e11b815260040160405180910390fd5b60058a600a81111561166a5761166a613e4f565b14156116c4576064858560008181106116855761168561484e565b9050602002013511156116c4576040517ffff2d93300000000000000000000000000000000000000000000000000000000815260040160405180910390fd5b60068a600a8111156116d8576116d8613e4f565b141561173e576033858560008181106116f3576116f361484e565b9050602002013511158061172057506064858560008181106117175761171761484e565b90506020020135115b1561173e576040516306ef10f960e41b815260040160405180910390fd5b60078a600a81111561175257611752613e4f565b14156117dc57600b8585600081811061176d5761176d61484e565b90506020020135118061179957506003858560018181106117905761179061484e565b90506020020135115b806117a5575060028414155b156117dc576040517f93d8c8b000000000000000000000000000000000000000000000000000000000815260040160405180910390fd5b50600f805460010190819055604080516101408101909152600090808c600a81111561180a5761180a613e4f565b81526020018b8b8080601f0160208091040260200160405190810160405280939291908181526020018383808284376000920191909152505050908252506040805160208b810282810182019093528b82529283019290918c918c91829185019084908082843760009201919091525050509082525060408051602089810282810182019093528982529283019290918a918a9182918501908490808284376000920191909152505050908252506020016118c58587614864565b8152602001826118d65760006118da565b600e545b81526000602082018190526040820152606001826118f9576000611902565b611902426136b2565b63ffffffff16815233602091820152600084815260119091526040902081518154829060ff1916600183600a81111561193d5761193d613e4f565b0217905550602082810151805161195a9260018501920190613bab565b5060408201518051611976916002840191602090910190613c2b565b5060608201518051611992916003840191602090910190613c80565b50608082015180516119ae916004840191602090910190613cba565b5060a0820151600582015560c082015160068201805460e085015161010086015163ffffffff16600160c01b0263ffffffff60c01b196001600160601b03928316600160601b027fffffffffffffffff0000000000000000000000000000000000000000000000009094169290951691909117919091179290921691909117905561012090910151600790910180546001600160a01b039092166001600160a01b03199092169190911790558015611a6657600e8290555b8a600a811115611a7857611a78613e4f565b82336001600160a01b03167feaebeb60fa3c5b4aaac8452fe75b188beb61a499d379464587545ede83fbea3e8d8d8d8d8d8d8d8d604051611ac09897969594939291906149a9565b60405180910390a4506001600c559998505050505050505050565b60085460009060ff1615611b02576040516313d0ff5960e31b815260040160405180910390fd5b3360009081526003602052604081208054849290611b21908490614837565b90915550506001600160a01b0383166000908152600360205260409020805483019055611b50610eda33610f6d565b6040518281526001600160a01b0384169033907fddf252ad1be2c89b69c2b068fc378daa952ba7f163c4a11628f55a4df523b3ef90602001610c51565b6001600160a01b0381166000908152600b602052604081205480611bb2576000611bec565b6001600160a01b0383166000908152600a602090815260408083206000198501845290915290205464010000000090046001600160601b03165b6001600160601b03169392505050565b83421115611c1d57604051630819bdcd60e01b815260040160405180910390fd5b604080517f76995fe87be88484696cfd6792aeb71e0b61f81dfa3b641e5adffa38a0d3b8e260208201526001600160a01b03881691810191909152606081018690526080810185905260009060a0016040516020818303038152906040528051906020012090506000611c8e610f41565b60405161190160f01b602082015260228101919091526042810183905260620160408051601f198184030181528282528051602091820120600080855291840180845281905260ff89169284019290925260608301879052608083018690529092509060019060a0016020604051602081039080840390855afa158015611d19573d6000803e3d6000fd5b5050604051601f1901519150506001600160a01b038116611d66576040517fe99d5ac500000000000000000000000000000000000000000000000000000000815260040160405180910390fd5b6001600160a01b03811660009081526007602052604090208054600181019091558814611dbf576040517f756688fe00000000000000000000000000000000000000000000000000000000815260040160405180910390fd5b611dc9818a613610565b505050505050505050565b600c54600114611df75760405163558a1e0360e11b815260040160405180910390fd5b6002600c55611e073383836131a0565b50506001600c55565b83421115611e3157604051630819bdcd60e01b815260040160405180910390fd5b6000611e3b610f41565b6001600160a01b0389811660008181526007602090815260409182902080546001810190915582517f6e71edae12b1b97f4d1f60370fef10105fa2faae0126114a169c64845d6126c98184015280840194909452938c166060840152608083018b905260a083019390935260c08083018a90528151808403909101815260e08301909152805192019190912061190160f01b6101008301526101028201929092526101228101919091526101420160408051601f198184030181528282528051602091820120600080855291840180845281905260ff88169284019290925260608301869052608083018590529092509060019060a0016020604051602081039080840390855afa158015611f54573d6000803e3d6000fd5b5050604051601f1901519150506001600160a01b0381161580611f895750886001600160a01b0316816001600160a01b031614155b15611fa757604051638baa579f60e01b815260040160405180910390fd5b6001600160a01b0390811660009081526004602090815260408083208b8516808552908352928190208a905551898152919350918a16917f8c5be1e5ebec7d5bd14f71427d1e84f3dd0314c0f7b2291e5b200ac8c7c3b925910160405180910390a350505050505050565b600c546001146120355760405163558a1e0360e11b815260040160405180910390fd5b6002600c55600081815260116020526040902060078101546001600160a01b0316331461208e576040517f7d1b73b900000000000000000000000000000000000000000000000000000000815260040160405180910390fd5b6006810154600160c01b900463ffffffff16156120be576040516368e83fd960e01b815260040160405180910390fd5b6000828152601160205260408120805460ff19168155906120e26001830182613d13565b6120f0600283016000613d4d565b6120fe600383016000613d4d565b61210c600483016000613d6b565b506000600582018190556006820180546001600160e01b0319169055600790910180546001600160a01b0319169055604051839133917f5d423f6a55211a90b8438786aa7edfa40d3eef381b6aae048b52daf814c164629190a350506001600c55565b600c546001146121925760405163558a1e0360e11b815260040160405180910390fd5b6002600c5560105463ffffffff16156121d7576040517f5daa87a000000000000000000000000000000000000000000000000000000000815260040160405180910390fd5b805163ffffffff1615806121f7575080516301e1338063ffffffff909116115b156122155760405163581db23560e11b815260040160405180910390fd5b6301e13380816001602002015163ffffffff1611156122475760405163581db23560e11b815260040160405180910390fd5b6064816002602002015163ffffffff16111561228f576040517ffff2d93300000000000000000000000000000000000000000000000000000000815260040160405180910390fd5b6033816003602002015163ffffffff161115806122b957506064816003602002015163ffffffff16115b156122d7576040516306ef10f960e41b815260040160405180910390fd5b61234788888888888080602002602001604051908101604052809392919081815260200183836020028082843760009201919091525050604080516020808c0282810182019093528b82529093508b92508a9182918501908490808284376000920191909152506136f692505050565b80516010805460208401516040850151606086015163ffffffff908116600160601b029281166401000000000295811667ffffffffffffffff1990941693909317949094177fffffffffffffffffffffffffffffffff0000000000000000ffffffffffffffff1693821668010000000000000000027fffffffffffffffffffffffffffffffff00000000ffffffffffffffffffffffff169390931792909217905560808201511660038111156123ff576123ff613e4f565b6000805260136020527f8fa6efc3be94b5b348b21fea823fe8d100408cee9b7f90524494500445d8ff6c805460ff1916600183600381111561244357612443613e4f565b021790555060a081015163ffffffff16600381111561246457612464613e4f565b6001600081905260136020527f4155c2f711f2cdd34f8262ab8fb9b7020a700fe7b6948222152f7670d1fdf34d8054909160ff19909116908360038111156124ae576124ae613e4f565b021790555060c081015163ffffffff1660038111156124cf576124cf613e4f565b600260005260136020527f0b9d2c0c271bb30544eb78c59bdaebdae2728e5f65814c07768a0abe90ed1923805460ff1916600183600381111561251457612514613e4f565b021790555060e081015163ffffffff16600381111561253557612535613e4f565b6003600081905260136020527f0d2a6872ef858a7f8ead18dc4f3f2e8d35c853d47e2816cbb9cdd49202554e0c8054909160ff1990911690600190849081111561258157612581613e4f565b021790555061010081015163ffffffff1660038111156125a3576125a3613e4f565b600460005260136020527f01413ff7a3b1d5b6c016c061d48e2c7014700c777a29fcd068fff04265813d5d805460ff191660018360038111156125e8576125e8613e4f565b021790555061012081015163ffffffff16600381111561260a5761260a613e4f565b600560005260136020527ff4b2859895858d6aa26d656e4999d552f6a869b74c43bba7d2a941c4d22c3559805460ff1916600183600381111561264f5761264f613e4f565b021790555061014081015163ffffffff16600381111561267157612671613e4f565b600660005260136020527f709d0e3cf89777a1e1f9c99632e4494f29b0327befd0df15e277a12d94825795805460ff191660018360038111156126b6576126b6613e4f565b021790555061016081015163ffffffff1660038111156126d8576126d8613e4f565b600760005260136020527f8ba6fb577925b0796671c737df59b8aaae861b630513fb12823699e3e0e3ee60805460ff1916600183600381111561271d5761271d613e4f565b021790555061018081015163ffffffff16600381111561273f5761273f613e4f565b600860005260136020527f7b49122965436243734b7a552847e7503db682b4cbd4d2fd428feb216e8bcdf8805460ff1916600183600381111561278457612784613e4f565b02179055506101c081015163ffffffff1660038111156127a6576127a6613e4f565b600960005260136020527f76aa7d3cd4f559a3c98822aa7e1c37143eb9f80ceff73a5023a8fc3d6d44af61805460ff191660018360038111156127eb576127eb613e4f565b02179055506101e081015163ffffffff16600381111561280d5761280d613e4f565b600a60005260136020527f522e87d3d671f2915034f38e0229384befcd14fcb6842a4a7158cb5222bace8f805460ff1916600183600381111561285257612852613e4f565b0217905550506001600c5550505050505050565b60006060600c5460011461288d5760405163558a1e0360e11b815260040160405180910390fd5b6002600c5560008381526011602052604081208054909190601390829060ff16600a8111156128be576128be613e4f565b600a8111156128cf576128cf613e4f565b8152602081019190915260400160002054600683015460ff9091169150600160c01b900463ffffffff166129165760405163c3b4ca4360e01b815260040160405180910390fd5b6010546006830154600160c01b900463ffffffff90811681831601640100000000909204811691909101164211612979576040517f7f8617a200000000000000000000000000000000000000000000000000000000815260040160405180910390fd5b6009825460ff16600a81111561299157612991613e4f565b146129f1576005820154600090815260116020526040902060060154600160c01b900463ffffffff16156129f1576040517f8795d9c100000000000000000000000000000000000000000000000000000000815260040160405180910390fd5b6006820154612a159082906001600160601b0380821691600160601b9004166137ad565b935083156130d0576000825460ff16600a811115612a3557612a35613e4f565b1415612aaa5760005b6002830154811015612aa857612aa0836002018281548110612a6257612a6261484e565b6000918252602090912001546003850180546001600160a01b039092169184908110612a9057612a9061484e565b90600052602060002001546138e5565b600101612a3e565b505b6001825460ff16600a811115612ac257612ac2613e4f565b1415612b375760005b6002830154811015612b3557612b2d836002018281548110612aef57612aef61484e565b6000918252602090912001546003850180546001600160a01b039092169184908110612b1d57612b1d61484e565b9060005260206000200154613580565b600101612acb565b505b6002825460ff16600a811115612b4f57612b4f613e4f565b1415612ca25760005b6002830154811015612ca057600283015467ffffffffffffffff811115612b8157612b8161452f565b604051908082528060200260200182016040528015612bb457816020015b6060815260200190600190039081612b9f5790505b5093506000836002018281548110612bce57612bce61484e565b6000918252602090912001546003850180546001600160a01b039092169184908110612bfc57612bfc61484e565b9060005260206000200154856004018481548110612c1c57612c1c61484e565b90600052602060002001604051612c339190614b0e565b60006040518083038185875af1925050503d8060008114612c70576040519150601f19603f3d011682016040523d82523d6000602084013e612c75565b606091505b5091505080858381518110612c8c57612c8c61484e565b602090810291909101015250600101612b58565b505b6003825460ff16600a811115612cba57612cba613e4f565b1415612d245781600301600081548110612cd657612cd661484e565b9060005260206000200154600014612d245781600301600081548110612cfe57612cfe61484e565b6000918252602090912001546010805463ffffffff191663ffffffff9092169190911790555b6004825460ff16600a811115612d3c57612d3c613e4f565b1415612dac5781600301600081548110612d5857612d5861484e565b9060005260206000200154600014612dac5781600301600081548110612d8057612d8061484e565b9060005260206000200154601060046101000a81548163ffffffff021916908363ffffffff1602179055505b6005825460ff16600a811115612dc457612dc4613e4f565b1415612e345781600301600081548110612de057612de061484e565b9060005260206000200154600014612e345781600301600081548110612e0857612e0861484e565b9060005260206000200154601060086101000a81548163ffffffff021916908363ffffffff1602179055505b6006825460ff16600a811115612e4c57612e4c613e4f565b1415612ebc5781600301600081548110612e6857612e6861484e565b9060005260206000200154600014612ebc5781600301600081548110612e9057612e9061484e565b90600052602060002001546010600c6101000a81548163ffffffff021916908363ffffffff1602179055505b6007825460ff16600a811115612ed457612ed4613e4f565b1415612f945781600301600181548110612ef057612ef061484e565b90600052602060002001546003811115612f0c57612f0c613e4f565b6013600084600301600081548110612f2657612f2661484e565b9060005260206000200154600a811115612f4257612f42613e4f565b600a811115612f5357612f53613e4f565b600a811115612f6457612f64613e4f565b81526020810191909152604001600020805460ff19166001836003811115612f8e57612f8e613e4f565b02179055505b6008825460ff16600a811115612fac57612fac613e4f565b1415612fba57612fba61396b565b6009825460ff16600a811115612fd257612fd2613e4f565b1415613079576011600083600301600081548110612ff257612ff261484e565b600091825260208083209091015483528201929092526040018120805460ff19168155906130236001830182613d13565b613031600283016000613d4d565b61303f600383016000613d4d565b61304d600483016000613d6b565b50600060058201556006810180546001600160e01b031916905560070180546001600160a01b03191690555b600a825460ff16600a81111561309157613091613e4f565b14156130b65781600101600d9080546130a9906147e6565b6130b4929190613d89565b505b6000858152601260205260409020805460ff191660011790555b6000858152601160205260408120805460ff19168155906130f46001830182613d13565b613102600283016000613d4d565b613110600383016000613d4d565b61311e600483016000613d6b565b506000600582018190556006820180546001600160e01b0319169055600790910180546001600160a01b031916905585815260126020526040808220805461ff001916610100179055518515159187917fcc8b74c10cae169918eab7cf3272b0a540854b8a4d12281590885d07fed34f6e9190a350506001600c559092909150565b6000828152601160209081526040808320601483528184206001600160a01b03881685529092529091205460ff1615613205576040517f7c9a1cf900000000000000000000000000000000000000000000000000000000815260040160405180910390fd5b601054600682015463ffffffff918216600160c01b9091048216011642111561325a576040517f47c8137d00000000000000000000000000000000000000000000000000000000815260040160405180910390fd5b600681015460009061327a908690600160c01b900463ffffffff1661116b565b905082156132ca576006820180546001600160601b038082168401166bffffffffffffffffffffffff199091161790556001600160a01b0385166000908152601560205260409020849055613310565b6006820180546001600160601b03600160601b80830482168501909116027fffffffffffffffff000000000000000000000000ffffffffffffffffffffffff9091161790555b60008481526014602090815260408083206001600160a01b0389168085529252808320805460ff1916600117905551851515928792917fd356173ae8eeea8691aee4c1be712c314a975a3d43ebc48b08ca54d0dac912289190a45050505050565b816001600160a01b0316836001600160a01b03161415801561339257508015155b1561343c576001600160a01b0383161561343c576001600160a01b0383166000908152600b602052604081205490816133cc576000613413565b6001600160a01b0385166000908152600a60205260408120906133f0600185614837565b815260208101919091526040016000205464010000000090046001600160601b03165b6001600160601b03169050600061342a8483614837565b9050613438868484846139b8565b5050505b6001600160a01b038216156134e1576001600160a01b0382166000908152600b602052604081205490816134715760006134b8565b6001600160a01b0384166000908152600a6020526040812090613495600185614837565b815260208101919091526040016000205464010000000090046001600160601b03165b6001600160601b0316905060006134cf8483614b1a565b90506134dd858484846139b8565b5050505b505050565b60007f8b73c3c69bb8fe3d512ecc4cf759cc79239f7b179b0ffacaa9a75d522b39400f60006040516135189190614b0e565b6040805191829003822060208301939093528101919091527fc89efdaa54c0f20c7adf612882df0950f5a951637e0307cdcb4c672f298b8bc660608201524660808201523060a082015260c00160405160208183030381529060405280519060200120905090565b6001600160a01b038216600090815260036020526040812080548392906135a8908490614837565b90915550506002805482900390556135ca6135c283610f6d565b600083613371565b6040518181526000906001600160a01b038416907fddf252ad1be2c89b69c2b068fc378daa952ba7f163c4a11628f55a4df523b3ef906020015b60405180910390a35050565b600061361b83610f6d565b6001600160a01b03848116600090815260096020908152604080832080546001600160a01b031916948816949094179093556003905220549091506136639082908490613371565b816001600160a01b0316816001600160a01b0316846001600160a01b03167f3134e8a2e6d97e929a7e54011ea5485d7d196dd5f0ba4d4ef95803e8e3fc257f60405160405180910390a4505050565b600063ffffffff8211156136f2576040517fec314e4200000000000000000000000000000000000000000000000000000000815260040160405180910390fd5b5090565b80518251146137185760405163266c51bb60e01b815260040160405180910390fd5b845161372b906000906020880190613bab565b50835161373f906001906020870190613bab565b506008805460ff19168415151790554660055561375a6134e6565b60065560005b82518110156134dd576137a583828151811061377e5761377e61484e565b60200260200101518383815181106137985761379861484e565b60200260200101516138e5565b600101613760565b6000821580156137bb575081155b156137c857506000610f3a565b60018460038111156137dc576137dc613e4f565b14806137f9575060038460038111156137f7576137f7613e4f565b145b1561384b576010546002546000916064916138269168010000000000000000900463ffffffff1690614b32565b6138309190614b51565b90508383018181101561384857600092505050610f3a565b50505b600084600381111561385f5761385f613e4f565b148061387c5750600184600381111561387a5761387a613e4f565b145b15613896578183111561389157506001610f3a565b610f3a565b601054600090606490600160601b900463ffffffff166138b68587614b1a565b6138c09190614b32565b6138ca9190614b51565b90508084106138dd576001915050610f3a565b509392505050565b80600260008282546138f79190614b1a565b90915550506001600160a01b038216600090815260036020526040812080548301905561392d9061392784610f6d565b83613371565b6040518181526001600160a01b038316906000907fddf252ad1be2c89b69c2b068fc378daa952ba7f163c4a11628f55a4df523b3ef90602001613604565b6008805460ff8082161560ff1990921682179092556040519116151581527f28ef61d7a1c224006e6530d510be74c9c673f4a9896202105e3d4f60511779d19060200160405180910390a1565b82158015906139f357506001600160a01b0384166000908152600a602090815260408083206000198701845290915290205463ffffffff1642145b15613a6c57613a0181613b68565b6001600160a01b0385166000908152600a6020908152604080832060001988018452909152902080546001600160601b0392909216640100000000027fffffffffffffffffffffffffffffffff000000000000000000000000ffffffff909216919091179055613b1e565b6040518060400160405280613a80426136b2565b63ffffffff168152602001613a9483613b68565b6001600160601b039081169091526001600160a01b0386166000818152600a6020908152604080832089845282528083208651815497840151909616640100000000027fffffffffffffffffffffffffffffffff0000000000000000000000000000000090971663ffffffff9096169590951795909517909355908152600b909152206001840190555b60408051838152602081018390526001600160a01b038616917fdec2bacdd2f05b59de34da9b523dff8be42e5e38e818c82fdb0bae774387a724910160405180910390a250505050565b60006001600160601b038211156136f2576040517f39a21c5600000000000000000000000000000000000000000000000000000000815260040160405180910390fd5b828054613bb7906147e6565b90600052602060002090601f016020900481019282613bd95760008555613c1f565b82601f10613bf257805160ff1916838001178555613c1f565b82800160010185558215613c1f579182015b82811115613c1f578251825591602001919060010190613c04565b506136f2929150613e04565b828054828255906000526020600020908101928215613c1f579160200282015b82811115613c1f57825182546001600160a01b0319166001600160a01b03909116178255602090920191600190910190613c4b565b828054828255906000526020600020908101928215613c1f5791602002820182811115613c1f578251825591602001919060010190613c04565b828054828255906000526020600020908101928215613d07579160200282015b82811115613d075782518051613cf7918491602090910190613bab565b5091602001919060010190613cda565b506136f2929150613e19565b508054613d1f906147e6565b6000825580601f10613d2f575050565b601f016020900490600052602060002090810190610f6a9190613e04565b5080546000825590600052602060002090810190610f6a9190613e04565b5080546000825590600052602060002090810190610f6a9190613e19565b828054613d95906147e6565b90600052602060002090601f016020900481019282613db75760008555613c1f565b82601f10613dc85780548555613c1f565b82800160010185558215613c1f57600052602060002091601f016020900482015b82811115613c1f578254825591600101919060010190613de9565b5b808211156136f25760008155600101613e05565b808211156136f2576000613e2d8282613d13565b50600101613e19565b600060208284031215613e4857600080fd5b5035919050565b634e487b7160e01b600052602160045260246000fd5b6000815180845260005b81811015613e8b57602081850181015186830182015201613e6f565b81811115613e9d576000602083870101525b50601f01601f19169290920160200192915050565b6000600b8910613ec457613ec4613e4f565b88825260e06020830152613edb60e0830189613e65565b6040830197909752506001600160601b03948516606082015292909316608083015263ffffffff1660a08201526001600160a01b0390911660c09091015292915050565b602081526000610f3a6020830184613e65565b80356001600160a01b0381168114613f4957600080fd5b919050565b60008060408385031215613f6157600080fd5b613f6a83613f32565b946020939093013593505050565b60008083601f840112613f8a57600080fd5b50813567ffffffffffffffff811115613fa257600080fd5b602083019150836020828501011115613fba57600080fd5b9250929050565b600080600080600060808688031215613fd957600080fd5b613fe286613f32565b9450613ff060208701613f32565b935060408601359250606086013567ffffffffffffffff81111561401357600080fd5b61401f88828901613f78565b969995985093965092949392505050565b80358015158114613f4957600080fd5b803560ff81168114613f4957600080fd5b60008060008060008060c0878903121561406a57600080fd5b61407387613f32565b95506020870135945061408860408801614030565b935061409660608801614040565b92506080870135915060a087013590509295509295509295565b6000806000606084860312156140c557600080fd5b6140ce84613f32565b92506140dc60208501613f32565b9150604084013590509250925092565b6000602082840312156140fe57600080fd5b610f3a82613f32565b6000806040838503121561411a57600080fd5b8235915061412a60208401613f32565b90509250929050565b600081518084526020808501808196508360051b8101915082860160005b8581101561417b578284038952614169848351613e65565b98850198935090840190600101614151565b5091979650505050505050565b606080825284519082018190526000906020906080840190828801845b828110156141ca5781516001600160a01b0316845292840192908401906001016141a5565b5050508381038285015285518082528683019183019060005b818110156141ff578351835292840192918401916001016141e3565b505084810360408601526142138187614133565b98975050505050505050565b8035600b8110613f4957600080fd5b60006020828403121561424057600080fd5b610f3a8261421f565b602081016004831061425d5761425d613e4f565b91905290565b60008083601f84011261427557600080fd5b50813567ffffffffffffffff81111561428d57600080fd5b6020830191508360208260051b8501011115613fba57600080fd5b600080600080600080600080600060a08a8c0312156142c657600080fd5b6142cf8a61421f565b985060208a013567ffffffffffffffff808211156142ec57600080fd5b6142f88d838e01613f78565b909a50985060408c013591508082111561431157600080fd5b61431d8d838e01614263565b909850965060608c013591508082111561433657600080fd5b6143428d838e01614263565b909650945060808c013591508082111561435b57600080fd5b506143688c828d01614263565b915080935050809150509295985092959850929598565b60008060008060008060008060a0898b03121561439b57600080fd5b6143a489613f32565b97506143b260208a01613f32565b9650604089013567ffffffffffffffff808211156143cf57600080fd5b6143db8c838d01614263565b909850965060608b01359150808211156143f457600080fd5b6144008c838d01614263565b909650945060808b013591508082111561441957600080fd5b506144268b828c01613f78565b999c989b5096995094979396929594505050565b60008060008060008060c0878903121561445357600080fd5b61445c87613f32565b9550602087013594506040870135935061409660608801614040565b6000806040838503121561448b57600080fd5b8235915061412a60208401614030565b600080600080600080600060e0888a0312156144b657600080fd5b6144bf88613f32565b96506144cd60208901613f32565b955060408801359450606088013593506144e960808901614040565b925060a0880135915060c0880135905092959891949750929550565b6000806040838503121561451857600080fd5b61452183613f32565b915061412a60208401613f32565b634e487b7160e01b600052604160045260246000fd5b604051601f8201601f1916810167ffffffffffffffff8111828210171561456e5761456e61452f565b604052919050565b600067ffffffffffffffff8311156145905761459061452f565b6145a3601f8401601f1916602001614545565b90508281528383830111156145b757600080fd5b828260208301376000602084830101529392505050565b600082601f8301126145df57600080fd5b610f3a83833560208501614576565b600082601f8301126145ff57600080fd5b60405161020080820182811067ffffffffffffffff821117156146245761462461452f565b6040528301818582111561463757600080fd5b845b8281101561466457803563ffffffff811681146146565760008081fd5b825260209182019101614639565b509195945050505050565b6000806000806000806000806102a0898b03121561468c57600080fd5b883567ffffffffffffffff808211156146a457600080fd5b6146b08c838d016145ce565b995060208b01359150808211156146c657600080fd5b6146d28c838d016145ce565b98506146e060408c01614030565b975060608b01359150808211156146f657600080fd5b6147028c838d01614263565b909750955060808b013591508082111561471b57600080fd5b506147288b828c01614263565b909450925061473c90508a60a08b016145ee565b90509295985092959890939650565b82151581526040602082015260006147666040830184614133565b949350505050565b60008060008060008060a0878903121561478757600080fd5b61479087613f32565b955061479e60208801613f32565b94506040870135935060608701359250608087013567ffffffffffffffff8111156147c857600080fd5b6147d489828a01613f78565b979a9699509497509295939492505050565b600181811c908216806147fa57607f821691505b6020821081141561481b57634e487b7160e01b600052602260045260246000fd5b50919050565b634e487b7160e01b600052601160045260246000fd5b60008282101561484957614849614821565b500390565b634e487b7160e01b600052603260045260246000fd5b600067ffffffffffffffff8084111561487f5761487f61452f565b8360051b6020614890818301614545565b8681529185019181810190368411156148a857600080fd5b865b848110156148f0578035868111156148c25760008081fd5b880136601f8201126148d45760008081fd5b6148e2368235878401614576565b8452509183019183016148aa565b50979650505050505050565b81835281816020850137506000828201602090810191909152601f909101601f19169091010190565b81835260006020808501808196508560051b810191508460005b8781101561417b5782840389528135601e1988360301811261496057600080fd5b8701803567ffffffffffffffff81111561497957600080fd5b80360389131561498857600080fd5b61499586828985016148fc565b9a87019a955050509084019060010161493f565b6080815260006149bd608083018a8c6148fc565b8281036020848101919091528882528991810160005b8a8110156149ff576001600160a01b036149ec85613f32565b16825292820192908201906001016149d3565b5084810360408601528781527f07ffffffffffffffffffffffffffffffffffffffffffffffffffffffffffffff881115614a3857600080fd5b8760051b9250828983830137600092018181019283528481038201606086015291614a64818789614925565b9d9c50505050505050505050505050565b8054600090600181811c9080831680614a8f57607f831692505b6020808410821415614ab157634e487b7160e01b600052602260045260246000fd5b818015614ac55760018114614ad657614b02565b60ff19861689528489019650614b02565b876000528160002060005b86811015614afa5781548b820152908501908301614ae1565b505084890196505b50505050505092915050565b6000610f3a8284614a75565b60008219821115614b2d57614b2d614821565b500190565b6000816000190483118215151615614b4c57614b4c614821565b500290565b600082614b6e57634e487b7160e01b600052601260045260246000fd5b50049056fea26469706673582212206bf8145287c40cfab94b050703b7d57ffa8bef85fcc6d153aa5090f2fda0cc0264736f6c634300080c0033","opcodes":"PUSH1 0x80 PUSH1 0x40 MSTORE PUSH1 0x1 PUSH1 0xC SSTORE CALLVALUE DUP1 ISZERO PUSH2 0x15 JUMPI PUSH1 0x0 DUP1 REVERT JUMPDEST POP PUSH2 0x4BA9 DUP1 PUSH2 0x25 PUSH1 0x0 CODECOPY PUSH1 0x0 RETURN INVALID PUSH1 0x80 PUSH1 0x40 MSTORE PUSH1 0x4 CALLDATASIZE LT PUSH2 0x30C JUMPI PUSH1 0x0 CALLDATALOAD PUSH1 0xE0 SHR DUP1 PUSH4 0x6FCFFF45 GT PUSH2 0x19A JUMPI DUP1 PUSH4 0xB4B5EA57 GT PUSH2 0xE1 JUMPI DUP1 PUSH4 0xDD62ED3E GT PUSH2 0x8A JUMPI DUP1 PUSH4 0xE63BC62D GT PUSH2 0x64 JUMPI DUP1 PUSH4 0xE63BC62D EQ PUSH2 0x9E6 JUMPI DUP1 PUSH4 0xE7A324DC EQ PUSH2 0xA07 JUMPI DUP1 PUSH4 0xF23A6E61 EQ PUSH2 0xA3B JUMPI PUSH1 0x0 DUP1 REVERT JUMPDEST DUP1 PUSH4 0xDD62ED3E EQ PUSH2 0x988 JUMPI DUP1 PUSH4 0xE0A8F6F5 EQ PUSH2 0x9C0 JUMPI DUP1 PUSH4 0xE16BC768 EQ PUSH2 0x9D3 JUMPI PUSH1 0x0 DUP1 REVERT JUMPDEST DUP1 PUSH4 0xC9D27AFE GT PUSH2 0xBB JUMPI DUP1 PUSH4 0xC9D27AFE EQ PUSH2 0x94C JUMPI DUP1 PUSH4 0xD505ACCF EQ PUSH2 0x95F JUMPI DUP1 PUSH4 0xDA35C664 EQ PUSH2 0x972 JUMPI PUSH1 0x0 DUP1 REVERT JUMPDEST DUP1 PUSH4 0xB4B5EA57 EQ PUSH2 0x8D1 JUMPI DUP1 PUSH4 0xBC197C81 EQ PUSH2 0x8F1 JUMPI DUP1 PUSH4 0xC3CDA520 EQ PUSH2 0x939 JUMPI PUSH1 0x0 DUP1 REVERT JUMPDEST DUP1 PUSH4 0x7ECEBE00 GT PUSH2 0x143 JUMPI DUP1 PUSH4 0x9B4A89CE GT PUSH2 0x11D JUMPI DUP1 PUSH4 0x9B4A89CE EQ PUSH2 0x886 JUMPI DUP1 PUSH4 0xA06DB7DC EQ PUSH2 0x899 JUMPI DUP1 PUSH4 0xA9059CBB EQ PUSH2 0x8BE JUMPI PUSH1 0x0 DUP1 REVERT JUMPDEST DUP1 PUSH4 0x7ECEBE00 EQ PUSH2 0x831 JUMPI DUP1 PUSH4 0x95D89B41 EQ PUSH2 0x85E JUMPI DUP1 PUSH4 0x9746D940 EQ PUSH2 0x873 JUMPI PUSH1 0x0 DUP1 REVERT JUMPDEST DUP1 PUSH4 0x782D6FE1 GT PUSH2 0x174 JUMPI DUP1 PUSH4 0x782D6FE1 EQ PUSH2 0x7B2 JUMPI DUP1 PUSH4 0x7867F727 EQ PUSH2 0x7EA JUMPI DUP1 PUSH4 0x79CC6790 EQ PUSH2 0x81E JUMPI PUSH1 0x0 DUP1 REVERT JUMPDEST DUP1 PUSH4 0x6FCFFF45 EQ PUSH2 0x71B JUMPI DUP1 PUSH4 0x70A08231 EQ PUSH2 0x748 JUMPI DUP1 PUSH4 0x71CDA63B EQ PUSH2 0x775 JUMPI PUSH1 0x0 DUP1 REVERT JUMPDEST DUP1 PUSH4 0x30ADF81F GT PUSH2 0x25E JUMPI DUP1 PUSH4 0x5B1D1C1F GT PUSH2 0x207 JUMPI DUP1 PUSH4 0x5C975ABB GT PUSH2 0x1E1 JUMPI DUP1 PUSH4 0x5C975ABB EQ PUSH2 0x682 JUMPI DUP1 PUSH4 0x66EE13B3 EQ PUSH2 0x69C JUMPI DUP1 PUSH4 0x6A74EFFC EQ PUSH2 0x6EC JUMPI PUSH1 0x0 DUP1 REVERT JUMPDEST DUP1 PUSH4 0x5B1D1C1F EQ PUSH2 0x636 JUMPI DUP1 PUSH4 0x5C19A95C EQ PUSH2 0x64B JUMPI DUP1 PUSH4 0x5C31F220 EQ PUSH2 0x65E JUMPI PUSH1 0x0 DUP1 REVERT JUMPDEST DUP1 PUSH4 0x42966C68 GT PUSH2 0x238 JUMPI DUP1 PUSH4 0x42966C68 EQ PUSH2 0x5B0 JUMPI DUP1 PUSH4 0x5277B4AE EQ PUSH2 0x5C3 JUMPI DUP1 PUSH4 0x587CDE1E EQ PUSH2 0x5FE JUMPI PUSH1 0x0 DUP1 REVERT JUMPDEST DUP1 PUSH4 0x30ADF81F EQ PUSH2 0x540 JUMPI DUP1 PUSH4 0x313CE567 EQ PUSH2 0x574 JUMPI DUP1 PUSH4 0x3644E515 EQ PUSH2 0x59B JUMPI PUSH1 0x0 DUP1 REVERT JUMPDEST DUP1 PUSH4 0x150B7A02 GT PUSH2 0x2C0 JUMPI DUP1 PUSH4 0x1A9F0597 GT PUSH2 0x29A JUMPI DUP1 PUSH4 0x1A9F0597 EQ PUSH2 0x4EB JUMPI DUP1 PUSH4 0x23B872DD EQ PUSH2 0x500 JUMPI DUP1 PUSH4 0x255C87BF EQ PUSH2 0x513 JUMPI PUSH1 0x0 DUP1 REVERT JUMPDEST DUP1 PUSH4 0x150B7A02 EQ PUSH2 0x440 JUMPI DUP1 PUSH4 0x1703A018 EQ PUSH2 0x49E JUMPI DUP1 PUSH4 0x18160DDD EQ PUSH2 0x4C7 JUMPI PUSH1 0x0 DUP1 REVERT JUMPDEST DUP1 PUSH4 0x6FDDE03 GT PUSH2 0x2F1 JUMPI DUP1 PUSH4 0x6FDDE03 EQ PUSH2 0x386 JUMPI DUP1 PUSH4 0x95EA7B3 EQ PUSH2 0x3A8 JUMPI DUP1 PUSH4 0xCDFEBFA EQ PUSH2 0x3CB JUMPI PUSH1 0x0 DUP1 REVERT JUMPDEST DUP1 PUSH4 0x13CF08B EQ PUSH2 0x318 JUMPI DUP1 PUSH4 0x2A251A3 EQ PUSH2 0x354 JUMPI PUSH1 0x0 DUP1 REVERT JUMPDEST CALLDATASIZE PUSH2 0x313 JUMPI STOP JUMPDEST PUSH1 0x0 DUP1 REVERT JUMPDEST CALLVALUE DUP1 ISZERO PUSH2 0x324 JUMPI PUSH1 0x0 DUP1 REVERT JUMPDEST POP PUSH2 0x338 PUSH2 0x333 CALLDATASIZE PUSH1 0x4 PUSH2 0x3E36 JUMP JUMPDEST PUSH2 0xA81 JUMP JUMPDEST PUSH1 0x40 MLOAD PUSH2 0x34B SWAP8 SWAP7 SWAP6 SWAP5 SWAP4 SWAP3 SWAP2 SWAP1 PUSH2 0x3EB2 JUMP JUMPDEST PUSH1 0x40 MLOAD DUP1 SWAP2 SUB SWAP1 RETURN JUMPDEST CALLVALUE DUP1 ISZERO PUSH2 0x360 JUMPI PUSH1 0x0 DUP1 REVERT JUMPDEST POP PUSH1 0x10 SLOAD PUSH2 0x371 SWAP1 PUSH4 0xFFFFFFFF AND DUP2 JUMP JUMPDEST PUSH1 0x40 MLOAD PUSH4 0xFFFFFFFF SWAP1 SWAP2 AND DUP2 MSTORE PUSH1 0x20 ADD PUSH2 0x34B JUMP JUMPDEST CALLVALUE DUP1 ISZERO PUSH2 0x392 JUMPI PUSH1 0x0 DUP1 REVERT JUMPDEST POP PUSH2 0x39B PUSH2 0xB68 JUMP JUMPDEST PUSH1 0x40 MLOAD PUSH2 0x34B SWAP2 SWAP1 PUSH2 0x3F1F JUMP JUMPDEST PUSH2 0x3BB PUSH2 0x3B6 CALLDATASIZE PUSH1 0x4 PUSH2 0x3F4E JUMP JUMPDEST PUSH2 0xBF6 JUMP JUMPDEST PUSH1 0x40 MLOAD SWAP1 ISZERO ISZERO DUP2 MSTORE PUSH1 0x20 ADD PUSH2 0x34B JUMP JUMPDEST CALLVALUE DUP1 ISZERO PUSH2 0x3D7 JUMPI PUSH1 0x0 DUP1 REVERT JUMPDEST POP PUSH2 0x41C PUSH2 0x3E6 CALLDATASIZE PUSH1 0x4 PUSH2 0x3F4E JUMP JUMPDEST PUSH1 0xA PUSH1 0x20 SWAP1 DUP2 MSTORE PUSH1 0x0 SWAP3 DUP4 MSTORE PUSH1 0x40 DUP1 DUP5 KECCAK256 SWAP1 SWAP2 MSTORE SWAP1 DUP3 MSTORE SWAP1 KECCAK256 SLOAD PUSH4 0xFFFFFFFF DUP2 AND SWAP1 PUSH5 0x100000000 SWAP1 DIV PUSH1 0x1 PUSH1 0x1 PUSH1 0x60 SHL SUB AND DUP3 JUMP JUMPDEST PUSH1 0x40 DUP1 MLOAD PUSH4 0xFFFFFFFF SWAP1 SWAP4 AND DUP4 MSTORE PUSH1 0x1 PUSH1 0x1 PUSH1 0x60 SHL SUB SWAP1 SWAP2 AND PUSH1 0x20 DUP4 ADD MSTORE ADD PUSH2 0x34B JUMP JUMPDEST CALLVALUE DUP1 ISZERO PUSH2 0x44C JUMPI PUSH1 0x0 DUP1 REVERT JUMPDEST POP PUSH2 0x485 PUSH2 0x45B CALLDATASIZE PUSH1 0x4 PUSH2 0x3FC1 JUMP JUMPDEST PUSH32 0x150B7A0200000000000000000000000000000000000000000000000000000000 SWAP6 SWAP5 POP POP POP POP POP JUMP JUMPDEST PUSH1 0x40 MLOAD PUSH1 0x1 PUSH1 0x1 PUSH1 0xE0 SHL SUB NOT SWAP1 SWAP2 AND DUP2 MSTORE PUSH1 0x20 ADD PUSH2 0x34B JUMP JUMPDEST CALLVALUE DUP1 ISZERO PUSH2 0x4AA JUMPI PUSH1 0x0 DUP1 REVERT JUMPDEST POP PUSH1 0x10 SLOAD PUSH2 0x371 SWAP1 PUSH9 0x10000000000000000 SWAP1 DIV PUSH4 0xFFFFFFFF AND DUP2 JUMP JUMPDEST CALLVALUE DUP1 ISZERO PUSH2 0x4D3 JUMPI PUSH1 0x0 DUP1 REVERT JUMPDEST POP PUSH2 0x4DD PUSH1 0x2 SLOAD DUP2 JUMP JUMPDEST PUSH1 0x40 MLOAD SWAP1 DUP2 MSTORE PUSH1 0x20 ADD PUSH2 0x34B JUMP JUMPDEST PUSH2 0x4FE PUSH2 0x4F9 CALLDATASIZE PUSH1 0x4 PUSH2 0x4051 JUMP JUMPDEST PUSH2 0xC63 JUMP JUMPDEST STOP JUMPDEST PUSH2 0x3BB PUSH2 0x50E CALLDATASIZE PUSH1 0x4 PUSH2 0x40B0 JUMP JUMPDEST PUSH2 0xDF7 JUMP JUMPDEST CALLVALUE DUP1 ISZERO PUSH2 0x51F JUMPI PUSH1 0x0 DUP1 REVERT JUMPDEST POP PUSH2 0x4DD PUSH2 0x52E CALLDATASIZE PUSH1 0x4 PUSH2 0x40EC JUMP JUMPDEST PUSH1 0x15 PUSH1 0x20 MSTORE PUSH1 0x0 SWAP1 DUP2 MSTORE PUSH1 0x40 SWAP1 KECCAK256 SLOAD DUP2 JUMP JUMPDEST CALLVALUE DUP1 ISZERO PUSH2 0x54C JUMPI PUSH1 0x0 DUP1 REVERT JUMPDEST POP PUSH2 0x4DD PUSH32 0x6E71EDAE12B1B97F4D1F60370FEF10105FA2FAAE0126114A169C64845D6126C9 DUP2 JUMP JUMPDEST CALLVALUE DUP1 ISZERO PUSH2 0x580 JUMPI PUSH1 0x0 DUP1 REVERT JUMPDEST POP PUSH2 0x589 PUSH1 0x12 DUP2 JUMP JUMPDEST PUSH1 0x40 MLOAD PUSH1 0xFF SWAP1 SWAP2 AND DUP2 MSTORE PUSH1 0x20 ADD PUSH2 0x34B JUMP JUMPDEST CALLVALUE DUP1 ISZERO PUSH2 0x5A7 JUMPI PUSH1 0x0 DUP1 REVERT JUMPDEST POP PUSH2 0x4DD PUSH2 0xF41 JUMP JUMPDEST PUSH2 0x4FE PUSH2 0x5BE CALLDATASIZE PUSH1 0x4 PUSH2 0x3E36 JUMP JUMPDEST PUSH2 0xF60 JUMP JUMPDEST CALLVALUE DUP1 ISZERO PUSH2 0x5CF JUMPI PUSH1 0x0 DUP1 REVERT JUMPDEST POP PUSH2 0x3BB PUSH2 0x5DE CALLDATASIZE PUSH1 0x4 PUSH2 0x4107 JUMP JUMPDEST PUSH1 0x14 PUSH1 0x20 SWAP1 DUP2 MSTORE PUSH1 0x0 SWAP3 DUP4 MSTORE PUSH1 0x40 DUP1 DUP5 KECCAK256 SWAP1 SWAP2 MSTORE SWAP1 DUP3 MSTORE SWAP1 KECCAK256 SLOAD PUSH1 0xFF AND DUP2 JUMP JUMPDEST CALLVALUE DUP1 ISZERO PUSH2 0x60A JUMPI PUSH1 0x0 DUP1 REVERT JUMPDEST POP PUSH2 0x61E PUSH2 0x619 CALLDATASIZE PUSH1 0x4 PUSH2 0x40EC JUMP JUMPDEST PUSH2 0xF6D JUMP JUMPDEST PUSH1 0x40 MLOAD PUSH1 0x1 PUSH1 0x1 PUSH1 0xA0 SHL SUB SWAP1 SWAP2 AND DUP2 MSTORE PUSH1 0x20 ADD PUSH2 0x34B JUMP JUMPDEST CALLVALUE DUP1 ISZERO PUSH2 0x642 JUMPI PUSH1 0x0 DUP1 REVERT JUMPDEST POP PUSH2 0x39B PUSH2 0xF9D JUMP JUMPDEST PUSH2 0x4FE PUSH2 0x659 CALLDATASIZE PUSH1 0x4 PUSH2 0x40EC JUMP JUMPDEST PUSH2 0xFAA JUMP JUMPDEST CALLVALUE DUP1 ISZERO PUSH2 0x66A JUMPI PUSH1 0x0 DUP1 REVERT JUMPDEST POP PUSH1 0x10 SLOAD PUSH2 0x371 SWAP1 PUSH1 0x1 PUSH1 0x60 SHL SWAP1 DIV PUSH4 0xFFFFFFFF AND DUP2 JUMP JUMPDEST CALLVALUE DUP1 ISZERO PUSH2 0x68E JUMPI PUSH1 0x0 DUP1 REVERT JUMPDEST POP PUSH1 0x8 SLOAD PUSH2 0x3BB SWAP1 PUSH1 0xFF AND DUP2 JUMP JUMPDEST CALLVALUE DUP1 ISZERO PUSH2 0x6A8 JUMPI PUSH1 0x0 DUP1 REVERT JUMPDEST POP PUSH2 0x6D5 PUSH2 0x6B7 CALLDATASIZE PUSH1 0x4 PUSH2 0x3E36 JUMP JUMPDEST PUSH1 0x12 PUSH1 0x20 MSTORE PUSH1 0x0 SWAP1 DUP2 MSTORE PUSH1 0x40 SWAP1 KECCAK256 SLOAD PUSH1 0xFF DUP1 DUP3 AND SWAP2 PUSH2 0x100 SWAP1 DIV AND DUP3 JUMP JUMPDEST PUSH1 0x40 DUP1 MLOAD SWAP3 ISZERO ISZERO DUP4 MSTORE SWAP1 ISZERO ISZERO PUSH1 0x20 DUP4 ADD MSTORE ADD PUSH2 0x34B JUMP JUMPDEST CALLVALUE DUP1 ISZERO PUSH2 0x6F8 JUMPI PUSH1 0x0 DUP1 REVERT JUMPDEST POP PUSH2 0x70C PUSH2 0x707 CALLDATASIZE PUSH1 0x4 PUSH2 0x3E36 JUMP JUMPDEST PUSH2 0xFB4 JUMP JUMPDEST PUSH1 0x40 MLOAD PUSH2 0x34B SWAP4 SWAP3 SWAP2 SWAP1 PUSH2 0x4188 JUMP JUMPDEST CALLVALUE DUP1 ISZERO PUSH2 0x727 JUMPI PUSH1 0x0 DUP1 REVERT JUMPDEST POP PUSH2 0x4DD PUSH2 0x736 CALLDATASIZE PUSH1 0x4 PUSH2 0x40EC JUMP JUMPDEST PUSH1 0xB PUSH1 0x20 MSTORE PUSH1 0x0 SWAP1 DUP2 MSTORE PUSH1 0x40 SWAP1 KECCAK256 SLOAD DUP2 JUMP JUMPDEST CALLVALUE DUP1 ISZERO PUSH2 0x754 JUMPI PUSH1 0x0 DUP1 REVERT JUMPDEST POP PUSH2 0x4DD PUSH2 0x763 CALLDATASIZE PUSH1 0x4 PUSH2 0x40EC JUMP JUMPDEST PUSH1 0x3 PUSH1 0x20 MSTORE PUSH1 0x0 SWAP1 DUP2 MSTORE PUSH1 0x40 SWAP1 KECCAK256 SLOAD DUP2 JUMP JUMPDEST CALLVALUE DUP1 ISZERO PUSH2 0x781 JUMPI PUSH1 0x0 DUP1 REVERT JUMPDEST POP PUSH2 0x7A5 PUSH2 0x790 CALLDATASIZE PUSH1 0x4 PUSH2 0x422E JUMP JUMPDEST PUSH1 0x13 PUSH1 0x20 MSTORE PUSH1 0x0 SWAP1 DUP2 MSTORE PUSH1 0x40 SWAP1 KECCAK256 SLOAD PUSH1 0xFF AND DUP2 JUMP JUMPDEST PUSH1 0x40 MLOAD PUSH2 0x34B SWAP2 SWAP1 PUSH2 0x4249 JUMP JUMPDEST CALLVALUE DUP1 ISZERO PUSH2 0x7BE JUMPI PUSH1 0x0 DUP1 REVERT JUMPDEST POP PUSH2 0x7D2 PUSH2 0x7CD CALLDATASIZE PUSH1 0x4 PUSH2 0x3F4E JUMP JUMPDEST PUSH2 0x116B JUMP JUMPDEST PUSH1 0x40 MLOAD PUSH1 0x1 PUSH1 0x1 PUSH1 0x60 SHL SUB SWAP1 SWAP2 AND DUP2 MSTORE PUSH1 0x20 ADD PUSH2 0x34B JUMP JUMPDEST CALLVALUE DUP1 ISZERO PUSH2 0x7F6 JUMPI PUSH1 0x0 DUP1 REVERT JUMPDEST POP PUSH2 0x4DD PUSH32 0x39BF2CB78B4FEE6E3427925ED40CF1F955458A02AC29C312C7BE5FDE74D0DD7A DUP2 JUMP JUMPDEST PUSH2 0x4FE PUSH2 0x82C CALLDATASIZE PUSH1 0x4 PUSH2 0x3F4E JUMP JUMPDEST PUSH2 0x1363 JUMP JUMPDEST CALLVALUE DUP1 ISZERO PUSH2 0x83D JUMPI PUSH1 0x0 DUP1 REVERT JUMPDEST POP PUSH2 0x4DD PUSH2 0x84C CALLDATASIZE PUSH1 0x4 PUSH2 0x40EC JUMP JUMPDEST PUSH1 0x7 PUSH1 0x20 MSTORE PUSH1 0x0 SWAP1 DUP2 MSTORE PUSH1 0x40 SWAP1 KECCAK256 SLOAD DUP2 JUMP JUMPDEST CALLVALUE DUP1 ISZERO PUSH2 0x86A JUMPI PUSH1 0x0 DUP1 REVERT JUMPDEST POP PUSH2 0x39B PUSH2 0x13D6 JUMP JUMPDEST PUSH2 0x4FE PUSH2 0x881 CALLDATASIZE PUSH1 0x4 PUSH2 0x3E36 JUMP JUMPDEST PUSH2 0x13E3 JUMP JUMPDEST PUSH2 0x4DD PUSH2 0x894 CALLDATASIZE PUSH1 0x4 PUSH2 0x42A8 JUMP JUMPDEST PUSH2 0x152B JUMP JUMPDEST CALLVALUE DUP1 ISZERO PUSH2 0x8A5 JUMPI PUSH1 0x0 DUP1 REVERT JUMPDEST POP PUSH1 0x10 SLOAD PUSH2 0x371 SWAP1 PUSH5 0x100000000 SWAP1 DIV PUSH4 0xFFFFFFFF AND DUP2 JUMP JUMPDEST PUSH2 0x3BB PUSH2 0x8CC CALLDATASIZE PUSH1 0x4 PUSH2 0x3F4E JUMP JUMPDEST PUSH2 0x1ADB JUMP JUMPDEST CALLVALUE DUP1 ISZERO PUSH2 0x8DD JUMPI PUSH1 0x0 DUP1 REVERT JUMPDEST POP PUSH2 0x4DD PUSH2 0x8EC CALLDATASIZE PUSH1 0x4 PUSH2 0x40EC JUMP JUMPDEST PUSH2 0x1B8D JUMP JUMPDEST CALLVALUE DUP1 ISZERO PUSH2 0x8FD JUMPI PUSH1 0x0 DUP1 REVERT JUMPDEST POP PUSH2 0x485 PUSH2 0x90C CALLDATASIZE PUSH1 0x4 PUSH2 0x437F JUMP JUMPDEST PUSH32 0xBC197C8100000000000000000000000000000000000000000000000000000000 SWAP9 SWAP8 POP POP POP POP POP POP POP POP JUMP JUMPDEST PUSH2 0x4FE PUSH2 0x947 CALLDATASIZE PUSH1 0x4 PUSH2 0x443A JUMP JUMPDEST PUSH2 0x1BFC JUMP JUMPDEST PUSH2 0x4FE PUSH2 0x95A CALLDATASIZE PUSH1 0x4 PUSH2 0x4478 JUMP JUMPDEST PUSH2 0x1DD4 JUMP JUMPDEST PUSH2 0x4FE PUSH2 0x96D CALLDATASIZE PUSH1 0x4 PUSH2 0x449B JUMP JUMPDEST PUSH2 0x1E10 JUMP JUMPDEST CALLVALUE DUP1 ISZERO PUSH2 0x97E JUMPI PUSH1 0x0 DUP1 REVERT JUMPDEST POP PUSH2 0x4DD PUSH1 0xF SLOAD DUP2 JUMP JUMPDEST CALLVALUE DUP1 ISZERO PUSH2 0x994 JUMPI PUSH1 0x0 DUP1 REVERT JUMPDEST POP PUSH2 0x4DD PUSH2 0x9A3 CALLDATASIZE PUSH1 0x4 PUSH2 0x4505 JUMP JUMPDEST PUSH1 0x4 PUSH1 0x20 SWAP1 DUP2 MSTORE PUSH1 0x0 SWAP3 DUP4 MSTORE PUSH1 0x40 DUP1 DUP5 KECCAK256 SWAP1 SWAP2 MSTORE SWAP1 DUP3 MSTORE SWAP1 KECCAK256 SLOAD DUP2 JUMP JUMPDEST PUSH2 0x4FE PUSH2 0x9CE CALLDATASIZE PUSH1 0x4 PUSH2 0x3E36 JUMP JUMPDEST PUSH2 0x2012 JUMP JUMPDEST PUSH2 0x4FE PUSH2 0x9E1 CALLDATASIZE PUSH1 0x4 PUSH2 0x466F JUMP JUMPDEST PUSH2 0x216F JUMP JUMPDEST PUSH2 0x9F9 PUSH2 0x9F4 CALLDATASIZE PUSH1 0x4 PUSH2 0x3E36 JUMP JUMPDEST PUSH2 0x2866 JUMP JUMPDEST PUSH1 0x40 MLOAD PUSH2 0x34B SWAP3 SWAP2 SWAP1 PUSH2 0x474B JUMP JUMPDEST CALLVALUE DUP1 ISZERO PUSH2 0xA13 JUMPI PUSH1 0x0 DUP1 REVERT JUMPDEST POP PUSH2 0x4DD PUSH32 0x76995FE87BE88484696CFD6792AEB71E0B61F81DFA3B641E5ADFFA38A0D3B8E2 DUP2 JUMP JUMPDEST CALLVALUE DUP1 ISZERO PUSH2 0xA47 JUMPI PUSH1 0x0 DUP1 REVERT JUMPDEST POP PUSH2 0x485 PUSH2 0xA56 CALLDATASIZE PUSH1 0x4 PUSH2 0x476E JUMP JUMPDEST PUSH32 0xF23A6E6100000000000000000000000000000000000000000000000000000000 SWAP7 SWAP6 POP POP POP POP POP POP JUMP JUMPDEST PUSH1 0x11 PUSH1 0x20 MSTORE PUSH1 0x0 SWAP1 DUP2 MSTORE PUSH1 0x40 SWAP1 KECCAK256 DUP1 SLOAD PUSH1 0x1 DUP3 ADD DUP1 SLOAD PUSH1 0xFF SWAP1 SWAP3 AND SWAP3 SWAP2 PUSH2 0xAA7 SWAP1 PUSH2 0x47E6 JUMP JUMPDEST DUP1 PUSH1 0x1F ADD PUSH1 0x20 DUP1 SWAP2 DIV MUL PUSH1 0x20 ADD PUSH1 0x40 MLOAD SWAP1 DUP2 ADD PUSH1 0x40 MSTORE DUP1 SWAP3 SWAP2 SWAP1 DUP2 DUP2 MSTORE PUSH1 0x20 ADD DUP3 DUP1 SLOAD PUSH2 0xAD3 SWAP1 PUSH2 0x47E6 JUMP JUMPDEST DUP1 ISZERO PUSH2 0xB20 JUMPI DUP1 PUSH1 0x1F LT PUSH2 0xAF5 JUMPI PUSH2 0x100 DUP1 DUP4 SLOAD DIV MUL DUP4 MSTORE SWAP2 PUSH1 0x20 ADD SWAP2 PUSH2 0xB20 JUMP JUMPDEST DUP3 ADD SWAP2 SWAP1 PUSH1 0x0 MSTORE PUSH1 0x20 PUSH1 0x0 KECCAK256 SWAP1 JUMPDEST DUP2 SLOAD DUP2 MSTORE SWAP1 PUSH1 0x1 ADD SWAP1 PUSH1 0x20 ADD DUP1 DUP4 GT PUSH2 0xB03 JUMPI DUP3 SWAP1 SUB PUSH1 0x1F AND DUP3 ADD SWAP2 JUMPDEST POP POP POP POP PUSH1 0x5 DUP4 ADD SLOAD PUSH1 0x6 DUP5 ADD SLOAD PUSH1 0x7 SWAP1 SWAP5 ADD SLOAD SWAP3 SWAP4 SWAP1 SWAP3 PUSH1 0x1 PUSH1 0x1 PUSH1 0x60 SHL SUB DUP1 DUP4 AND SWAP4 POP PUSH1 0x1 PUSH1 0x60 SHL DUP4 DIV AND SWAP2 PUSH1 0x1 PUSH1 0xC0 SHL SWAP1 DIV PUSH4 0xFFFFFFFF AND SWAP1 PUSH1 0x1 PUSH1 0x1 PUSH1 0xA0 SHL SUB AND DUP8 JUMP JUMPDEST PUSH1 0x0 DUP1 SLOAD PUSH2 0xB75 SWAP1 PUSH2 0x47E6 JUMP JUMPDEST DUP1 PUSH1 0x1F ADD PUSH1 0x20 DUP1 SWAP2 DIV MUL PUSH1 0x20 ADD PUSH1 0x40 MLOAD SWAP1 DUP2 ADD PUSH1 0x40 MSTORE DUP1 SWAP3 SWAP2 SWAP1 DUP2 DUP2 MSTORE PUSH1 0x20 ADD DUP3 DUP1 SLOAD PUSH2 0xBA1 SWAP1 PUSH2 0x47E6 JUMP JUMPDEST DUP1 ISZERO PUSH2 0xBEE JUMPI DUP1 PUSH1 0x1F LT PUSH2 0xBC3 JUMPI PUSH2 0x100 DUP1 DUP4 SLOAD DIV MUL DUP4 MSTORE SWAP2 PUSH1 0x20 ADD SWAP2 PUSH2 0xBEE JUMP JUMPDEST DUP3 ADD SWAP2 SWAP1 PUSH1 0x0 MSTORE PUSH1 0x20 PUSH1 0x0 KECCAK256 SWAP1 JUMPDEST DUP2 SLOAD DUP2 MSTORE SWAP1 PUSH1 0x1 ADD SWAP1 PUSH1 0x20 ADD DUP1 DUP4 GT PUSH2 0xBD1 JUMPI DUP3 SWAP1 SUB PUSH1 0x1F AND DUP3 ADD SWAP2 JUMPDEST POP POP POP POP POP DUP2 JUMP JUMPDEST CALLER PUSH1 0x0 DUP2 DUP2 MSTORE PUSH1 0x4 PUSH1 0x20 SWAP1 DUP2 MSTORE PUSH1 0x40 DUP1 DUP4 KECCAK256 PUSH1 0x1 PUSH1 0x1 PUSH1 0xA0 SHL SUB DUP8 AND DUP1 DUP6 MSTORE SWAP3 MSTORE DUP1 DUP4 KECCAK256 DUP6 SWAP1 SSTORE MLOAD SWAP2 SWAP3 SWAP1 SWAP2 PUSH32 0x8C5BE1E5EBEC7D5BD14F71427D1E84F3DD0314C0F7B2291E5B200AC8C7C3B925 SWAP1 PUSH2 0xC51 SWAP1 DUP7 DUP2 MSTORE PUSH1 0x20 ADD SWAP1 JUMP JUMPDEST PUSH1 0x40 MLOAD DUP1 SWAP2 SUB SWAP1 LOG3 POP PUSH1 0x1 JUMPDEST SWAP3 SWAP2 POP POP JUMP JUMPDEST PUSH1 0xC SLOAD PUSH1 0x1 EQ PUSH2 0xC86 JUMPI PUSH1 0x40 MLOAD PUSH4 0x558A1E03 PUSH1 0xE1 SHL DUP2 MSTORE PUSH1 0x4 ADD PUSH1 0x40 MLOAD DUP1 SWAP2 SUB SWAP1 REVERT JUMPDEST PUSH1 0x2 PUSH1 0xC SSTORE PUSH1 0x0 PUSH2 0xC95 PUSH2 0xF41 JUMP JUMPDEST PUSH1 0x40 DUP1 MLOAD PUSH32 0x39BF2CB78B4FEE6E3427925ED40CF1F955458A02AC29C312C7BE5FDE74D0DD7A PUSH1 0x20 DUP3 ADD MSTORE PUSH1 0x1 PUSH1 0x1 PUSH1 0xA0 SHL SUB DUP11 AND SWAP2 DUP2 ADD SWAP2 SWAP1 SWAP2 MSTORE PUSH1 0x60 DUP2 ADD DUP9 SWAP1 MSTORE DUP7 ISZERO ISZERO PUSH1 0x80 DUP3 ADD MSTORE PUSH1 0xA0 ADD PUSH1 0x40 MLOAD PUSH1 0x20 DUP2 DUP4 SUB SUB DUP2 MSTORE SWAP1 PUSH1 0x40 MSTORE DUP1 MLOAD SWAP1 PUSH1 0x20 ADD KECCAK256 PUSH1 0x40 MLOAD PUSH1 0x20 ADD PUSH2 0xD1F SWAP3 SWAP2 SWAP1 PUSH2 0x1901 PUSH1 0xF0 SHL DUP2 MSTORE PUSH1 0x2 DUP2 ADD SWAP3 SWAP1 SWAP3 MSTORE PUSH1 0x22 DUP3 ADD MSTORE PUSH1 0x42 ADD SWAP1 JUMP JUMPDEST PUSH1 0x40 DUP1 MLOAD PUSH1 0x1F NOT DUP2 DUP5 SUB ADD DUP2 MSTORE DUP3 DUP3 MSTORE DUP1 MLOAD PUSH1 0x20 SWAP2 DUP3 ADD KECCAK256 PUSH1 0x0 DUP1 DUP6 MSTORE SWAP2 DUP5 ADD DUP1 DUP5 MSTORE DUP2 SWAP1 MSTORE PUSH1 0xFF DUP9 AND SWAP3 DUP5 ADD SWAP3 SWAP1 SWAP3 MSTORE PUSH1 0x60 DUP4 ADD DUP7 SWAP1 MSTORE PUSH1 0x80 DUP4 ADD DUP6 SWAP1 MSTORE SWAP1 SWAP3 POP SWAP1 PUSH1 0x1 SWAP1 PUSH1 0xA0 ADD PUSH1 0x20 PUSH1 0x40 MLOAD PUSH1 0x20 DUP2 SUB SWAP1 DUP1 DUP5 SUB SWAP1 DUP6 GAS STATICCALL ISZERO DUP1 ISZERO PUSH2 0xD8A JUMPI RETURNDATASIZE PUSH1 0x0 DUP1 RETURNDATACOPY RETURNDATASIZE PUSH1 0x0 REVERT JUMPDEST POP POP PUSH1 0x40 MLOAD PUSH1 0x1F NOT ADD MLOAD SWAP2 POP POP PUSH1 0x1 PUSH1 0x1 PUSH1 0xA0 SHL SUB DUP2 AND ISZERO DUP1 PUSH2 0xDBF JUMPI POP DUP8 PUSH1 0x1 PUSH1 0x1 PUSH1 0xA0 SHL SUB AND DUP2 PUSH1 0x1 PUSH1 0x1 PUSH1 0xA0 SHL SUB AND EQ ISZERO JUMPDEST ISZERO PUSH2 0xDDD JUMPI PUSH1 0x40 MLOAD PUSH4 0x8BAA579F PUSH1 0xE0 SHL DUP2 MSTORE PUSH1 0x4 ADD PUSH1 0x40 MLOAD DUP1 SWAP2 SUB SWAP1 REVERT JUMPDEST PUSH2 0xDE8 DUP9 DUP9 DUP9 PUSH2 0x31A0 JUMP JUMPDEST POP POP PUSH1 0x1 PUSH1 0xC SSTORE POP POP POP POP POP POP JUMP JUMPDEST PUSH1 0x8 SLOAD PUSH1 0x0 SWAP1 PUSH1 0xFF AND ISZERO PUSH2 0xE1E JUMPI PUSH1 0x40 MLOAD PUSH4 0x13D0FF59 PUSH1 0xE3 SHL DUP2 MSTORE PUSH1 0x4 ADD PUSH1 0x40 MLOAD DUP1 SWAP2 SUB SWAP1 REVERT JUMPDEST PUSH1 0x1 PUSH1 0x1 PUSH1 0xA0 SHL SUB DUP5 AND PUSH1 0x0 SWAP1 DUP2 MSTORE PUSH1 0x4 PUSH1 0x20 SWAP1 DUP2 MSTORE PUSH1 0x40 DUP1 DUP4 KECCAK256 CALLER DUP5 MSTORE SWAP1 SWAP2 MSTORE SWAP1 KECCAK256 SLOAD PUSH1 0x0 NOT EQ PUSH2 0xE83 JUMPI PUSH1 0x1 PUSH1 0x1 PUSH1 0xA0 SHL SUB DUP5 AND PUSH1 0x0 SWAP1 DUP2 MSTORE PUSH1 0x4 PUSH1 0x20 SWAP1 DUP2 MSTORE PUSH1 0x40 DUP1 DUP4 KECCAK256 CALLER DUP5 MSTORE SWAP1 SWAP2 MSTORE DUP2 KECCAK256 DUP1 SLOAD DUP5 SWAP3 SWAP1 PUSH2 0xE7D SWAP1 DUP5 SWAP1 PUSH2 0x4837 JUMP JUMPDEST SWAP1 SWAP2 SSTORE POP POP JUMPDEST PUSH1 0x1 PUSH1 0x1 PUSH1 0xA0 SHL SUB DUP5 AND PUSH1 0x0 SWAP1 DUP2 MSTORE PUSH1 0x3 PUSH1 0x20 MSTORE PUSH1 0x40 DUP2 KECCAK256 DUP1 SLOAD DUP5 SWAP3 SWAP1 PUSH2 0xEAB SWAP1 DUP5 SWAP1 PUSH2 0x4837 JUMP JUMPDEST SWAP1 SWAP2 SSTORE POP POP PUSH1 0x1 PUSH1 0x1 PUSH1 0xA0 SHL SUB DUP4 AND PUSH1 0x0 SWAP1 DUP2 MSTORE PUSH1 0x3 PUSH1 0x20 MSTORE PUSH1 0x40 SWAP1 KECCAK256 DUP1 SLOAD DUP4 ADD SWAP1 SSTORE PUSH2 0xEE9 PUSH2 0xEDA DUP6 PUSH2 0xF6D JUMP JUMPDEST PUSH2 0xEE3 DUP6 PUSH2 0xF6D JUMP JUMPDEST DUP5 PUSH2 0x3371 JUMP JUMPDEST DUP3 PUSH1 0x1 PUSH1 0x1 PUSH1 0xA0 SHL SUB AND DUP5 PUSH1 0x1 PUSH1 0x1 PUSH1 0xA0 SHL SUB AND PUSH32 0xDDF252AD1BE2C89B69C2B068FC378DAA952BA7F163C4A11628F55A4DF523B3EF DUP5 PUSH1 0x40 MLOAD PUSH2 0xF2E SWAP2 DUP2 MSTORE PUSH1 0x20 ADD SWAP1 JUMP JUMPDEST PUSH1 0x40 MLOAD DUP1 SWAP2 SUB SWAP1 LOG3 POP PUSH1 0x1 JUMPDEST SWAP4 SWAP3 POP POP POP JUMP JUMPDEST PUSH1 0x0 PUSH1 0x5 SLOAD CHAINID EQ PUSH2 0xF59 JUMPI PUSH2 0xF54 PUSH2 0x34E6 JUMP JUMPDEST SWAP1 POP SWAP1 JUMP JUMPDEST POP PUSH1 0x6 SLOAD SWAP1 JUMP JUMPDEST PUSH2 0xF6A CALLER DUP3 PUSH2 0x3580 JUMP JUMPDEST POP JUMP JUMPDEST PUSH1 0x1 PUSH1 0x1 PUSH1 0xA0 SHL SUB DUP1 DUP3 AND PUSH1 0x0 SWAP1 DUP2 MSTORE PUSH1 0x9 PUSH1 0x20 MSTORE PUSH1 0x40 DUP2 KECCAK256 SLOAD SWAP1 SWAP2 AND DUP1 ISZERO PUSH2 0xF96 JUMPI DUP1 PUSH2 0xF3A JUMP JUMPDEST POP SWAP1 SWAP2 SWAP1 POP JUMP JUMPDEST PUSH1 0xD DUP1 SLOAD PUSH2 0xB75 SWAP1 PUSH2 0x47E6 JUMP JUMPDEST PUSH2 0xF6A CALLER DUP3 PUSH2 0x3610 JUMP JUMPDEST PUSH1 0x60 DUP1 PUSH1 0x60 PUSH1 0x0 PUSH1 0x11 PUSH1 0x0 DUP7 DUP2 MSTORE PUSH1 0x20 ADD SWAP1 DUP2 MSTORE PUSH1 0x20 ADD PUSH1 0x0 KECCAK256 SWAP1 POP DUP1 PUSH1 0x2 ADD DUP2 PUSH1 0x3 ADD DUP3 PUSH1 0x4 ADD DUP3 DUP1 SLOAD DUP1 PUSH1 0x20 MUL PUSH1 0x20 ADD PUSH1 0x40 MLOAD SWAP1 DUP2 ADD PUSH1 0x40 MSTORE DUP1 SWAP3 SWAP2 SWAP1 DUP2 DUP2 MSTORE PUSH1 0x20 ADD DUP3 DUP1 SLOAD DUP1 ISZERO PUSH2 0x1031 JUMPI PUSH1 0x20 MUL DUP3 ADD SWAP2 SWAP1 PUSH1 0x0 MSTORE PUSH1 0x20 PUSH1 0x0 KECCAK256 SWAP1 JUMPDEST DUP2 SLOAD PUSH1 0x1 PUSH1 0x1 PUSH1 0xA0 SHL SUB AND DUP2 MSTORE PUSH1 0x1 SWAP1 SWAP2 ADD SWAP1 PUSH1 0x20 ADD DUP1 DUP4 GT PUSH2 0x1013 JUMPI JUMPDEST POP POP POP POP POP SWAP3 POP DUP2 DUP1 SLOAD DUP1 PUSH1 0x20 MUL PUSH1 0x20 ADD PUSH1 0x40 MLOAD SWAP1 DUP2 ADD PUSH1 0x40 MSTORE DUP1 SWAP3 SWAP2 SWAP1 DUP2 DUP2 MSTORE PUSH1 0x20 ADD DUP3 DUP1 SLOAD DUP1 ISZERO PUSH2 0x1083 JUMPI PUSH1 0x20 MUL DUP3 ADD SWAP2 SWAP1 PUSH1 0x0 MSTORE PUSH1 0x20 PUSH1 0x0 KECCAK256 SWAP1 JUMPDEST DUP2 SLOAD DUP2 MSTORE PUSH1 0x20 ADD SWAP1 PUSH1 0x1 ADD SWAP1 DUP1 DUP4 GT PUSH2 0x106F JUMPI JUMPDEST POP POP POP POP POP SWAP2 POP DUP1 DUP1 SLOAD DUP1 PUSH1 0x20 MUL PUSH1 0x20 ADD PUSH1 0x40 MLOAD SWAP1 DUP2 ADD PUSH1 0x40 MSTORE DUP1 SWAP3 SWAP2 SWAP1 DUP2 DUP2 MSTORE PUSH1 0x20 ADD PUSH1 0x0 SWAP1 JUMPDEST DUP3 DUP3 LT ISZERO PUSH2 0x1157 JUMPI DUP4 DUP3 SWAP1 PUSH1 0x0 MSTORE PUSH1 0x20 PUSH1 0x0 KECCAK256 ADD DUP1 SLOAD PUSH2 0x10CA SWAP1 PUSH2 0x47E6 JUMP JUMPDEST DUP1 PUSH1 0x1F ADD PUSH1 0x20 DUP1 SWAP2 DIV MUL PUSH1 0x20 ADD PUSH1 0x40 MLOAD SWAP1 DUP2 ADD PUSH1 0x40 MSTORE DUP1 SWAP3 SWAP2 SWAP1 DUP2 DUP2 MSTORE PUSH1 0x20 ADD DUP3 DUP1 SLOAD PUSH2 0x10F6 SWAP1 PUSH2 0x47E6 JUMP JUMPDEST DUP1 ISZERO PUSH2 0x1143 JUMPI DUP1 PUSH1 0x1F LT PUSH2 0x1118 JUMPI PUSH2 0x100 DUP1 DUP4 SLOAD DIV MUL DUP4 MSTORE SWAP2 PUSH1 0x20 ADD SWAP2 PUSH2 0x1143 JUMP JUMPDEST DUP3 ADD SWAP2 SWAP1 PUSH1 0x0 MSTORE PUSH1 0x20 PUSH1 0x0 KECCAK256 SWAP1 JUMPDEST DUP2 SLOAD DUP2 MSTORE SWAP1 PUSH1 0x1 ADD SWAP1 PUSH1 0x20 ADD DUP1 DUP4 GT PUSH2 0x1126 JUMPI DUP3 SWAP1 SUB PUSH1 0x1F AND DUP3 ADD SWAP2 JUMPDEST POP POP POP POP POP DUP2 MSTORE PUSH1 0x20 ADD SWAP1 PUSH1 0x1 ADD SWAP1 PUSH2 0x10AB JUMP JUMPDEST POP SWAP6 SWAP12 SWAP5 SWAP11 POP SWAP2 SWAP9 POP SWAP3 SWAP7 POP POP POP POP POP POP POP JUMP JUMPDEST PUSH1 0x0 DUP2 TIMESTAMP GT PUSH2 0x11A6 JUMPI PUSH1 0x40 MLOAD PUSH32 0xB1998E3000000000000000000000000000000000000000000000000000000000 DUP2 MSTORE PUSH1 0x4 ADD PUSH1 0x40 MLOAD DUP1 SWAP2 SUB SWAP1 REVERT JUMPDEST PUSH1 0x1 PUSH1 0x1 PUSH1 0xA0 SHL SUB DUP4 AND PUSH1 0x0 SWAP1 DUP2 MSTORE PUSH1 0xB PUSH1 0x20 MSTORE PUSH1 0x40 SWAP1 KECCAK256 SLOAD DUP1 PUSH2 0x11CE JUMPI PUSH1 0x0 SWAP2 POP POP PUSH2 0xC5D JUMP JUMPDEST PUSH1 0x1 PUSH1 0x1 PUSH1 0xA0 SHL SUB DUP5 AND PUSH1 0x0 SWAP1 DUP2 MSTORE PUSH1 0xA PUSH1 0x20 SWAP1 DUP2 MSTORE PUSH1 0x40 DUP1 DUP4 KECCAK256 PUSH1 0x0 NOT DUP6 ADD DUP5 MSTORE SWAP1 SWAP2 MSTORE SWAP1 KECCAK256 SLOAD PUSH4 0xFFFFFFFF AND DUP4 LT PUSH2 0x1243 JUMPI PUSH1 0x1 PUSH1 0x1 PUSH1 0xA0 SHL SUB DUP5 AND PUSH1 0x0 SWAP1 DUP2 MSTORE PUSH1 0xA PUSH1 0x20 SWAP1 DUP2 MSTORE PUSH1 0x40 DUP1 DUP4 KECCAK256 PUSH1 0x0 NOT SWAP1 SWAP5 ADD DUP4 MSTORE SWAP3 SWAP1 MSTORE KECCAK256 SLOAD PUSH1 0x1 PUSH1 0x1 PUSH1 0x60 SHL SUB PUSH5 0x100000000 SWAP1 SWAP2 DIV AND SWAP1 POP PUSH2 0xC5D JUMP JUMPDEST PUSH1 0x1 PUSH1 0x1 PUSH1 0xA0 SHL SUB DUP5 AND PUSH1 0x0 SWAP1 DUP2 MSTORE PUSH1 0xA PUSH1 0x20 SWAP1 DUP2 MSTORE PUSH1 0x40 DUP1 DUP4 KECCAK256 DUP4 DUP1 MSTORE SWAP1 SWAP2 MSTORE SWAP1 KECCAK256 SLOAD PUSH4 0xFFFFFFFF AND DUP4 LT ISZERO PUSH2 0x127E JUMPI PUSH1 0x0 SWAP2 POP POP PUSH2 0xC5D JUMP JUMPDEST PUSH1 0x0 PUSH1 0x0 NOT DUP3 ADD JUMPDEST DUP2 DUP2 GT ISZERO PUSH2 0x1324 JUMPI PUSH1 0x1 PUSH1 0x1 PUSH1 0xA0 SHL SUB DUP7 AND PUSH1 0x0 SWAP1 DUP2 MSTORE PUSH1 0xA PUSH1 0x20 SWAP1 DUP2 MSTORE PUSH1 0x40 DUP1 DUP4 KECCAK256 PUSH1 0x2 DUP7 DUP7 SUB DIV DUP6 SUB DUP1 DUP6 MSTORE SWAP1 DUP4 MSTORE SWAP3 DUP2 SWAP1 KECCAK256 DUP2 MLOAD DUP1 DUP4 ADD SWAP1 SWAP3 MSTORE SLOAD PUSH4 0xFFFFFFFF DUP2 AND DUP1 DUP4 MSTORE PUSH5 0x100000000 SWAP1 SWAP2 DIV PUSH1 0x1 PUSH1 0x1 PUSH1 0x60 SHL SUB AND SWAP3 DUP3 ADD SWAP3 SWAP1 SWAP3 MSTORE SWAP1 DUP8 EQ ISZERO PUSH2 0x12FF JUMPI PUSH1 0x20 ADD MLOAD SWAP5 POP PUSH2 0xC5D SWAP4 POP POP POP POP JUMP JUMPDEST DUP1 MLOAD PUSH4 0xFFFFFFFF AND DUP8 GT ISZERO PUSH2 0x1316 JUMPI DUP2 SWAP4 POP PUSH2 0x131D JUMP JUMPDEST PUSH1 0x1 DUP3 SUB SWAP3 POP JUMPDEST POP POP PUSH2 0x1286 JUMP JUMPDEST POP PUSH1 0x1 PUSH1 0x1 PUSH1 0xA0 SHL SUB DUP6 AND PUSH1 0x0 SWAP1 DUP2 MSTORE PUSH1 0xA PUSH1 0x20 SWAP1 DUP2 MSTORE PUSH1 0x40 DUP1 DUP4 KECCAK256 SWAP4 DUP4 MSTORE SWAP3 SWAP1 MSTORE KECCAK256 SLOAD PUSH1 0x1 PUSH1 0x1 PUSH1 0x60 SHL SUB PUSH5 0x100000000 SWAP1 SWAP2 DIV AND SWAP2 POP POP SWAP3 SWAP2 POP POP JUMP JUMPDEST PUSH1 0x1 PUSH1 0x1 PUSH1 0xA0 SHL SUB DUP3 AND PUSH1 0x0 SWAP1 DUP2 MSTORE PUSH1 0x4 PUSH1 0x20 SWAP1 DUP2 MSTORE PUSH1 0x40 DUP1 DUP4 KECCAK256 CALLER DUP5 MSTORE SWAP1 SWAP2 MSTORE SWAP1 KECCAK256 SLOAD PUSH1 0x0 NOT EQ PUSH2 0x13C8 JUMPI PUSH1 0x1 PUSH1 0x1 PUSH1 0xA0 SHL SUB DUP3 AND PUSH1 0x0 SWAP1 DUP2 MSTORE PUSH1 0x4 PUSH1 0x20 SWAP1 DUP2 MSTORE PUSH1 0x40 DUP1 DUP4 KECCAK256 CALLER DUP5 MSTORE SWAP1 SWAP2 MSTORE DUP2 KECCAK256 DUP1 SLOAD DUP4 SWAP3 SWAP1 PUSH2 0x13C2 SWAP1 DUP5 SWAP1 PUSH2 0x4837 JUMP JUMPDEST SWAP1 SWAP2 SSTORE POP POP JUMPDEST PUSH2 0x13D2 DUP3 DUP3 PUSH2 0x3580 JUMP JUMPDEST POP POP JUMP JUMPDEST PUSH1 0x1 DUP1 SLOAD PUSH2 0xB75 SWAP1 PUSH2 0x47E6 JUMP JUMPDEST PUSH1 0xC SLOAD PUSH1 0x1 EQ PUSH2 0x1406 JUMPI PUSH1 0x40 MLOAD PUSH4 0x558A1E03 PUSH1 0xE1 SHL DUP2 MSTORE PUSH1 0x4 ADD PUSH1 0x40 MLOAD DUP1 SWAP2 SUB SWAP1 REVERT JUMPDEST PUSH1 0x2 PUSH1 0xC SSTORE PUSH1 0x0 DUP2 DUP2 MSTORE PUSH1 0x11 PUSH1 0x20 SWAP1 DUP2 MSTORE PUSH1 0x40 DUP1 DUP4 KECCAK256 CALLER DUP5 MSTORE PUSH1 0x3 SWAP1 SWAP3 MSTORE SWAP1 SWAP2 KECCAK256 SLOAD PUSH2 0x145E JUMPI PUSH1 0x40 MLOAD PUSH32 0x291FC44200000000000000000000000000000000000000000000000000000000 DUP2 MSTORE PUSH1 0x4 ADD PUSH1 0x40 MLOAD DUP1 SWAP2 SUB SWAP1 REVERT JUMPDEST PUSH1 0x7 DUP2 ADD SLOAD PUSH1 0x1 PUSH1 0x1 PUSH1 0xA0 SHL SUB AND PUSH2 0x1489 JUMPI PUSH1 0x40 MLOAD PUSH4 0xC3B4CA43 PUSH1 0xE0 SHL DUP2 MSTORE PUSH1 0x4 ADD PUSH1 0x40 MLOAD DUP1 SWAP2 SUB SWAP1 REVERT JUMPDEST PUSH1 0x6 DUP2 ADD SLOAD PUSH1 0x1 PUSH1 0xC0 SHL SWAP1 DIV PUSH4 0xFFFFFFFF AND ISZERO PUSH2 0x14B9 JUMPI PUSH1 0x40 MLOAD PUSH4 0x68E83FD9 PUSH1 0xE0 SHL DUP2 MSTORE PUSH1 0x4 ADD PUSH1 0x40 MLOAD DUP1 SWAP2 SUB SWAP1 REVERT JUMPDEST PUSH1 0xE DUP1 SLOAD PUSH1 0x5 DUP4 ADD SSTORE DUP3 SWAP1 SSTORE PUSH2 0x14CE TIMESTAMP PUSH2 0x36B2 JUMP JUMPDEST PUSH1 0x6 DUP3 ADD DUP1 SLOAD PUSH4 0xFFFFFFFF SWAP3 SWAP1 SWAP3 AND PUSH1 0x1 PUSH1 0xC0 SHL MUL PUSH4 0xFFFFFFFF PUSH1 0xC0 SHL NOT SWAP1 SWAP3 AND SWAP2 SWAP1 SWAP2 OR SWAP1 SSTORE PUSH1 0x40 MLOAD DUP3 SWAP1 CALLER SWAP1 PUSH32 0xB708F3E57D02B42C1C66C9219454B2E519739AD18A0566A9A71A1E537F1F6E5D SWAP1 PUSH1 0x0 SWAP1 LOG3 POP POP PUSH1 0x1 PUSH1 0xC SSTORE JUMP JUMPDEST PUSH1 0x0 PUSH1 0xC SLOAD PUSH1 0x1 EQ PUSH2 0x1550 JUMPI PUSH1 0x40 MLOAD PUSH4 0x558A1E03 PUSH1 0xE1 SHL DUP2 MSTORE PUSH1 0x4 ADD PUSH1 0x40 MLOAD DUP1 SWAP2 SUB SWAP1 REVERT JUMPDEST PUSH1 0x2 PUSH1 0xC SSTORE DUP6 DUP5 EQ ISZERO DUP1 PUSH2 0x1564 JUMPI POP DUP4 DUP3 EQ ISZERO JUMPDEST ISZERO PUSH2 0x1582 JUMPI PUSH1 0x40 MLOAD PUSH4 0x266C51BB PUSH1 0xE0 SHL DUP2 MSTORE PUSH1 0x4 ADD PUSH1 0x40 MLOAD DUP1 SWAP2 SUB SWAP1 REVERT JUMPDEST PUSH1 0x3 DUP11 PUSH1 0xA DUP2 GT ISZERO PUSH2 0x1596 JUMPI PUSH2 0x1596 PUSH2 0x3E4F JUMP JUMPDEST EQ ISZERO PUSH2 0x15FE JUMPI DUP5 DUP5 PUSH1 0x0 DUP2 DUP2 LT PUSH2 0x15AF JUMPI PUSH2 0x15AF PUSH2 0x484E JUMP JUMPDEST SWAP1 POP PUSH1 0x20 MUL ADD CALLDATALOAD PUSH1 0x0 EQ DUP1 PUSH2 0x15E0 JUMPI POP PUSH4 0x1E13380 DUP6 DUP6 PUSH1 0x0 DUP2 DUP2 LT PUSH2 0x15D7 JUMPI PUSH2 0x15D7 PUSH2 0x484E JUMP JUMPDEST SWAP1 POP PUSH1 0x20 MUL ADD CALLDATALOAD GT JUMPDEST ISZERO PUSH2 0x15FE JUMPI PUSH1 0x40 MLOAD PUSH4 0x581DB235 PUSH1 0xE1 SHL DUP2 MSTORE PUSH1 0x4 ADD PUSH1 0x40 MLOAD DUP1 SWAP2 SUB SWAP1 REVERT JUMPDEST PUSH1 0x4 DUP11 PUSH1 0xA DUP2 GT ISZERO PUSH2 0x1612 JUMPI PUSH2 0x1612 PUSH2 0x3E4F JUMP JUMPDEST EQ ISZERO PUSH2 0x1656 JUMPI PUSH4 0x1E13380 DUP6 DUP6 PUSH1 0x0 DUP2 DUP2 LT PUSH2 0x1630 JUMPI PUSH2 0x1630 PUSH2 0x484E JUMP JUMPDEST SWAP1 POP PUSH1 0x20 MUL ADD CALLDATALOAD GT ISZERO PUSH2 0x1656 JUMPI PUSH1 0x40 MLOAD PUSH4 0x581DB235 PUSH1 0xE1 SHL DUP2 MSTORE PUSH1 0x4 ADD PUSH1 0x40 MLOAD DUP1 SWAP2 SUB SWAP1 REVERT JUMPDEST PUSH1 0x5 DUP11 PUSH1 0xA DUP2 GT ISZERO PUSH2 0x166A JUMPI PUSH2 0x166A PUSH2 0x3E4F JUMP JUMPDEST EQ ISZERO PUSH2 0x16C4 JUMPI PUSH1 0x64 DUP6 DUP6 PUSH1 0x0 DUP2 DUP2 LT PUSH2 0x1685 JUMPI PUSH2 0x1685 PUSH2 0x484E JUMP JUMPDEST SWAP1 POP PUSH1 0x20 MUL ADD CALLDATALOAD GT ISZERO PUSH2 0x16C4 JUMPI PUSH1 0x40 MLOAD PUSH32 0xFFF2D93300000000000000000000000000000000000000000000000000000000 DUP2 MSTORE PUSH1 0x4 ADD PUSH1 0x40 MLOAD DUP1 SWAP2 SUB SWAP1 REVERT JUMPDEST PUSH1 0x6 DUP11 PUSH1 0xA DUP2 GT ISZERO PUSH2 0x16D8 JUMPI PUSH2 0x16D8 PUSH2 0x3E4F JUMP JUMPDEST EQ ISZERO PUSH2 0x173E JUMPI PUSH1 0x33 DUP6 DUP6 PUSH1 0x0 DUP2 DUP2 LT PUSH2 0x16F3 JUMPI PUSH2 0x16F3 PUSH2 0x484E JUMP JUMPDEST SWAP1 POP PUSH1 0x20 MUL ADD CALLDATALOAD GT ISZERO DUP1 PUSH2 0x1720 JUMPI POP PUSH1 0x64 DUP6 DUP6 PUSH1 0x0 DUP2 DUP2 LT PUSH2 0x1717 JUMPI PUSH2 0x1717 PUSH2 0x484E JUMP JUMPDEST SWAP1 POP PUSH1 0x20 MUL ADD CALLDATALOAD GT JUMPDEST ISZERO PUSH2 0x173E JUMPI PUSH1 0x40 MLOAD PUSH4 0x6EF10F9 PUSH1 0xE4 SHL DUP2 MSTORE PUSH1 0x4 ADD PUSH1 0x40 MLOAD DUP1 SWAP2 SUB SWAP1 REVERT JUMPDEST PUSH1 0x7 DUP11 PUSH1 0xA DUP2 GT ISZERO PUSH2 0x1752 JUMPI PUSH2 0x1752 PUSH2 0x3E4F JUMP JUMPDEST EQ ISZERO PUSH2 0x17DC JUMPI PUSH1 0xB DUP6 DUP6 PUSH1 0x0 DUP2 DUP2 LT PUSH2 0x176D JUMPI PUSH2 0x176D PUSH2 0x484E JUMP JUMPDEST SWAP1 POP PUSH1 0x20 MUL ADD CALLDATALOAD GT DUP1 PUSH2 0x1799 JUMPI POP PUSH1 0x3 DUP6 DUP6 PUSH1 0x1 DUP2 DUP2 LT PUSH2 0x1790 JUMPI PUSH2 0x1790 PUSH2 0x484E JUMP JUMPDEST SWAP1 POP PUSH1 0x20 MUL ADD CALLDATALOAD GT JUMPDEST DUP1 PUSH2 0x17A5 JUMPI POP PUSH1 0x2 DUP5 EQ ISZERO JUMPDEST ISZERO PUSH2 0x17DC JUMPI PUSH1 0x40 MLOAD PUSH32 0x93D8C8B000000000000000000000000000000000000000000000000000000000 DUP2 MSTORE PUSH1 0x4 ADD PUSH1 0x40 MLOAD DUP1 SWAP2 SUB SWAP1 REVERT JUMPDEST POP PUSH1 0xF DUP1 SLOAD PUSH1 0x1 ADD SWAP1 DUP2 SWAP1 SSTORE PUSH1 0x40 DUP1 MLOAD PUSH2 0x140 DUP2 ADD SWAP1 SWAP2 MSTORE PUSH1 0x0 SWAP1 DUP1 DUP13 PUSH1 0xA DUP2 GT ISZERO PUSH2 0x180A JUMPI PUSH2 0x180A PUSH2 0x3E4F JUMP JUMPDEST DUP2 MSTORE PUSH1 0x20 ADD DUP12 DUP12 DUP1 DUP1 PUSH1 0x1F ADD PUSH1 0x20 DUP1 SWAP2 DIV MUL PUSH1 0x20 ADD PUSH1 0x40 MLOAD SWAP1 DUP2 ADD PUSH1 0x40 MSTORE DUP1 SWAP4 SWAP3 SWAP2 SWAP1 DUP2 DUP2 MSTORE PUSH1 0x20 ADD DUP4 DUP4 DUP1 DUP3 DUP5 CALLDATACOPY PUSH1 0x0 SWAP3 ADD SWAP2 SWAP1 SWAP2 MSTORE POP POP POP SWAP1 DUP3 MSTORE POP PUSH1 0x40 DUP1 MLOAD PUSH1 0x20 DUP12 DUP2 MUL DUP3 DUP2 ADD DUP3 ADD SWAP1 SWAP4 MSTORE DUP12 DUP3 MSTORE SWAP3 DUP4 ADD SWAP3 SWAP1 SWAP2 DUP13 SWAP2 DUP13 SWAP2 DUP3 SWAP2 DUP6 ADD SWAP1 DUP5 SWAP1 DUP1 DUP3 DUP5 CALLDATACOPY PUSH1 0x0 SWAP3 ADD SWAP2 SWAP1 SWAP2 MSTORE POP POP POP SWAP1 DUP3 MSTORE POP PUSH1 0x40 DUP1 MLOAD PUSH1 0x20 DUP10 DUP2 MUL DUP3 DUP2 ADD DUP3 ADD SWAP1 SWAP4 MSTORE DUP10 DUP3 MSTORE SWAP3 DUP4 ADD SWAP3 SWAP1 SWAP2 DUP11 SWAP2 DUP11 SWAP2 DUP3 SWAP2 DUP6 ADD SWAP1 DUP5 SWAP1 DUP1 DUP3 DUP5 CALLDATACOPY PUSH1 0x0 SWAP3 ADD SWAP2 SWAP1 SWAP2 MSTORE POP POP POP SWAP1 DUP3 MSTORE POP PUSH1 0x20 ADD PUSH2 0x18C5 DUP6 DUP8 PUSH2 0x4864 JUMP JUMPDEST DUP2 MSTORE PUSH1 0x20 ADD DUP3 PUSH2 0x18D6 JUMPI PUSH1 0x0 PUSH2 0x18DA JUMP JUMPDEST PUSH1 0xE SLOAD JUMPDEST DUP2 MSTORE PUSH1 0x0 PUSH1 0x20 DUP3 ADD DUP2 SWAP1 MSTORE PUSH1 0x40 DUP3 ADD MSTORE PUSH1 0x60 ADD DUP3 PUSH2 0x18F9 JUMPI PUSH1 0x0 PUSH2 0x1902 JUMP JUMPDEST PUSH2 0x1902 TIMESTAMP PUSH2 0x36B2 JUMP JUMPDEST PUSH4 0xFFFFFFFF AND DUP2 MSTORE CALLER PUSH1 0x20 SWAP2 DUP3 ADD MSTORE PUSH1 0x0 DUP5 DUP2 MSTORE PUSH1 0x11 SWAP1 SWAP2 MSTORE PUSH1 0x40 SWAP1 KECCAK256 DUP2 MLOAD DUP2 SLOAD DUP3 SWAP1 PUSH1 0xFF NOT AND PUSH1 0x1 DUP4 PUSH1 0xA DUP2 GT ISZERO PUSH2 0x193D JUMPI PUSH2 0x193D PUSH2 0x3E4F JUMP JUMPDEST MUL OR SWAP1 SSTORE POP PUSH1 0x20 DUP3 DUP2 ADD MLOAD DUP1 MLOAD PUSH2 0x195A SWAP3 PUSH1 0x1 DUP6 ADD SWAP3 ADD SWAP1 PUSH2 0x3BAB JUMP JUMPDEST POP PUSH1 0x40 DUP3 ADD MLOAD DUP1 MLOAD PUSH2 0x1976 SWAP2 PUSH1 0x2 DUP5 ADD SWAP2 PUSH1 0x20 SWAP1 SWAP2 ADD SWAP1 PUSH2 0x3C2B JUMP JUMPDEST POP PUSH1 0x60 DUP3 ADD MLOAD DUP1 MLOAD PUSH2 0x1992 SWAP2 PUSH1 0x3 DUP5 ADD SWAP2 PUSH1 0x20 SWAP1 SWAP2 ADD SWAP1 PUSH2 0x3C80 JUMP JUMPDEST POP PUSH1 0x80 DUP3 ADD MLOAD DUP1 MLOAD PUSH2 0x19AE SWAP2 PUSH1 0x4 DUP5 ADD SWAP2 PUSH1 0x20 SWAP1 SWAP2 ADD SWAP1 PUSH2 0x3CBA JUMP JUMPDEST POP PUSH1 0xA0 DUP3 ADD MLOAD PUSH1 0x5 DUP3 ADD SSTORE PUSH1 0xC0 DUP3 ADD MLOAD PUSH1 0x6 DUP3 ADD DUP1 SLOAD PUSH1 0xE0 DUP6 ADD MLOAD PUSH2 0x100 DUP7 ADD MLOAD PUSH4 0xFFFFFFFF AND PUSH1 0x1 PUSH1 0xC0 SHL MUL PUSH4 0xFFFFFFFF PUSH1 0xC0 SHL NOT PUSH1 0x1 PUSH1 0x1 PUSH1 0x60 SHL SUB SWAP3 DUP4 AND PUSH1 0x1 PUSH1 0x60 SHL MUL PUSH32 0xFFFFFFFFFFFFFFFF000000000000000000000000000000000000000000000000 SWAP1 SWAP5 AND SWAP3 SWAP1 SWAP6 AND SWAP2 SWAP1 SWAP2 OR SWAP2 SWAP1 SWAP2 OR SWAP3 SWAP1 SWAP3 AND SWAP2 SWAP1 SWAP2 OR SWAP1 SSTORE PUSH2 0x120 SWAP1 SWAP2 ADD MLOAD PUSH1 0x7 SWAP1 SWAP2 ADD DUP1 SLOAD PUSH1 0x1 PUSH1 0x1 PUSH1 0xA0 SHL SUB SWAP1 SWAP3 AND PUSH1 0x1 PUSH1 0x1 PUSH1 0xA0 SHL SUB NOT SWAP1 SWAP3 AND SWAP2 SWAP1 SWAP2 OR SWAP1 SSTORE DUP1 ISZERO PUSH2 0x1A66 JUMPI PUSH1 0xE DUP3 SWAP1 SSTORE JUMPDEST DUP11 PUSH1 0xA DUP2 GT ISZERO PUSH2 0x1A78 JUMPI PUSH2 0x1A78 PUSH2 0x3E4F JUMP JUMPDEST DUP3 CALLER PUSH1 0x1 PUSH1 0x1 PUSH1 0xA0 SHL SUB AND PUSH32 0xEAEBEB60FA3C5B4AAAC8452FE75B188BEB61A499D379464587545EDE83FBEA3E DUP14 DUP14 DUP14 DUP14 DUP14 DUP14 DUP14 DUP14 PUSH1 0x40 MLOAD PUSH2 0x1AC0 SWAP9 SWAP8 SWAP7 SWAP6 SWAP5 SWAP4 SWAP3 SWAP2 SWAP1 PUSH2 0x49A9 JUMP JUMPDEST PUSH1 0x40 MLOAD DUP1 SWAP2 SUB SWAP1 LOG4 POP PUSH1 0x1 PUSH1 0xC SSTORE SWAP10 SWAP9 POP POP POP POP POP POP POP POP POP JUMP JUMPDEST PUSH1 0x8 SLOAD PUSH1 0x0 SWAP1 PUSH1 0xFF AND ISZERO PUSH2 0x1B02 JUMPI PUSH1 0x40 MLOAD PUSH4 0x13D0FF59 PUSH1 0xE3 SHL DUP2 MSTORE PUSH1 0x4 ADD PUSH1 0x40 MLOAD DUP1 SWAP2 SUB SWAP1 REVERT JUMPDEST CALLER PUSH1 0x0 SWAP1 DUP2 MSTORE PUSH1 0x3 PUSH1 0x20 MSTORE PUSH1 0x40 DUP2 KECCAK256 DUP1 SLOAD DUP5 SWAP3 SWAP1 PUSH2 0x1B21 SWAP1 DUP5 SWAP1 PUSH2 0x4837 JUMP JUMPDEST SWAP1 SWAP2 SSTORE POP POP PUSH1 0x1 PUSH1 0x1 PUSH1 0xA0 SHL SUB DUP4 AND PUSH1 0x0 SWAP1 DUP2 MSTORE PUSH1 0x3 PUSH1 0x20 MSTORE PUSH1 0x40 SWAP1 KECCAK256 DUP1 SLOAD DUP4 ADD SWAP1 SSTORE PUSH2 0x1B50 PUSH2 0xEDA CALLER PUSH2 0xF6D JUMP JUMPDEST PUSH1 0x40 MLOAD DUP3 DUP2 MSTORE PUSH1 0x1 PUSH1 0x1 PUSH1 0xA0 SHL SUB DUP5 AND SWAP1 CALLER SWAP1 PUSH32 0xDDF252AD1BE2C89B69C2B068FC378DAA952BA7F163C4A11628F55A4DF523B3EF SWAP1 PUSH1 0x20 ADD PUSH2 0xC51 JUMP JUMPDEST PUSH1 0x1 PUSH1 0x1 PUSH1 0xA0 SHL SUB DUP2 AND PUSH1 0x0 SWAP1 DUP2 MSTORE PUSH1 0xB PUSH1 0x20 MSTORE PUSH1 0x40 DUP2 KECCAK256 SLOAD DUP1 PUSH2 0x1BB2 JUMPI PUSH1 0x0 PUSH2 0x1BEC JUMP JUMPDEST PUSH1 0x1 PUSH1 0x1 PUSH1 0xA0 SHL SUB DUP4 AND PUSH1 0x0 SWAP1 DUP2 MSTORE PUSH1 0xA PUSH1 0x20 SWAP1 DUP2 MSTORE PUSH1 0x40 DUP1 DUP4 KECCAK256 PUSH1 0x0 NOT DUP6 ADD DUP5 MSTORE SWAP1 SWAP2 MSTORE SWAP1 KECCAK256 SLOAD PUSH5 0x100000000 SWAP1 DIV PUSH1 0x1 PUSH1 0x1 PUSH1 0x60 SHL SUB AND JUMPDEST PUSH1 0x1 PUSH1 0x1 PUSH1 0x60 SHL SUB AND SWAP4 SWAP3 POP POP POP JUMP JUMPDEST DUP4 TIMESTAMP GT ISZERO PUSH2 0x1C1D JUMPI PUSH1 0x40 MLOAD PUSH4 0x819BDCD PUSH1 0xE0 SHL DUP2 MSTORE PUSH1 0x4 ADD PUSH1 0x40 MLOAD DUP1 SWAP2 SUB SWAP1 REVERT JUMPDEST PUSH1 0x40 DUP1 MLOAD PUSH32 0x76995FE87BE88484696CFD6792AEB71E0B61F81DFA3B641E5ADFFA38A0D3B8E2 PUSH1 0x20 DUP3 ADD MSTORE PUSH1 0x1 PUSH1 0x1 PUSH1 0xA0 SHL SUB DUP9 AND SWAP2 DUP2 ADD SWAP2 SWAP1 SWAP2 MSTORE PUSH1 0x60 DUP2 ADD DUP7 SWAP1 MSTORE PUSH1 0x80 DUP2 ADD DUP6 SWAP1 MSTORE PUSH1 0x0 SWAP1 PUSH1 0xA0 ADD PUSH1 0x40 MLOAD PUSH1 0x20 DUP2 DUP4 SUB SUB DUP2 MSTORE SWAP1 PUSH1 0x40 MSTORE DUP1 MLOAD SWAP1 PUSH1 0x20 ADD KECCAK256 SWAP1 POP PUSH1 0x0 PUSH2 0x1C8E PUSH2 0xF41 JUMP JUMPDEST PUSH1 0x40 MLOAD PUSH2 0x1901 PUSH1 0xF0 SHL PUSH1 0x20 DUP3 ADD MSTORE PUSH1 0x22 DUP2 ADD SWAP2 SWAP1 SWAP2 MSTORE PUSH1 0x42 DUP2 ADD DUP4 SWAP1 MSTORE PUSH1 0x62 ADD PUSH1 0x40 DUP1 MLOAD PUSH1 0x1F NOT DUP2 DUP5 SUB ADD DUP2 MSTORE DUP3 DUP3 MSTORE DUP1 MLOAD PUSH1 0x20 SWAP2 DUP3 ADD KECCAK256 PUSH1 0x0 DUP1 DUP6 MSTORE SWAP2 DUP5 ADD DUP1 DUP5 MSTORE DUP2 SWAP1 MSTORE PUSH1 0xFF DUP10 AND SWAP3 DUP5 ADD SWAP3 SWAP1 SWAP3 MSTORE PUSH1 0x60 DUP4 ADD DUP8 SWAP1 MSTORE PUSH1 0x80 DUP4 ADD DUP7 SWAP1 MSTORE SWAP1 SWAP3 POP SWAP1 PUSH1 0x1 SWAP1 PUSH1 0xA0 ADD PUSH1 0x20 PUSH1 0x40 MLOAD PUSH1 0x20 DUP2 SUB SWAP1 DUP1 DUP5 SUB SWAP1 DUP6 GAS STATICCALL ISZERO DUP1 ISZERO PUSH2 0x1D19 JUMPI RETURNDATASIZE PUSH1 0x0 DUP1 RETURNDATACOPY RETURNDATASIZE PUSH1 0x0 REVERT JUMPDEST POP POP PUSH1 0x40 MLOAD PUSH1 0x1F NOT ADD MLOAD SWAP2 POP POP PUSH1 0x1 PUSH1 0x1 PUSH1 0xA0 SHL SUB DUP2 AND PUSH2 0x1D66 JUMPI PUSH1 0x40 MLOAD PUSH32 0xE99D5AC500000000000000000000000000000000000000000000000000000000 DUP2 MSTORE PUSH1 0x4 ADD PUSH1 0x40 MLOAD DUP1 SWAP2 SUB SWAP1 REVERT JUMPDEST PUSH1 0x1 PUSH1 0x1 PUSH1 0xA0 SHL SUB DUP2 AND PUSH1 0x0 SWAP1 DUP2 MSTORE PUSH1 0x7 PUSH1 0x20 MSTORE PUSH1 0x40 SWAP1 KECCAK256 DUP1 SLOAD PUSH1 0x1 DUP2 ADD SWAP1 SWAP2 SSTORE DUP9 EQ PUSH2 0x1DBF JUMPI PUSH1 0x40 MLOAD PUSH32 0x756688FE00000000000000000000000000000000000000000000000000000000 DUP2 MSTORE PUSH1 0x4 ADD PUSH1 0x40 MLOAD DUP1 SWAP2 SUB SWAP1 REVERT JUMPDEST PUSH2 0x1DC9 DUP2 DUP11 PUSH2 0x3610 JUMP JUMPDEST POP POP POP POP POP POP POP POP POP JUMP JUMPDEST PUSH1 0xC SLOAD PUSH1 0x1 EQ PUSH2 0x1DF7 JUMPI PUSH1 0x40 MLOAD PUSH4 0x558A1E03 PUSH1 0xE1 SHL DUP2 MSTORE PUSH1 0x4 ADD PUSH1 0x40 MLOAD DUP1 SWAP2 SUB SWAP1 REVERT JUMPDEST PUSH1 0x2 PUSH1 0xC SSTORE PUSH2 0x1E07 CALLER DUP4 DUP4 PUSH2 0x31A0 JUMP JUMPDEST POP POP PUSH1 0x1 PUSH1 0xC SSTORE JUMP JUMPDEST DUP4 TIMESTAMP GT ISZERO PUSH2 0x1E31 JUMPI PUSH1 0x40 MLOAD PUSH4 0x819BDCD PUSH1 0xE0 SHL DUP2 MSTORE PUSH1 0x4 ADD PUSH1 0x40 MLOAD DUP1 SWAP2 SUB SWAP1 REVERT JUMPDEST PUSH1 0x0 PUSH2 0x1E3B PUSH2 0xF41 JUMP JUMPDEST PUSH1 0x1 PUSH1 0x1 PUSH1 0xA0 SHL SUB DUP10 DUP2 AND PUSH1 0x0 DUP2 DUP2 MSTORE PUSH1 0x7 PUSH1 0x20 SWAP1 DUP2 MSTORE PUSH1 0x40 SWAP2 DUP3 SWAP1 KECCAK256 DUP1 SLOAD PUSH1 0x1 DUP2 ADD SWAP1 SWAP2 SSTORE DUP3 MLOAD PUSH32 0x6E71EDAE12B1B97F4D1F60370FEF10105FA2FAAE0126114A169C64845D6126C9 DUP2 DUP5 ADD MSTORE DUP1 DUP5 ADD SWAP5 SWAP1 SWAP5 MSTORE SWAP4 DUP13 AND PUSH1 0x60 DUP5 ADD MSTORE PUSH1 0x80 DUP4 ADD DUP12 SWAP1 MSTORE PUSH1 0xA0 DUP4 ADD SWAP4 SWAP1 SWAP4 MSTORE PUSH1 0xC0 DUP1 DUP4 ADD DUP11 SWAP1 MSTORE DUP2 MLOAD DUP1 DUP5 SUB SWAP1 SWAP2 ADD DUP2 MSTORE PUSH1 0xE0 DUP4 ADD SWAP1 SWAP2 MSTORE DUP1 MLOAD SWAP3 ADD SWAP2 SWAP1 SWAP2 KECCAK256 PUSH2 0x1901 PUSH1 0xF0 SHL PUSH2 0x100 DUP4 ADD MSTORE PUSH2 0x102 DUP3 ADD SWAP3 SWAP1 SWAP3 MSTORE PUSH2 0x122 DUP2 ADD SWAP2 SWAP1 SWAP2 MSTORE PUSH2 0x142 ADD PUSH1 0x40 DUP1 MLOAD PUSH1 0x1F NOT DUP2 DUP5 SUB ADD DUP2 MSTORE DUP3 DUP3 MSTORE DUP1 MLOAD PUSH1 0x20 SWAP2 DUP3 ADD KECCAK256 PUSH1 0x0 DUP1 DUP6 MSTORE SWAP2 DUP5 ADD DUP1 DUP5 MSTORE DUP2 SWAP1 MSTORE PUSH1 0xFF DUP9 AND SWAP3 DUP5 ADD SWAP3 SWAP1 SWAP3 MSTORE PUSH1 0x60 DUP4 ADD DUP7 SWAP1 MSTORE PUSH1 0x80 DUP4 ADD DUP6 SWAP1 MSTORE SWAP1 SWAP3 POP SWAP1 PUSH1 0x1 SWAP1 PUSH1 0xA0 ADD PUSH1 0x20 PUSH1 0x40 MLOAD PUSH1 0x20 DUP2 SUB SWAP1 DUP1 DUP5 SUB SWAP1 DUP6 GAS STATICCALL ISZERO DUP1 ISZERO PUSH2 0x1F54 JUMPI RETURNDATASIZE PUSH1 0x0 DUP1 RETURNDATACOPY RETURNDATASIZE PUSH1 0x0 REVERT JUMPDEST POP POP PUSH1 0x40 MLOAD PUSH1 0x1F NOT ADD MLOAD SWAP2 POP POP PUSH1 0x1 PUSH1 0x1 PUSH1 0xA0 SHL SUB DUP2 AND ISZERO DUP1 PUSH2 0x1F89 JUMPI POP DUP9 PUSH1 0x1 PUSH1 0x1 PUSH1 0xA0 SHL SUB AND DUP2 PUSH1 0x1 PUSH1 0x1 PUSH1 0xA0 SHL SUB AND EQ ISZERO JUMPDEST ISZERO PUSH2 0x1FA7 JUMPI PUSH1 0x40 MLOAD PUSH4 0x8BAA579F PUSH1 0xE0 SHL DUP2 MSTORE PUSH1 0x4 ADD PUSH1 0x40 MLOAD DUP1 SWAP2 SUB SWAP1 REVERT JUMPDEST PUSH1 0x1 PUSH1 0x1 PUSH1 0xA0 SHL SUB SWAP1 DUP2 AND PUSH1 0x0 SWAP1 DUP2 MSTORE PUSH1 0x4 PUSH1 0x20 SWAP1 DUP2 MSTORE PUSH1 0x40 DUP1 DUP4 KECCAK256 DUP12 DUP6 AND DUP1 DUP6 MSTORE SWAP1 DUP4 MSTORE SWAP3 DUP2 SWAP1 KECCAK256 DUP11 SWAP1 SSTORE MLOAD DUP10 DUP2 MSTORE SWAP2 SWAP4 POP SWAP2 DUP11 AND SWAP2 PUSH32 0x8C5BE1E5EBEC7D5BD14F71427D1E84F3DD0314C0F7B2291E5B200AC8C7C3B925 SWAP2 ADD PUSH1 0x40 MLOAD DUP1 SWAP2 SUB SWAP1 LOG3 POP POP POP POP POP POP POP JUMP JUMPDEST PUSH1 0xC SLOAD PUSH1 0x1 EQ PUSH2 0x2035 JUMPI PUSH1 0x40 MLOAD PUSH4 0x558A1E03 PUSH1 0xE1 SHL DUP2 MSTORE PUSH1 0x4 ADD PUSH1 0x40 MLOAD DUP1 SWAP2 SUB SWAP1 REVERT JUMPDEST PUSH1 0x2 PUSH1 0xC SSTORE PUSH1 0x0 DUP2 DUP2 MSTORE PUSH1 0x11 PUSH1 0x20 MSTORE PUSH1 0x40 SWAP1 KECCAK256 PUSH1 0x7 DUP2 ADD SLOAD PUSH1 0x1 PUSH1 0x1 PUSH1 0xA0 SHL SUB AND CALLER EQ PUSH2 0x208E JUMPI PUSH1 0x40 MLOAD PUSH32 0x7D1B73B900000000000000000000000000000000000000000000000000000000 DUP2 MSTORE PUSH1 0x4 ADD PUSH1 0x40 MLOAD DUP1 SWAP2 SUB SWAP1 REVERT JUMPDEST PUSH1 0x6 DUP2 ADD SLOAD PUSH1 0x1 PUSH1 0xC0 SHL SWAP1 DIV PUSH4 0xFFFFFFFF AND ISZERO PUSH2 0x20BE JUMPI PUSH1 0x40 MLOAD PUSH4 0x68E83FD9 PUSH1 0xE0 SHL DUP2 MSTORE PUSH1 0x4 ADD PUSH1 0x40 MLOAD DUP1 SWAP2 SUB SWAP1 REVERT JUMPDEST PUSH1 0x0 DUP3 DUP2 MSTORE PUSH1 0x11 PUSH1 0x20 MSTORE PUSH1 0x40 DUP2 KECCAK256 DUP1 SLOAD PUSH1 0xFF NOT AND DUP2 SSTORE SWAP1 PUSH2 0x20E2 PUSH1 0x1 DUP4 ADD DUP3 PUSH2 0x3D13 JUMP JUMPDEST PUSH2 0x20F0 PUSH1 0x2 DUP4 ADD PUSH1 0x0 PUSH2 0x3D4D JUMP JUMPDEST PUSH2 0x20FE PUSH1 0x3 DUP4 ADD PUSH1 0x0 PUSH2 0x3D4D JUMP JUMPDEST PUSH2 0x210C PUSH1 0x4 DUP4 ADD PUSH1 0x0 PUSH2 0x3D6B JUMP JUMPDEST POP PUSH1 0x0 PUSH1 0x5 DUP3 ADD DUP2 SWAP1 SSTORE PUSH1 0x6 DUP3 ADD DUP1 SLOAD PUSH1 0x1 PUSH1 0x1 PUSH1 0xE0 SHL SUB NOT AND SWAP1 SSTORE PUSH1 0x7 SWAP1 SWAP2 ADD DUP1 SLOAD PUSH1 0x1 PUSH1 0x1 PUSH1 0xA0 SHL SUB NOT AND SWAP1 SSTORE PUSH1 0x40 MLOAD DUP4 SWAP2 CALLER SWAP2 PUSH32 0x5D423F6A55211A90B8438786AA7EDFA40D3EEF381B6AAE048B52DAF814C16462 SWAP2 SWAP1 LOG3 POP POP PUSH1 0x1 PUSH1 0xC SSTORE JUMP JUMPDEST PUSH1 0xC SLOAD PUSH1 0x1 EQ PUSH2 0x2192 JUMPI PUSH1 0x40 MLOAD PUSH4 0x558A1E03 PUSH1 0xE1 SHL DUP2 MSTORE PUSH1 0x4 ADD PUSH1 0x40 MLOAD DUP1 SWAP2 SUB SWAP1 REVERT JUMPDEST PUSH1 0x2 PUSH1 0xC SSTORE PUSH1 0x10 SLOAD PUSH4 0xFFFFFFFF AND ISZERO PUSH2 0x21D7 JUMPI PUSH1 0x40 MLOAD PUSH32 0x5DAA87A000000000000000000000000000000000000000000000000000000000 DUP2 MSTORE PUSH1 0x4 ADD PUSH1 0x40 MLOAD DUP1 SWAP2 SUB SWAP1 REVERT JUMPDEST DUP1 MLOAD PUSH4 0xFFFFFFFF AND ISZERO DUP1 PUSH2 0x21F7 JUMPI POP DUP1 MLOAD PUSH4 0x1E13380 PUSH4 0xFFFFFFFF SWAP1 SWAP2 AND GT JUMPDEST ISZERO PUSH2 0x2215 JUMPI PUSH1 0x40 MLOAD PUSH4 0x581DB235 PUSH1 0xE1 SHL DUP2 MSTORE PUSH1 0x4 ADD PUSH1 0x40 MLOAD DUP1 SWAP2 SUB SWAP1 REVERT JUMPDEST PUSH4 0x1E13380 DUP2 PUSH1 0x1 PUSH1 0x20 MUL ADD MLOAD PUSH4 0xFFFFFFFF AND GT ISZERO PUSH2 0x2247 JUMPI PUSH1 0x40 MLOAD PUSH4 0x581DB235 PUSH1 0xE1 SHL DUP2 MSTORE PUSH1 0x4 ADD PUSH1 0x40 MLOAD DUP1 SWAP2 SUB SWAP1 REVERT JUMPDEST PUSH1 0x64 DUP2 PUSH1 0x2 PUSH1 0x20 MUL ADD MLOAD PUSH4 0xFFFFFFFF AND GT ISZERO PUSH2 0x228F JUMPI PUSH1 0x40 MLOAD PUSH32 0xFFF2D93300000000000000000000000000000000000000000000000000000000 DUP2 MSTORE PUSH1 0x4 ADD PUSH1 0x40 MLOAD DUP1 SWAP2 SUB SWAP1 REVERT JUMPDEST PUSH1 0x33 DUP2 PUSH1 0x3 PUSH1 0x20 MUL ADD MLOAD PUSH4 0xFFFFFFFF AND GT ISZERO DUP1 PUSH2 0x22B9 JUMPI POP PUSH1 0x64 DUP2 PUSH1 0x3 PUSH1 0x20 MUL ADD MLOAD PUSH4 0xFFFFFFFF AND GT JUMPDEST ISZERO PUSH2 0x22D7 JUMPI PUSH1 0x40 MLOAD PUSH4 0x6EF10F9 PUSH1 0xE4 SHL DUP2 MSTORE PUSH1 0x4 ADD PUSH1 0x40 MLOAD DUP1 SWAP2 SUB SWAP1 REVERT JUMPDEST PUSH2 0x2347 DUP9 DUP9 DUP9 DUP9 DUP9 DUP1 DUP1 PUSH1 0x20 MUL PUSH1 0x20 ADD PUSH1 0x40 MLOAD SWAP1 DUP2 ADD PUSH1 0x40 MSTORE DUP1 SWAP4 SWAP3 SWAP2 SWAP1 DUP2 DUP2 MSTORE PUSH1 0x20 ADD DUP4 DUP4 PUSH1 0x20 MUL DUP1 DUP3 DUP5 CALLDATACOPY PUSH1 0x0 SWAP3 ADD SWAP2 SWAP1 SWAP2 MSTORE POP POP PUSH1 0x40 DUP1 MLOAD PUSH1 0x20 DUP1 DUP13 MUL DUP3 DUP2 ADD DUP3 ADD SWAP1 SWAP4 MSTORE DUP12 DUP3 MSTORE SWAP1 SWAP4 POP DUP12 SWAP3 POP DUP11 SWAP2 DUP3 SWAP2 DUP6 ADD SWAP1 DUP5 SWAP1 DUP1 DUP3 DUP5 CALLDATACOPY PUSH1 0x0 SWAP3 ADD SWAP2 SWAP1 SWAP2 MSTORE POP PUSH2 0x36F6 SWAP3 POP POP POP JUMP JUMPDEST DUP1 MLOAD PUSH1 0x10 DUP1 SLOAD PUSH1 0x20 DUP5 ADD MLOAD PUSH1 0x40 DUP6 ADD MLOAD PUSH1 0x60 DUP7 ADD MLOAD PUSH4 0xFFFFFFFF SWAP1 DUP2 AND PUSH1 0x1 PUSH1 0x60 SHL MUL SWAP3 DUP2 AND PUSH5 0x100000000 MUL SWAP6 DUP2 AND PUSH8 0xFFFFFFFFFFFFFFFF NOT SWAP1 SWAP5 AND SWAP4 SWAP1 SWAP4 OR SWAP5 SWAP1 SWAP5 OR PUSH32 0xFFFFFFFFFFFFFFFFFFFFFFFFFFFFFFFF0000000000000000FFFFFFFFFFFFFFFF AND SWAP4 DUP3 AND PUSH9 0x10000000000000000 MUL PUSH32 0xFFFFFFFFFFFFFFFFFFFFFFFFFFFFFFFF00000000FFFFFFFFFFFFFFFFFFFFFFFF AND SWAP4 SWAP1 SWAP4 OR SWAP3 SWAP1 SWAP3 OR SWAP1 SSTORE PUSH1 0x80 DUP3 ADD MLOAD AND PUSH1 0x3 DUP2 GT ISZERO PUSH2 0x23FF JUMPI PUSH2 0x23FF PUSH2 0x3E4F JUMP JUMPDEST PUSH1 0x0 DUP1 MSTORE PUSH1 0x13 PUSH1 0x20 MSTORE PUSH32 0x8FA6EFC3BE94B5B348B21FEA823FE8D100408CEE9B7F90524494500445D8FF6C DUP1 SLOAD PUSH1 0xFF NOT AND PUSH1 0x1 DUP4 PUSH1 0x3 DUP2 GT ISZERO PUSH2 0x2443 JUMPI PUSH2 0x2443 PUSH2 0x3E4F JUMP JUMPDEST MUL OR SWAP1 SSTORE POP PUSH1 0xA0 DUP2 ADD MLOAD PUSH4 0xFFFFFFFF AND PUSH1 0x3 DUP2 GT ISZERO PUSH2 0x2464 JUMPI PUSH2 0x2464 PUSH2 0x3E4F JUMP JUMPDEST PUSH1 0x1 PUSH1 0x0 DUP2 SWAP1 MSTORE PUSH1 0x13 PUSH1 0x20 MSTORE PUSH32 0x4155C2F711F2CDD34F8262AB8FB9B7020A700FE7B6948222152F7670D1FDF34D DUP1 SLOAD SWAP1 SWAP2 PUSH1 0xFF NOT SWAP1 SWAP2 AND SWAP1 DUP4 PUSH1 0x3 DUP2 GT ISZERO PUSH2 0x24AE JUMPI PUSH2 0x24AE PUSH2 0x3E4F JUMP JUMPDEST MUL OR SWAP1 SSTORE POP PUSH1 0xC0 DUP2 ADD MLOAD PUSH4 0xFFFFFFFF AND PUSH1 0x3 DUP2 GT ISZERO PUSH2 0x24CF JUMPI PUSH2 0x24CF PUSH2 0x3E4F JUMP JUMPDEST PUSH1 0x2 PUSH1 0x0 MSTORE PUSH1 0x13 PUSH1 0x20 MSTORE PUSH32 0xB9D2C0C271BB30544EB78C59BDAEBDAE2728E5F65814C07768A0ABE90ED1923 DUP1 SLOAD PUSH1 0xFF NOT AND PUSH1 0x1 DUP4 PUSH1 0x3 DUP2 GT ISZERO PUSH2 0x2514 JUMPI PUSH2 0x2514 PUSH2 0x3E4F JUMP JUMPDEST MUL OR SWAP1 SSTORE POP PUSH1 0xE0 DUP2 ADD MLOAD PUSH4 0xFFFFFFFF AND PUSH1 0x3 DUP2 GT ISZERO PUSH2 0x2535 JUMPI PUSH2 0x2535 PUSH2 0x3E4F JUMP JUMPDEST PUSH1 0x3 PUSH1 0x0 DUP2 SWAP1 MSTORE PUSH1 0x13 PUSH1 0x20 MSTORE PUSH32 0xD2A6872EF858A7F8EAD18DC4F3F2E8D35C853D47E2816CBB9CDD49202554E0C DUP1 SLOAD SWAP1 SWAP2 PUSH1 0xFF NOT SWAP1 SWAP2 AND SWAP1 PUSH1 0x1 SWAP1 DUP5 SWAP1 DUP2 GT ISZERO PUSH2 0x2581 JUMPI PUSH2 0x2581 PUSH2 0x3E4F JUMP JUMPDEST MUL OR SWAP1 SSTORE POP PUSH2 0x100 DUP2 ADD MLOAD PUSH4 0xFFFFFFFF AND PUSH1 0x3 DUP2 GT ISZERO PUSH2 0x25A3 JUMPI PUSH2 0x25A3 PUSH2 0x3E4F JUMP JUMPDEST PUSH1 0x4 PUSH1 0x0 MSTORE PUSH1 0x13 PUSH1 0x20 MSTORE PUSH32 0x1413FF7A3B1D5B6C016C061D48E2C7014700C777A29FCD068FFF04265813D5D DUP1 SLOAD PUSH1 0xFF NOT AND PUSH1 0x1 DUP4 PUSH1 0x3 DUP2 GT ISZERO PUSH2 0x25E8 JUMPI PUSH2 0x25E8 PUSH2 0x3E4F JUMP JUMPDEST MUL OR SWAP1 SSTORE POP PUSH2 0x120 DUP2 ADD MLOAD PUSH4 0xFFFFFFFF AND PUSH1 0x3 DUP2 GT ISZERO PUSH2 0x260A JUMPI PUSH2 0x260A PUSH2 0x3E4F JUMP JUMPDEST PUSH1 0x5 PUSH1 0x0 MSTORE PUSH1 0x13 PUSH1 0x20 MSTORE PUSH32 0xF4B2859895858D6AA26D656E4999D552F6A869B74C43BBA7D2A941C4D22C3559 DUP1 SLOAD PUSH1 0xFF NOT AND PUSH1 0x1 DUP4 PUSH1 0x3 DUP2 GT ISZERO PUSH2 0x264F JUMPI PUSH2 0x264F PUSH2 0x3E4F JUMP JUMPDEST MUL OR SWAP1 SSTORE POP PUSH2 0x140 DUP2 ADD MLOAD PUSH4 0xFFFFFFFF AND PUSH1 0x3 DUP2 GT ISZERO PUSH2 0x2671 JUMPI PUSH2 0x2671 PUSH2 0x3E4F JUMP JUMPDEST PUSH1 0x6 PUSH1 0x0 MSTORE PUSH1 0x13 PUSH1 0x20 MSTORE PUSH32 0x709D0E3CF89777A1E1F9C99632E4494F29B0327BEFD0DF15E277A12D94825795 DUP1 SLOAD PUSH1 0xFF NOT AND PUSH1 0x1 DUP4 PUSH1 0x3 DUP2 GT ISZERO PUSH2 0x26B6 JUMPI PUSH2 0x26B6 PUSH2 0x3E4F JUMP JUMPDEST MUL OR SWAP1 SSTORE POP PUSH2 0x160 DUP2 ADD MLOAD PUSH4 0xFFFFFFFF AND PUSH1 0x3 DUP2 GT ISZERO PUSH2 0x26D8 JUMPI PUSH2 0x26D8 PUSH2 0x3E4F JUMP JUMPDEST PUSH1 0x7 PUSH1 0x0 MSTORE PUSH1 0x13 PUSH1 0x20 MSTORE PUSH32 0x8BA6FB577925B0796671C737DF59B8AAAE861B630513FB12823699E3E0E3EE60 DUP1 SLOAD PUSH1 0xFF NOT AND PUSH1 0x1 DUP4 PUSH1 0x3 DUP2 GT ISZERO PUSH2 0x271D JUMPI PUSH2 0x271D PUSH2 0x3E4F JUMP JUMPDEST MUL OR SWAP1 SSTORE POP PUSH2 0x180 DUP2 ADD MLOAD PUSH4 0xFFFFFFFF AND PUSH1 0x3 DUP2 GT ISZERO PUSH2 0x273F JUMPI PUSH2 0x273F PUSH2 0x3E4F JUMP JUMPDEST PUSH1 0x8 PUSH1 0x0 MSTORE PUSH1 0x13 PUSH1 0x20 MSTORE PUSH32 0x7B49122965436243734B7A552847E7503DB682B4CBD4D2FD428FEB216E8BCDF8 DUP1 SLOAD PUSH1 0xFF NOT AND PUSH1 0x1 DUP4 PUSH1 0x3 DUP2 GT ISZERO PUSH2 0x2784 JUMPI PUSH2 0x2784 PUSH2 0x3E4F JUMP JUMPDEST MUL OR SWAP1 SSTORE POP PUSH2 0x1C0 DUP2 ADD MLOAD PUSH4 0xFFFFFFFF AND PUSH1 0x3 DUP2 GT ISZERO PUSH2 0x27A6 JUMPI PUSH2 0x27A6 PUSH2 0x3E4F JUMP JUMPDEST PUSH1 0x9 PUSH1 0x0 MSTORE PUSH1 0x13 PUSH1 0x20 MSTORE PUSH32 0x76AA7D3CD4F559A3C98822AA7E1C37143EB9F80CEFF73A5023A8FC3D6D44AF61 DUP1 SLOAD PUSH1 0xFF NOT AND PUSH1 0x1 DUP4 PUSH1 0x3 DUP2 GT ISZERO PUSH2 0x27EB JUMPI PUSH2 0x27EB PUSH2 0x3E4F JUMP JUMPDEST MUL OR SWAP1 SSTORE POP PUSH2 0x1E0 DUP2 ADD MLOAD PUSH4 0xFFFFFFFF AND PUSH1 0x3 DUP2 GT ISZERO PUSH2 0x280D JUMPI PUSH2 0x280D PUSH2 0x3E4F JUMP JUMPDEST PUSH1 0xA PUSH1 0x0 MSTORE PUSH1 0x13 PUSH1 0x20 MSTORE PUSH32 0x522E87D3D671F2915034F38E0229384BEFCD14FCB6842A4A7158CB5222BACE8F DUP1 SLOAD PUSH1 0xFF NOT AND PUSH1 0x1 DUP4 PUSH1 0x3 DUP2 GT ISZERO PUSH2 0x2852 JUMPI PUSH2 0x2852 PUSH2 0x3E4F JUMP JUMPDEST MUL OR SWAP1 SSTORE POP POP PUSH1 0x1 PUSH1 0xC SSTORE POP POP POP POP POP POP POP JUMP JUMPDEST PUSH1 0x0 PUSH1 0x60 PUSH1 0xC SLOAD PUSH1 0x1 EQ PUSH2 0x288D JUMPI PUSH1 0x40 MLOAD PUSH4 0x558A1E03 PUSH1 0xE1 SHL DUP2 MSTORE PUSH1 0x4 ADD PUSH1 0x40 MLOAD DUP1 SWAP2 SUB SWAP1 REVERT JUMPDEST PUSH1 0x2 PUSH1 0xC SSTORE PUSH1 0x0 DUP4 DUP2 MSTORE PUSH1 0x11 PUSH1 0x20 MSTORE PUSH1 0x40 DUP2 KECCAK256 DUP1 SLOAD SWAP1 SWAP2 SWAP1 PUSH1 0x13 SWAP1 DUP3 SWAP1 PUSH1 0xFF AND PUSH1 0xA DUP2 GT ISZERO PUSH2 0x28BE JUMPI PUSH2 0x28BE PUSH2 0x3E4F JUMP JUMPDEST PUSH1 0xA DUP2 GT ISZERO PUSH2 0x28CF JUMPI PUSH2 0x28CF PUSH2 0x3E4F JUMP JUMPDEST DUP2 MSTORE PUSH1 0x20 DUP2 ADD SWAP2 SWAP1 SWAP2 MSTORE PUSH1 0x40 ADD PUSH1 0x0 KECCAK256 SLOAD PUSH1 0x6 DUP4 ADD SLOAD PUSH1 0xFF SWAP1 SWAP2 AND SWAP2 POP PUSH1 0x1 PUSH1 0xC0 SHL SWAP1 DIV PUSH4 0xFFFFFFFF AND PUSH2 0x2916 JUMPI PUSH1 0x40 MLOAD PUSH4 0xC3B4CA43 PUSH1 0xE0 SHL DUP2 MSTORE PUSH1 0x4 ADD PUSH1 0x40 MLOAD DUP1 SWAP2 SUB SWAP1 REVERT JUMPDEST PUSH1 0x10 SLOAD PUSH1 0x6 DUP4 ADD SLOAD PUSH1 0x1 PUSH1 0xC0 SHL SWAP1 DIV PUSH4 0xFFFFFFFF SWAP1 DUP2 AND DUP2 DUP4 AND ADD PUSH5 0x100000000 SWAP1 SWAP3 DIV DUP2 AND SWAP2 SWAP1 SWAP2 ADD AND TIMESTAMP GT PUSH2 0x2979 JUMPI PUSH1 0x40 MLOAD PUSH32 0x7F8617A200000000000000000000000000000000000000000000000000000000 DUP2 MSTORE PUSH1 0x4 ADD PUSH1 0x40 MLOAD DUP1 SWAP2 SUB SWAP1 REVERT JUMPDEST PUSH1 0x9 DUP3 SLOAD PUSH1 0xFF AND PUSH1 0xA DUP2 GT ISZERO PUSH2 0x2991 JUMPI PUSH2 0x2991 PUSH2 0x3E4F JUMP JUMPDEST EQ PUSH2 0x29F1 JUMPI PUSH1 0x5 DUP3 ADD SLOAD PUSH1 0x0 SWAP1 DUP2 MSTORE PUSH1 0x11 PUSH1 0x20 MSTORE PUSH1 0x40 SWAP1 KECCAK256 PUSH1 0x6 ADD SLOAD PUSH1 0x1 PUSH1 0xC0 SHL SWAP1 DIV PUSH4 0xFFFFFFFF AND ISZERO PUSH2 0x29F1 JUMPI PUSH1 0x40 MLOAD PUSH32 0x8795D9C100000000000000000000000000000000000000000000000000000000 DUP2 MSTORE PUSH1 0x4 ADD PUSH1 0x40 MLOAD DUP1 SWAP2 SUB SWAP1 REVERT JUMPDEST PUSH1 0x6 DUP3 ADD SLOAD PUSH2 0x2A15 SWAP1 DUP3 SWAP1 PUSH1 0x1 PUSH1 0x1 PUSH1 0x60 SHL SUB DUP1 DUP3 AND SWAP2 PUSH1 0x1 PUSH1 0x60 SHL SWAP1 DIV AND PUSH2 0x37AD JUMP JUMPDEST SWAP4 POP DUP4 ISZERO PUSH2 0x30D0 JUMPI PUSH1 0x0 DUP3 SLOAD PUSH1 0xFF AND PUSH1 0xA DUP2 GT ISZERO PUSH2 0x2A35 JUMPI PUSH2 0x2A35 PUSH2 0x3E4F JUMP JUMPDEST EQ ISZERO PUSH2 0x2AAA JUMPI PUSH1 0x0 JUMPDEST PUSH1 0x2 DUP4 ADD SLOAD DUP2 LT ISZERO PUSH2 0x2AA8 JUMPI PUSH2 0x2AA0 DUP4 PUSH1 0x2 ADD DUP3 DUP2 SLOAD DUP2 LT PUSH2 0x2A62 JUMPI PUSH2 0x2A62 PUSH2 0x484E JUMP JUMPDEST PUSH1 0x0 SWAP2 DUP3 MSTORE PUSH1 0x20 SWAP1 SWAP2 KECCAK256 ADD SLOAD PUSH1 0x3 DUP6 ADD DUP1 SLOAD PUSH1 0x1 PUSH1 0x1 PUSH1 0xA0 SHL SUB SWAP1 SWAP3 AND SWAP2 DUP5 SWAP1 DUP2 LT PUSH2 0x2A90 JUMPI PUSH2 0x2A90 PUSH2 0x484E JUMP JUMPDEST SWAP1 PUSH1 0x0 MSTORE PUSH1 0x20 PUSH1 0x0 KECCAK256 ADD SLOAD PUSH2 0x38E5 JUMP JUMPDEST PUSH1 0x1 ADD PUSH2 0x2A3E JUMP JUMPDEST POP JUMPDEST PUSH1 0x1 DUP3 SLOAD PUSH1 0xFF AND PUSH1 0xA DUP2 GT ISZERO PUSH2 0x2AC2 JUMPI PUSH2 0x2AC2 PUSH2 0x3E4F JUMP JUMPDEST EQ ISZERO PUSH2 0x2B37 JUMPI PUSH1 0x0 JUMPDEST PUSH1 0x2 DUP4 ADD SLOAD DUP2 LT ISZERO PUSH2 0x2B35 JUMPI PUSH2 0x2B2D DUP4 PUSH1 0x2 ADD DUP3 DUP2 SLOAD DUP2 LT PUSH2 0x2AEF JUMPI PUSH2 0x2AEF PUSH2 0x484E JUMP JUMPDEST PUSH1 0x0 SWAP2 DUP3 MSTORE PUSH1 0x20 SWAP1 SWAP2 KECCAK256 ADD SLOAD PUSH1 0x3 DUP6 ADD DUP1 SLOAD PUSH1 0x1 PUSH1 0x1 PUSH1 0xA0 SHL SUB SWAP1 SWAP3 AND SWAP2 DUP5 SWAP1 DUP2 LT PUSH2 0x2B1D JUMPI PUSH2 0x2B1D PUSH2 0x484E JUMP JUMPDEST SWAP1 PUSH1 0x0 MSTORE PUSH1 0x20 PUSH1 0x0 KECCAK256 ADD SLOAD PUSH2 0x3580 JUMP JUMPDEST PUSH1 0x1 ADD PUSH2 0x2ACB JUMP JUMPDEST POP JUMPDEST PUSH1 0x2 DUP3 SLOAD PUSH1 0xFF AND PUSH1 0xA DUP2 GT ISZERO PUSH2 0x2B4F JUMPI PUSH2 0x2B4F PUSH2 0x3E4F JUMP JUMPDEST EQ ISZERO PUSH2 0x2CA2 JUMPI PUSH1 0x0 JUMPDEST PUSH1 0x2 DUP4 ADD SLOAD DUP2 LT ISZERO PUSH2 0x2CA0 JUMPI PUSH1 0x2 DUP4 ADD SLOAD PUSH8 0xFFFFFFFFFFFFFFFF DUP2 GT ISZERO PUSH2 0x2B81 JUMPI PUSH2 0x2B81 PUSH2 0x452F JUMP JUMPDEST PUSH1 0x40 MLOAD SWAP1 DUP1 DUP3 MSTORE DUP1 PUSH1 0x20 MUL PUSH1 0x20 ADD DUP3 ADD PUSH1 0x40 MSTORE DUP1 ISZERO PUSH2 0x2BB4 JUMPI DUP2 PUSH1 0x20 ADD JUMPDEST PUSH1 0x60 DUP2 MSTORE PUSH1 0x20 ADD SWAP1 PUSH1 0x1 SWAP1 SUB SWAP1 DUP2 PUSH2 0x2B9F JUMPI SWAP1 POP JUMPDEST POP SWAP4 POP PUSH1 0x0 DUP4 PUSH1 0x2 ADD DUP3 DUP2 SLOAD DUP2 LT PUSH2 0x2BCE JUMPI PUSH2 0x2BCE PUSH2 0x484E JUMP JUMPDEST PUSH1 0x0 SWAP2 DUP3 MSTORE PUSH1 0x20 SWAP1 SWAP2 KECCAK256 ADD SLOAD PUSH1 0x3 DUP6 ADD DUP1 SLOAD PUSH1 0x1 PUSH1 0x1 PUSH1 0xA0 SHL SUB SWAP1 SWAP3 AND SWAP2 DUP5 SWAP1 DUP2 LT PUSH2 0x2BFC JUMPI PUSH2 0x2BFC PUSH2 0x484E JUMP JUMPDEST SWAP1 PUSH1 0x0 MSTORE PUSH1 0x20 PUSH1 0x0 KECCAK256 ADD SLOAD DUP6 PUSH1 0x4 ADD DUP5 DUP2 SLOAD DUP2 LT PUSH2 0x2C1C JUMPI PUSH2 0x2C1C PUSH2 0x484E JUMP JUMPDEST SWAP1 PUSH1 0x0 MSTORE PUSH1 0x20 PUSH1 0x0 KECCAK256 ADD PUSH1 0x40 MLOAD PUSH2 0x2C33 SWAP2 SWAP1 PUSH2 0x4B0E JUMP JUMPDEST PUSH1 0x0 PUSH1 0x40 MLOAD DUP1 DUP4 SUB DUP2 DUP6 DUP8 GAS CALL SWAP3 POP POP POP RETURNDATASIZE DUP1 PUSH1 0x0 DUP2 EQ PUSH2 0x2C70 JUMPI PUSH1 0x40 MLOAD SWAP2 POP PUSH1 0x1F NOT PUSH1 0x3F RETURNDATASIZE ADD AND DUP3 ADD PUSH1 0x40 MSTORE RETURNDATASIZE DUP3 MSTORE RETURNDATASIZE PUSH1 0x0 PUSH1 0x20 DUP5 ADD RETURNDATACOPY PUSH2 0x2C75 JUMP JUMPDEST PUSH1 0x60 SWAP2 POP JUMPDEST POP SWAP2 POP POP DUP1 DUP6 DUP4 DUP2 MLOAD DUP2 LT PUSH2 0x2C8C JUMPI PUSH2 0x2C8C PUSH2 0x484E JUMP JUMPDEST PUSH1 0x20 SWAP1 DUP2 MUL SWAP2 SWAP1 SWAP2 ADD ADD MSTORE POP PUSH1 0x1 ADD PUSH2 0x2B58 JUMP JUMPDEST POP JUMPDEST PUSH1 0x3 DUP3 SLOAD PUSH1 0xFF AND PUSH1 0xA DUP2 GT ISZERO PUSH2 0x2CBA JUMPI PUSH2 0x2CBA PUSH2 0x3E4F JUMP JUMPDEST EQ ISZERO PUSH2 0x2D24 JUMPI DUP2 PUSH1 0x3 ADD PUSH1 0x0 DUP2 SLOAD DUP2 LT PUSH2 0x2CD6 JUMPI PUSH2 0x2CD6 PUSH2 0x484E JUMP JUMPDEST SWAP1 PUSH1 0x0 MSTORE PUSH1 0x20 PUSH1 0x0 KECCAK256 ADD SLOAD PUSH1 0x0 EQ PUSH2 0x2D24 JUMPI DUP2 PUSH1 0x3 ADD PUSH1 0x0 DUP2 SLOAD DUP2 LT PUSH2 0x2CFE JUMPI PUSH2 0x2CFE PUSH2 0x484E JUMP JUMPDEST PUSH1 0x0 SWAP2 DUP3 MSTORE PUSH1 0x20 SWAP1 SWAP2 KECCAK256 ADD SLOAD PUSH1 0x10 DUP1 SLOAD PUSH4 0xFFFFFFFF NOT AND PUSH4 0xFFFFFFFF SWAP1 SWAP3 AND SWAP2 SWAP1 SWAP2 OR SWAP1 SSTORE JUMPDEST PUSH1 0x4 DUP3 SLOAD PUSH1 0xFF AND PUSH1 0xA DUP2 GT ISZERO PUSH2 0x2D3C JUMPI PUSH2 0x2D3C PUSH2 0x3E4F JUMP JUMPDEST EQ ISZERO PUSH2 0x2DAC JUMPI DUP2 PUSH1 0x3 ADD PUSH1 0x0 DUP2 SLOAD DUP2 LT PUSH2 0x2D58 JUMPI PUSH2 0x2D58 PUSH2 0x484E JUMP JUMPDEST SWAP1 PUSH1 0x0 MSTORE PUSH1 0x20 PUSH1 0x0 KECCAK256 ADD SLOAD PUSH1 0x0 EQ PUSH2 0x2DAC JUMPI DUP2 PUSH1 0x3 ADD PUSH1 0x0 DUP2 SLOAD DUP2 LT PUSH2 0x2D80 JUMPI PUSH2 0x2D80 PUSH2 0x484E JUMP JUMPDEST SWAP1 PUSH1 0x0 MSTORE PUSH1 0x20 PUSH1 0x0 KECCAK256 ADD SLOAD PUSH1 0x10 PUSH1 0x4 PUSH2 0x100 EXP DUP2 SLOAD DUP2 PUSH4 0xFFFFFFFF MUL NOT AND SWAP1 DUP4 PUSH4 0xFFFFFFFF AND MUL OR SWAP1 SSTORE POP JUMPDEST PUSH1 0x5 DUP3 SLOAD PUSH1 0xFF AND PUSH1 0xA DUP2 GT ISZERO PUSH2 0x2DC4 JUMPI PUSH2 0x2DC4 PUSH2 0x3E4F JUMP JUMPDEST EQ ISZERO PUSH2 0x2E34 JUMPI DUP2 PUSH1 0x3 ADD PUSH1 0x0 DUP2 SLOAD DUP2 LT PUSH2 0x2DE0 JUMPI PUSH2 0x2DE0 PUSH2 0x484E JUMP JUMPDEST SWAP1 PUSH1 0x0 MSTORE PUSH1 0x20 PUSH1 0x0 KECCAK256 ADD SLOAD PUSH1 0x0 EQ PUSH2 0x2E34 JUMPI DUP2 PUSH1 0x3 ADD PUSH1 0x0 DUP2 SLOAD DUP2 LT PUSH2 0x2E08 JUMPI PUSH2 0x2E08 PUSH2 0x484E JUMP JUMPDEST SWAP1 PUSH1 0x0 MSTORE PUSH1 0x20 PUSH1 0x0 KECCAK256 ADD SLOAD PUSH1 0x10 PUSH1 0x8 PUSH2 0x100 EXP DUP2 SLOAD DUP2 PUSH4 0xFFFFFFFF MUL NOT AND SWAP1 DUP4 PUSH4 0xFFFFFFFF AND MUL OR SWAP1 SSTORE POP JUMPDEST PUSH1 0x6 DUP3 SLOAD PUSH1 0xFF AND PUSH1 0xA DUP2 GT ISZERO PUSH2 0x2E4C JUMPI PUSH2 0x2E4C PUSH2 0x3E4F JUMP JUMPDEST EQ ISZERO PUSH2 0x2EBC JUMPI DUP2 PUSH1 0x3 ADD PUSH1 0x0 DUP2 SLOAD DUP2 LT PUSH2 0x2E68 JUMPI PUSH2 0x2E68 PUSH2 0x484E JUMP JUMPDEST SWAP1 PUSH1 0x0 MSTORE PUSH1 0x20 PUSH1 0x0 KECCAK256 ADD SLOAD PUSH1 0x0 EQ PUSH2 0x2EBC JUMPI DUP2 PUSH1 0x3 ADD PUSH1 0x0 DUP2 SLOAD DUP2 LT PUSH2 0x2E90 JUMPI PUSH2 0x2E90 PUSH2 0x484E JUMP JUMPDEST SWAP1 PUSH1 0x0 MSTORE PUSH1 0x20 PUSH1 0x0 KECCAK256 ADD SLOAD PUSH1 0x10 PUSH1 0xC PUSH2 0x100 EXP DUP2 SLOAD DUP2 PUSH4 0xFFFFFFFF MUL NOT AND SWAP1 DUP4 PUSH4 0xFFFFFFFF AND MUL OR SWAP1 SSTORE POP JUMPDEST PUSH1 0x7 DUP3 SLOAD PUSH1 0xFF AND PUSH1 0xA DUP2 GT ISZERO PUSH2 0x2ED4 JUMPI PUSH2 0x2ED4 PUSH2 0x3E4F JUMP JUMPDEST EQ ISZERO PUSH2 0x2F94 JUMPI DUP2 PUSH1 0x3 ADD PUSH1 0x1 DUP2 SLOAD DUP2 LT PUSH2 0x2EF0 JUMPI PUSH2 0x2EF0 PUSH2 0x484E JUMP JUMPDEST SWAP1 PUSH1 0x0 MSTORE PUSH1 0x20 PUSH1 0x0 KECCAK256 ADD SLOAD PUSH1 0x3 DUP2 GT ISZERO PUSH2 0x2F0C JUMPI PUSH2 0x2F0C PUSH2 0x3E4F JUMP JUMPDEST PUSH1 0x13 PUSH1 0x0 DUP5 PUSH1 0x3 ADD PUSH1 0x0 DUP2 SLOAD DUP2 LT PUSH2 0x2F26 JUMPI PUSH2 0x2F26 PUSH2 0x484E JUMP JUMPDEST SWAP1 PUSH1 0x0 MSTORE PUSH1 0x20 PUSH1 0x0 KECCAK256 ADD SLOAD PUSH1 0xA DUP2 GT ISZERO PUSH2 0x2F42 JUMPI PUSH2 0x2F42 PUSH2 0x3E4F JUMP JUMPDEST PUSH1 0xA DUP2 GT ISZERO PUSH2 0x2F53 JUMPI PUSH2 0x2F53 PUSH2 0x3E4F JUMP JUMPDEST PUSH1 0xA DUP2 GT ISZERO PUSH2 0x2F64 JUMPI PUSH2 0x2F64 PUSH2 0x3E4F JUMP JUMPDEST DUP2 MSTORE PUSH1 0x20 DUP2 ADD SWAP2 SWAP1 SWAP2 MSTORE PUSH1 0x40 ADD PUSH1 0x0 KECCAK256 DUP1 SLOAD PUSH1 0xFF NOT AND PUSH1 0x1 DUP4 PUSH1 0x3 DUP2 GT ISZERO PUSH2 0x2F8E JUMPI PUSH2 0x2F8E PUSH2 0x3E4F JUMP JUMPDEST MUL OR SWAP1 SSTORE POP JUMPDEST PUSH1 0x8 DUP3 SLOAD PUSH1 0xFF AND PUSH1 0xA DUP2 GT ISZERO PUSH2 0x2FAC JUMPI PUSH2 0x2FAC PUSH2 0x3E4F JUMP JUMPDEST EQ ISZERO PUSH2 0x2FBA JUMPI PUSH2 0x2FBA PUSH2 0x396B JUMP JUMPDEST PUSH1 0x9 DUP3 SLOAD PUSH1 0xFF AND PUSH1 0xA DUP2 GT ISZERO PUSH2 0x2FD2 JUMPI PUSH2 0x2FD2 PUSH2 0x3E4F JUMP JUMPDEST EQ ISZERO PUSH2 0x3079 JUMPI PUSH1 0x11 PUSH1 0x0 DUP4 PUSH1 0x3 ADD PUSH1 0x0 DUP2 SLOAD DUP2 LT PUSH2 0x2FF2 JUMPI PUSH2 0x2FF2 PUSH2 0x484E JUMP JUMPDEST PUSH1 0x0 SWAP2 DUP3 MSTORE PUSH1 0x20 DUP1 DUP4 KECCAK256 SWAP1 SWAP2 ADD SLOAD DUP4 MSTORE DUP3 ADD SWAP3 SWAP1 SWAP3 MSTORE PUSH1 0x40 ADD DUP2 KECCAK256 DUP1 SLOAD PUSH1 0xFF NOT AND DUP2 SSTORE SWAP1 PUSH2 0x3023 PUSH1 0x1 DUP4 ADD DUP3 PUSH2 0x3D13 JUMP JUMPDEST PUSH2 0x3031 PUSH1 0x2 DUP4 ADD PUSH1 0x0 PUSH2 0x3D4D JUMP JUMPDEST PUSH2 0x303F PUSH1 0x3 DUP4 ADD PUSH1 0x0 PUSH2 0x3D4D JUMP JUMPDEST PUSH2 0x304D PUSH1 0x4 DUP4 ADD PUSH1 0x0 PUSH2 0x3D6B JUMP JUMPDEST POP PUSH1 0x0 PUSH1 0x5 DUP3 ADD SSTORE PUSH1 0x6 DUP2 ADD DUP1 SLOAD PUSH1 0x1 PUSH1 0x1 PUSH1 0xE0 SHL SUB NOT AND SWAP1 SSTORE PUSH1 0x7 ADD DUP1 SLOAD PUSH1 0x1 PUSH1 0x1 PUSH1 0xA0 SHL SUB NOT AND SWAP1 SSTORE JUMPDEST PUSH1 0xA DUP3 SLOAD PUSH1 0xFF AND PUSH1 0xA DUP2 GT ISZERO PUSH2 0x3091 JUMPI PUSH2 0x3091 PUSH2 0x3E4F JUMP JUMPDEST EQ ISZERO PUSH2 0x30B6 JUMPI DUP2 PUSH1 0x1 ADD PUSH1 0xD SWAP1 DUP1 SLOAD PUSH2 0x30A9 SWAP1 PUSH2 0x47E6 JUMP JUMPDEST PUSH2 0x30B4 SWAP3 SWAP2 SWAP1 PUSH2 0x3D89 JUMP JUMPDEST POP JUMPDEST PUSH1 0x0 DUP6 DUP2 MSTORE PUSH1 0x12 PUSH1 0x20 MSTORE PUSH1 0x40 SWAP1 KECCAK256 DUP1 SLOAD PUSH1 0xFF NOT AND PUSH1 0x1 OR SWAP1 SSTORE JUMPDEST PUSH1 0x0 DUP6 DUP2 MSTORE PUSH1 0x11 PUSH1 0x20 MSTORE PUSH1 0x40 DUP2 KECCAK256 DUP1 SLOAD PUSH1 0xFF NOT AND DUP2 SSTORE SWAP1 PUSH2 0x30F4 PUSH1 0x1 DUP4 ADD DUP3 PUSH2 0x3D13 JUMP JUMPDEST PUSH2 0x3102 PUSH1 0x2 DUP4 ADD PUSH1 0x0 PUSH2 0x3D4D JUMP JUMPDEST PUSH2 0x3110 PUSH1 0x3 DUP4 ADD PUSH1 0x0 PUSH2 0x3D4D JUMP JUMPDEST PUSH2 0x311E PUSH1 0x4 DUP4 ADD PUSH1 0x0 PUSH2 0x3D6B JUMP JUMPDEST POP PUSH1 0x0 PUSH1 0x5 DUP3 ADD DUP2 SWAP1 SSTORE PUSH1 0x6 DUP3 ADD DUP1 SLOAD PUSH1 0x1 PUSH1 0x1 PUSH1 0xE0 SHL SUB NOT AND SWAP1 SSTORE PUSH1 0x7 SWAP1 SWAP2 ADD DUP1 SLOAD PUSH1 0x1 PUSH1 0x1 PUSH1 0xA0 SHL SUB NOT AND SWAP1 SSTORE DUP6 DUP2 MSTORE PUSH1 0x12 PUSH1 0x20 MSTORE PUSH1 0x40 DUP1 DUP3 KECCAK256 DUP1 SLOAD PUSH2 0xFF00 NOT AND PUSH2 0x100 OR SWAP1 SSTORE MLOAD DUP6 ISZERO ISZERO SWAP2 DUP8 SWAP2 PUSH32 0xCC8B74C10CAE169918EAB7CF3272B0A540854B8A4D12281590885D07FED34F6E SWAP2 SWAP1 LOG3 POP POP PUSH1 0x1 PUSH1 0xC SSTORE SWAP1 SWAP3 SWAP1 SWAP2 POP JUMP JUMPDEST PUSH1 0x0 DUP3 DUP2 MSTORE PUSH1 0x11 PUSH1 0x20 SWAP1 DUP2 MSTORE PUSH1 0x40 DUP1 DUP4 KECCAK256 PUSH1 0x14 DUP4 MSTORE DUP2 DUP5 KECCAK256 PUSH1 0x1 PUSH1 0x1 PUSH1 0xA0 SHL SUB DUP9 AND DUP6 MSTORE SWAP1 SWAP3 MSTORE SWAP1 SWAP2 KECCAK256 SLOAD PUSH1 0xFF AND ISZERO PUSH2 0x3205 JUMPI PUSH1 0x40 MLOAD PUSH32 0x7C9A1CF900000000000000000000000000000000000000000000000000000000 DUP2 MSTORE PUSH1 0x4 ADD PUSH1 0x40 MLOAD DUP1 SWAP2 SUB SWAP1 REVERT JUMPDEST PUSH1 0x10 SLOAD PUSH1 0x6 DUP3 ADD SLOAD PUSH4 0xFFFFFFFF SWAP2 DUP3 AND PUSH1 0x1 PUSH1 0xC0 SHL SWAP1 SWAP2 DIV DUP3 AND ADD AND TIMESTAMP GT ISZERO PUSH2 0x325A JUMPI PUSH1 0x40 MLOAD PUSH32 0x47C8137D00000000000000000000000000000000000000000000000000000000 DUP2 MSTORE PUSH1 0x4 ADD PUSH1 0x40 MLOAD DUP1 SWAP2 SUB SWAP1 REVERT JUMPDEST PUSH1 0x6 DUP2 ADD SLOAD PUSH1 0x0 SWAP1 PUSH2 0x327A SWAP1 DUP7 SWAP1 PUSH1 0x1 PUSH1 0xC0 SHL SWAP1 DIV PUSH4 0xFFFFFFFF AND PUSH2 0x116B JUMP JUMPDEST SWAP1 POP DUP3 ISZERO PUSH2 0x32CA JUMPI PUSH1 0x6 DUP3 ADD DUP1 SLOAD PUSH1 0x1 PUSH1 0x1 PUSH1 0x60 SHL SUB DUP1 DUP3 AND DUP5 ADD AND PUSH12 0xFFFFFFFFFFFFFFFFFFFFFFFF NOT SWAP1 SWAP2 AND OR SWAP1 SSTORE PUSH1 0x1 PUSH1 0x1 PUSH1 0xA0 SHL SUB DUP6 AND PUSH1 0x0 SWAP1 DUP2 MSTORE PUSH1 0x15 PUSH1 0x20 MSTORE PUSH1 0x40 SWAP1 KECCAK256 DUP5 SWAP1 SSTORE PUSH2 0x3310 JUMP JUMPDEST PUSH1 0x6 DUP3 ADD DUP1 SLOAD PUSH1 0x1 PUSH1 0x1 PUSH1 0x60 SHL SUB PUSH1 0x1 PUSH1 0x60 SHL DUP1 DUP4 DIV DUP3 AND DUP6 ADD SWAP1 SWAP2 AND MUL PUSH32 0xFFFFFFFFFFFFFFFF000000000000000000000000FFFFFFFFFFFFFFFFFFFFFFFF SWAP1 SWAP2 AND OR SWAP1 SSTORE JUMPDEST PUSH1 0x0 DUP5 DUP2 MSTORE PUSH1 0x14 PUSH1 0x20 SWAP1 DUP2 MSTORE PUSH1 0x40 DUP1 DUP4 KECCAK256 PUSH1 0x1 PUSH1 0x1 PUSH1 0xA0 SHL SUB DUP10 AND DUP1 DUP6 MSTORE SWAP3 MSTORE DUP1 DUP4 KECCAK256 DUP1 SLOAD PUSH1 0xFF NOT AND PUSH1 0x1 OR SWAP1 SSTORE MLOAD DUP6 ISZERO ISZERO SWAP3 DUP8 SWAP3 SWAP2 PUSH32 0xD356173AE8EEEA8691AEE4C1BE712C314A975A3D43EBC48B08CA54D0DAC91228 SWAP2 SWAP1 LOG4 POP POP POP POP POP JUMP JUMPDEST DUP2 PUSH1 0x1 PUSH1 0x1 PUSH1 0xA0 SHL SUB AND DUP4 PUSH1 0x1 PUSH1 0x1 PUSH1 0xA0 SHL SUB AND EQ ISZERO DUP1 ISZERO PUSH2 0x3392 JUMPI POP DUP1 ISZERO ISZERO JUMPDEST ISZERO PUSH2 0x343C JUMPI PUSH1 0x1 PUSH1 0x1 PUSH1 0xA0 SHL SUB DUP4 AND ISZERO PUSH2 0x343C JUMPI PUSH1 0x1 PUSH1 0x1 PUSH1 0xA0 SHL SUB DUP4 AND PUSH1 0x0 SWAP1 DUP2 MSTORE PUSH1 0xB PUSH1 0x20 MSTORE PUSH1 0x40 DUP2 KECCAK256 SLOAD SWAP1 DUP2 PUSH2 0x33CC JUMPI PUSH1 0x0 PUSH2 0x3413 JUMP JUMPDEST PUSH1 0x1 PUSH1 0x1 PUSH1 0xA0 SHL SUB DUP6 AND PUSH1 0x0 SWAP1 DUP2 MSTORE PUSH1 0xA PUSH1 0x20 MSTORE PUSH1 0x40 DUP2 KECCAK256 SWAP1 PUSH2 0x33F0 PUSH1 0x1 DUP6 PUSH2 0x4837 JUMP JUMPDEST DUP2 MSTORE PUSH1 0x20 DUP2 ADD SWAP2 SWAP1 SWAP2 MSTORE PUSH1 0x40 ADD PUSH1 0x0 KECCAK256 SLOAD PUSH5 0x100000000 SWAP1 DIV PUSH1 0x1 PUSH1 0x1 PUSH1 0x60 SHL SUB AND JUMPDEST PUSH1 0x1 PUSH1 0x1 PUSH1 0x60 SHL SUB AND SWAP1 POP PUSH1 0x0 PUSH2 0x342A DUP5 DUP4 PUSH2 0x4837 JUMP JUMPDEST SWAP1 POP PUSH2 0x3438 DUP7 DUP5 DUP5 DUP5 PUSH2 0x39B8 JUMP JUMPDEST POP POP POP JUMPDEST PUSH1 0x1 PUSH1 0x1 PUSH1 0xA0 SHL SUB DUP3 AND ISZERO PUSH2 0x34E1 JUMPI PUSH1 0x1 PUSH1 0x1 PUSH1 0xA0 SHL SUB DUP3 AND PUSH1 0x0 SWAP1 DUP2 MSTORE PUSH1 0xB PUSH1 0x20 MSTORE PUSH1 0x40 DUP2 KECCAK256 SLOAD SWAP1 DUP2 PUSH2 0x3471 JUMPI PUSH1 0x0 PUSH2 0x34B8 JUMP JUMPDEST PUSH1 0x1 PUSH1 0x1 PUSH1 0xA0 SHL SUB DUP5 AND PUSH1 0x0 SWAP1 DUP2 MSTORE PUSH1 0xA PUSH1 0x20 MSTORE PUSH1 0x40 DUP2 KECCAK256 SWAP1 PUSH2 0x3495 PUSH1 0x1 DUP6 PUSH2 0x4837 JUMP JUMPDEST DUP2 MSTORE PUSH1 0x20 DUP2 ADD SWAP2 SWAP1 SWAP2 MSTORE PUSH1 0x40 ADD PUSH1 0x0 KECCAK256 SLOAD PUSH5 0x100000000 SWAP1 DIV PUSH1 0x1 PUSH1 0x1 PUSH1 0x60 SHL SUB AND JUMPDEST PUSH1 0x1 PUSH1 0x1 PUSH1 0x60 SHL SUB AND SWAP1 POP PUSH1 0x0 PUSH2 0x34CF DUP5 DUP4 PUSH2 0x4B1A JUMP JUMPDEST SWAP1 POP PUSH2 0x34DD DUP6 DUP5 DUP5 DUP5 PUSH2 0x39B8 JUMP JUMPDEST POP POP POP JUMPDEST POP POP POP JUMP JUMPDEST PUSH1 0x0 PUSH32 0x8B73C3C69BB8FE3D512ECC4CF759CC79239F7B179B0FFACAA9A75D522B39400F PUSH1 0x0 PUSH1 0x40 MLOAD PUSH2 0x3518 SWAP2 SWAP1 PUSH2 0x4B0E JUMP JUMPDEST PUSH1 0x40 DUP1 MLOAD SWAP2 DUP3 SWAP1 SUB DUP3 KECCAK256 PUSH1 0x20 DUP4 ADD SWAP4 SWAP1 SWAP4 MSTORE DUP2 ADD SWAP2 SWAP1 SWAP2 MSTORE PUSH32 0xC89EFDAA54C0F20C7ADF612882DF0950F5A951637E0307CDCB4C672F298B8BC6 PUSH1 0x60 DUP3 ADD MSTORE CHAINID PUSH1 0x80 DUP3 ADD MSTORE ADDRESS PUSH1 0xA0 DUP3 ADD MSTORE PUSH1 0xC0 ADD PUSH1 0x40 MLOAD PUSH1 0x20 DUP2 DUP4 SUB SUB DUP2 MSTORE SWAP1 PUSH1 0x40 MSTORE DUP1 MLOAD SWAP1 PUSH1 0x20 ADD KECCAK256 SWAP1 POP SWAP1 JUMP JUMPDEST PUSH1 0x1 PUSH1 0x1 PUSH1 0xA0 SHL SUB DUP3 AND PUSH1 0x0 SWAP1 DUP2 MSTORE PUSH1 0x3 PUSH1 0x20 MSTORE PUSH1 0x40 DUP2 KECCAK256 DUP1 SLOAD DUP4 SWAP3 SWAP1 PUSH2 0x35A8 SWAP1 DUP5 SWAP1 PUSH2 0x4837 JUMP JUMPDEST SWAP1 SWAP2 SSTORE POP POP PUSH1 0x2 DUP1 SLOAD DUP3 SWAP1 SUB SWAP1 SSTORE PUSH2 0x35CA PUSH2 0x35C2 DUP4 PUSH2 0xF6D JUMP JUMPDEST PUSH1 0x0 DUP4 PUSH2 0x3371 JUMP JUMPDEST PUSH1 0x40 MLOAD DUP2 DUP2 MSTORE PUSH1 0x0 SWAP1 PUSH1 0x1 PUSH1 0x1 PUSH1 0xA0 SHL SUB DUP5 AND SWAP1 PUSH32 0xDDF252AD1BE2C89B69C2B068FC378DAA952BA7F163C4A11628F55A4DF523B3EF SWAP1 PUSH1 0x20 ADD JUMPDEST PUSH1 0x40 MLOAD DUP1 SWAP2 SUB SWAP1 LOG3 POP POP JUMP JUMPDEST PUSH1 0x0 PUSH2 0x361B DUP4 PUSH2 0xF6D JUMP JUMPDEST PUSH1 0x1 PUSH1 0x1 PUSH1 0xA0 SHL SUB DUP5 DUP2 AND PUSH1 0x0 SWAP1 DUP2 MSTORE PUSH1 0x9 PUSH1 0x20 SWAP1 DUP2 MSTORE PUSH1 0x40 DUP1 DUP4 KECCAK256 DUP1 SLOAD PUSH1 0x1 PUSH1 0x1 PUSH1 0xA0 SHL SUB NOT AND SWAP5 DUP9 AND SWAP5 SWAP1 SWAP5 OR SWAP1 SWAP4 SSTORE PUSH1 0x3 SWAP1 MSTORE KECCAK256 SLOAD SWAP1 SWAP2 POP PUSH2 0x3663 SWAP1 DUP3 SWAP1 DUP5 SWAP1 PUSH2 0x3371 JUMP JUMPDEST DUP2 PUSH1 0x1 PUSH1 0x1 PUSH1 0xA0 SHL SUB AND DUP2 PUSH1 0x1 PUSH1 0x1 PUSH1 0xA0 SHL SUB AND DUP5 PUSH1 0x1 PUSH1 0x1 PUSH1 0xA0 SHL SUB AND PUSH32 0x3134E8A2E6D97E929A7E54011EA5485D7D196DD5F0BA4D4EF95803E8E3FC257F PUSH1 0x40 MLOAD PUSH1 0x40 MLOAD DUP1 SWAP2 SUB SWAP1 LOG4 POP POP POP JUMP JUMPDEST PUSH1 0x0 PUSH4 0xFFFFFFFF DUP3 GT ISZERO PUSH2 0x36F2 JUMPI PUSH1 0x40 MLOAD PUSH32 0xEC314E4200000000000000000000000000000000000000000000000000000000 DUP2 MSTORE PUSH1 0x4 ADD PUSH1 0x40 MLOAD DUP1 SWAP2 SUB SWAP1 REVERT JUMPDEST POP SWAP1 JUMP JUMPDEST DUP1 MLOAD DUP3 MLOAD EQ PUSH2 0x3718 JUMPI PUSH1 0x40 MLOAD PUSH4 0x266C51BB PUSH1 0xE0 SHL DUP2 MSTORE PUSH1 0x4 ADD PUSH1 0x40 MLOAD DUP1 SWAP2 SUB SWAP1 REVERT JUMPDEST DUP5 MLOAD PUSH2 0x372B SWAP1 PUSH1 0x0 SWAP1 PUSH1 0x20 DUP9 ADD SWAP1 PUSH2 0x3BAB JUMP JUMPDEST POP DUP4 MLOAD PUSH2 0x373F SWAP1 PUSH1 0x1 SWAP1 PUSH1 0x20 DUP8 ADD SWAP1 PUSH2 0x3BAB JUMP JUMPDEST POP PUSH1 0x8 DUP1 SLOAD PUSH1 0xFF NOT AND DUP5 ISZERO ISZERO OR SWAP1 SSTORE CHAINID PUSH1 0x5 SSTORE PUSH2 0x375A PUSH2 0x34E6 JUMP JUMPDEST PUSH1 0x6 SSTORE PUSH1 0x0 JUMPDEST DUP3 MLOAD DUP2 LT ISZERO PUSH2 0x34DD JUMPI PUSH2 0x37A5 DUP4 DUP3 DUP2 MLOAD DUP2 LT PUSH2 0x377E JUMPI PUSH2 0x377E PUSH2 0x484E JUMP JUMPDEST PUSH1 0x20 MUL PUSH1 0x20 ADD ADD MLOAD DUP4 DUP4 DUP2 MLOAD DUP2 LT PUSH2 0x3798 JUMPI PUSH2 0x3798 PUSH2 0x484E JUMP JUMPDEST PUSH1 0x20 MUL PUSH1 0x20 ADD ADD MLOAD PUSH2 0x38E5 JUMP JUMPDEST PUSH1 0x1 ADD PUSH2 0x3760 JUMP JUMPDEST PUSH1 0x0 DUP3 ISZERO DUP1 ISZERO PUSH2 0x37BB JUMPI POP DUP2 ISZERO JUMPDEST ISZERO PUSH2 0x37C8 JUMPI POP PUSH1 0x0 PUSH2 0xF3A JUMP JUMPDEST PUSH1 0x1 DUP5 PUSH1 0x3 DUP2 GT ISZERO PUSH2 0x37DC JUMPI PUSH2 0x37DC PUSH2 0x3E4F JUMP JUMPDEST EQ DUP1 PUSH2 0x37F9 JUMPI POP PUSH1 0x3 DUP5 PUSH1 0x3 DUP2 GT ISZERO PUSH2 0x37F7 JUMPI PUSH2 0x37F7 PUSH2 0x3E4F JUMP JUMPDEST EQ JUMPDEST ISZERO PUSH2 0x384B JUMPI PUSH1 0x10 SLOAD PUSH1 0x2 SLOAD PUSH1 0x0 SWAP2 PUSH1 0x64 SWAP2 PUSH2 0x3826 SWAP2 PUSH9 0x10000000000000000 SWAP1 DIV PUSH4 0xFFFFFFFF AND SWAP1 PUSH2 0x4B32 JUMP JUMPDEST PUSH2 0x3830 SWAP2 SWAP1 PUSH2 0x4B51 JUMP JUMPDEST SWAP1 POP DUP4 DUP4 ADD DUP2 DUP2 LT ISZERO PUSH2 0x3848 JUMPI PUSH1 0x0 SWAP3 POP POP POP PUSH2 0xF3A JUMP JUMPDEST POP POP JUMPDEST PUSH1 0x0 DUP5 PUSH1 0x3 DUP2 GT ISZERO PUSH2 0x385F JUMPI PUSH2 0x385F PUSH2 0x3E4F JUMP JUMPDEST EQ DUP1 PUSH2 0x387C JUMPI POP PUSH1 0x1 DUP5 PUSH1 0x3 DUP2 GT ISZERO PUSH2 0x387A JUMPI PUSH2 0x387A PUSH2 0x3E4F JUMP JUMPDEST EQ JUMPDEST ISZERO PUSH2 0x3896 JUMPI DUP2 DUP4 GT ISZERO PUSH2 0x3891 JUMPI POP PUSH1 0x1 PUSH2 0xF3A JUMP JUMPDEST PUSH2 0xF3A JUMP JUMPDEST PUSH1 0x10 SLOAD PUSH1 0x0 SWAP1 PUSH1 0x64 SWAP1 PUSH1 0x1 PUSH1 0x60 SHL SWAP1 DIV PUSH4 0xFFFFFFFF AND PUSH2 0x38B6 DUP6 DUP8 PUSH2 0x4B1A JUMP JUMPDEST PUSH2 0x38C0 SWAP2 SWAP1 PUSH2 0x4B32 JUMP JUMPDEST PUSH2 0x38CA SWAP2 SWAP1 PUSH2 0x4B51 JUMP JUMPDEST SWAP1 POP DUP1 DUP5 LT PUSH2 0x38DD JUMPI PUSH1 0x1 SWAP2 POP POP PUSH2 0xF3A JUMP JUMPDEST POP SWAP4 SWAP3 POP POP POP JUMP JUMPDEST DUP1 PUSH1 0x2 PUSH1 0x0 DUP3 DUP3 SLOAD PUSH2 0x38F7 SWAP2 SWAP1 PUSH2 0x4B1A JUMP JUMPDEST SWAP1 SWAP2 SSTORE POP POP PUSH1 0x1 PUSH1 0x1 PUSH1 0xA0 SHL SUB DUP3 AND PUSH1 0x0 SWAP1 DUP2 MSTORE PUSH1 0x3 PUSH1 0x20 MSTORE PUSH1 0x40 DUP2 KECCAK256 DUP1 SLOAD DUP4 ADD SWAP1 SSTORE PUSH2 0x392D SWAP1 PUSH2 0x3927 DUP5 PUSH2 0xF6D JUMP JUMPDEST DUP4 PUSH2 0x3371 JUMP JUMPDEST PUSH1 0x40 MLOAD DUP2 DUP2 MSTORE PUSH1 0x1 PUSH1 0x1 PUSH1 0xA0 SHL SUB DUP4 AND SWAP1 PUSH1 0x0 SWAP1 PUSH32 0xDDF252AD1BE2C89B69C2B068FC378DAA952BA7F163C4A11628F55A4DF523B3EF SWAP1 PUSH1 0x20 ADD PUSH2 0x3604 JUMP JUMPDEST PUSH1 0x8 DUP1 SLOAD PUSH1 0xFF DUP1 DUP3 AND ISZERO PUSH1 0xFF NOT SWAP1 SWAP3 AND DUP3 OR SWAP1 SWAP3 SSTORE PUSH1 0x40 MLOAD SWAP2 AND ISZERO ISZERO DUP2 MSTORE PUSH32 0x28EF61D7A1C224006E6530D510BE74C9C673F4A9896202105E3D4F60511779D1 SWAP1 PUSH1 0x20 ADD PUSH1 0x40 MLOAD DUP1 SWAP2 SUB SWAP1 LOG1 JUMP JUMPDEST DUP3 ISZERO DUP1 ISZERO SWAP1 PUSH2 0x39F3 JUMPI POP PUSH1 0x1 PUSH1 0x1 PUSH1 0xA0 SHL SUB DUP5 AND PUSH1 0x0 SWAP1 DUP2 MSTORE PUSH1 0xA PUSH1 0x20 SWAP1 DUP2 MSTORE PUSH1 0x40 DUP1 DUP4 KECCAK256 PUSH1 0x0 NOT DUP8 ADD DUP5 MSTORE SWAP1 SWAP2 MSTORE SWAP1 KECCAK256 SLOAD PUSH4 0xFFFFFFFF AND TIMESTAMP EQ JUMPDEST ISZERO PUSH2 0x3A6C JUMPI PUSH2 0x3A01 DUP2 PUSH2 0x3B68 JUMP JUMPDEST PUSH1 0x1 PUSH1 0x1 PUSH1 0xA0 SHL SUB DUP6 AND PUSH1 0x0 SWAP1 DUP2 MSTORE PUSH1 0xA PUSH1 0x20 SWAP1 DUP2 MSTORE PUSH1 0x40 DUP1 DUP4 KECCAK256 PUSH1 0x0 NOT DUP9 ADD DUP5 MSTORE SWAP1 SWAP2 MSTORE SWAP1 KECCAK256 DUP1 SLOAD PUSH1 0x1 PUSH1 0x1 PUSH1 0x60 SHL SUB SWAP3 SWAP1 SWAP3 AND PUSH5 0x100000000 MUL PUSH32 0xFFFFFFFFFFFFFFFFFFFFFFFFFFFFFFFF000000000000000000000000FFFFFFFF SWAP1 SWAP3 AND SWAP2 SWAP1 SWAP2 OR SWAP1 SSTORE PUSH2 0x3B1E JUMP JUMPDEST PUSH1 0x40 MLOAD DUP1 PUSH1 0x40 ADD PUSH1 0x40 MSTORE DUP1 PUSH2 0x3A80 TIMESTAMP PUSH2 0x36B2 JUMP JUMPDEST PUSH4 0xFFFFFFFF AND DUP2 MSTORE PUSH1 0x20 ADD PUSH2 0x3A94 DUP4 PUSH2 0x3B68 JUMP JUMPDEST PUSH1 0x1 PUSH1 0x1 PUSH1 0x60 SHL SUB SWAP1 DUP2 AND SWAP1 SWAP2 MSTORE PUSH1 0x1 PUSH1 0x1 PUSH1 0xA0 SHL SUB DUP7 AND PUSH1 0x0 DUP2 DUP2 MSTORE PUSH1 0xA PUSH1 0x20 SWAP1 DUP2 MSTORE PUSH1 0x40 DUP1 DUP4 KECCAK256 DUP10 DUP5 MSTORE DUP3 MSTORE DUP1 DUP4 KECCAK256 DUP7 MLOAD DUP2 SLOAD SWAP8 DUP5 ADD MLOAD SWAP1 SWAP7 AND PUSH5 0x100000000 MUL PUSH32 0xFFFFFFFFFFFFFFFFFFFFFFFFFFFFFFFF00000000000000000000000000000000 SWAP1 SWAP8 AND PUSH4 0xFFFFFFFF SWAP1 SWAP7 AND SWAP6 SWAP1 SWAP6 OR SWAP6 SWAP1 SWAP6 OR SWAP1 SWAP4 SSTORE SWAP1 DUP2 MSTORE PUSH1 0xB SWAP1 SWAP2 MSTORE KECCAK256 PUSH1 0x1 DUP5 ADD SWAP1 SSTORE JUMPDEST PUSH1 0x40 DUP1 MLOAD DUP4 DUP2 MSTORE PUSH1 0x20 DUP2 ADD DUP4 SWAP1 MSTORE PUSH1 0x1 PUSH1 0x1 PUSH1 0xA0 SHL SUB DUP7 AND SWAP2 PUSH32 0xDEC2BACDD2F05B59DE34DA9B523DFF8BE42E5E38E818C82FDB0BAE774387A724 SWAP2 ADD PUSH1 0x40 MLOAD DUP1 SWAP2 SUB SWAP1 LOG2 POP POP POP POP JUMP JUMPDEST PUSH1 0x0 PUSH1 0x1 PUSH1 0x1 PUSH1 0x60 SHL SUB DUP3 GT ISZERO PUSH2 0x36F2 JUMPI PUSH1 0x40 MLOAD PUSH32 0x39A21C5600000000000000000000000000000000000000000000000000000000 DUP2 MSTORE PUSH1 0x4 ADD PUSH1 0x40 MLOAD DUP1 SWAP2 SUB SWAP1 REVERT JUMPDEST DUP3 DUP1 SLOAD PUSH2 0x3BB7 SWAP1 PUSH2 0x47E6 JUMP JUMPDEST SWAP1 PUSH1 0x0 MSTORE PUSH1 0x20 PUSH1 0x0 KECCAK256 SWAP1 PUSH1 0x1F ADD PUSH1 0x20 SWAP1 DIV DUP2 ADD SWAP3 DUP3 PUSH2 0x3BD9 JUMPI PUSH1 0x0 DUP6 SSTORE PUSH2 0x3C1F JUMP JUMPDEST DUP3 PUSH1 0x1F LT PUSH2 0x3BF2 JUMPI DUP1 MLOAD PUSH1 0xFF NOT AND DUP4 DUP1 ADD OR DUP6 SSTORE PUSH2 0x3C1F JUMP JUMPDEST DUP3 DUP1 ADD PUSH1 0x1 ADD DUP6 SSTORE DUP3 ISZERO PUSH2 0x3C1F JUMPI SWAP2 DUP3 ADD JUMPDEST DUP3 DUP2 GT ISZERO PUSH2 0x3C1F JUMPI DUP3 MLOAD DUP3 SSTORE SWAP2 PUSH1 0x20 ADD SWAP2 SWAP1 PUSH1 0x1 ADD SWAP1 PUSH2 0x3C04 JUMP JUMPDEST POP PUSH2 0x36F2 SWAP3 SWAP2 POP PUSH2 0x3E04 JUMP JUMPDEST DUP3 DUP1 SLOAD DUP3 DUP3 SSTORE SWAP1 PUSH1 0x0 MSTORE PUSH1 0x20 PUSH1 0x0 KECCAK256 SWAP1 DUP2 ADD SWAP3 DUP3 ISZERO PUSH2 0x3C1F JUMPI SWAP2 PUSH1 0x20 MUL DUP3 ADD JUMPDEST DUP3 DUP2 GT ISZERO PUSH2 0x3C1F JUMPI DUP3 MLOAD DUP3 SLOAD PUSH1 0x1 PUSH1 0x1 PUSH1 0xA0 SHL SUB NOT AND PUSH1 0x1 PUSH1 0x1 PUSH1 0xA0 SHL SUB SWAP1 SWAP2 AND OR DUP3 SSTORE PUSH1 0x20 SWAP1 SWAP3 ADD SWAP2 PUSH1 0x1 SWAP1 SWAP2 ADD SWAP1 PUSH2 0x3C4B JUMP JUMPDEST DUP3 DUP1 SLOAD DUP3 DUP3 SSTORE SWAP1 PUSH1 0x0 MSTORE PUSH1 0x20 PUSH1 0x0 KECCAK256 SWAP1 DUP2 ADD SWAP3 DUP3 ISZERO PUSH2 0x3C1F JUMPI SWAP2 PUSH1 0x20 MUL DUP3 ADD DUP3 DUP2 GT ISZERO PUSH2 0x3C1F JUMPI DUP3 MLOAD DUP3 SSTORE SWAP2 PUSH1 0x20 ADD SWAP2 SWAP1 PUSH1 0x1 ADD SWAP1 PUSH2 0x3C04 JUMP JUMPDEST DUP3 DUP1 SLOAD DUP3 DUP3 SSTORE SWAP1 PUSH1 0x0 MSTORE PUSH1 0x20 PUSH1 0x0 KECCAK256 SWAP1 DUP2 ADD SWAP3 DUP3 ISZERO PUSH2 0x3D07 JUMPI SWAP2 PUSH1 0x20 MUL DUP3 ADD JUMPDEST DUP3 DUP2 GT ISZERO PUSH2 0x3D07 JUMPI DUP3 MLOAD DUP1 MLOAD PUSH2 0x3CF7 SWAP2 DUP5 SWAP2 PUSH1 0x20 SWAP1 SWAP2 ADD SWAP1 PUSH2 0x3BAB JUMP JUMPDEST POP SWAP2 PUSH1 0x20 ADD SWAP2 SWAP1 PUSH1 0x1 ADD SWAP1 PUSH2 0x3CDA JUMP JUMPDEST POP PUSH2 0x36F2 SWAP3 SWAP2 POP PUSH2 0x3E19 JUMP JUMPDEST POP DUP1 SLOAD PUSH2 0x3D1F SWAP1 PUSH2 0x47E6 JUMP JUMPDEST PUSH1 0x0 DUP3 SSTORE DUP1 PUSH1 0x1F LT PUSH2 0x3D2F JUMPI POP POP JUMP JUMPDEST PUSH1 0x1F ADD PUSH1 0x20 SWAP1 DIV SWAP1 PUSH1 0x0 MSTORE PUSH1 0x20 PUSH1 0x0 KECCAK256 SWAP1 DUP2 ADD SWAP1 PUSH2 0xF6A SWAP2 SWAP1 PUSH2 0x3E04 JUMP JUMPDEST POP DUP1 SLOAD PUSH1 0x0 DUP3 SSTORE SWAP1 PUSH1 0x0 MSTORE PUSH1 0x20 PUSH1 0x0 KECCAK256 SWAP1 DUP2 ADD SWAP1 PUSH2 0xF6A SWAP2 SWAP1 PUSH2 0x3E04 JUMP JUMPDEST POP DUP1 SLOAD PUSH1 0x0 DUP3 SSTORE SWAP1 PUSH1 0x0 MSTORE PUSH1 0x20 PUSH1 0x0 KECCAK256 SWAP1 DUP2 ADD SWAP1 PUSH2 0xF6A SWAP2 SWAP1 PUSH2 0x3E19 JUMP JUMPDEST DUP3 DUP1 SLOAD PUSH2 0x3D95 SWAP1 PUSH2 0x47E6 JUMP JUMPDEST SWAP1 PUSH1 0x0 MSTORE PUSH1 0x20 PUSH1 0x0 KECCAK256 SWAP1 PUSH1 0x1F ADD PUSH1 0x20 SWAP1 DIV DUP2 ADD SWAP3 DUP3 PUSH2 0x3DB7 JUMPI PUSH1 0x0 DUP6 SSTORE PUSH2 0x3C1F JUMP JUMPDEST DUP3 PUSH1 0x1F LT PUSH2 0x3DC8 JUMPI DUP1 SLOAD DUP6 SSTORE PUSH2 0x3C1F JUMP JUMPDEST DUP3 DUP1 ADD PUSH1 0x1 ADD DUP6 SSTORE DUP3 ISZERO PUSH2 0x3C1F JUMPI PUSH1 0x0 MSTORE PUSH1 0x20 PUSH1 0x0 KECCAK256 SWAP2 PUSH1 0x1F ADD PUSH1 0x20 SWAP1 DIV DUP3 ADD JUMPDEST DUP3 DUP2 GT ISZERO PUSH2 0x3C1F JUMPI DUP3 SLOAD DUP3 SSTORE SWAP2 PUSH1 0x1 ADD SWAP2 SWAP1 PUSH1 0x1 ADD SWAP1 PUSH2 0x3DE9 JUMP JUMPDEST JUMPDEST DUP1 DUP3 GT ISZERO PUSH2 0x36F2 JUMPI PUSH1 0x0 DUP2 SSTORE PUSH1 0x1 ADD PUSH2 0x3E05 JUMP JUMPDEST DUP1 DUP3 GT ISZERO PUSH2 0x36F2 JUMPI PUSH1 0x0 PUSH2 0x3E2D DUP3 DUP3 PUSH2 0x3D13 JUMP JUMPDEST POP PUSH1 0x1 ADD PUSH2 0x3E19 JUMP JUMPDEST PUSH1 0x0 PUSH1 0x20 DUP3 DUP5 SUB SLT ISZERO PUSH2 0x3E48 JUMPI PUSH1 0x0 DUP1 REVERT JUMPDEST POP CALLDATALOAD SWAP2 SWAP1 POP JUMP JUMPDEST PUSH4 0x4E487B71 PUSH1 0xE0 SHL PUSH1 0x0 MSTORE PUSH1 0x21 PUSH1 0x4 MSTORE PUSH1 0x24 PUSH1 0x0 REVERT JUMPDEST PUSH1 0x0 DUP2 MLOAD DUP1 DUP5 MSTORE PUSH1 0x0 JUMPDEST DUP2 DUP2 LT ISZERO PUSH2 0x3E8B JUMPI PUSH1 0x20 DUP2 DUP6 ADD DUP2 ADD MLOAD DUP7 DUP4 ADD DUP3 ADD MSTORE ADD PUSH2 0x3E6F JUMP JUMPDEST DUP2 DUP2 GT ISZERO PUSH2 0x3E9D JUMPI PUSH1 0x0 PUSH1 0x20 DUP4 DUP8 ADD ADD MSTORE JUMPDEST POP PUSH1 0x1F ADD PUSH1 0x1F NOT AND SWAP3 SWAP1 SWAP3 ADD PUSH1 0x20 ADD SWAP3 SWAP2 POP POP JUMP JUMPDEST PUSH1 0x0 PUSH1 0xB DUP10 LT PUSH2 0x3EC4 JUMPI PUSH2 0x3EC4 PUSH2 0x3E4F JUMP JUMPDEST DUP9 DUP3 MSTORE PUSH1 0xE0 PUSH1 0x20 DUP4 ADD MSTORE PUSH2 0x3EDB PUSH1 0xE0 DUP4 ADD DUP10 PUSH2 0x3E65 JUMP JUMPDEST PUSH1 0x40 DUP4 ADD SWAP8 SWAP1 SWAP8 MSTORE POP PUSH1 0x1 PUSH1 0x1 PUSH1 0x60 SHL SUB SWAP5 DUP6 AND PUSH1 0x60 DUP3 ADD MSTORE SWAP3 SWAP1 SWAP4 AND PUSH1 0x80 DUP4 ADD MSTORE PUSH4 0xFFFFFFFF AND PUSH1 0xA0 DUP3 ADD MSTORE PUSH1 0x1 PUSH1 0x1 PUSH1 0xA0 SHL SUB SWAP1 SWAP2 AND PUSH1 0xC0 SWAP1 SWAP2 ADD MSTORE SWAP3 SWAP2 POP POP JUMP JUMPDEST PUSH1 0x20 DUP2 MSTORE PUSH1 0x0 PUSH2 0xF3A PUSH1 0x20 DUP4 ADD DUP5 PUSH2 0x3E65 JUMP JUMPDEST DUP1 CALLDATALOAD PUSH1 0x1 PUSH1 0x1 PUSH1 0xA0 SHL SUB DUP2 AND DUP2 EQ PUSH2 0x3F49 JUMPI PUSH1 0x0 DUP1 REVERT JUMPDEST SWAP2 SWAP1 POP JUMP JUMPDEST PUSH1 0x0 DUP1 PUSH1 0x40 DUP4 DUP6 SUB SLT ISZERO PUSH2 0x3F61 JUMPI PUSH1 0x0 DUP1 REVERT JUMPDEST PUSH2 0x3F6A DUP4 PUSH2 0x3F32 JUMP JUMPDEST SWAP5 PUSH1 0x20 SWAP4 SWAP1 SWAP4 ADD CALLDATALOAD SWAP4 POP POP POP JUMP JUMPDEST PUSH1 0x0 DUP1 DUP4 PUSH1 0x1F DUP5 ADD SLT PUSH2 0x3F8A JUMPI PUSH1 0x0 DUP1 REVERT JUMPDEST POP DUP2 CALLDATALOAD PUSH8 0xFFFFFFFFFFFFFFFF DUP2 GT ISZERO PUSH2 0x3FA2 JUMPI PUSH1 0x0 DUP1 REVERT JUMPDEST PUSH1 0x20 DUP4 ADD SWAP2 POP DUP4 PUSH1 0x20 DUP3 DUP6 ADD ADD GT ISZERO PUSH2 0x3FBA JUMPI PUSH1 0x0 DUP1 REVERT JUMPDEST SWAP3 POP SWAP3 SWAP1 POP JUMP JUMPDEST PUSH1 0x0 DUP1 PUSH1 0x0 DUP1 PUSH1 0x0 PUSH1 0x80 DUP7 DUP9 SUB SLT ISZERO PUSH2 0x3FD9 JUMPI PUSH1 0x0 DUP1 REVERT JUMPDEST PUSH2 0x3FE2 DUP7 PUSH2 0x3F32 JUMP JUMPDEST SWAP5 POP PUSH2 0x3FF0 PUSH1 0x20 DUP8 ADD PUSH2 0x3F32 JUMP JUMPDEST SWAP4 POP PUSH1 0x40 DUP7 ADD CALLDATALOAD SWAP3 POP PUSH1 0x60 DUP7 ADD CALLDATALOAD PUSH8 0xFFFFFFFFFFFFFFFF DUP2 GT ISZERO PUSH2 0x4013 JUMPI PUSH1 0x0 DUP1 REVERT JUMPDEST PUSH2 0x401F DUP9 DUP3 DUP10 ADD PUSH2 0x3F78 JUMP JUMPDEST SWAP7 SWAP10 SWAP6 SWAP9 POP SWAP4 SWAP7 POP SWAP3 SWAP5 SWAP4 SWAP3 POP POP POP JUMP JUMPDEST DUP1 CALLDATALOAD DUP1 ISZERO ISZERO DUP2 EQ PUSH2 0x3F49 JUMPI PUSH1 0x0 DUP1 REVERT JUMPDEST DUP1 CALLDATALOAD PUSH1 0xFF DUP2 AND DUP2 EQ PUSH2 0x3F49 JUMPI PUSH1 0x0 DUP1 REVERT JUMPDEST PUSH1 0x0 DUP1 PUSH1 0x0 DUP1 PUSH1 0x0 DUP1 PUSH1 0xC0 DUP8 DUP10 SUB SLT ISZERO PUSH2 0x406A JUMPI PUSH1 0x0 DUP1 REVERT JUMPDEST PUSH2 0x4073 DUP8 PUSH2 0x3F32 JUMP JUMPDEST SWAP6 POP PUSH1 0x20 DUP8 ADD CALLDATALOAD SWAP5 POP PUSH2 0x4088 PUSH1 0x40 DUP9 ADD PUSH2 0x4030 JUMP JUMPDEST SWAP4 POP PUSH2 0x4096 PUSH1 0x60 DUP9 ADD PUSH2 0x4040 JUMP JUMPDEST SWAP3 POP PUSH1 0x80 DUP8 ADD CALLDATALOAD SWAP2 POP PUSH1 0xA0 DUP8 ADD CALLDATALOAD SWAP1 POP SWAP3 SWAP6 POP SWAP3 SWAP6 POP SWAP3 SWAP6 JUMP JUMPDEST PUSH1 0x0 DUP1 PUSH1 0x0 PUSH1 0x60 DUP5 DUP7 SUB SLT ISZERO PUSH2 0x40C5 JUMPI PUSH1 0x0 DUP1 REVERT JUMPDEST PUSH2 0x40CE DUP5 PUSH2 0x3F32 JUMP JUMPDEST SWAP3 POP PUSH2 0x40DC PUSH1 0x20 DUP6 ADD PUSH2 0x3F32 JUMP JUMPDEST SWAP2 POP PUSH1 0x40 DUP5 ADD CALLDATALOAD SWAP1 POP SWAP3 POP SWAP3 POP SWAP3 JUMP JUMPDEST PUSH1 0x0 PUSH1 0x20 DUP3 DUP5 SUB SLT ISZERO PUSH2 0x40FE JUMPI PUSH1 0x0 DUP1 REVERT JUMPDEST PUSH2 0xF3A DUP3 PUSH2 0x3F32 JUMP JUMPDEST PUSH1 0x0 DUP1 PUSH1 0x40 DUP4 DUP6 SUB SLT ISZERO PUSH2 0x411A JUMPI PUSH1 0x0 DUP1 REVERT JUMPDEST DUP3 CALLDATALOAD SWAP2 POP PUSH2 0x412A PUSH1 0x20 DUP5 ADD PUSH2 0x3F32 JUMP JUMPDEST SWAP1 POP SWAP3 POP SWAP3 SWAP1 POP JUMP JUMPDEST PUSH1 0x0 DUP2 MLOAD DUP1 DUP5 MSTORE PUSH1 0x20 DUP1 DUP6 ADD DUP1 DUP2 SWAP7 POP DUP4 PUSH1 0x5 SHL DUP2 ADD SWAP2 POP DUP3 DUP7 ADD PUSH1 0x0 JUMPDEST DUP6 DUP2 LT ISZERO PUSH2 0x417B JUMPI DUP3 DUP5 SUB DUP10 MSTORE PUSH2 0x4169 DUP5 DUP4 MLOAD PUSH2 0x3E65 JUMP JUMPDEST SWAP9 DUP6 ADD SWAP9 SWAP4 POP SWAP1 DUP5 ADD SWAP1 PUSH1 0x1 ADD PUSH2 0x4151 JUMP JUMPDEST POP SWAP2 SWAP8 SWAP7 POP POP POP POP POP POP POP JUMP JUMPDEST PUSH1 0x60 DUP1 DUP3 MSTORE DUP5 MLOAD SWAP1 DUP3 ADD DUP2 SWAP1 MSTORE PUSH1 0x0 SWAP1 PUSH1 0x20 SWAP1 PUSH1 0x80 DUP5 ADD SWAP1 DUP3 DUP9 ADD DUP5 JUMPDEST DUP3 DUP2 LT ISZERO PUSH2 0x41CA JUMPI DUP2 MLOAD PUSH1 0x1 PUSH1 0x1 PUSH1 0xA0 SHL SUB AND DUP5 MSTORE SWAP3 DUP5 ADD SWAP3 SWAP1 DUP5 ADD SWAP1 PUSH1 0x1 ADD PUSH2 0x41A5 JUMP JUMPDEST POP POP POP DUP4 DUP2 SUB DUP3 DUP6 ADD MSTORE DUP6 MLOAD DUP1 DUP3 MSTORE DUP7 DUP4 ADD SWAP2 DUP4 ADD SWAP1 PUSH1 0x0 JUMPDEST DUP2 DUP2 LT ISZERO PUSH2 0x41FF JUMPI DUP4 MLOAD DUP4 MSTORE SWAP3 DUP5 ADD SWAP3 SWAP2 DUP5 ADD SWAP2 PUSH1 0x1 ADD PUSH2 0x41E3 JUMP JUMPDEST POP POP DUP5 DUP2 SUB PUSH1 0x40 DUP7 ADD MSTORE PUSH2 0x4213 DUP2 DUP8 PUSH2 0x4133 JUMP JUMPDEST SWAP9 SWAP8 POP POP POP POP POP POP POP POP JUMP JUMPDEST DUP1 CALLDATALOAD PUSH1 0xB DUP2 LT PUSH2 0x3F49 JUMPI PUSH1 0x0 DUP1 REVERT JUMPDEST PUSH1 0x0 PUSH1 0x20 DUP3 DUP5 SUB SLT ISZERO PUSH2 0x4240 JUMPI PUSH1 0x0 DUP1 REVERT JUMPDEST PUSH2 0xF3A DUP3 PUSH2 0x421F JUMP JUMPDEST PUSH1 0x20 DUP2 ADD PUSH1 0x4 DUP4 LT PUSH2 0x425D JUMPI PUSH2 0x425D PUSH2 0x3E4F JUMP JUMPDEST SWAP2 SWAP1 MSTORE SWAP1 JUMP JUMPDEST PUSH1 0x0 DUP1 DUP4 PUSH1 0x1F DUP5 ADD SLT PUSH2 0x4275 JUMPI PUSH1 0x0 DUP1 REVERT JUMPDEST POP DUP2 CALLDATALOAD PUSH8 0xFFFFFFFFFFFFFFFF DUP2 GT ISZERO PUSH2 0x428D JUMPI PUSH1 0x0 DUP1 REVERT JUMPDEST PUSH1 0x20 DUP4 ADD SWAP2 POP DUP4 PUSH1 0x20 DUP3 PUSH1 0x5 SHL DUP6 ADD ADD GT ISZERO PUSH2 0x3FBA JUMPI PUSH1 0x0 DUP1 REVERT JUMPDEST PUSH1 0x0 DUP1 PUSH1 0x0 DUP1 PUSH1 0x0 DUP1 PUSH1 0x0 DUP1 PUSH1 0x0 PUSH1 0xA0 DUP11 DUP13 SUB SLT ISZERO PUSH2 0x42C6 JUMPI PUSH1 0x0 DUP1 REVERT JUMPDEST PUSH2 0x42CF DUP11 PUSH2 0x421F JUMP JUMPDEST SWAP9 POP PUSH1 0x20 DUP11 ADD CALLDATALOAD PUSH8 0xFFFFFFFFFFFFFFFF DUP1 DUP3 GT ISZERO PUSH2 0x42EC JUMPI PUSH1 0x0 DUP1 REVERT JUMPDEST PUSH2 0x42F8 DUP14 DUP4 DUP15 ADD PUSH2 0x3F78 JUMP JUMPDEST SWAP1 SWAP11 POP SWAP9 POP PUSH1 0x40 DUP13 ADD CALLDATALOAD SWAP2 POP DUP1 DUP3 GT ISZERO PUSH2 0x4311 JUMPI PUSH1 0x0 DUP1 REVERT JUMPDEST PUSH2 0x431D DUP14 DUP4 DUP15 ADD PUSH2 0x4263 JUMP JUMPDEST SWAP1 SWAP9 POP SWAP7 POP PUSH1 0x60 DUP13 ADD CALLDATALOAD SWAP2 POP DUP1 DUP3 GT ISZERO PUSH2 0x4336 JUMPI PUSH1 0x0 DUP1 REVERT JUMPDEST PUSH2 0x4342 DUP14 DUP4 DUP15 ADD PUSH2 0x4263 JUMP JUMPDEST SWAP1 SWAP7 POP SWAP5 POP PUSH1 0x80 DUP13 ADD CALLDATALOAD SWAP2 POP DUP1 DUP3 GT ISZERO PUSH2 0x435B JUMPI PUSH1 0x0 DUP1 REVERT JUMPDEST POP PUSH2 0x4368 DUP13 DUP3 DUP14 ADD PUSH2 0x4263 JUMP JUMPDEST SWAP2 POP DUP1 SWAP4 POP POP DUP1 SWAP2 POP POP SWAP3 SWAP6 SWAP9 POP SWAP3 SWAP6 SWAP9 POP SWAP3 SWAP6 SWAP9 JUMP JUMPDEST PUSH1 0x0 DUP1 PUSH1 0x0 DUP1 PUSH1 0x0 DUP1 PUSH1 0x0 DUP1 PUSH1 0xA0 DUP10 DUP12 SUB SLT ISZERO PUSH2 0x439B JUMPI PUSH1 0x0 DUP1 REVERT JUMPDEST PUSH2 0x43A4 DUP10 PUSH2 0x3F32 JUMP JUMPDEST SWAP8 POP PUSH2 0x43B2 PUSH1 0x20 DUP11 ADD PUSH2 0x3F32 JUMP JUMPDEST SWAP7 POP PUSH1 0x40 DUP10 ADD CALLDATALOAD PUSH8 0xFFFFFFFFFFFFFFFF DUP1 DUP3 GT ISZERO PUSH2 0x43CF JUMPI PUSH1 0x0 DUP1 REVERT JUMPDEST PUSH2 0x43DB DUP13 DUP4 DUP14 ADD PUSH2 0x4263 JUMP JUMPDEST SWAP1 SWAP9 POP SWAP7 POP PUSH1 0x60 DUP12 ADD CALLDATALOAD SWAP2 POP DUP1 DUP3 GT ISZERO PUSH2 0x43F4 JUMPI PUSH1 0x0 DUP1 REVERT JUMPDEST PUSH2 0x4400 DUP13 DUP4 DUP14 ADD PUSH2 0x4263 JUMP JUMPDEST SWAP1 SWAP7 POP SWAP5 POP PUSH1 0x80 DUP12 ADD CALLDATALOAD SWAP2 POP DUP1 DUP3 GT ISZERO PUSH2 0x4419 JUMPI PUSH1 0x0 DUP1 REVERT JUMPDEST POP PUSH2 0x4426 DUP12 DUP3 DUP13 ADD PUSH2 0x3F78 JUMP JUMPDEST SWAP10 SWAP13 SWAP9 SWAP12 POP SWAP7 SWAP10 POP SWAP5 SWAP8 SWAP4 SWAP7 SWAP3 SWAP6 SWAP5 POP POP POP JUMP JUMPDEST PUSH1 0x0 DUP1 PUSH1 0x0 DUP1 PUSH1 0x0 DUP1 PUSH1 0xC0 DUP8 DUP10 SUB SLT ISZERO PUSH2 0x4453 JUMPI PUSH1 0x0 DUP1 REVERT JUMPDEST PUSH2 0x445C DUP8 PUSH2 0x3F32 JUMP JUMPDEST SWAP6 POP PUSH1 0x20 DUP8 ADD CALLDATALOAD SWAP5 POP PUSH1 0x40 DUP8 ADD CALLDATALOAD SWAP4 POP PUSH2 0x4096 PUSH1 0x60 DUP9 ADD PUSH2 0x4040 JUMP JUMPDEST PUSH1 0x0 DUP1 PUSH1 0x40 DUP4 DUP6 SUB SLT ISZERO PUSH2 0x448B JUMPI PUSH1 0x0 DUP1 REVERT JUMPDEST DUP3 CALLDATALOAD SWAP2 POP PUSH2 0x412A PUSH1 0x20 DUP5 ADD PUSH2 0x4030 JUMP JUMPDEST PUSH1 0x0 DUP1 PUSH1 0x0 DUP1 PUSH1 0x0 DUP1 PUSH1 0x0 PUSH1 0xE0 DUP9 DUP11 SUB SLT ISZERO PUSH2 0x44B6 JUMPI PUSH1 0x0 DUP1 REVERT JUMPDEST PUSH2 0x44BF DUP9 PUSH2 0x3F32 JUMP JUMPDEST SWAP7 POP PUSH2 0x44CD PUSH1 0x20 DUP10 ADD PUSH2 0x3F32 JUMP JUMPDEST SWAP6 POP PUSH1 0x40 DUP9 ADD CALLDATALOAD SWAP5 POP PUSH1 0x60 DUP9 ADD CALLDATALOAD SWAP4 POP PUSH2 0x44E9 PUSH1 0x80 DUP10 ADD PUSH2 0x4040 JUMP JUMPDEST SWAP3 POP PUSH1 0xA0 DUP9 ADD CALLDATALOAD SWAP2 POP PUSH1 0xC0 DUP9 ADD CALLDATALOAD SWAP1 POP SWAP3 SWAP6 SWAP9 SWAP2 SWAP5 SWAP8 POP SWAP3 SWAP6 POP JUMP JUMPDEST PUSH1 0x0 DUP1 PUSH1 0x40 DUP4 DUP6 SUB SLT ISZERO PUSH2 0x4518 JUMPI PUSH1 0x0 DUP1 REVERT JUMPDEST PUSH2 0x4521 DUP4 PUSH2 0x3F32 JUMP JUMPDEST SWAP2 POP PUSH2 0x412A PUSH1 0x20 DUP5 ADD PUSH2 0x3F32 JUMP JUMPDEST PUSH4 0x4E487B71 PUSH1 0xE0 SHL PUSH1 0x0 MSTORE PUSH1 0x41 PUSH1 0x4 MSTORE PUSH1 0x24 PUSH1 0x0 REVERT JUMPDEST PUSH1 0x40 MLOAD PUSH1 0x1F DUP3 ADD PUSH1 0x1F NOT AND DUP2 ADD PUSH8 0xFFFFFFFFFFFFFFFF DUP2 GT DUP3 DUP3 LT OR ISZERO PUSH2 0x456E JUMPI PUSH2 0x456E PUSH2 0x452F JUMP JUMPDEST PUSH1 0x40 MSTORE SWAP2 SWAP1 POP JUMP JUMPDEST PUSH1 0x0 PUSH8 0xFFFFFFFFFFFFFFFF DUP4 GT ISZERO PUSH2 0x4590 JUMPI PUSH2 0x4590 PUSH2 0x452F JUMP JUMPDEST PUSH2 0x45A3 PUSH1 0x1F DUP5 ADD PUSH1 0x1F NOT AND PUSH1 0x20 ADD PUSH2 0x4545 JUMP JUMPDEST SWAP1 POP DUP3 DUP2 MSTORE DUP4 DUP4 DUP4 ADD GT ISZERO PUSH2 0x45B7 JUMPI PUSH1 0x0 DUP1 REVERT JUMPDEST DUP3 DUP3 PUSH1 0x20 DUP4 ADD CALLDATACOPY PUSH1 0x0 PUSH1 0x20 DUP5 DUP4 ADD ADD MSTORE SWAP4 SWAP3 POP POP POP JUMP JUMPDEST PUSH1 0x0 DUP3 PUSH1 0x1F DUP4 ADD SLT PUSH2 0x45DF JUMPI PUSH1 0x0 DUP1 REVERT JUMPDEST PUSH2 0xF3A DUP4 DUP4 CALLDATALOAD PUSH1 0x20 DUP6 ADD PUSH2 0x4576 JUMP JUMPDEST PUSH1 0x0 DUP3 PUSH1 0x1F DUP4 ADD SLT PUSH2 0x45FF JUMPI PUSH1 0x0 DUP1 REVERT JUMPDEST PUSH1 0x40 MLOAD PUSH2 0x200 DUP1 DUP3 ADD DUP3 DUP2 LT PUSH8 0xFFFFFFFFFFFFFFFF DUP3 GT OR ISZERO PUSH2 0x4624 JUMPI PUSH2 0x4624 PUSH2 0x452F JUMP JUMPDEST PUSH1 0x40 MSTORE DUP4 ADD DUP2 DUP6 DUP3 GT ISZERO PUSH2 0x4637 JUMPI PUSH1 0x0 DUP1 REVERT JUMPDEST DUP5 JUMPDEST DUP3 DUP2 LT ISZERO PUSH2 0x4664 JUMPI DUP1 CALLDATALOAD PUSH4 0xFFFFFFFF DUP2 AND DUP2 EQ PUSH2 0x4656 JUMPI PUSH1 0x0 DUP1 DUP2 REVERT JUMPDEST DUP3 MSTORE PUSH1 0x20 SWAP2 DUP3 ADD SWAP2 ADD PUSH2 0x4639 JUMP JUMPDEST POP SWAP2 SWAP6 SWAP5 POP POP POP POP POP JUMP JUMPDEST PUSH1 0x0 DUP1 PUSH1 0x0 DUP1 PUSH1 0x0 DUP1 PUSH1 0x0 DUP1 PUSH2 0x2A0 DUP10 DUP12 SUB SLT ISZERO PUSH2 0x468C JUMPI PUSH1 0x0 DUP1 REVERT JUMPDEST DUP9 CALLDATALOAD PUSH8 0xFFFFFFFFFFFFFFFF DUP1 DUP3 GT ISZERO PUSH2 0x46A4 JUMPI PUSH1 0x0 DUP1 REVERT JUMPDEST PUSH2 0x46B0 DUP13 DUP4 DUP14 ADD PUSH2 0x45CE JUMP JUMPDEST SWAP10 POP PUSH1 0x20 DUP12 ADD CALLDATALOAD SWAP2 POP DUP1 DUP3 GT ISZERO PUSH2 0x46C6 JUMPI PUSH1 0x0 DUP1 REVERT JUMPDEST PUSH2 0x46D2 DUP13 DUP4 DUP14 ADD PUSH2 0x45CE JUMP JUMPDEST SWAP9 POP PUSH2 0x46E0 PUSH1 0x40 DUP13 ADD PUSH2 0x4030 JUMP JUMPDEST SWAP8 POP PUSH1 0x60 DUP12 ADD CALLDATALOAD SWAP2 POP DUP1 DUP3 GT ISZERO PUSH2 0x46F6 JUMPI PUSH1 0x0 DUP1 REVERT JUMPDEST PUSH2 0x4702 DUP13 DUP4 DUP14 ADD PUSH2 0x4263 JUMP JUMPDEST SWAP1 SWAP8 POP SWAP6 POP PUSH1 0x80 DUP12 ADD CALLDATALOAD SWAP2 POP DUP1 DUP3 GT ISZERO PUSH2 0x471B JUMPI PUSH1 0x0 DUP1 REVERT JUMPDEST POP PUSH2 0x4728 DUP12 DUP3 DUP13 ADD PUSH2 0x4263 JUMP JUMPDEST SWAP1 SWAP5 POP SWAP3 POP PUSH2 0x473C SWAP1 POP DUP11 PUSH1 0xA0 DUP12 ADD PUSH2 0x45EE JUMP JUMPDEST SWAP1 POP SWAP3 SWAP6 SWAP9 POP SWAP3 SWAP6 SWAP9 SWAP1 SWAP4 SWAP7 POP JUMP JUMPDEST DUP3 ISZERO ISZERO DUP2 MSTORE PUSH1 0x40 PUSH1 0x20 DUP3 ADD MSTORE PUSH1 0x0 PUSH2 0x4766 PUSH1 0x40 DUP4 ADD DUP5 PUSH2 0x4133 JUMP JUMPDEST SWAP5 SWAP4 POP POP POP POP JUMP JUMPDEST PUSH1 0x0 DUP1 PUSH1 0x0 DUP1 PUSH1 0x0 DUP1 PUSH1 0xA0 DUP8 DUP10 SUB SLT ISZERO PUSH2 0x4787 JUMPI PUSH1 0x0 DUP1 REVERT JUMPDEST PUSH2 0x4790 DUP8 PUSH2 0x3F32 JUMP JUMPDEST SWAP6 POP PUSH2 0x479E PUSH1 0x20 DUP9 ADD PUSH2 0x3F32 JUMP JUMPDEST SWAP5 POP PUSH1 0x40 DUP8 ADD CALLDATALOAD SWAP4 POP PUSH1 0x60 DUP8 ADD CALLDATALOAD SWAP3 POP PUSH1 0x80 DUP8 ADD CALLDATALOAD PUSH8 0xFFFFFFFFFFFFFFFF DUP2 GT ISZERO PUSH2 0x47C8 JUMPI PUSH1 0x0 DUP1 REVERT JUMPDEST PUSH2 0x47D4 DUP10 DUP3 DUP11 ADD PUSH2 0x3F78 JUMP JUMPDEST SWAP8 SWAP11 SWAP7 SWAP10 POP SWAP5 SWAP8 POP SWAP3 SWAP6 SWAP4 SWAP5 SWAP3 POP POP POP JUMP JUMPDEST PUSH1 0x1 DUP2 DUP2 SHR SWAP1 DUP3 AND DUP1 PUSH2 0x47FA JUMPI PUSH1 0x7F DUP3 AND SWAP2 POP JUMPDEST PUSH1 0x20 DUP3 LT DUP2 EQ ISZERO PUSH2 0x481B JUMPI PUSH4 0x4E487B71 PUSH1 0xE0 SHL PUSH1 0x0 MSTORE PUSH1 0x22 PUSH1 0x4 MSTORE PUSH1 0x24 PUSH1 0x0 REVERT JUMPDEST POP SWAP2 SWAP1 POP JUMP JUMPDEST PUSH4 0x4E487B71 PUSH1 0xE0 SHL PUSH1 0x0 MSTORE PUSH1 0x11 PUSH1 0x4 MSTORE PUSH1 0x24 PUSH1 0x0 REVERT JUMPDEST PUSH1 0x0 DUP3 DUP3 LT ISZERO PUSH2 0x4849 JUMPI PUSH2 0x4849 PUSH2 0x4821 JUMP JUMPDEST POP SUB SWAP1 JUMP JUMPDEST PUSH4 0x4E487B71 PUSH1 0xE0 SHL PUSH1 0x0 MSTORE PUSH1 0x32 PUSH1 0x4 MSTORE PUSH1 0x24 PUSH1 0x0 REVERT JUMPDEST PUSH1 0x0 PUSH8 0xFFFFFFFFFFFFFFFF DUP1 DUP5 GT ISZERO PUSH2 0x487F JUMPI PUSH2 0x487F PUSH2 0x452F JUMP JUMPDEST DUP4 PUSH1 0x5 SHL PUSH1 0x20 PUSH2 0x4890 DUP2 DUP4 ADD PUSH2 0x4545 JUMP JUMPDEST DUP7 DUP2 MSTORE SWAP2 DUP6 ADD SWAP2 DUP2 DUP2 ADD SWAP1 CALLDATASIZE DUP5 GT ISZERO PUSH2 0x48A8 JUMPI PUSH1 0x0 DUP1 REVERT JUMPDEST DUP7 JUMPDEST DUP5 DUP2 LT ISZERO PUSH2 0x48F0 JUMPI DUP1 CALLDATALOAD DUP7 DUP2 GT ISZERO PUSH2 0x48C2 JUMPI PUSH1 0x0 DUP1 DUP2 REVERT JUMPDEST DUP9 ADD CALLDATASIZE PUSH1 0x1F DUP3 ADD SLT PUSH2 0x48D4 JUMPI PUSH1 0x0 DUP1 DUP2 REVERT JUMPDEST PUSH2 0x48E2 CALLDATASIZE DUP3 CALLDATALOAD DUP8 DUP5 ADD PUSH2 0x4576 JUMP JUMPDEST DUP5 MSTORE POP SWAP2 DUP4 ADD SWAP2 DUP4 ADD PUSH2 0x48AA JUMP JUMPDEST POP SWAP8 SWAP7 POP POP POP POP POP POP POP JUMP JUMPDEST DUP2 DUP4 MSTORE DUP2 DUP2 PUSH1 0x20 DUP6 ADD CALLDATACOPY POP PUSH1 0x0 DUP3 DUP3 ADD PUSH1 0x20 SWAP1 DUP2 ADD SWAP2 SWAP1 SWAP2 MSTORE PUSH1 0x1F SWAP1 SWAP2 ADD PUSH1 0x1F NOT AND SWAP1 SWAP2 ADD ADD SWAP1 JUMP JUMPDEST DUP2 DUP4 MSTORE PUSH1 0x0 PUSH1 0x20 DUP1 DUP6 ADD DUP1 DUP2 SWAP7 POP DUP6 PUSH1 0x5 SHL DUP2 ADD SWAP2 POP DUP5 PUSH1 0x0 JUMPDEST DUP8 DUP2 LT ISZERO PUSH2 0x417B JUMPI DUP3 DUP5 SUB DUP10 MSTORE DUP2 CALLDATALOAD PUSH1 0x1E NOT DUP9 CALLDATASIZE SUB ADD DUP2 SLT PUSH2 0x4960 JUMPI PUSH1 0x0 DUP1 REVERT JUMPDEST DUP8 ADD DUP1 CALLDATALOAD PUSH8 0xFFFFFFFFFFFFFFFF DUP2 GT ISZERO PUSH2 0x4979 JUMPI PUSH1 0x0 DUP1 REVERT JUMPDEST DUP1 CALLDATASIZE SUB DUP10 SGT ISZERO PUSH2 0x4988 JUMPI PUSH1 0x0 DUP1 REVERT JUMPDEST PUSH2 0x4995 DUP7 DUP3 DUP10 DUP6 ADD PUSH2 0x48FC JUMP JUMPDEST SWAP11 DUP8 ADD SWAP11 SWAP6 POP POP POP SWAP1 DUP5 ADD SWAP1 PUSH1 0x1 ADD PUSH2 0x493F JUMP JUMPDEST PUSH1 0x80 DUP2 MSTORE PUSH1 0x0 PUSH2 0x49BD PUSH1 0x80 DUP4 ADD DUP11 DUP13 PUSH2 0x48FC JUMP JUMPDEST DUP3 DUP2 SUB PUSH1 0x20 DUP5 DUP2 ADD SWAP2 SWAP1 SWAP2 MSTORE DUP9 DUP3 MSTORE DUP10 SWAP2 DUP2 ADD PUSH1 0x0 JUMPDEST DUP11 DUP2 LT ISZERO PUSH2 0x49FF JUMPI PUSH1 0x1 PUSH1 0x1 PUSH1 0xA0 SHL SUB PUSH2 0x49EC DUP6 PUSH2 0x3F32 JUMP JUMPDEST AND DUP3 MSTORE SWAP3 DUP3 ADD SWAP3 SWAP1 DUP3 ADD SWAP1 PUSH1 0x1 ADD PUSH2 0x49D3 JUMP JUMPDEST POP DUP5 DUP2 SUB PUSH1 0x40 DUP7 ADD MSTORE DUP8 DUP2 MSTORE PUSH32 0x7FFFFFFFFFFFFFFFFFFFFFFFFFFFFFFFFFFFFFFFFFFFFFFFFFFFFFFFFFFFFFF DUP9 GT ISZERO PUSH2 0x4A38 JUMPI PUSH1 0x0 DUP1 REVERT JUMPDEST DUP8 PUSH1 0x5 SHL SWAP3 POP DUP3 DUP10 DUP4 DUP4 ADD CALLDATACOPY PUSH1 0x0 SWAP3 ADD DUP2 DUP2 ADD SWAP3 DUP4 MSTORE DUP5 DUP2 SUB DUP3 ADD PUSH1 0x60 DUP7 ADD MSTORE SWAP2 PUSH2 0x4A64 DUP2 DUP8 DUP10 PUSH2 0x4925 JUMP JUMPDEST SWAP14 SWAP13 POP POP POP POP POP POP POP POP POP POP POP POP POP JUMP JUMPDEST DUP1 SLOAD PUSH1 0x0 SWAP1 PUSH1 0x1 DUP2 DUP2 SHR SWAP1 DUP1 DUP4 AND DUP1 PUSH2 0x4A8F JUMPI PUSH1 0x7F DUP4 AND SWAP3 POP JUMPDEST PUSH1 0x20 DUP1 DUP5 LT DUP3 EQ ISZERO PUSH2 0x4AB1 JUMPI PUSH4 0x4E487B71 PUSH1 0xE0 SHL PUSH1 0x0 MSTORE PUSH1 0x22 PUSH1 0x4 MSTORE PUSH1 0x24 PUSH1 0x0 REVERT JUMPDEST DUP2 DUP1 ISZERO PUSH2 0x4AC5 JUMPI PUSH1 0x1 DUP2 EQ PUSH2 0x4AD6 JUMPI PUSH2 0x4B02 JUMP JUMPDEST PUSH1 0xFF NOT DUP7 AND DUP10 MSTORE DUP5 DUP10 ADD SWAP7 POP PUSH2 0x4B02 JUMP JUMPDEST DUP8 PUSH1 0x0 MSTORE DUP2 PUSH1 0x0 KECCAK256 PUSH1 0x0 JUMPDEST DUP7 DUP2 LT ISZERO PUSH2 0x4AFA JUMPI DUP2 SLOAD DUP12 DUP3 ADD MSTORE SWAP1 DUP6 ADD SWAP1 DUP4 ADD PUSH2 0x4AE1 JUMP JUMPDEST POP POP DUP5 DUP10 ADD SWAP7 POP JUMPDEST POP POP POP POP POP POP SWAP3 SWAP2 POP POP JUMP JUMPDEST PUSH1 0x0 PUSH2 0xF3A DUP3 DUP5 PUSH2 0x4A75 JUMP JUMPDEST PUSH1 0x0 DUP3 NOT DUP3 GT ISZERO PUSH2 0x4B2D JUMPI PUSH2 0x4B2D PUSH2 0x4821 JUMP JUMPDEST POP ADD SWAP1 JUMP JUMPDEST PUSH1 0x0 DUP2 PUSH1 0x0 NOT DIV DUP4 GT DUP3 ISZERO ISZERO AND ISZERO PUSH2 0x4B4C JUMPI PUSH2 0x4B4C PUSH2 0x4821 JUMP JUMPDEST POP MUL SWAP1 JUMP JUMPDEST PUSH1 0x0 DUP3 PUSH2 0x4B6E JUMPI PUSH4 0x4E487B71 PUSH1 0xE0 SHL PUSH1 0x0 MSTORE PUSH1 0x12 PUSH1 0x4 MSTORE PUSH1 0x24 PUSH1 0x0 REVERT JUMPDEST POP DIV SWAP1 JUMP INVALID LOG2 PUSH5 0x6970667358 0x22 SLT KECCAK256 PUSH12 0xF8145287C40CFAB94B050703 0xB7 0xD5 PUSH32 0xFA8BEF85FCC6D153AA5090F2FDA0CC0264736F6C634300080C00330000000000 "},"methodIdentifiers":{"DELEGATION_TYPEHASH()":"e7a324dc","DOMAIN_SEPARATOR()":"3644e515","PERMIT_TYPEHASH()":"30adf81f","VOTE_HASH()":"7867f727","allowance(address,address)":"dd62ed3e","approve(address,uint256)":"095ea7b3","balanceOf(address)":"70a08231","burn(uint256)":"42966c68","burnFrom(address,uint256)":"79cc6790","cancelProposal(uint256)":"e0a8f6f5","checkpoints(address,uint256)":"0cdfebfa","decimals()":"313ce567","delegate(address)":"5c19a95c","delegateBySig(address,uint256,uint256,uint8,bytes32,bytes32)":"c3cda520","delegates(address)":"587cde1e","docs()":"5b1d1c1f","getCurrentVotes(address)":"b4b5ea57","getPriorVotes(address,uint256)":"782d6fe1","getProposalArrays(uint256)":"6a74effc","gracePeriod()":"a06db7dc","init(string,string,bool,address[],uint256[],uint32[16])":"e16bc768","lastYesVote(address)":"255c87bf","name()":"06fdde03","nonces(address)":"7ecebe00","numCheckpoints(address)":"6fcfff45","onERC1155BatchReceived(address,address,uint256[],uint256[],bytes)":"bc197c81","onERC1155Received(address,address,uint256,uint256,bytes)":"f23a6e61","onERC721Received(address,address,uint256,bytes)":"150b7a02","paused()":"5c975abb","permit(address,address,uint256,uint256,uint8,bytes32,bytes32)":"d505accf","processProposal(uint256)":"e63bc62d","proposalCount()":"da35c664","proposalStates(uint256)":"66ee13b3","proposalVoteTypes(uint8)":"71cda63b","proposals(uint256)":"013cf08b","propose(uint8,string,address[],uint256[],bytes[])":"9b4a89ce","quorum()":"1703a018","sponsorProposal(uint256)":"9746d940","supermajority()":"5c31f220","symbol()":"95d89b41","totalSupply()":"18160ddd","transfer(address,uint256)":"a9059cbb","transferFrom(address,address,uint256)":"23b872dd","vote(uint256,bool)":"c9d27afe","voteBySig(address,uint256,bool,uint8,bytes32,bytes32)":"1a9f0597","voted(uint256,address)":"5277b4ae","votingPeriod()":"02a251a3"}}}}}