{
  "_format": "hh-sol-artifact-1",
  "contractName": "UniOwnPool",
  "sourceName": "contracts/Pool/UniOwnPool.sol",
  "abi": [
    {
      "inputs": [
        {
          "internalType": "uint256",
          "name": "",
          "type": "uint256"
        }
      ],
      "name": "allAmounts",
      "outputs": [
        {
          "internalType": "uint256",
          "name": "",
          "type": "uint256"
        }
      ],
      "stateMutability": "view",
      "type": "function"
    },
    {
      "inputs": [
        {
          "internalType": "uint256",
          "name": "",
          "type": "uint256"
        }
      ],
      "name": "allParticiapnts",
      "outputs": [
        {
          "internalType": "address",
          "name": "",
          "type": "address"
        }
      ],
      "stateMutability": "view",
      "type": "function"
    },
    {
      "inputs": [
        {
          "internalType": "uint256",
          "name": "amount",
          "type": "uint256"
        }
      ],
      "name": "deposit",
      "outputs": [],
      "stateMutability": "payable",
      "type": "function"
    },
    {
      "inputs": [],
      "name": "factory",
      "outputs": [
        {
          "internalType": "address",
          "name": "",
          "type": "address"
        }
      ],
      "stateMutability": "view",
      "type": "function"
    },
    {
      "inputs": [
        {
          "internalType": "uint256",
          "name": "_maxAmount",
          "type": "uint256"
        },
        {
          "internalType": "address",
          "name": "_collection",
          "type": "address"
        },
        {
          "internalType": "uint256",
          "name": "_tokenId",
          "type": "uint256"
        },
        {
          "internalType": "uint256",
          "name": "_fundrasingTime",
          "type": "uint256"
        },
        {
          "internalType": "uint256",
          "name": "_minParticipation",
          "type": "uint256"
        },
        {
          "internalType": "uint256",
          "name": "_itemId",
          "type": "uint256"
        },
        {
          "internalType": "address",
          "name": "_marketplace",
          "type": "address"
        }
      ],
      "name": "init",
      "outputs": [],
      "stateMutability": "nonpayable",
      "type": "function"
    },
    {
      "inputs": [
        {
          "internalType": "address",
          "name": "",
          "type": "address"
        }
      ],
      "name": "isParticipated",
      "outputs": [
        {
          "internalType": "bool",
          "name": "",
          "type": "bool"
        }
      ],
      "stateMutability": "view",
      "type": "function"
    },
    {
      "inputs": [],
      "name": "pool",
      "outputs": [
        {
          "internalType": "uint256",
          "name": "maxAmount",
          "type": "uint256"
        },
        {
          "internalType": "uint256",
          "name": "totalAmount",
          "type": "uint256"
        },
        {
          "internalType": "uint256",
          "name": "tokenId",
          "type": "uint256"
        },
        {
          "internalType": "uint256",
          "name": "endTime",
          "type": "uint256"
        },
        {
          "internalType": "uint256",
          "name": "minParticipation",
          "type": "uint256"
        },
        {
          "internalType": "uint256",
          "name": "itemId",
          "type": "uint256"
        },
        {
          "internalType": "address",
          "name": "collection",
          "type": "address"
        },
        {
          "internalType": "address",
          "name": "marketplace",
          "type": "address"
        },
        {
          "internalType": "bool",
          "name": "poolFinished",
          "type": "bool"
        },
        {
          "internalType": "bool",
          "name": "poolSuccessful",
          "type": "bool"
        }
      ],
      "stateMutability": "view",
      "type": "function"
    },
    {
      "inputs": [
        {
          "internalType": "address",
          "name": "",
          "type": "address"
        }
      ],
      "name": "userToAmount",
      "outputs": [
        {
          "internalType": "uint256",
          "name": "",
          "type": "uint256"
        }
      ],
      "stateMutability": "view",
      "type": "function"
    },
    {
      "inputs": [],
      "name": "withdrawUserFundsIfSaleCancelled",
      "outputs": [],
      "stateMutability": "nonpayable",
      "type": "function"
    }
  ],
  "bytecode": "0x608060405234801561001057600080fd5b50610d99806100206000396000f3fe6080604052600436106100965760003560e01c8063b6b55f2511610069578063cf5b8d4b1161004e578063cf5b8d4b1461020d578063f83f32321461024d578063faf319f21461026d57600080fd5b8063b6b55f25146101da578063c45a0155146101ed57600080fd5b806316f0115b1461009b5780633c624b97146101505780635565fb56146101885780638f08220f146101c3575b600080fd5b3480156100a757600080fd5b506000546001546002546003546004546005546006546007546100f1979695949392916001600160a01b03908116919081169060ff600160a01b8204811691600160a81b9004168a565b604080519a8b5260208b0199909952978901969096526060880194909452608087019290925260a08601526001600160a01b0390811660c08601521660e084015215156101008301521515610120820152610140015b60405180910390f35b34801561015c57600080fd5b5061017061016b366004610af3565b61028d565b6040516001600160a01b039091168152602001610147565b34801561019457600080fd5b506101b56101a3366004610b21565b600b6020526000908152604090205481565b604051908152602001610147565b3480156101cf57600080fd5b506101d86102b7565b005b6101d86101e8366004610af3565b6103fd565b3480156101f957600080fd5b50600854610170906001600160a01b031681565b34801561021957600080fd5b5061023d610228366004610b21565b600c6020526000908152604090205460ff1681565b6040519015158152602001610147565b34801561025957600080fd5b506101b5610268366004610af3565b6106ba565b34801561027957600080fd5b506101d8610288366004610b45565b6106db565b6009818154811061029d57600080fd5b6000918252602090912001546001600160a01b0316905081565b600754600160a01b900460ff16151560011480156102df5750600754600160a81b900460ff16155b6103305760405162461bcd60e51b815260206004820152601660248201527f506f6f6c207761736e27742063616e63656c6c65642e0000000000000000000060448201526064015b60405180910390fd5b336000908152600c602052604090205460ff1661038f5760405162461bcd60e51b815260206004820152601460248201527f446964206e6f742070617274696369706174652e0000000000000000000000006044820152606401610327565b6003544210156103e15760405162461bcd60e51b815260206004820152601560248201527f506f6f6c206973207374696c6c2072756e6e696e6700000000000000000000006044820152606401610327565b336000818152600b60205260409020546103fb9190610892565b565b60035442108015906104195750600754600160a01b900460ff16155b1561044d57600780547fffffffffffffffffffffff00ffffffffffffffffffffffffffffffffffffffff16600160a01b1790555b60035442111561049f5760405162461bcd60e51b815260206004820152600b60248201527f506f6f6c20636c6f7365640000000000000000000000000000000000000000006044820152606401610327565b803410156104ef5760405162461bcd60e51b815260206004820152601360248201527f4e6f7420656e6f756768204249542073656e74000000000000000000000000006044820152606401610327565b6004543410156105675760405162461bcd60e51b815260206004820152603360248201527f54686520616d6f756e742073686f75646c6e2774206265206c6573732074686160448201527f6e206d696e2061707274696369706174696f6e000000000000000000000000006064820152608401610327565b600054600154610578903490610bae565b11156105c65760405162461bcd60e51b815260206004820152601760248201527f4578636565647320706f6f6c206d617820616d6f756e740000000000000000006044820152606401610327565b336000908152600b60205260408120349081905560018054919290916105ed908490610bae565b90915550506009805460018181019092557f6e1540171b6c0c960b71a7020d9f60077f6af931a8bbf590da0223dacf75c7af01805473ffffffffffffffffffffffffffffffffffffffff191633908117909155600a80549283019055347fc65a7bb8d6351c1cf70c95a316cc6a92839c986682d98bc35f958f4883f9d2a8909201919091556000908152600c602052604090205460ff166106a357336000908152600c60205260409020805460ff191660011790555b60005460015414156106b7576106b7610911565b50565b600a81815481106106ca57600080fd5b600091825260209091200154905081565b866107285760405162461bcd60e51b815260206004820152601660248201527f546f74616c20416d6f756e742063616e742062652030000000000000000000006044820152606401610327565b6001600160a01b03861661077e5760405162461bcd60e51b815260206004820152601460248201527f4164647265737320302076616c69646174696f6e0000000000000000000000006044820152606401610327565b826107cb5760405162461bcd60e51b815260206004820152601b60248201527f4d696e2050617274696369706174696f6e2063616e74206265203000000000006044820152606401610327565b836108185760405162461bcd60e51b815260206004820152601960248201527f46756e64726173696e672074696d652063616e742062652030000000000000006044820152606401610327565b600087905560028590556006805473ffffffffffffffffffffffffffffffffffffffff19166001600160a01b0388161790556108548442610bae565b6003556004929092556005556007805473ffffffffffffffffffffffffffffffffffffffff19166001600160a01b0390921691909117905550505050565b604080516000808252602082019092526001600160a01b0384169083906040516108bc9190610bed565b60006040518083038185875af1925050503d80600081146108f9576040519150601f19603f3d011682016040523d82523d6000602084013e6108fe565b606091505b505090508061090c57600080fd5b505050565b6007546005546040517fe7fb74c70000000000000000000000000000000000000000000000000000000081526001600160a01b039092169163e7fb74c79161095f9160040190815260200190565b600060405180830381600087803b15801561097957600080fd5b505af115801561098d573d6000803e3d6000fd5b50506008546040517f72f76921000000000000000000000000000000000000000000000000000000008152600093506001600160a01b0390911691506372f76921906109e3908490600990600a90600401610c68565b6020604051808303816000875af1158015610a02573d6000803e3d6000fd5b505050506040513d601f19601f82011682018060405250810190610a269190610d46565b6006546002546040517f23b872dd0000000000000000000000000000000000000000000000000000000081523060048201526001600160a01b038085166024830152604482019290925292935016906323b872dd90606401600060405180830381600087803b158015610a9857600080fd5b505af1158015610aac573d6000803e3d6000fd5b5050600780547fffffffffffffffffffff0000ffffffffffffffffffffffffffffffffffffffff167501010000000000000000000000000000000000000000179055505050565b600060208284031215610b0557600080fd5b5035919050565b6001600160a01b03811681146106b757600080fd5b600060208284031215610b3357600080fd5b8135610b3e81610b0c565b9392505050565b600080600080600080600060e0888a031215610b6057600080fd5b873596506020880135610b7281610b0c565b955060408801359450606088013593506080880135925060a0880135915060c0880135610b9e81610b0c565b8091505092959891949750929550565b60008219821115610be8577f4e487b7100000000000000000000000000000000000000000000000000000000600052601160045260246000fd5b500190565b6000825160005b81811015610c0e5760208186018101518583015201610bf4565b81811115610c1d576000828501525b509190910192915050565b6000815480845260208085019450836000528060002060005b83811015610c5d57815487529582019560019182019101610c41565b509495945050505050565b60a08152600960a08201527f556e694f776e44414f000000000000000000000000000000000000000000000060c08201526000602060e081840152600360e08401527f554e49000000000000000000000000000000000000000000000000000000000061010084015261012080840187151560408601528160608601528091508654808252610140860192508760005283600020915060005b81811015610d265782546001600160a01b031684529284019260019283019201610d01565b5050508381036080850152610d3b8186610c28565b979650505050505050565b600060208284031215610d5857600080fd5b8151610b3e81610b0c56fea26469706673582212207c483e1125a409d4c4e1888d18a4532fdfcb277402b5824609cd0b0f1aab548164736f6c634300080c0033",
  "linkReferences": {},
  "deployedLinkReferences": {}
}